{
  "contractName": "AirdropClaim",
  "abi": [
    {
      "inputs": [
        {
          "internalType": "address",
          "name": "airdropToken_",
          "type": "address"
        }
      ],
      "stateMutability": "nonpayable",
      "type": "constructor"
    },
    {
      "anonymous": false,
      "inputs": [
        {
          "indexed": false,
          "internalType": "uint256",
          "name": "claimId_",
          "type": "uint256"
        },
        {
          "indexed": false,
          "internalType": "address",
          "name": "add_",
          "type": "address"
        },
        {
          "indexed": false,
          "internalType": "uint256",
          "name": "amount_",
          "type": "uint256"
        }
      ],
      "name": "Claimed",
      "type": "event"
    },
    {
      "anonymous": false,
      "inputs": [
        {
          "indexed": false,
          "internalType": "address",
          "name": "add_",
          "type": "address"
        },
        {
          "indexed": false,
          "internalType": "uint256",
          "name": "amount",
          "type": "uint256"
        }
      ],
      "name": "CleanCandidate",
      "type": "event"
    },
    {
      "anonymous": false,
      "inputs": [
        {
          "indexed": true,
          "internalType": "address",
          "name": "previousOwner",
          "type": "address"
        },
        {
          "indexed": true,
          "internalType": "address",
          "name": "newOwner",
          "type": "address"
        }
      ],
      "name": "OwnershipTransferred",
      "type": "event"
    },
    {
      "anonymous": false,
      "inputs": [
        {
          "indexed": false,
          "internalType": "uint256",
          "name": "registeredId_",
          "type": "uint256"
        },
        {
          "indexed": false,
          "internalType": "address",
          "name": "add_",
          "type": "address"
        },
        {
          "indexed": false,
          "internalType": "uint256",
          "name": "amount_",
          "type": "uint256"
        }
      ],
      "name": "Registered",
      "type": "event"
    },
    {
      "stateMutability": "payable",
      "type": "fallback"
    },
    {
      "inputs": [],
      "name": "airdropTokenAddress",
      "outputs": [
        {
          "internalType": "address",
          "name": "",
          "type": "address"
        }
      ],
      "stateMutability": "view",
      "type": "function"
    },
    {
      "inputs": [],
      "name": "claimExpiredAt",
      "outputs": [
        {
          "internalType": "uint256",
          "name": "",
          "type": "uint256"
        }
      ],
      "stateMutability": "view",
      "type": "function"
    },
    {
      "inputs": [],
      "name": "claimId",
      "outputs": [
        {
          "internalType": "uint256",
          "name": "",
          "type": "uint256"
        }
      ],
      "stateMutability": "view",
      "type": "function"
    },
    {
      "inputs": [
        {
          "internalType": "address",
          "name": "",
          "type": "address"
        }
      ],
      "name": "claimWhitelist",
      "outputs": [
        {
          "internalType": "uint256",
          "name": "",
          "type": "uint256"
        }
      ],
      "stateMutability": "view",
      "type": "function"
    },
    {
      "inputs": [],
      "name": "owner",
      "outputs": [
        {
          "internalType": "address",
          "name": "",
          "type": "address"
        }
      ],
      "stateMutability": "view",
      "type": "function"
    },
    {
      "inputs": [],
      "name": "registeredId",
      "outputs": [
        {
          "internalType": "uint256",
          "name": "",
          "type": "uint256"
        }
      ],
      "stateMutability": "view",
      "type": "function"
    },
    {
      "inputs": [],
      "name": "renounceOwnership",
      "outputs": [],
      "stateMutability": "nonpayable",
      "type": "function"
    },
    {
      "inputs": [
        {
          "internalType": "address",
          "name": "newOwner",
          "type": "address"
        }
      ],
      "name": "transferOwnership",
      "outputs": [],
      "stateMutability": "nonpayable",
      "type": "function"
    },
    {
      "stateMutability": "payable",
      "type": "receive"
    },
    {
      "inputs": [
        {
          "internalType": "address",
          "name": "tokenAddress_",
          "type": "address"
        }
      ],
      "name": "pullFunds",
      "outputs": [],
      "stateMutability": "nonpayable",
      "type": "function"
    },
    {
      "inputs": [
        {
          "internalType": "address",
          "name": "airdropToken_",
          "type": "address"
        }
      ],
      "name": "setAirdropTokenAddress",
      "outputs": [],
      "stateMutability": "nonpayable",
      "type": "function"
    },
    {
      "inputs": [
        {
          "internalType": "uint256",
          "name": "expireTimestamp_",
          "type": "uint256"
        }
      ],
      "name": "setClaimExpiredAt",
      "outputs": [],
      "stateMutability": "nonpayable",
      "type": "function"
    },
    {
      "inputs": [
        {
          "internalType": "address[]",
          "name": "candidates_",
          "type": "address[]"
        },
        {
          "internalType": "uint256[]",
          "name": "values_",
          "type": "uint256[]"
        }
      ],
      "name": "setupWhitelist",
      "outputs": [
        {
          "internalType": "bool",
          "name": "",
          "type": "bool"
        }
      ],
      "stateMutability": "nonpayable",
      "type": "function"
    },
    {
      "inputs": [],
      "name": "cleanWhitelist",
      "outputs": [
        {
          "internalType": "bool",
          "name": "",
          "type": "bool"
        }
      ],
      "stateMutability": "nonpayable",
      "type": "function"
    },
    {
      "inputs": [],
      "name": "sumClaimableAmount",
      "outputs": [
        {
          "internalType": "uint256",
          "name": "s",
          "type": "uint256"
        }
      ],
      "stateMutability": "view",
      "type": "function"
    },
    {
      "inputs": [],
      "name": "whitelistLength",
      "outputs": [
        {
          "internalType": "uint256",
          "name": "",
          "type": "uint256"
        }
      ],
      "stateMutability": "view",
      "type": "function"
    },
    {
      "inputs": [],
      "name": "claim",
      "outputs": [
        {
          "internalType": "bool",
          "name": "",
          "type": "bool"
        }
      ],
      "stateMutability": "nonpayable",
      "type": "function"
    }
  ],
  "bytecode": "0x6080604052600060065560006007553480156200001b57600080fd5b506040516200244c3803806200244c833981810160405281019062000041919062000193565b6000620000536200017460201b60201c565b9050806000806101000a81548173ffffffffffffffffffffffffffffffffffffffff021916908373ffffffffffffffffffffffffffffffffffffffff1602179055508073ffffffffffffffffffffffffffffffffffffffff16600073ffffffffffffffffffffffffffffffffffffffff167f8be0079c531659141344cd1fd0a4f28419497f9722a3daafe3b4186f6b6457e060405160405180910390a350600073ffffffffffffffffffffffffffffffffffffffff168173ffffffffffffffffffffffffffffffffffffffff1614156200012c57600080fd5b80600560006101000a81548173ffffffffffffffffffffffffffffffffffffffff021916908373ffffffffffffffffffffffffffffffffffffffff160217905550506200020d565b600033905090565b6000815190506200018d81620001f3565b92915050565b600060208284031215620001a657600080fd5b6000620001b6848285016200017c565b91505092915050565b6000620001cc82620001d3565b9050919050565b600073ffffffffffffffffffffffffffffffffffffffff82169050919050565b620001fe81620001bf565b81146200020a57600080fd5b50565b61222f806200021d6000396000f3fe6080604052600436106100f75760003560e01c8063acc648661161008a578063c87fbe7c11610059578063c87fbe7c1461030e578063e20f322e14610339578063f0bcc4a614610364578063f2fde38b1461038f576100fe565b8063acc6486614610266578063b73e0e8b1461028f578063b864ba7d146102ba578063bf66f7ae146102e3576100fe565b8063715018a6116100c6578063715018a6146101bc57806378bb5164146101d35780638da5cb5b146101fe57806393324a9814610229576100fe565b8063287001d2146101005780634e71d92d1461013d5780635c25fd13146101685780635d5a92fb14610193576100fe565b366100fe57005b005b34801561010c57600080fd5b5061012760048036038101906101229190611924565b6103b8565b6040516101349190611d9f565b60405180910390f35b34801561014957600080fd5b506101526103d0565b60405161015f9190611c44565b60405180910390f35b34801561017457600080fd5b5061017d6106d5565b60405161018a9190611d9f565b60405180910390f35b34801561019f57600080fd5b506101ba60048036038101906101b59190611924565b6106db565b005b3480156101c857600080fd5b506101d161091f565b005b3480156101df57600080fd5b506101e8610a72565b6040516101f59190611d9f565b60405180910390f35b34801561020a57600080fd5b50610213610a83565b6040516102209190611bd7565b60405180910390f35b34801561023557600080fd5b50610250600480360381019061024b919061194d565b610aac565b60405161025d9190611c44565b60405180910390f35b34801561027257600080fd5b5061028d600480360381019061028891906119eb565b610e95565b005b34801561029b57600080fd5b506102a4610f34565b6040516102b19190611bd7565b60405180910390f35b3480156102c657600080fd5b506102e160048036038101906102dc9190611924565b610f5a565b005b3480156102ef57600080fd5b506102f861106d565b6040516103059190611d9f565b60405180910390f35b34801561031a57600080fd5b506103236110ff565b6040516103309190611d9f565b60405180910390f35b34801561034557600080fd5b5061034e611105565b60405161035b9190611d9f565b60405180910390f35b34801561037057600080fd5b5061037961110b565b6040516103869190611c44565b60405180910390f35b34801561039b57600080fd5b506103b660048036038101906103b19190611924565b61131b565b005b60026020528060005260406000206000915090505481565b6000600154421115610417576040517f08c379a000000000000000000000000000000000000000000000000000000000815260040161040e90611d1f565b60405180910390fd5b600073ffffffffffffffffffffffffffffffffffffffff16600560009054906101000a900473ffffffffffffffffffffffffffffffffffffffff1673ffffffffffffffffffffffffffffffffffffffff1614156104a9576040517f08c379a00000000000000000000000000000000000000000000000000000000081526004016104a090611d7f565b60405180910390fd5b6000600260003373ffffffffffffffffffffffffffffffffffffffff1673ffffffffffffffffffffffffffffffffffffffff16815260200190815260200160002054905060008111610530576040517f08c379a000000000000000000000000000000000000000000000000000000000815260040161052790611c7f565b60405180910390fd5b600260003373ffffffffffffffffffffffffffffffffffffffff1673ffffffffffffffffffffffffffffffffffffffff168152602001908152602001600020600090556105873360036113bc90919063ffffffff16565b507f4ec90e965519d92681267467f775ada5bd214aa92c0dc93d90a5e880ce9ed026600760008154809291906105bc90611f0a565b9190505533836040516105d193929190611dba565b60405180910390a16000600560009054906101000a900473ffffffffffffffffffffffffffffffffffffffff1690508073ffffffffffffffffffffffffffffffffffffffff1663a9059cbb33846040518363ffffffff1660e01b815260040161063b929190611c1b565b602060405180830381600087803b15801561065557600080fd5b505af1158015610669573d6000803e3d6000fd5b505050506040513d601f19601f8201168201806040525081019061068d91906119c2565b6106cc576040517f08c379a00000000000000000000000000000000000000000000000000000000081526004016106c390611cdf565b60405180910390fd5b60019250505090565b60075481565b6106e36113ec565b73ffffffffffffffffffffffffffffffffffffffff1660008054906101000a900473ffffffffffffffffffffffffffffffffffffffff1673ffffffffffffffffffffffffffffffffffffffff1614610770576040517f08c379a000000000000000000000000000000000000000000000000000000000815260040161076790611d3f565b60405180910390fd5b600073ffffffffffffffffffffffffffffffffffffffff168173ffffffffffffffffffffffffffffffffffffffff1614156107f8576107ad6113ec565b73ffffffffffffffffffffffffffffffffffffffff166108fc479081150290604051600060405180830381858888f193505050501580156107f2573d6000803e3d6000fd5b5061091c565b60008190508073ffffffffffffffffffffffffffffffffffffffff1663a9059cbb6108216113ec565b8373ffffffffffffffffffffffffffffffffffffffff166370a08231306040518263ffffffff1660e01b815260040161085a9190611bd7565b60206040518083038186803b15801561087257600080fd5b505afa158015610886573d6000803e3d6000fd5b505050506040513d601f19601f820116820180604052508101906108aa9190611a14565b6040518363ffffffff1660e01b81526004016108c7929190611bf2565b602060405180830381600087803b1580156108e157600080fd5b505af11580156108f5573d6000803e3d6000fd5b505050506040513d601f19601f8201168201806040525081019061091991906119c2565b50505b50565b6109276113ec565b73ffffffffffffffffffffffffffffffffffffffff1660008054906101000a900473ffffffffffffffffffffffffffffffffffffffff1673ffffffffffffffffffffffffffffffffffffffff16146109b4576040517f08c379a00000000000000000000000000000000000000000000000000000000081526004016109ab90611d3f565b60405180910390fd5b600073ffffffffffffffffffffffffffffffffffffffff1660008054906101000a900473ffffffffffffffffffffffffffffffffffffffff1673ffffffffffffffffffffffffffffffffffffffff167f8be0079c531659141344cd1fd0a4f28419497f9722a3daafe3b4186f6b6457e060405160405180910390a360008060006101000a81548173ffffffffffffffffffffffffffffffffffffffff021916908373ffffffffffffffffffffffffffffffffffffffff160217905550565b6000610a7e60036113f4565b905090565b60008060009054906101000a900473ffffffffffffffffffffffffffffffffffffffff16905090565b6000610ab66113ec565b73ffffffffffffffffffffffffffffffffffffffff1660008054906101000a900473ffffffffffffffffffffffffffffffffffffffff1673ffffffffffffffffffffffffffffffffffffffff1614610b43576040517f08c379a0000000000000000000000000000000000000000000000000000000008152600401610b3a90611d3f565b60405180910390fd5b828290508585905014610b8b576040517f08c379a0000000000000000000000000000000000000000000000000000000008152600401610b8290611d5f565b60405180910390fd5b60008585905011610bd1576040517f08c379a0000000000000000000000000000000000000000000000000000000008152600401610bc890611cbf565b60405180910390fd5b60005b85859050811015610e8857600073ffffffffffffffffffffffffffffffffffffffff16868683818110610c30577f4e487b7100000000000000000000000000000000000000000000000000000000600052603260045260246000fd5b9050602002016020810190610c459190611924565b73ffffffffffffffffffffffffffffffffffffffff161415610c6657600080fd5b838382818110610c9f577f4e487b7100000000000000000000000000000000000000000000000000000000600052603260045260246000fd5b9050602002013560026000888885818110610ce3577f4e487b7100000000000000000000000000000000000000000000000000000000600052603260045260246000fd5b9050602002016020810190610cf89190611924565b73ffffffffffffffffffffffffffffffffffffffff1673ffffffffffffffffffffffffffffffffffffffff16815260200190815260200160002081905550610d97868683818110610d72577f4e487b7100000000000000000000000000000000000000000000000000000000600052603260045260246000fd5b9050602002016020810190610d879190611924565b600361140990919063ffffffff16565b507f39dd062cc095bf933d83338d8e4591b7eb119264d876f173cacb1cfdf2c9737f60066000815480929190610dcc90611f0a565b91905055878784818110610e09577f4e487b7100000000000000000000000000000000000000000000000000000000600052603260045260246000fd5b9050602002016020810190610e1e9190611924565b868685818110610e57577f4e487b7100000000000000000000000000000000000000000000000000000000600052603260045260246000fd5b90506020020135604051610e6d93929190611dba565b60405180910390a18080610e8090611f0a565b915050610bd4565b5060019050949350505050565b610e9d6113ec565b73ffffffffffffffffffffffffffffffffffffffff1660008054906101000a900473ffffffffffffffffffffffffffffffffffffffff1673ffffffffffffffffffffffffffffffffffffffff1614610f2a576040517f08c379a0000000000000000000000000000000000000000000000000000000008152600401610f2190611d3f565b60405180910390fd5b8060018190555050565b600560009054906101000a900473ffffffffffffffffffffffffffffffffffffffff1681565b610f626113ec565b73ffffffffffffffffffffffffffffffffffffffff1660008054906101000a900473ffffffffffffffffffffffffffffffffffffffff1673ffffffffffffffffffffffffffffffffffffffff1614610fef576040517f08c379a0000000000000000000000000000000000000000000000000000000008152600401610fe690611d3f565b60405180910390fd5b600073ffffffffffffffffffffffffffffffffffffffff168173ffffffffffffffffffffffffffffffffffffffff16141561102957600080fd5b80600560006101000a81548173ffffffffffffffffffffffffffffffffffffffff021916908373ffffffffffffffffffffffffffffffffffffffff16021790555050565b60008061107a60036113f4565b905060005b818110156110fa576002600061109f83600361143990919063ffffffff16565b73ffffffffffffffffffffffffffffffffffffffff1673ffffffffffffffffffffffffffffffffffffffff16815260200190815260200160002054836110e59190611e02565b925080806110f290611f0a565b91505061107f565b505090565b60015481565b60065481565b60006111156113ec565b73ffffffffffffffffffffffffffffffffffffffff1660008054906101000a900473ffffffffffffffffffffffffffffffffffffffff1673ffffffffffffffffffffffffffffffffffffffff16146111a2576040517f08c379a000000000000000000000000000000000000000000000000000000000815260040161119990611d3f565b60405180910390fd5b42600154106111e6576040517f08c379a00000000000000000000000000000000000000000000000000000000081526004016111dd90611cff565b60405180910390fd5b60006111f260036113f4565b905060005b818110156112fc5760006112166000600361143990919063ffffffff16565b90507f7707ba0be4d726d1f4d3841941aee6d18412db33ca2906a9bad7868ebe657fee81600260008473ffffffffffffffffffffffffffffffffffffffff1673ffffffffffffffffffffffffffffffffffffffff16815260200190815260200160002054604051611288929190611c1b565b60405180910390a1600260008273ffffffffffffffffffffffffffffffffffffffff1673ffffffffffffffffffffffffffffffffffffffff168152602001908152602001600020600090556112e78160036113bc90919063ffffffff16565b505080806112f490611f0a565b9150506111f7565b50600061130960036113f4565b1461131357600080fd5b600191505090565b6113236113ec565b73ffffffffffffffffffffffffffffffffffffffff1660008054906101000a900473ffffffffffffffffffffffffffffffffffffffff1673ffffffffffffffffffffffffffffffffffffffff16146113b0576040517f08c379a00000000000000000000000000000000000000000000000000000000081526004016113a790611d3f565b60405180910390fd5b6113b981611453565b50565b60006113e4836000018373ffffffffffffffffffffffffffffffffffffffff1660001b611580565b905092915050565b600033905090565b6000611402826000016116fe565b9050919050565b6000611431836000018373ffffffffffffffffffffffffffffffffffffffff1660001b61170f565b905092915050565b6000611448836000018361177f565b60001c905092915050565b600073ffffffffffffffffffffffffffffffffffffffff168173ffffffffffffffffffffffffffffffffffffffff1614156114c3576040517f08c379a00000000000000000000000000000000000000000000000000000000081526004016114ba90611c9f565b60405180910390fd5b8073ffffffffffffffffffffffffffffffffffffffff1660008054906101000a900473ffffffffffffffffffffffffffffffffffffffff1673ffffffffffffffffffffffffffffffffffffffff167f8be0079c531659141344cd1fd0a4f28419497f9722a3daafe3b4186f6b6457e060405160405180910390a3806000806101000a81548173ffffffffffffffffffffffffffffffffffffffff021916908373ffffffffffffffffffffffffffffffffffffffff16021790555050565b600080836001016000848152602001908152602001600020549050600081146116f25760006001826115b29190611e58565b90506000600186600001805490506115ca9190611e58565b9050600086600001828154811061160a577f4e487b7100000000000000000000000000000000000000000000000000000000600052603260045260246000fd5b9060005260206000200154905080876000018481548110611654577f4e487b7100000000000000000000000000000000000000000000000000000000600052603260045260246000fd5b90600052602060002001819055508387600101600083815260200190815260200160002081905550866000018054806116b6577f4e487b7100000000000000000000000000000000000000000000000000000000600052603160045260246000fd5b600190038181906000526020600020016000905590558660010160008781526020019081526020016000206000905560019450505050506116f8565b60009150505b92915050565b600081600001805490509050919050565b600061171b8383611819565b611774578260000182908060018154018082558091505060019003906000526020600020016000909190919091505582600001805490508360010160008481526020019081526020016000208190555060019050611779565b600090505b92915050565b6000818360000180549050116117ca576040517f08c379a00000000000000000000000000000000000000000000000000000000081526004016117c190611c5f565b60405180910390fd5b826000018281548110611806577f4e487b7100000000000000000000000000000000000000000000000000000000600052603260045260246000fd5b9060005260206000200154905092915050565b600080836001016000848152602001908152602001600020541415905092915050565b60008135905061184b816121b4565b92915050565b60008083601f84011261186357600080fd5b8235905067ffffffffffffffff81111561187c57600080fd5b60208301915083602082028301111561189457600080fd5b9250929050565b60008083601f8401126118ad57600080fd5b8235905067ffffffffffffffff8111156118c657600080fd5b6020830191508360208202830111156118de57600080fd5b9250929050565b6000815190506118f4816121cb565b92915050565b600081359050611909816121e2565b92915050565b60008151905061191e816121e2565b92915050565b60006020828403121561193657600080fd5b60006119448482850161183c565b91505092915050565b6000806000806040858703121561196357600080fd5b600085013567ffffffffffffffff81111561197d57600080fd5b61198987828801611851565b9450945050602085013567ffffffffffffffff8111156119a857600080fd5b6119b48782880161189b565b925092505092959194509250565b6000602082840312156119d457600080fd5b60006119e2848285016118e5565b91505092915050565b6000602082840312156119fd57600080fd5b6000611a0b848285016118fa565b91505092915050565b600060208284031215611a2657600080fd5b6000611a348482850161190f565b91505092915050565b611a4681611ed4565b82525050565b611a5581611e8c565b82525050565b611a6481611e9e565b82525050565b6000611a77602283611df1565b9150611a8282611f82565b604082019050919050565b6000611a9a603383611df1565b9150611aa582611fd1565b604082019050919050565b6000611abd602683611df1565b9150611ac882612020565b604082019050919050565b6000611ae0600f83611df1565b9150611aeb8261206f565b602082019050919050565b6000611b03601583611df1565b9150611b0e82612098565b602082019050919050565b6000611b26603283611df1565b9150611b31826120c1565b604082019050919050565b6000611b49601283611df1565b9150611b5482612110565b602082019050919050565b6000611b6c602083611df1565b9150611b7782612139565b602082019050919050565b6000611b8f601b83611df1565b9150611b9a82612162565b602082019050919050565b6000611bb2601c83611df1565b9150611bbd8261218b565b602082019050919050565b611bd181611eca565b82525050565b6000602082019050611bec6000830184611a4c565b92915050565b6000604082019050611c076000830185611a3d565b611c146020830184611bc8565b9392505050565b6000604082019050611c306000830185611a4c565b611c3d6020830184611bc8565b9392505050565b6000602082019050611c596000830184611a5b565b92915050565b60006020820190508181036000830152611c7881611a6a565b9050919050565b60006020820190508181036000830152611c9881611a8d565b9050919050565b60006020820190508181036000830152611cb881611ab0565b9050919050565b60006020820190508181036000830152611cd881611ad3565b9050919050565b60006020820190508181036000830152611cf881611af6565b9050919050565b60006020820190508181036000830152611d1881611b19565b9050919050565b60006020820190508181036000830152611d3881611b3c565b9050919050565b60006020820190508181036000830152611d5881611b5f565b9050919050565b60006020820190508181036000830152611d7881611b82565b9050919050565b60006020820190508181036000830152611d9881611ba5565b9050919050565b6000602082019050611db46000830184611bc8565b92915050565b6000606082019050611dcf6000830186611bc8565b611ddc6020830185611a4c565b611de96040830184611bc8565b949350505050565b600082825260208201905092915050565b6000611e0d82611eca565b9150611e1883611eca565b9250827fffffffffffffffffffffffffffffffffffffffffffffffffffffffffffffffff03821115611e4d57611e4c611f53565b5b828201905092915050565b6000611e6382611eca565b9150611e6e83611eca565b925082821015611e8157611e80611f53565b5b828203905092915050565b6000611e9782611eaa565b9050919050565b60008115159050919050565b600073ffffffffffffffffffffffffffffffffffffffff82169050919050565b6000819050919050565b6000611edf82611ee6565b9050919050565b6000611ef182611ef8565b9050919050565b6000611f0382611eaa565b9050919050565b6000611f1582611eca565b91507fffffffffffffffffffffffffffffffffffffffffffffffffffffffffffffffff821415611f4857611f47611f53565b5b600182019050919050565b7f4e487b7100000000000000000000000000000000000000000000000000000000600052601160045260246000fd5b7f456e756d657261626c655365743a20696e646578206f7574206f6620626f756e60008201527f6473000000000000000000000000000000000000000000000000000000000000602082015250565b7f596f75277265206e6f7420696e207468652077686974656c697374206f72207960008201527f6f752068616420636c61696d6564206f75742e00000000000000000000000000602082015250565b7f4f776e61626c653a206e6577206f776e657220697320746865207a65726f206160008201527f6464726573730000000000000000000000000000000000000000000000000000602082015250565b7f546865206c656e67746820697320300000000000000000000000000000000000600082015250565b7f546f6b656e207472616e73666572206661696c65640000000000000000000000600082015250565b7f43616e206e6f74207265736574206265666f7265206578706972652074696d6560008201527f206f662063757272656e7420726f756e642e0000000000000000000000000000602082015250565b7f436c61696d2077617320657870697265642e0000000000000000000000000000600082015250565b7f4f776e61626c653a2063616c6c6572206973206e6f7420746865206f776e6572600082015250565b7f56616c7565206c656e6774687320646f206e6f74206d617463682e0000000000600082015250565b7f54686520746f6b656e206f662061697264726f70206973206e756c6c00000000600082015250565b6121bd81611e8c565b81146121c857600080fd5b50565b6121d481611e9e565b81146121df57600080fd5b50565b6121eb81611eca565b81146121f657600080fd5b5056fea2646970667358221220c99bb9739384950bb89422ceee0c6579d2e3d8450286fbd1dac93e7ed0f42cb364736f6c63430008030033",
  "immutableReferences": {},
  "source": "// SPDX-License-Identifier: MIT\r\n\r\npragma solidity ^0.8.0;\r\n\r\nimport \"./Ownable.sol\";\r\nimport \"./IBEP20.sol\";\r\nimport \"./EnumerableSet.sol\";\r\n\r\n\r\ncontract AirdropClaim is Ownable {\r\n    using EnumerableSet for EnumerableSet.AddressSet;\r\n    \r\n    uint public claimExpiredAt;\r\n    mapping (address => uint) public claimWhitelist;\r\n    EnumerableSet.AddressSet private _whitelistKeys;\r\n\r\n    address public airdropTokenAddress;\r\n    \r\n    uint public registeredId = 0;\r\n    event Registered(uint registeredId_, address add_, uint amount_);\r\n\r\n    uint public claimId = 0;\r\n    event Claimed(uint claimId_, address add_, uint amount_);\r\n    \r\n    event CleanCandidate(address add_, uint amount);\r\n\r\n    constructor(address airdropToken_) {\r\n        require(airdropToken_ != address(0));\r\n        airdropTokenAddress = airdropToken_;\r\n    }\r\n\r\n    receive () external payable {}\r\n    fallback () external payable {}\r\n\r\n    /*\r\n     * @dev Pull out all balance of token or BNB in this contract. When tokenAddress_ is 0x0, will transfer all BNB to the admin owner.\r\n     */\r\n    function pullFunds(address tokenAddress_) onlyOwner public {\r\n        if (tokenAddress_ == address(0)) {\r\n            _msgSender().transfer(address(this).balance);\r\n        } else {\r\n            IBEP20 token = IBEP20(tokenAddress_);\r\n            token.transfer(_msgSender(), token.balanceOf(address(this)));\r\n        }\r\n    }\r\n\r\n    function setAirdropTokenAddress(address airdropToken_) onlyOwner public {\r\n        require(airdropToken_ != address(0));\r\n        airdropTokenAddress = airdropToken_;\r\n    }\r\n\r\n    function setClaimExpiredAt(uint expireTimestamp_) onlyOwner public {\r\n        claimExpiredAt = expireTimestamp_;\r\n    }\r\n\r\n    function setupWhitelist(address[] calldata candidates_, uint[] calldata values_) onlyOwner public returns (bool) {\r\n        require(candidates_.length == values_.length, \"Value lengths do not match.\");\r\n        require(candidates_.length > 0, \"The length is 0\");\r\n\r\n        for(uint i = 0; i < candidates_.length; i++){\r\n            require(candidates_[i] != address(0));\r\n            claimWhitelist[candidates_[i]] = values_[i];\r\n            _whitelistKeys.add(candidates_[i]);\r\n\r\n            emit Registered(registeredId++, candidates_[i], values_[i]);\r\n        }\r\n\r\n        return true;\r\n    }\r\n\r\n    /**\r\n     * @dev clean the whitelist\r\n     */\r\n    function cleanWhitelist() onlyOwner public returns (bool) {\r\n        require(claimExpiredAt < block.timestamp, \"Can not reset before expire time of current round.\");\r\n        uint length = _whitelistKeys.length();\r\n        for(uint i = 0; i < length; i++) {\r\n            // modify fix 0 position while iterating all keys \r\n            address key = _whitelistKeys.at(0);\r\n\r\n            emit CleanCandidate(key, claimWhitelist[key]);\r\n            \r\n            delete claimWhitelist[key];\r\n            _whitelistKeys.remove(key);\r\n        }\r\n        require(_whitelistKeys.length() == 0);\r\n\r\n        return true;\r\n    }\r\n\r\n    function sumClaimableAmount() public view returns (uint s) {\r\n        uint length = _whitelistKeys.length();\r\n        for(uint i = 0; i < length; i++) {\r\n            s += claimWhitelist[_whitelistKeys.at(i)];\r\n        }\r\n    }\r\n\r\n    function whitelistLength() public view returns (uint) {\r\n        return _whitelistKeys.length();\r\n    }\r\n\r\n    function claim() public returns (bool) {\r\n        require(block.timestamp <= claimExpiredAt, \"Claim was expired.\");\r\n        require(airdropTokenAddress != address(0), \"The token of airdrop is null\");\r\n\r\n        uint amount = claimWhitelist[msg.sender];\r\n        require(amount > 0, \"You're not in the whitelist or you had claimed out.\");\r\n\r\n        delete claimWhitelist[msg.sender];\r\n        _whitelistKeys.remove(msg.sender);\r\n\r\n        emit Claimed(claimId++, msg.sender, amount);\r\n\r\n        IBEP20 token = IBEP20(airdropTokenAddress);\r\n        require(token.transfer(msg.sender, amount), \"Token transfer failed\");\r\n\r\n        return true;\r\n    }\r\n}\r\n",
  "sourcePath": "E:\\work\\lowb\\source\\LowbMarket\\contracts\\AirdropClaim\\AirdropClaim.sol",
  "compiler": {
    "name": "solc",
    "version": "0.8.3+commit.8d00100c.Emscripten.clang"
  },
  "schemaVersion": "3.4.4",
  "updatedAt": "2022-02-03T02:19:23.833Z",
  "devdoc": {
    "kind": "dev",
    "methods": {
      "cleanWhitelist()": {
        "details": "clean the whitelist"
      },
      "owner()": {
        "details": "Returns the address of the current owner."
      },
      "renounceOwnership()": {
        "details": "Leaves the contract without owner. It will not be possible to call `onlyOwner` functions anymore. Can only be called by the current owner. NOTE: Renouncing ownership will leave the contract without an owner, thereby removing any functionality that is only available to the owner."
      },
      "transferOwnership(address)": {
        "details": "Transfers ownership of the contract to a new account (`newOwner`). Can only be called by the current owner."
      }
    },
    "version": 1
  },
  "userdoc": {
    "kind": "user",
    "methods": {},
    "version": 1
  }
}