{
  "contractName": "ERC20Template",
  "abi": [
    {
      "inputs": [
        {
          "internalType": "address",
          "name": "operator",
          "type": "address"
        },
        {
          "internalType": "address",
          "name": "pauser",
          "type": "address"
        },
        {
          "internalType": "string",
          "name": "name",
          "type": "string"
        },
        {
          "internalType": "string",
          "name": "symbol",
          "type": "string"
        },
        {
          "internalType": "uint8",
          "name": "decimal",
          "type": "uint8"
        }
      ],
      "stateMutability": "nonpayable",
      "type": "constructor"
    },
    {
      "anonymous": false,
      "inputs": [
        {
          "indexed": true,
          "internalType": "address",
          "name": "owner",
          "type": "address"
        },
        {
          "indexed": true,
          "internalType": "address",
          "name": "spender",
          "type": "address"
        },
        {
          "indexed": false,
          "internalType": "uint256",
          "name": "value",
          "type": "uint256"
        }
      ],
      "name": "Approval",
      "type": "event"
    },
    {
      "anonymous": false,
      "inputs": [
        {
          "indexed": false,
          "internalType": "address",
          "name": "account",
          "type": "address"
        }
      ],
      "name": "Paused",
      "type": "event"
    },
    {
      "anonymous": false,
      "inputs": [
        {
          "indexed": true,
          "internalType": "address",
          "name": "from",
          "type": "address"
        },
        {
          "indexed": true,
          "internalType": "address",
          "name": "to",
          "type": "address"
        },
        {
          "indexed": false,
          "internalType": "uint256",
          "name": "value",
          "type": "uint256"
        }
      ],
      "name": "Transfer",
      "type": "event"
    },
    {
      "anonymous": false,
      "inputs": [
        {
          "indexed": false,
          "internalType": "address",
          "name": "account",
          "type": "address"
        }
      ],
      "name": "Unpaused",
      "type": "event"
    },
    {
      "inputs": [
        {
          "internalType": "address",
          "name": "owner",
          "type": "address"
        },
        {
          "internalType": "address",
          "name": "spender",
          "type": "address"
        }
      ],
      "name": "allowance",
      "outputs": [
        {
          "internalType": "uint256",
          "name": "",
          "type": "uint256"
        }
      ],
      "stateMutability": "view",
      "type": "function"
    },
    {
      "inputs": [
        {
          "internalType": "address",
          "name": "spender",
          "type": "address"
        },
        {
          "internalType": "uint256",
          "name": "amount",
          "type": "uint256"
        }
      ],
      "name": "approve",
      "outputs": [
        {
          "internalType": "bool",
          "name": "",
          "type": "bool"
        }
      ],
      "stateMutability": "nonpayable",
      "type": "function"
    },
    {
      "inputs": [
        {
          "internalType": "address",
          "name": "account",
          "type": "address"
        }
      ],
      "name": "balanceOf",
      "outputs": [
        {
          "internalType": "uint256",
          "name": "",
          "type": "uint256"
        }
      ],
      "stateMutability": "view",
      "type": "function"
    },
    {
      "inputs": [],
      "name": "decimals",
      "outputs": [
        {
          "internalType": "uint8",
          "name": "",
          "type": "uint8"
        }
      ],
      "stateMutability": "view",
      "type": "function"
    },
    {
      "inputs": [
        {
          "internalType": "address",
          "name": "spender",
          "type": "address"
        },
        {
          "internalType": "uint256",
          "name": "subtractedValue",
          "type": "uint256"
        }
      ],
      "name": "decreaseAllowance",
      "outputs": [
        {
          "internalType": "bool",
          "name": "",
          "type": "bool"
        }
      ],
      "stateMutability": "nonpayable",
      "type": "function"
    },
    {
      "inputs": [
        {
          "internalType": "address",
          "name": "spender",
          "type": "address"
        },
        {
          "internalType": "uint256",
          "name": "addedValue",
          "type": "uint256"
        }
      ],
      "name": "increaseAllowance",
      "outputs": [
        {
          "internalType": "bool",
          "name": "",
          "type": "bool"
        }
      ],
      "stateMutability": "nonpayable",
      "type": "function"
    },
    {
      "inputs": [],
      "name": "name",
      "outputs": [
        {
          "internalType": "string",
          "name": "",
          "type": "string"
        }
      ],
      "stateMutability": "view",
      "type": "function"
    },
    {
      "inputs": [],
      "name": "paused",
      "outputs": [
        {
          "internalType": "bool",
          "name": "",
          "type": "bool"
        }
      ],
      "stateMutability": "view",
      "type": "function"
    },
    {
      "inputs": [],
      "name": "symbol",
      "outputs": [
        {
          "internalType": "string",
          "name": "",
          "type": "string"
        }
      ],
      "stateMutability": "view",
      "type": "function"
    },
    {
      "inputs": [],
      "name": "totalSupply",
      "outputs": [
        {
          "internalType": "uint256",
          "name": "",
          "type": "uint256"
        }
      ],
      "stateMutability": "view",
      "type": "function"
    },
    {
      "inputs": [
        {
          "internalType": "address",
          "name": "recipient",
          "type": "address"
        },
        {
          "internalType": "uint256",
          "name": "amount",
          "type": "uint256"
        }
      ],
      "name": "transfer",
      "outputs": [
        {
          "internalType": "bool",
          "name": "",
          "type": "bool"
        }
      ],
      "stateMutability": "nonpayable",
      "type": "function"
    },
    {
      "inputs": [
        {
          "internalType": "address",
          "name": "sender",
          "type": "address"
        },
        {
          "internalType": "address",
          "name": "recipient",
          "type": "address"
        },
        {
          "internalType": "uint256",
          "name": "amount",
          "type": "uint256"
        }
      ],
      "name": "transferFrom",
      "outputs": [
        {
          "internalType": "bool",
          "name": "",
          "type": "bool"
        }
      ],
      "stateMutability": "nonpayable",
      "type": "function"
    },
    {
      "inputs": [],
      "name": "pause",
      "outputs": [],
      "stateMutability": "nonpayable",
      "type": "function"
    },
    {
      "inputs": [],
      "name": "unpause",
      "outputs": [],
      "stateMutability": "nonpayable",
      "type": "function"
    },
    {
      "inputs": [
        {
          "internalType": "address",
          "name": "new_operator",
          "type": "address"
        },
        {
          "internalType": "address",
          "name": "new_pauser",
          "type": "address"
        }
      ],
      "name": "changeUser",
      "outputs": [],
      "stateMutability": "nonpayable",
      "type": "function"
    },
    {
      "inputs": [
        {
          "internalType": "address",
          "name": "account",
          "type": "address"
        },
        {
          "internalType": "uint256",
          "name": "amount",
          "type": "uint256"
        }
      ],
      "name": "mint",
      "outputs": [],
      "stateMutability": "nonpayable",
      "type": "function"
    },
    {
      "inputs": [
        {
          "internalType": "address",
          "name": "account",
          "type": "address"
        },
        {
          "internalType": "uint256",
          "name": "amount",
          "type": "uint256"
        }
      ],
      "name": "burn",
      "outputs": [],
      "stateMutability": "nonpayable",
      "type": "function"
    }
  ],
  "bytecode": "0x60806040523480156200001157600080fd5b5060405162002755380380620027558339818101604052810190620000379190620002f1565b8282816003908051906020019062000051929190620001a1565b5080600490805190602001906200006a929190620001a1565b506012600560006101000a81548160ff021916908360ff16021790555050506000600560016101000a81548160ff02191690831515021790555084600660006101000a81548173ffffffffffffffffffffffffffffffffffffffff021916908373ffffffffffffffffffffffffffffffffffffffff16021790555083600760006101000a81548173ffffffffffffffffffffffffffffffffffffffff021916908373ffffffffffffffffffffffffffffffffffffffff16021790555062000137816200018360201b60201c565b33600560026101000a81548173ffffffffffffffffffffffffffffffffffffffff021916908373ffffffffffffffffffffffffffffffffffffffff16021790555050505050506200058a565b80600560006101000a81548160ff021916908360ff16021790555050565b828054620001af906200047b565b90600052602060002090601f016020900481019282620001d357600085556200021f565b82601f10620001ee57805160ff19168380011785556200021f565b828001600101855582156200021f579182015b828111156200021e57825182559160200191906001019062000201565b5b5090506200022e919062000232565b5090565b5b808211156200024d57600081600090555060010162000233565b5090565b6000620002686200026284620003ce565b620003a5565b9050828152602081018484840111156200028157600080fd5b6200028e84828562000445565b509392505050565b600081519050620002a78162000556565b92915050565b600082601f830112620002bf57600080fd5b8151620002d184826020860162000251565b91505092915050565b600081519050620002eb8162000570565b92915050565b600080600080600060a086880312156200030a57600080fd5b60006200031a8882890162000296565b95505060206200032d8882890162000296565b945050604086015167ffffffffffffffff8111156200034b57600080fd5b6200035988828901620002ad565b935050606086015167ffffffffffffffff8111156200037757600080fd5b6200038588828901620002ad565b92505060806200039888828901620002da565b9150509295509295909350565b6000620003b1620003c4565b9050620003bf8282620004b1565b919050565b6000604051905090565b600067ffffffffffffffff821115620003ec57620003eb62000516565b5b620003f78262000545565b9050602081019050919050565b6000620004118262000418565b9050919050565b600073ffffffffffffffffffffffffffffffffffffffff82169050919050565b600060ff82169050919050565b60005b838110156200046557808201518184015260208101905062000448565b8381111562000475576000848401525b50505050565b600060028204905060018216806200049457607f821691505b60208210811415620004ab57620004aa620004e7565b5b50919050565b620004bc8262000545565b810181811067ffffffffffffffff82111715620004de57620004dd62000516565b5b80604052505050565b7f4e487b7100000000000000000000000000000000000000000000000000000000600052602260045260246000fd5b7f4e487b7100000000000000000000000000000000000000000000000000000000600052604160045260246000fd5b6000601f19601f8301169050919050565b620005618162000404565b81146200056d57600080fd5b50565b6200057b8162000438565b81146200058757600080fd5b50565b6121bb806200059a6000396000f3fe608060405234801561001057600080fd5b506004361061010b5760003560e01c80635c975abb116100a257806395d89b411161007157806395d89b41146102945780639dc29fac146102b2578063a457c2d7146102ce578063a9059cbb146102fe578063dd62ed3e1461032e5761010b565b80635c975abb1461022057806370a082311461023e5780638456cb591461026e5780638e50817a146102785761010b565b8063313ce567116100de578063313ce567146101ac57806339509351146101ca5780633f4ba83a146101fa57806340c10f19146102045761010b565b806306fdde0314610110578063095ea7b31461012e57806318160ddd1461015e57806323b872dd1461017c575b600080fd5b61011861035e565b6040516101259190611a15565b60405180910390f35b6101486004803603810190610143919061178a565b6103f0565b60405161015591906119fa565b60405180910390f35b61016661040e565b6040516101739190611bb7565b60405180910390f35b6101966004803603810190610191919061173b565b610418565b6040516101a391906119fa565b60405180910390f35b6101b46104f1565b6040516101c19190611bd2565b60405180910390f35b6101e460048036038101906101df919061178a565b610508565b6040516101f191906119fa565b60405180910390f35b6102026105bb565b005b61021e6004803603810190610219919061178a565b610655565b005b610228610743565b60405161023591906119fa565b60405180910390f35b610258600480360381019061025391906116d6565b61075a565b6040516102659190611bb7565b60405180910390f35b6102766107a2565b005b610292600480360381019061028d91906116ff565b61083c565b005b61029c610952565b6040516102a99190611a15565b60405180910390f35b6102cc60048036038101906102c7919061178a565b6109e4565b005b6102e860048036038101906102e3919061178a565b610ad2565b6040516102f591906119fa565b60405180910390f35b6103186004803603810190610313919061178a565b610b9f565b60405161032591906119fa565b60405180910390f35b610348600480360381019061034391906116ff565b610bbd565b6040516103559190611bb7565b60405180910390f35b60606003805461036d90611d51565b80601f016020809104026020016040519081016040528092919081815260200182805461039990611d51565b80156103e65780601f106103bb576101008083540402835291602001916103e6565b820191906000526020600020905b8154815290600101906020018083116103c957829003601f168201915b5050505050905090565b60006104046103fd610c44565b8484610c4c565b6001905092915050565b6000600254905090565b6000610425848484610e17565b6104e684610431610c44565b6104e18560405180606001604052806028815260200161213960289139600160008b73ffffffffffffffffffffffffffffffffffffffff1673ffffffffffffffffffffffffffffffffffffffff1681526020019081526020016000206000610497610c44565b73ffffffffffffffffffffffffffffffffffffffff1673ffffffffffffffffffffffffffffffffffffffff168152602001908152602001600020546110ac9092919063ffffffff16565b610c4c565b600190509392505050565b6000600560009054906101000a900460ff16905090565b60006105b1610515610c44565b846105ac8560016000610526610c44565b73ffffffffffffffffffffffffffffffffffffffff1673ffffffffffffffffffffffffffffffffffffffff16815260200190815260200160002060008973ffffffffffffffffffffffffffffffffffffffff1673ffffffffffffffffffffffffffffffffffffffff1681526020019081526020016000205461111090919063ffffffff16565b610c4c565b6001905092915050565b600760009054906101000a900473ffffffffffffffffffffffffffffffffffffffff1673ffffffffffffffffffffffffffffffffffffffff163373ffffffffffffffffffffffffffffffffffffffff161461064b576040517f08c379a000000000000000000000000000000000000000000000000000000000815260040161064290611ab7565b60405180910390fd5b61065361116e565b565b600560019054906101000a900460ff16156106a5576040517f08c379a000000000000000000000000000000000000000000000000000000000815260040161069c90611ad7565b60405180910390fd5b600660009054906101000a900473ffffffffffffffffffffffffffffffffffffffff1673ffffffffffffffffffffffffffffffffffffffff163373ffffffffffffffffffffffffffffffffffffffff1614610735576040517f08c379a000000000000000000000000000000000000000000000000000000000815260040161072c90611ab7565b60405180910390fd5b61073f8282611218565b5050565b6000600560019054906101000a900460ff16905090565b60008060008373ffffffffffffffffffffffffffffffffffffffff1673ffffffffffffffffffffffffffffffffffffffff168152602001908152602001600020549050919050565b600760009054906101000a900473ffffffffffffffffffffffffffffffffffffffff1673ffffffffffffffffffffffffffffffffffffffff163373ffffffffffffffffffffffffffffffffffffffff1614610832576040517f08c379a000000000000000000000000000000000000000000000000000000000815260040161082990611ab7565b60405180910390fd5b61083a6113ac565b565b600560029054906101000a900473ffffffffffffffffffffffffffffffffffffffff1673ffffffffffffffffffffffffffffffffffffffff163373ffffffffffffffffffffffffffffffffffffffff16146108cc576040517f08c379a00000000000000000000000000000000000000000000000000000000081526004016108c390611b37565b60405180910390fd5b80600760006101000a81548173ffffffffffffffffffffffffffffffffffffffff021916908373ffffffffffffffffffffffffffffffffffffffff16021790555081600660006101000a81548173ffffffffffffffffffffffffffffffffffffffff021916908373ffffffffffffffffffffffffffffffffffffffff1602179055505050565b60606004805461096190611d51565b80601f016020809104026020016040519081016040528092919081815260200182805461098d90611d51565b80156109da5780601f106109af576101008083540402835291602001916109da565b820191906000526020600020905b8154815290600101906020018083116109bd57829003601f168201915b5050505050905090565b600560019054906101000a900460ff1615610a34576040517f08c379a0000000000000000000000000000000000000000000000000000000008152600401610a2b90611ad7565b60405180910390fd5b600660009054906101000a900473ffffffffffffffffffffffffffffffffffffffff1673ffffffffffffffffffffffffffffffffffffffff163373ffffffffffffffffffffffffffffffffffffffff1614610ac4576040517f08c379a0000000000000000000000000000000000000000000000000000000008152600401610abb90611ab7565b60405180910390fd5b610ace8282611457565b5050565b6000610b95610adf610c44565b84610b90856040518060600160405280602581526020016121616025913960016000610b09610c44565b73ffffffffffffffffffffffffffffffffffffffff1673ffffffffffffffffffffffffffffffffffffffff16815260200190815260200160002060008a73ffffffffffffffffffffffffffffffffffffffff1673ffffffffffffffffffffffffffffffffffffffff168152602001908152602001600020546110ac9092919063ffffffff16565b610c4c565b6001905092915050565b6000610bb3610bac610c44565b8484610e17565b6001905092915050565b6000600160008473ffffffffffffffffffffffffffffffffffffffff1673ffffffffffffffffffffffffffffffffffffffff16815260200190815260200160002060008373ffffffffffffffffffffffffffffffffffffffff1673ffffffffffffffffffffffffffffffffffffffff16815260200190815260200160002054905092915050565b600033905090565b600073ffffffffffffffffffffffffffffffffffffffff168373ffffffffffffffffffffffffffffffffffffffff161415610cbc576040517f08c379a0000000000000000000000000000000000000000000000000000000008152600401610cb390611b57565b60405180910390fd5b600073ffffffffffffffffffffffffffffffffffffffff168273ffffffffffffffffffffffffffffffffffffffff161415610d2c576040517f08c379a0000000000000000000000000000000000000000000000000000000008152600401610d2390611a77565b60405180910390fd5b80600160008573ffffffffffffffffffffffffffffffffffffffff1673ffffffffffffffffffffffffffffffffffffffff16815260200190815260200160002060008473ffffffffffffffffffffffffffffffffffffffff1673ffffffffffffffffffffffffffffffffffffffff168152602001908152602001600020819055508173ffffffffffffffffffffffffffffffffffffffff168373ffffffffffffffffffffffffffffffffffffffff167f8c5be1e5ebec7d5bd14f71427d1e84f3dd0314c0f7b2291e5b200ac8c7c3b92583604051610e0a9190611bb7565b60405180910390a3505050565b600073ffffffffffffffffffffffffffffffffffffffff168373ffffffffffffffffffffffffffffffffffffffff161415610e87576040517f08c379a0000000000000000000000000000000000000000000000000000000008152600401610e7e90611b17565b60405180910390fd5b600073ffffffffffffffffffffffffffffffffffffffff168273ffffffffffffffffffffffffffffffffffffffff161415610ef7576040517f08c379a0000000000000000000000000000000000000000000000000000000008152600401610eee90611a37565b60405180910390fd5b610f02838383611605565b610f6d81604051806060016040528060268152602001612113602691396000808773ffffffffffffffffffffffffffffffffffffffff1673ffffffffffffffffffffffffffffffffffffffff168152602001908152602001600020546110ac9092919063ffffffff16565b6000808573ffffffffffffffffffffffffffffffffffffffff1673ffffffffffffffffffffffffffffffffffffffff16815260200190815260200160002081905550611000816000808573ffffffffffffffffffffffffffffffffffffffff1673ffffffffffffffffffffffffffffffffffffffff1681526020019081526020016000205461111090919063ffffffff16565b6000808473ffffffffffffffffffffffffffffffffffffffff1673ffffffffffffffffffffffffffffffffffffffff168152602001908152602001600020819055508173ffffffffffffffffffffffffffffffffffffffff168373ffffffffffffffffffffffffffffffffffffffff167fddf252ad1be2c89b69c2b068fc378daa952ba7f163c4a11628f55a4df523b3ef8360405161109f9190611bb7565b60405180910390a3505050565b60008383111582906110f4576040517f08c379a00000000000000000000000000000000000000000000000000000000081526004016110eb9190611a15565b60405180910390fd5b50600083856111039190611c5f565b9050809150509392505050565b600080828461111f9190611c09565b905083811015611164576040517f08c379a000000000000000000000000000000000000000000000000000000000815260040161115b90611a97565b60405180910390fd5b8091505092915050565b600560019054906101000a900460ff166111bd576040517f08c379a00000000000000000000000000000000000000000000000000000000081526004016111b490611a57565b60405180910390fd5b6000600560016101000a81548160ff0219169083151502179055507f5db9ee0a495bf2e6ff9c91a7834c1ba4fdd244a5e8aa4e537bd38aeae4b073aa611201610c44565b60405161120e91906119df565b60405180910390a1565b600073ffffffffffffffffffffffffffffffffffffffff168273ffffffffffffffffffffffffffffffffffffffff161415611288576040517f08c379a000000000000000000000000000000000000000000000000000000000815260040161127f90611b77565b60405180910390fd5b61129460008383611605565b6112a98160025461111090919063ffffffff16565b600281905550611300816000808573ffffffffffffffffffffffffffffffffffffffff1673ffffffffffffffffffffffffffffffffffffffff1681526020019081526020016000205461111090919063ffffffff16565b6000808473ffffffffffffffffffffffffffffffffffffffff1673ffffffffffffffffffffffffffffffffffffffff168152602001908152602001600020819055508173ffffffffffffffffffffffffffffffffffffffff16600073ffffffffffffffffffffffffffffffffffffffff167fddf252ad1be2c89b69c2b068fc378daa952ba7f163c4a11628f55a4df523b3ef836040516113a09190611bb7565b60405180910390a35050565b600560019054906101000a900460ff16156113fc576040517f08c379a00000000000000000000000000000000000000000000000000000000081526004016113f390611ad7565b60405180910390fd5b6001600560016101000a81548160ff0219169083151502179055507f62e78cea01bee320cd4e420270b5ea74000d11b0c9f74754ebdbfc544b05a258611440610c44565b60405161144d91906119df565b60405180910390a1565b600073ffffffffffffffffffffffffffffffffffffffff168273ffffffffffffffffffffffffffffffffffffffff1614156114c7576040517f08c379a00000000000000000000000000000000000000000000000000000000081526004016114be90611af7565b60405180910390fd5b6114d382600083611605565b61153e816040518060600160405280602281526020016120f1602291396000808673ffffffffffffffffffffffffffffffffffffffff1673ffffffffffffffffffffffffffffffffffffffff168152602001908152602001600020546110ac9092919063ffffffff16565b6000808473ffffffffffffffffffffffffffffffffffffffff1673ffffffffffffffffffffffffffffffffffffffff168152602001908152602001600020819055506115958160025461165d90919063ffffffff16565b600281905550600073ffffffffffffffffffffffffffffffffffffffff168273ffffffffffffffffffffffffffffffffffffffff167fddf252ad1be2c89b69c2b068fc378daa952ba7f163c4a11628f55a4df523b3ef836040516115f99190611bb7565b60405180910390a35050565b6116108383836116a7565b611618610743565b15611658576040517f08c379a000000000000000000000000000000000000000000000000000000000815260040161164f90611b97565b60405180910390fd5b505050565b600061169f83836040518060400160405280601e81526020017f536166654d6174683a207375627472616374696f6e206f766572666c6f7700008152506110ac565b905092915050565b505050565b6000813590506116bb816120c2565b92915050565b6000813590506116d0816120d9565b92915050565b6000602082840312156116e857600080fd5b60006116f6848285016116ac565b91505092915050565b6000806040838503121561171257600080fd5b6000611720858286016116ac565b9250506020611731858286016116ac565b9150509250929050565b60008060006060848603121561175057600080fd5b600061175e868287016116ac565b935050602061176f868287016116ac565b9250506040611780868287016116c1565b9150509250925092565b6000806040838503121561179d57600080fd5b60006117ab858286016116ac565b92505060206117bc858286016116c1565b9150509250929050565b6117cf81611ce8565b82525050565b6117de81611ca5565b82525050565b60006117ef82611bed565b6117f98185611bf8565b9350611809818560208601611d1e565b61181281611de1565b840191505092915050565b600061182a602383611bf8565b915061183582611df2565b604082019050919050565b600061184d601483611bf8565b915061185882611e41565b602082019050919050565b6000611870602283611bf8565b915061187b82611e6a565b604082019050919050565b6000611893601b83611bf8565b915061189e82611eb9565b602082019050919050565b60006118b6600b83611bf8565b91506118c182611ee2565b602082019050919050565b60006118d9601083611bf8565b91506118e482611f0b565b602082019050919050565b60006118fc602183611bf8565b915061190782611f34565b604082019050919050565b600061191f602583611bf8565b915061192a82611f83565b604082019050919050565b6000611942600c83611bf8565b915061194d82611fd2565b602082019050919050565b6000611965602483611bf8565b915061197082611ffb565b604082019050919050565b6000611988601f83611bf8565b91506119938261204a565b602082019050919050565b60006119ab602a83611bf8565b91506119b682612073565b604082019050919050565b6119ca81611cd1565b82525050565b6119d981611cdb565b82525050565b60006020820190506119f460008301846117c6565b92915050565b6000602082019050611a0f60008301846117d5565b92915050565b60006020820190508181036000830152611a2f81846117e4565b905092915050565b60006020820190508181036000830152611a508161181d565b9050919050565b60006020820190508181036000830152611a7081611840565b9050919050565b60006020820190508181036000830152611a9081611863565b9050919050565b60006020820190508181036000830152611ab081611886565b9050919050565b60006020820190508181036000830152611ad0816118a9565b9050919050565b60006020820190508181036000830152611af0816118cc565b9050919050565b60006020820190508181036000830152611b10816118ef565b9050919050565b60006020820190508181036000830152611b3081611912565b9050919050565b60006020820190508181036000830152611b5081611935565b9050919050565b60006020820190508181036000830152611b7081611958565b9050919050565b60006020820190508181036000830152611b908161197b565b9050919050565b60006020820190508181036000830152611bb08161199e565b9050919050565b6000602082019050611bcc60008301846119c1565b92915050565b6000602082019050611be760008301846119d0565b92915050565b600081519050919050565b600082825260208201905092915050565b6000611c1482611cd1565b9150611c1f83611cd1565b9250827fffffffffffffffffffffffffffffffffffffffffffffffffffffffffffffffff03821115611c5457611c53611d83565b5b828201905092915050565b6000611c6a82611cd1565b9150611c7583611cd1565b925082821015611c8857611c87611d83565b5b828203905092915050565b6000611c9e82611cb1565b9050919050565b60008115159050919050565b600073ffffffffffffffffffffffffffffffffffffffff82169050919050565b6000819050919050565b600060ff82169050919050565b6000611cf382611cfa565b9050919050565b6000611d0582611d0c565b9050919050565b6000611d1782611cb1565b9050919050565b60005b83811015611d3c578082015181840152602081019050611d21565b83811115611d4b576000848401525b50505050565b60006002820490506001821680611d6957607f821691505b60208210811415611d7d57611d7c611db2565b5b50919050565b7f4e487b7100000000000000000000000000000000000000000000000000000000600052601160045260246000fd5b7f4e487b7100000000000000000000000000000000000000000000000000000000600052602260045260246000fd5b6000601f19601f8301169050919050565b7f45524332303a207472616e7366657220746f20746865207a65726f206164647260008201527f6573730000000000000000000000000000000000000000000000000000000000602082015250565b7f5061757361626c653a206e6f7420706175736564000000000000000000000000600082015250565b7f45524332303a20617070726f766520746f20746865207a65726f20616464726560008201527f7373000000000000000000000000000000000000000000000000000000000000602082015250565b7f536166654d6174683a206164646974696f6e206f766572666c6f770000000000600082015250565b7f6e6f7420616c6c6f776564000000000000000000000000000000000000000000600082015250565b7f5061757361626c653a2070617573656400000000000000000000000000000000600082015250565b7f45524332303a206275726e2066726f6d20746865207a65726f2061646472657360008201527f7300000000000000000000000000000000000000000000000000000000000000602082015250565b7f45524332303a207472616e736665722066726f6d20746865207a65726f20616460008201527f6472657373000000000000000000000000000000000000000000000000000000602082015250565b7f6f6e6c7920466163746f72790000000000000000000000000000000000000000600082015250565b7f45524332303a20617070726f76652066726f6d20746865207a65726f2061646460008201527f7265737300000000000000000000000000000000000000000000000000000000602082015250565b7f45524332303a206d696e7420746f20746865207a65726f206164647265737300600082015250565b7f45524332305061757361626c653a20746f6b656e207472616e7366657220776860008201527f696c652070617573656400000000000000000000000000000000000000000000602082015250565b6120cb81611c93565b81146120d657600080fd5b50565b6120e281611cd1565b81146120ed57600080fd5b5056fe45524332303a206275726e20616d6f756e7420657863656564732062616c616e636545524332303a207472616e7366657220616d6f756e7420657863656564732062616c616e636545524332303a207472616e7366657220616d6f756e74206578636565647320616c6c6f77616e636545524332303a2064656372656173656420616c6c6f77616e63652062656c6f77207a65726fa2646970667358221220b5575bbae9650fc9d61e9fec7d9aa964d5177e7754610bb1968b41fe68a0407564736f6c63430008030033",
  "immutableReferences": {},
  "source": "// SPDX-License-Identifier: MIT\r\n\r\npragma solidity ^0.8.0;\r\n\r\nimport \"./ERC20Pausable.sol\";\r\n\r\ncontract ERC20Template is ERC20Pausable {\r\n    address factory;\r\n    address _operator;\r\n    address _pauser;\r\n    constructor(address operator,address pauser,string memory name, string memory symbol,uint8 decimal) ERC20(name,symbol) {\r\n        _operator = operator;\r\n        _pauser=pauser;\r\n        _setupDecimals(decimal);\r\n        factory=msg.sender;\r\n    }\r\n\r\n\r\n    modifier onlyFactory(){\r\n        require(msg.sender==factory,\"only Factory\");\r\n        _;\r\n    }\r\n    modifier onlyOperator(){\r\n        require(msg.sender == _operator,\"not allowed\");\r\n        _;\r\n    }\r\n    modifier onlyPauser(){\r\n        require(msg.sender == _pauser,\"not allowed\");\r\n        _;\r\n    }\r\n\r\n    function pause() public  onlyPauser{\r\n        _pause();\r\n    }\r\n\r\n    function unpause() public  onlyPauser{\r\n        _unpause();\r\n    }\r\n\r\n    function changeUser(address new_operator, address new_pauser) public onlyFactory{\r\n        _pauser=new_pauser;\r\n        _operator=new_operator;\r\n    }\r\n\r\n    function mint(address account, uint256 amount) public whenNotPaused onlyOperator {\r\n        _mint(account, amount);\r\n    }\r\n    function burn(address account , uint256 amount) public whenNotPaused onlyOperator {\r\n        _burn(account,amount);\r\n    }\r\n}",
  "sourcePath": "E:\\work\\lowb\\source\\LowbMarket\\contracts\\ERC20Template\\ERC20Template.sol",
  "compiler": {
    "name": "solc",
    "version": "0.8.3+commit.8d00100c.Emscripten.clang"
  },
  "schemaVersion": "3.4.4",
  "updatedAt": "2022-02-03T02:19:24.062Z",
  "devdoc": {
    "kind": "dev",
    "methods": {},
    "version": 1
  },
  "userdoc": {
    "kind": "user",
    "methods": {},
    "version": 1
  }
}