{
  "contractName": "LowbMarketHelper",
  "abi": [
    {
      "inputs": [
        {
          "internalType": "address",
          "name": "lowbMarket_",
          "type": "address"
        }
      ],
      "stateMutability": "nonpayable",
      "type": "constructor"
    },
    {
      "inputs": [],
      "name": "lowbMarketAddress",
      "outputs": [
        {
          "internalType": "address",
          "name": "",
          "type": "address"
        }
      ],
      "stateMutability": "view",
      "type": "function"
    },
    {
      "inputs": [
        {
          "internalType": "uint256",
          "name": "from",
          "type": "uint256"
        },
        {
          "internalType": "uint256",
          "name": "to",
          "type": "uint256"
        }
      ],
      "name": "getOffers",
      "outputs": [
        {
          "components": [
            {
              "internalType": "bool",
              "name": "isForSale",
              "type": "bool"
            },
            {
              "internalType": "uint256",
              "name": "itemId",
              "type": "uint256"
            },
            {
              "internalType": "address",
              "name": "seller",
              "type": "address"
            },
            {
              "internalType": "uint256",
              "name": "minValue",
              "type": "uint256"
            },
            {
              "internalType": "address",
              "name": "onlySellTo",
              "type": "address"
            }
          ],
          "internalType": "struct LowbMarketOther.Offer[]",
          "name": "",
          "type": "tuple[]"
        }
      ],
      "stateMutability": "view",
      "type": "function"
    },
    {
      "inputs": [
        {
          "internalType": "uint256",
          "name": "from",
          "type": "uint256"
        },
        {
          "internalType": "uint256",
          "name": "to",
          "type": "uint256"
        }
      ],
      "name": "getNewOffers",
      "outputs": [
        {
          "internalType": "uint256[]",
          "name": "",
          "type": "uint256[]"
        }
      ],
      "stateMutability": "view",
      "type": "function"
    },
    {
      "inputs": [
        {
          "internalType": "address",
          "name": "addr",
          "type": "address"
        },
        {
          "internalType": "uint256",
          "name": "from",
          "type": "uint256"
        },
        {
          "internalType": "uint256",
          "name": "to",
          "type": "uint256"
        }
      ],
      "name": "getBidsOf",
      "outputs": [
        {
          "components": [
            {
              "internalType": "address",
              "name": "prevBidder",
              "type": "address"
            },
            {
              "internalType": "address",
              "name": "nextBidder",
              "type": "address"
            },
            {
              "internalType": "uint256",
              "name": "value",
              "type": "uint256"
            }
          ],
          "internalType": "struct LowbMarketOther.Bid[]",
          "name": "",
          "type": "tuple[]"
        }
      ],
      "stateMutability": "view",
      "type": "function"
    },
    {
      "inputs": [
        {
          "internalType": "uint256",
          "name": "from",
          "type": "uint256"
        },
        {
          "internalType": "uint256",
          "name": "to",
          "type": "uint256"
        }
      ],
      "name": "getHighestBids",
      "outputs": [
        {
          "components": [
            {
              "internalType": "address",
              "name": "prevBidder",
              "type": "address"
            },
            {
              "internalType": "address",
              "name": "nextBidder",
              "type": "address"
            },
            {
              "internalType": "uint256",
              "name": "value",
              "type": "uint256"
            }
          ],
          "internalType": "struct LowbMarketOther.Bid[]",
          "name": "",
          "type": "tuple[]"
        }
      ],
      "stateMutability": "view",
      "type": "function"
    }
  ],
  "bytecode": "0x60806040523480156200001157600080fd5b506040516200158f3803806200158f833981810160405281019062000037919062000095565b806000806101000a81548173ffffffffffffffffffffffffffffffffffffffff021916908373ffffffffffffffffffffffffffffffffffffffff160217905550506200010f565b6000815190506200008f81620000f5565b92915050565b600060208284031215620000a857600080fd5b6000620000b8848285016200007e565b91505092915050565b6000620000ce82620000d5565b9050919050565b600073ffffffffffffffffffffffffffffffffffffffff82169050919050565b6200010081620000c1565b81146200010c57600080fd5b50565b611470806200011f6000396000f3fe608060405234801561001057600080fd5b50600436106100575760003560e01c806372b118f61461005c5780638729752e1461008c57806397d6eb19146100aa578063bf1a65e0146100da578063faeb64f71461010a575b600080fd5b61007660048036038101906100719190610d95565b61013a565b60405161008391906110aa565b60405180910390f35b610094610340565b6040516100a1919061104b565b60405180910390f35b6100c460048036038101906100bf9190610d95565b610364565b6040516100d19190611088565b60405180910390f35b6100f460048036038101906100ef9190610ccb565b610574565b6040516101019190611066565b60405180910390f35b610124600480360381019061011f9190610d95565b610787565b6040516101319190611066565b60405180910390f35b606060008311801561014c5750828210155b61018b576040517f08c379a0000000000000000000000000000000000000000000000000000000008152600401610182906110cc565b60405180910390fd5b60008060009054906101000a900473ffffffffffffffffffffffffffffffffffffffff1690506000600185856101c19190611267565b6101cb9190611211565b67ffffffffffffffff81111561020a577f4e487b7100000000000000000000000000000000000000000000000000000000600052604160045260246000fd5b6040519080825280602002602001820160405280156102385781602001602082028036833780820191505090505b50905060008590505b848111610334578273ffffffffffffffffffffffffffffffffffffffff1663310e1b26826040518263ffffffff1660e01b815260040161028191906110ec565b60206040518083038186803b15801561029957600080fd5b505afa1580156102ad573d6000803e3d6000fd5b505050506040513d601f19601f820116820180604052508101906102d19190610d6c565b8287836102de9190611267565b81518110610315577f4e487b7100000000000000000000000000000000000000000000000000000000600052603260045260246000fd5b602002602001018181525050808061032c90611314565b915050610241565b50809250505092915050565b60008054906101000a900473ffffffffffffffffffffffffffffffffffffffff1681565b60606000831180156103765750828210155b6103b5576040517f08c379a00000000000000000000000000000000000000000000000000000000081526004016103ac906110cc565b60405180910390fd5b60008060009054906101000a900473ffffffffffffffffffffffffffffffffffffffff1690506000600185856103eb9190611267565b6103f59190611211565b67ffffffffffffffff811115610434577f4e487b7100000000000000000000000000000000000000000000000000000000600052604160045260246000fd5b60405190808252806020026020018201604052801561046d57816020015b61045a610ad0565b8152602001906001900390816104525790505b50905060008590505b848111610568578273ffffffffffffffffffffffffffffffffffffffff16634b4ddfa6826040518263ffffffff1660e01b81526004016104b691906110ec565b60a06040518083038186803b1580156104ce57600080fd5b505afa1580156104e2573d6000803e3d6000fd5b505050506040513d601f19601f820116820180604052508101906105069190610d43565b8287836105139190611267565b8151811061054a577f4e487b7100000000000000000000000000000000000000000000000000000000600052603260045260246000fd5b6020026020010181905250808061056090611314565b915050610476565b50809250505092915050565b60606000831180156105865750828210155b6105c5576040517f08c379a00000000000000000000000000000000000000000000000000000000081526004016105bc906110cc565b60405180910390fd5b60008060009054906101000a900473ffffffffffffffffffffffffffffffffffffffff1690506000600185856105fb9190611267565b6106059190611211565b67ffffffffffffffff811115610644577f4e487b7100000000000000000000000000000000000000000000000000000000600052604160045260246000fd5b60405190808252806020026020018201604052801561067d57816020015b61066a610b2d565b8152602001906001900390816106625790505b50905060008590505b84811161077a578273ffffffffffffffffffffffffffffffffffffffff16631a6c094082896040518363ffffffff1660e01b81526004016106c8929190611107565b60606040518083038186803b1580156106e057600080fd5b505afa1580156106f4573d6000803e3d6000fd5b505050506040513d601f19601f820116820180604052508101906107189190610d1a565b8287836107259190611267565b8151811061075c577f4e487b7100000000000000000000000000000000000000000000000000000000600052603260045260246000fd5b6020026020010181905250808061077290611314565b915050610686565b5080925050509392505050565b60606000831180156107995750828210155b6107d8576040517f08c379a00000000000000000000000000000000000000000000000000000000081526004016107cf906110cc565b60405180910390fd5b60008060009054906101000a900473ffffffffffffffffffffffffffffffffffffffff16905060006001858561080e9190611267565b6108189190611211565b67ffffffffffffffff811115610857577f4e487b7100000000000000000000000000000000000000000000000000000000600052604160045260246000fd5b60405190808252806020026020018201604052801561089057816020015b61087d610b2d565b8152602001906001900390816108755790505b50905061089b610b2d565b60008690505b858111610ac3578373ffffffffffffffffffffffffffffffffffffffff16631a6c09408260006040518363ffffffff1660e01b81526004016108e4929190611107565b60606040518083038186803b1580156108fc57600080fd5b505afa158015610910573d6000803e3d6000fd5b505050506040513d601f19601f820116820180604052508101906109349190610d1a565b91505b600073ffffffffffffffffffffffffffffffffffffffff16826020015173ffffffffffffffffffffffffffffffffffffffff1614610ab0578373ffffffffffffffffffffffffffffffffffffffff16631a6c09408284602001516040518363ffffffff1660e01b81526004016109ae929190611107565b60606040518083038186803b1580156109c657600080fd5b505afa1580156109da573d6000803e3d6000fd5b505050506040513d601f19601f820116820180604052508101906109fe9190610d1a565b9150828782610a0d9190611267565b81518110610a44577f4e487b7100000000000000000000000000000000000000000000000000000000600052603260045260246000fd5b602002602001015160400151826040015110610aab5781838883610a689190611267565b81518110610a9f577f4e487b7100000000000000000000000000000000000000000000000000000000600052603260045260246000fd5b60200260200101819052505b610937565b8080610abb90611314565b9150506108a1565b5081935050505092915050565b6040518060a0016040528060001515815260200160008152602001600073ffffffffffffffffffffffffffffffffffffffff16815260200160008152602001600073ffffffffffffffffffffffffffffffffffffffff1681525090565b6040518060600160405280600073ffffffffffffffffffffffffffffffffffffffff168152602001600073ffffffffffffffffffffffffffffffffffffffff168152602001600081525090565b600081359050610b89816113f5565b92915050565b600081519050610b9e816113f5565b92915050565b600081519050610bb38161140c565b92915050565b600060608284031215610bcb57600080fd5b610bd56060611130565b90506000610be584828501610b8f565b6000830152506020610bf984828501610b8f565b6020830152506040610c0d84828501610cb6565b60408301525092915050565b600060a08284031215610c2b57600080fd5b610c3560a0611130565b90506000610c4584828501610ba4565b6000830152506020610c5984828501610cb6565b6020830152506040610c6d84828501610b8f565b6040830152506060610c8184828501610cb6565b6060830152506080610c9584828501610b8f565b60808301525092915050565b600081359050610cb081611423565b92915050565b600081519050610cc581611423565b92915050565b600080600060608486031215610ce057600080fd5b6000610cee86828701610b7a565b9350506020610cff86828701610ca1565b9250506040610d1086828701610ca1565b9150509250925092565b600060608284031215610d2c57600080fd5b6000610d3a84828501610bb9565b91505092915050565b600060a08284031215610d5557600080fd5b6000610d6384828501610c19565b91505092915050565b600060208284031215610d7e57600080fd5b6000610d8c84828501610cb6565b91505092915050565b60008060408385031215610da857600080fd5b6000610db685828601610ca1565b9250506020610dc785828601610ca1565b9150509250929050565b6000610ddd8383610f83565b60608301905092915050565b6000610df58383610fc5565b60a08301905092915050565b6000610e0d838361102d565b60208301905092915050565b610e228161129b565b82525050565b610e318161129b565b82525050565b6000610e4282611185565b610e4c81856111cd565b9350610e5783611155565b8060005b83811015610e88578151610e6f8882610dd1565b9750610e7a836111a6565b925050600181019050610e5b565b5085935050505092915050565b6000610ea082611190565b610eaa81856111de565b9350610eb583611165565b8060005b83811015610ee6578151610ecd8882610de9565b9750610ed8836111b3565b925050600181019050610eb9565b5085935050505092915050565b6000610efe8261119b565b610f0881856111ef565b9350610f1383611175565b8060005b83811015610f44578151610f2b8882610e01565b9750610f36836111c0565b925050600181019050610f17565b5085935050505092915050565b610f5a816112ad565b82525050565b6000610f6d600d83611200565b9150610f78826113cc565b602082019050919050565b606082016000820151610f996000850182610e19565b506020820151610fac6020850182610e19565b506040820151610fbf604085018261102d565b50505050565b60a082016000820151610fdb6000850182610f51565b506020820151610fee602085018261102d565b5060408201516110016040850182610e19565b506060820151611014606085018261102d565b5060808201516110276080850182610e19565b50505050565b611036816112d9565b82525050565b611045816112d9565b82525050565b60006020820190506110606000830184610e28565b92915050565b600060208201905081810360008301526110808184610e37565b905092915050565b600060208201905081810360008301526110a28184610e95565b905092915050565b600060208201905081810360008301526110c48184610ef3565b905092915050565b600060208201905081810360008301526110e581610f60565b9050919050565b6000602082019050611101600083018461103c565b92915050565b600060408201905061111c600083018561103c565b6111296020830184610e28565b9392505050565b600061113a61114b565b905061114682826112e3565b919050565b6000604051905090565b6000819050602082019050919050565b6000819050602082019050919050565b6000819050602082019050919050565b600081519050919050565b600081519050919050565b600081519050919050565b6000602082019050919050565b6000602082019050919050565b6000602082019050919050565b600082825260208201905092915050565b600082825260208201905092915050565b600082825260208201905092915050565b600082825260208201905092915050565b600061121c826112d9565b9150611227836112d9565b9250827fffffffffffffffffffffffffffffffffffffffffffffffffffffffffffffffff0382111561125c5761125b61135d565b5b828201905092915050565b6000611272826112d9565b915061127d836112d9565b9250828210156112905761128f61135d565b5b828203905092915050565b60006112a6826112b9565b9050919050565b60008115159050919050565b600073ffffffffffffffffffffffffffffffffffffffff82169050919050565b6000819050919050565b6112ec826113bb565b810181811067ffffffffffffffff8211171561130b5761130a61138c565b5b80604052505050565b600061131f826112d9565b91507fffffffffffffffffffffffffffffffffffffffffffffffffffffffffffffffff8214156113525761135161135d565b5b600182019050919050565b7f4e487b7100000000000000000000000000000000000000000000000000000000600052601160045260246000fd5b7f4e487b7100000000000000000000000000000000000000000000000000000000600052604160045260246000fd5b6000601f19601f8301169050919050565b7f496e76616c696420696e64657800000000000000000000000000000000000000600082015250565b6113fe8161129b565b811461140957600080fd5b50565b611415816112ad565b811461142057600080fd5b50565b61142c816112d9565b811461143757600080fd5b5056fea264697066735822122016c79597f8a2df544438903a0f1373566d40342ffaa7b24ee40c7a98d7b804e064736f6c63430008030033",
  "immutableReferences": {},
  "source": "// contracts/LowbMarket.sol\r\n// SPDX-License-Identifier: MIT\r\npragma solidity ^0.8.0;\r\n\r\nimport \"./LowbMarketOther.sol\";\r\n\r\ncontract LowbMarketHelper {\r\n\r\n    address public lowbMarketAddress;\r\n\r\n    constructor(address lowbMarket_) {\r\n        lowbMarketAddress = lowbMarket_;\r\n    }\r\n\r\n    function getOffers(uint from, uint to) public view returns (LowbMarketOther.Offer[] memory) {\r\n        require(from > 0 && to >= from, \"Invalid index\");\r\n        LowbMarketOther market = LowbMarketOther(lowbMarketAddress);\r\n        LowbMarketOther.Offer[] memory offers = new LowbMarketOther.Offer[](to-from+1);\r\n        for (uint i=from; i<=to; i++) {\r\n            offers[i-from] = market.itemsOfferedForSale(i);\r\n        }\r\n        return offers;\r\n    }\r\n\r\n    function getNewOffers(uint from, uint to) public view returns (uint[] memory) {\r\n        require(from > 0 && to >= from, \"Invalid index\");\r\n        LowbMarketOther market = LowbMarketOther(lowbMarketAddress);\r\n        uint[] memory offers = new uint[](to-from+1);\r\n        for (uint i=from; i<=to; i++) {\r\n            offers[i-from] = market.newTokenOffer(i);\r\n        }\r\n        return offers;\r\n    }\r\n\r\n    function getBidsOf(address addr, uint from, uint to) public view returns (LowbMarketOther.Bid[] memory) {\r\n        require(from > 0 && to >= from, \"Invalid index\");\r\n        LowbMarketOther market = LowbMarketOther(lowbMarketAddress);\r\n        LowbMarketOther.Bid[] memory bids = new LowbMarketOther.Bid[](to-from+1);\r\n        for (uint i=from; i<=to; i++) {\r\n            bids[i-from] = market.itemBids(i, addr);\r\n        }\r\n        return bids;\r\n    }\r\n\r\n    function getHighestBids(uint from, uint to) public view returns (LowbMarketOther.Bid[] memory) {\r\n        require(from > 0 && to >= from, \"Invalid index\");\r\n        LowbMarketOther market = LowbMarketOther(lowbMarketAddress);\r\n        LowbMarketOther.Bid[] memory bids = new LowbMarketOther.Bid[](to-from+1);\r\n        LowbMarketOther.Bid memory bid;\r\n        for (uint i=from; i<=to; i++) {\r\n            bid = market.itemBids(i, address(0));\r\n            while (bid.nextBidder != address(0)) {\r\n                bid = market.itemBids(i, bid.nextBidder);\r\n                if (bid.value >= bids[i-from].value) {\r\n                    bids[i-from] = bid;\r\n                }\r\n            }\r\n        }\r\n        return bids;\r\n    }\r\n}",
  "sourcePath": "E:\\work\\lowb\\source\\LowbMarket\\contracts\\LowbMarketHelper\\LowbMarketHelper.sol",
  "compiler": {
    "name": "solc",
    "version": "0.8.3+commit.8d00100c.Emscripten.clang"
  },
  "schemaVersion": "3.4.4",
  "updatedAt": "2022-02-03T02:19:24.104Z",
  "devdoc": {
    "kind": "dev",
    "methods": {},
    "version": 1
  },
  "userdoc": {
    "kind": "user",
    "methods": {},
    "version": 1
  }
}