{
  "contractName": "LowbMarket",
  "abi": [
    {
      "inputs": [
        {
          "internalType": "address",
          "name": "lowbToken_",
          "type": "address"
        },
        {
          "internalType": "address",
          "name": "nonFungibleToken_",
          "type": "address"
        }
      ],
      "stateMutability": "nonpayable",
      "type": "constructor"
    },
    {
      "anonymous": false,
      "inputs": [
        {
          "indexed": true,
          "internalType": "uint256",
          "name": "itemId",
          "type": "uint256"
        },
        {
          "indexed": false,
          "internalType": "uint256",
          "name": "value",
          "type": "uint256"
        },
        {
          "indexed": true,
          "internalType": "address",
          "name": "fromAddress",
          "type": "address"
        }
      ],
      "name": "BidWithdrawn",
      "type": "event"
    },
    {
      "anonymous": false,
      "inputs": [
        {
          "indexed": true,
          "internalType": "uint256",
          "name": "itemId",
          "type": "uint256"
        },
        {
          "indexed": false,
          "internalType": "uint256",
          "name": "value",
          "type": "uint256"
        },
        {
          "indexed": true,
          "internalType": "address",
          "name": "fromAddress",
          "type": "address"
        },
        {
          "indexed": true,
          "internalType": "address",
          "name": "toAddress",
          "type": "address"
        }
      ],
      "name": "ItemBought",
      "type": "event"
    },
    {
      "anonymous": false,
      "inputs": [
        {
          "indexed": true,
          "internalType": "uint256",
          "name": "itemId",
          "type": "uint256"
        },
        {
          "indexed": false,
          "internalType": "uint256",
          "name": "value",
          "type": "uint256"
        },
        {
          "indexed": true,
          "internalType": "address",
          "name": "toAddress",
          "type": "address"
        }
      ],
      "name": "ItemMint",
      "type": "event"
    },
    {
      "anonymous": false,
      "inputs": [
        {
          "indexed": true,
          "internalType": "uint256",
          "name": "itemId",
          "type": "uint256"
        }
      ],
      "name": "ItemNoLongerForSale",
      "type": "event"
    },
    {
      "anonymous": false,
      "inputs": [
        {
          "indexed": true,
          "internalType": "uint256",
          "name": "itemId",
          "type": "uint256"
        },
        {
          "indexed": false,
          "internalType": "uint256",
          "name": "minValue",
          "type": "uint256"
        },
        {
          "indexed": true,
          "internalType": "address",
          "name": "toAddress",
          "type": "address"
        }
      ],
      "name": "ItemOffered",
      "type": "event"
    },
    {
      "anonymous": false,
      "inputs": [
        {
          "indexed": true,
          "internalType": "uint256",
          "name": "groupId",
          "type": "uint256"
        },
        {
          "indexed": false,
          "internalType": "uint256",
          "name": "value",
          "type": "uint256"
        },
        {
          "indexed": true,
          "internalType": "address",
          "name": "fromAddress",
          "type": "address"
        }
      ],
      "name": "NewBidEntered",
      "type": "event"
    },
    {
      "anonymous": false,
      "inputs": [
        {
          "indexed": true,
          "internalType": "uint256",
          "name": "groupId",
          "type": "uint256"
        },
        {
          "indexed": false,
          "internalType": "uint256",
          "name": "minValue",
          "type": "uint256"
        }
      ],
      "name": "NewItemsOffered",
      "type": "event"
    },
    {
      "inputs": [],
      "name": "INVERSE_BASIS_POINT",
      "outputs": [
        {
          "internalType": "uint256",
          "name": "",
          "type": "uint256"
        }
      ],
      "stateMutability": "view",
      "type": "function"
    },
    {
      "inputs": [],
      "name": "fee",
      "outputs": [
        {
          "internalType": "uint256",
          "name": "",
          "type": "uint256"
        }
      ],
      "stateMutability": "view",
      "type": "function"
    },
    {
      "inputs": [
        {
          "internalType": "uint256",
          "name": "",
          "type": "uint256"
        },
        {
          "internalType": "address",
          "name": "",
          "type": "address"
        }
      ],
      "name": "itemBids",
      "outputs": [
        {
          "internalType": "address",
          "name": "prevBidder",
          "type": "address"
        },
        {
          "internalType": "address",
          "name": "nextBidder",
          "type": "address"
        },
        {
          "internalType": "uint256",
          "name": "value",
          "type": "uint256"
        }
      ],
      "stateMutability": "view",
      "type": "function"
    },
    {
      "inputs": [
        {
          "internalType": "uint256",
          "name": "",
          "type": "uint256"
        }
      ],
      "name": "itemsOfferedForSale",
      "outputs": [
        {
          "internalType": "bool",
          "name": "isForSale",
          "type": "bool"
        },
        {
          "internalType": "uint256",
          "name": "itemId",
          "type": "uint256"
        },
        {
          "internalType": "address",
          "name": "seller",
          "type": "address"
        },
        {
          "internalType": "uint256",
          "name": "minValue",
          "type": "uint256"
        },
        {
          "internalType": "address",
          "name": "onlySellTo",
          "type": "address"
        }
      ],
      "stateMutability": "view",
      "type": "function"
    },
    {
      "inputs": [],
      "name": "lowbTokenAddress",
      "outputs": [
        {
          "internalType": "address",
          "name": "",
          "type": "address"
        }
      ],
      "stateMutability": "view",
      "type": "function"
    },
    {
      "inputs": [
        {
          "internalType": "uint256",
          "name": "",
          "type": "uint256"
        }
      ],
      "name": "newTokenOffer",
      "outputs": [
        {
          "internalType": "uint256",
          "name": "",
          "type": "uint256"
        }
      ],
      "stateMutability": "view",
      "type": "function"
    },
    {
      "inputs": [],
      "name": "nonFungibleTokenAddress",
      "outputs": [
        {
          "internalType": "address",
          "name": "",
          "type": "address"
        }
      ],
      "stateMutability": "view",
      "type": "function"
    },
    {
      "inputs": [],
      "name": "owner",
      "outputs": [
        {
          "internalType": "address",
          "name": "",
          "type": "address"
        }
      ],
      "stateMutability": "view",
      "type": "function"
    },
    {
      "inputs": [
        {
          "internalType": "address",
          "name": "",
          "type": "address"
        }
      ],
      "name": "pendingWithdrawals",
      "outputs": [
        {
          "internalType": "uint256",
          "name": "",
          "type": "uint256"
        }
      ],
      "stateMutability": "view",
      "type": "function"
    },
    {
      "inputs": [
        {
          "internalType": "uint256",
          "name": "itemId",
          "type": "uint256"
        }
      ],
      "name": "itemNoLongerForSale",
      "outputs": [],
      "stateMutability": "nonpayable",
      "type": "function"
    },
    {
      "inputs": [
        {
          "internalType": "uint256",
          "name": "itemId",
          "type": "uint256"
        },
        {
          "internalType": "uint256",
          "name": "minSalePriceInWei",
          "type": "uint256"
        }
      ],
      "name": "offerItemForSale",
      "outputs": [],
      "stateMutability": "nonpayable",
      "type": "function"
    },
    {
      "inputs": [
        {
          "internalType": "uint256",
          "name": "itemId",
          "type": "uint256"
        },
        {
          "internalType": "uint256",
          "name": "minSalePriceInWei",
          "type": "uint256"
        },
        {
          "internalType": "address",
          "name": "toAddress",
          "type": "address"
        }
      ],
      "name": "offerItemForSaleToAddress",
      "outputs": [],
      "stateMutability": "nonpayable",
      "type": "function"
    },
    {
      "inputs": [
        {
          "internalType": "uint256",
          "name": "amount",
          "type": "uint256"
        }
      ],
      "name": "deposit",
      "outputs": [],
      "stateMutability": "nonpayable",
      "type": "function"
    },
    {
      "inputs": [
        {
          "internalType": "uint256",
          "name": "amount",
          "type": "uint256"
        }
      ],
      "name": "withdraw",
      "outputs": [],
      "stateMutability": "nonpayable",
      "type": "function"
    },
    {
      "inputs": [
        {
          "internalType": "uint256",
          "name": "itemId",
          "type": "uint256"
        },
        {
          "internalType": "uint256",
          "name": "amount",
          "type": "uint256"
        }
      ],
      "name": "buyItem",
      "outputs": [],
      "stateMutability": "nonpayable",
      "type": "function"
    },
    {
      "inputs": [
        {
          "internalType": "uint256",
          "name": "groupId",
          "type": "uint256"
        },
        {
          "internalType": "uint256",
          "name": "amount",
          "type": "uint256"
        }
      ],
      "name": "enterBid",
      "outputs": [],
      "stateMutability": "nonpayable",
      "type": "function"
    },
    {
      "inputs": [
        {
          "internalType": "uint256",
          "name": "itemId",
          "type": "uint256"
        },
        {
          "internalType": "address",
          "name": "bidder",
          "type": "address"
        }
      ],
      "name": "acceptBid",
      "outputs": [],
      "stateMutability": "nonpayable",
      "type": "function"
    },
    {
      "inputs": [
        {
          "internalType": "uint256",
          "name": "groupId",
          "type": "uint256"
        }
      ],
      "name": "withdrawBid",
      "outputs": [],
      "stateMutability": "nonpayable",
      "type": "function"
    },
    {
      "inputs": [
        {
          "internalType": "uint256",
          "name": "groupId",
          "type": "uint256"
        },
        {
          "internalType": "address",
          "name": "bidder",
          "type": "address"
        }
      ],
      "name": "approveBid",
      "outputs": [],
      "stateMutability": "nonpayable",
      "type": "function"
    },
    {
      "inputs": [
        {
          "internalType": "uint256",
          "name": "groupId",
          "type": "uint256"
        },
        {
          "internalType": "uint256",
          "name": "minSalePriceInWei",
          "type": "uint256"
        }
      ],
      "name": "offerItemsForPublicSale",
      "outputs": [],
      "stateMutability": "nonpayable",
      "type": "function"
    },
    {
      "inputs": [
        {
          "internalType": "uint256",
          "name": "groupId",
          "type": "uint256"
        },
        {
          "internalType": "uint256",
          "name": "amount",
          "type": "uint256"
        }
      ],
      "name": "buyNewItem",
      "outputs": [],
      "stateMutability": "nonpayable",
      "type": "function"
    },
    {
      "inputs": [],
      "name": "pullFunds",
      "outputs": [],
      "stateMutability": "nonpayable",
      "type": "function"
    }
  ],
  "bytecode": "0x60806040523480156200001157600080fd5b50604051620051603803806200516083398181016040528101906200003791906200015b565b600073ffffffffffffffffffffffffffffffffffffffff168173ffffffffffffffffffffffffffffffffffffffff1614156200007257600080fd5b806000806101000a81548173ffffffffffffffffffffffffffffffffffffffff021916908373ffffffffffffffffffffffffffffffffffffffff16021790555081600160006101000a81548173ffffffffffffffffffffffffffffffffffffffff021916908373ffffffffffffffffffffffffffffffffffffffff16021790555033600260006101000a81548173ffffffffffffffffffffffffffffffffffffffff021916908373ffffffffffffffffffffffffffffffffffffffff16021790555060fa6003819055505050620001ea565b6000815190506200015581620001d0565b92915050565b600080604083850312156200016f57600080fd5b60006200017f8582860162000144565b9250506020620001928582860162000144565b9150509250929050565b6000620001a982620001b0565b9050919050565b600073ffffffffffffffffffffffffffffffffffffffff82169050919050565b620001db816200019c565b8114620001e757600080fd5b50565b614f6680620001fa6000396000f3fe608060405234801561001057600080fd5b50600436106101425760003560e01c80634b4ddfa6116100b85780639979c0091161007c5780639979c0091461034f578063b6b55f251461036b578063cae6047f14610387578063ddca3f43146103a5578063e43a0bb2146103c3578063f3f43703146103cd57610142565b80634b4ddfa6146102a757806360e9280b146102db57806366113738146102f757806368249dcb146103135780638da5cb5b1461033157610142565b80631ef4d9201161010a5780631ef4d920146101e95780632e1a7d4d14610207578063310e1b26146102235780633538a50e146102535780633c847b5e1461026f5780633d570cc01461028b57610142565b8063020686641461014757806304fa906b146101635780630eaaf4c81461017f5780630f6f3e061461019b5780631a6c0940146101b7575b600080fd5b610161600480360381019061015c91906140a4565b6103fd565b005b61017d60048036038101906101789190614052565b610c1d565b005b61019960048036038101906101949190614052565b610e9a565b005b6101b560048036038101906101b091906140e0565b61124d565b005b6101d160048036038101906101cc91906140a4565b6118ce565b6040516101e0939291906144b5565b60405180910390f35b6101f1611945565b6040516101fe919061449a565b60405180910390f35b610221600480360381019061021c9190614052565b611969565b005b61023d60048036038101906102389190614052565b611b38565b60405161024a9190614828565b60405180910390f35b61026d6004803603810190610268919061411c565b611b50565b005b610289600480360381019061028491906140a4565b611ee5565b005b6102a560048036038101906102a091906140e0565b612669565b005b6102c160048036038101906102bc9190614052565b6129ff565b6040516102d2959493929190614515565b60405180910390f35b6102f560048036038101906102f091906140e0565b612a82565b005b610311600480360381019061030c91906140e0565b612fa7565b005b61031b6132df565b604051610328919061449a565b60405180910390f35b610339613305565b604051610346919061449a565b60405180910390f35b610369600480360381019061036491906140e0565b61332b565b005b61038560048036038101906103809190614052565b6138c9565b005b61038f613a5b565b60405161039c9190614828565b60405180910390f35b6103ad613a61565b6040516103ba9190614828565b60405180910390f35b6103cb613a67565b005b6103e760048036038101906103e29190613fd7565b613c33565b6040516103f49190614828565b60405180910390f35b60008060009054906101000a900473ffffffffffffffffffffffffffffffffffffffff1690503373ffffffffffffffffffffffffffffffffffffffff168173ffffffffffffffffffffffffffffffffffffffff16636352211e856040518263ffffffff1660e01b81526004016104739190614828565b60206040518083038186803b15801561048b57600080fd5b505afa15801561049f573d6000803e3d6000fd5b505050506040513d601f19601f820116820180604052508101906104c39190614000565b73ffffffffffffffffffffffffffffffffffffffff1614610519576040517f08c379a000000000000000000000000000000000000000000000000000000000815260040161051090614788565b60405180910390fd5b3073ffffffffffffffffffffffffffffffffffffffff168173ffffffffffffffffffffffffffffffffffffffff1663081812fc856040518263ffffffff1660e01b81526004016105699190614828565b60206040518083038186803b15801561058157600080fd5b505afa158015610595573d6000803e3d6000fd5b505050506040513d601f19601f820116820180604052508101906105b99190614000565b73ffffffffffffffffffffffffffffffffffffffff161461060f576040517f08c379a000000000000000000000000000000000000000000000000000000000815260040161060690614768565b60405180910390fd5b600033905060008273ffffffffffffffffffffffffffffffffffffffff1663503ae187866040518263ffffffff1660e01b815260040161064f9190614828565b60206040518083038186803b15801561066757600080fd5b505afa15801561067b573d6000803e3d6000fd5b505050506040513d601f19601f8201168201806040525081019061069f919061407b565b905060006005600083815260200190815260200160002060008673ffffffffffffffffffffffffffffffffffffffff1673ffffffffffffffffffffffffffffffffffffffff1681526020019081526020016000206002015490506000811161073c576040517f08c379a0000000000000000000000000000000000000000000000000000000008152600401610733906145c8565b60405180910390fd5b8373ffffffffffffffffffffffffffffffffffffffff166342842e0e8487896040518463ffffffff1660e01b8152600401610779939291906144b5565b600060405180830381600087803b15801561079357600080fd5b505af11580156107a7573d6000803e3d6000fd5b505050506040518060a001604052806000151581526020018781526020018673ffffffffffffffffffffffffffffffffffffffff16815260200160008152602001600073ffffffffffffffffffffffffffffffffffffffff168152506004600088815260200190815260200160002060008201518160000160006101000a81548160ff0219169083151502179055506020820151816001015560408201518160020160006101000a81548173ffffffffffffffffffffffffffffffffffffffff021916908373ffffffffffffffffffffffffffffffffffffffff1602179055506060820151816003015560808201518160040160006101000a81548173ffffffffffffffffffffffffffffffffffffffff021916908373ffffffffffffffffffffffffffffffffffffffff16021790555090505060006005600084815260200190815260200160002060008773ffffffffffffffffffffffffffffffffffffffff1673ffffffffffffffffffffffffffffffffffffffff1681526020019081526020016000206002018190555060006005600084815260200190815260200160002060008773ffffffffffffffffffffffffffffffffffffffff1673ffffffffffffffffffffffffffffffffffffffff16815260200190815260200160002060010160009054906101000a900473ffffffffffffffffffffffffffffffffffffffff16905060006005600085815260200190815260200160002060008873ffffffffffffffffffffffffffffffffffffffff1673ffffffffffffffffffffffffffffffffffffffff16815260200190815260200160002060000160009054906101000a900473ffffffffffffffffffffffffffffffffffffffff169050816005600086815260200190815260200160002060008373ffffffffffffffffffffffffffffffffffffffff1673ffffffffffffffffffffffffffffffffffffffff16815260200190815260200160002060010160006101000a81548173ffffffffffffffffffffffffffffffffffffffff021916908373ffffffffffffffffffffffffffffffffffffffff160217905550806005600086815260200190815260200160002060008473ffffffffffffffffffffffffffffffffffffffff1673ffffffffffffffffffffffffffffffffffffffff16815260200190815260200160002060000160006101000a81548173ffffffffffffffffffffffffffffffffffffffff021916908373ffffffffffffffffffffffffffffffffffffffff1602179055506000610b548985613c4b565b905080600660008873ffffffffffffffffffffffffffffffffffffffff1673ffffffffffffffffffffffffffffffffffffffff1681526020019081526020016000206000828254610ba59190614854565b925050819055508773ffffffffffffffffffffffffffffffffffffffff168673ffffffffffffffffffffffffffffffffffffffff168a7f7dabc6512298d15f481bd3755e8e2e4387bdd4497983824ce33f9c315005e89687604051610c0a9190614828565b60405180910390a4505050505050505050565b60008060009054906101000a900473ffffffffffffffffffffffffffffffffffffffff1690503373ffffffffffffffffffffffffffffffffffffffff168173ffffffffffffffffffffffffffffffffffffffff16636352211e846040518263ffffffff1660e01b8152600401610c939190614828565b60206040518083038186803b158015610cab57600080fd5b505afa158015610cbf573d6000803e3d6000fd5b505050506040513d601f19601f82011682018060405250810190610ce39190614000565b73ffffffffffffffffffffffffffffffffffffffff1614610d39576040517f08c379a0000000000000000000000000000000000000000000000000000000008152600401610d3090614788565b60405180910390fd5b6040518060a001604052806000151581526020018381526020013373ffffffffffffffffffffffffffffffffffffffff16815260200160008152602001600073ffffffffffffffffffffffffffffffffffffffff168152506004600084815260200190815260200160002060008201518160000160006101000a81548160ff0219169083151502179055506020820151816001015560408201518160020160006101000a81548173ffffffffffffffffffffffffffffffffffffffff021916908373ffffffffffffffffffffffffffffffffffffffff1602179055506060820151816003015560808201518160040160006101000a81548173ffffffffffffffffffffffffffffffffffffffff021916908373ffffffffffffffffffffffffffffffffffffffff160217905550905050817f4d3fddd7140a18aabb43157d457a8bd1f6aee4360f2637a58720dd2d621268de60405160405180910390a25050565b60006005600083815260200190815260200160002060003373ffffffffffffffffffffffffffffffffffffffff1673ffffffffffffffffffffffffffffffffffffffff16815260200190815260200160002060020154905060008111610f35576040517f08c379a0000000000000000000000000000000000000000000000000000000008152600401610f2c906147a8565b60405180910390fd5b3373ffffffffffffffffffffffffffffffffffffffff16827fb41c9b05054be45850ccc1da7d90c7b819cff855cfe0d14f16427398b286c9b683604051610f7c9190614828565b60405180910390a360006005600084815260200190815260200160002060003373ffffffffffffffffffffffffffffffffffffffff1673ffffffffffffffffffffffffffffffffffffffff1681526020019081526020016000206002018190555060006005600084815260200190815260200160002060003373ffffffffffffffffffffffffffffffffffffffff1673ffffffffffffffffffffffffffffffffffffffff16815260200190815260200160002060010160009054906101000a900473ffffffffffffffffffffffffffffffffffffffff16905060006005600085815260200190815260200160002060003373ffffffffffffffffffffffffffffffffffffffff1673ffffffffffffffffffffffffffffffffffffffff16815260200190815260200160002060000160009054906101000a900473ffffffffffffffffffffffffffffffffffffffff169050816005600086815260200190815260200160002060008373ffffffffffffffffffffffffffffffffffffffff1673ffffffffffffffffffffffffffffffffffffffff16815260200190815260200160002060010160006101000a81548173ffffffffffffffffffffffffffffffffffffffff021916908373ffffffffffffffffffffffffffffffffffffffff160217905550806005600086815260200190815260200160002060008473ffffffffffffffffffffffffffffffffffffffff1673ffffffffffffffffffffffffffffffffffffffff16815260200190815260200160002060000160006101000a81548173ffffffffffffffffffffffffffffffffffffffff021916908373ffffffffffffffffffffffffffffffffffffffff16021790555082600660003373ffffffffffffffffffffffffffffffffffffffff1673ffffffffffffffffffffffffffffffffffffffff16815260200190815260200160002060008282546112409190614854565b9250508190555050505050565b80600660003373ffffffffffffffffffffffffffffffffffffffff1673ffffffffffffffffffffffffffffffffffffffff1681526020019081526020016000205410156112cf576040517f08c379a00000000000000000000000000000000000000000000000000000000081526004016112c6906146e8565b60405180910390fd5b60008111611312576040517f08c379a000000000000000000000000000000000000000000000000000000000815260040161130990614688565b60405180910390fd5b60008060009054906101000a900473ffffffffffffffffffffffffffffffffffffffff16905060008173ffffffffffffffffffffffffffffffffffffffff16636d780e6b856040518263ffffffff1660e01b81526004016113739190614828565b60206040518083038186803b15801561138b57600080fd5b505afa15801561139f573d6000803e3d6000fd5b505050506040513d601f19601f820116820180604052508101906113c3919061407b565b9050600073ffffffffffffffffffffffffffffffffffffffff168273ffffffffffffffffffffffffffffffffffffffff16636352211e836040518263ffffffff1660e01b81526004016114169190614828565b60206040518083038186803b15801561142e57600080fd5b505afa158015611442573d6000803e3d6000fd5b505050506040513d601f19601f820116820180604052508101906114669190614000565b73ffffffffffffffffffffffffffffffffffffffff1614156114bd576040517f08c379a00000000000000000000000000000000000000000000000000000000081526004016114b490614608565b60405180910390fd5b60006005600086815260200190815260200160002060003373ffffffffffffffffffffffffffffffffffffffff1673ffffffffffffffffffffffffffffffffffffffff1681526020019081526020016000206002015414611553576040517f08c379a000000000000000000000000000000000000000000000000000000000815260040161154a906145a8565b60405180910390fd5b82600660003373ffffffffffffffffffffffffffffffffffffffff1673ffffffffffffffffffffffffffffffffffffffff16815260200190815260200160002060008282546115a29190614935565b9250508190555060006005600086815260200190815260200160002060008073ffffffffffffffffffffffffffffffffffffffff1673ffffffffffffffffffffffffffffffffffffffff16815260200190815260200160002060010160009054906101000a900473ffffffffffffffffffffffffffffffffffffffff169050336005600087815260200190815260200160002060008373ffffffffffffffffffffffffffffffffffffffff1673ffffffffffffffffffffffffffffffffffffffff16815260200190815260200160002060000160006101000a81548173ffffffffffffffffffffffffffffffffffffffff021916908373ffffffffffffffffffffffffffffffffffffffff1602179055506040518060600160405280600073ffffffffffffffffffffffffffffffffffffffff1681526020018273ffffffffffffffffffffffffffffffffffffffff168152602001858152506005600087815260200190815260200160002060003373ffffffffffffffffffffffffffffffffffffffff1673ffffffffffffffffffffffffffffffffffffffff16815260200190815260200160002060008201518160000160006101000a81548173ffffffffffffffffffffffffffffffffffffffff021916908373ffffffffffffffffffffffffffffffffffffffff16021790555060208201518160010160006101000a81548173ffffffffffffffffffffffffffffffffffffffff021916908373ffffffffffffffffffffffffffffffffffffffff16021790555060408201518160020155905050336005600087815260200190815260200160002060008073ffffffffffffffffffffffffffffffffffffffff1673ffffffffffffffffffffffffffffffffffffffff16815260200190815260200160002060010160006101000a81548173ffffffffffffffffffffffffffffffffffffffff021916908373ffffffffffffffffffffffffffffffffffffffff1602179055503373ffffffffffffffffffffffffffffffffffffffff16857f791109902b518b29273af9ccef104f0591f49a4b10d6542afbe3eb8a87a2a5a4866040516118bf9190614828565b60405180910390a35050505050565b6005602052816000526040600020602052806000526040600020600091509150508060000160009054906101000a900473ffffffffffffffffffffffffffffffffffffffff16908060010160009054906101000a900473ffffffffffffffffffffffffffffffffffffffff16908060020154905083565b60008054906101000a900473ffffffffffffffffffffffffffffffffffffffff1681565b600660003273ffffffffffffffffffffffffffffffffffffffff1673ffffffffffffffffffffffffffffffffffffffff168152602001908152602001600020548111156119eb576040517f08c379a00000000000000000000000000000000000000000000000000000000081526004016119e290614648565b60405180910390fd5b80600660003273ffffffffffffffffffffffffffffffffffffffff1673ffffffffffffffffffffffffffffffffffffffff1681526020019081526020016000206000828254611a3a9190614935565b925050819055506000600160009054906101000a900473ffffffffffffffffffffffffffffffffffffffff1690508073ffffffffffffffffffffffffffffffffffffffff1663a9059cbb32846040518363ffffffff1660e01b8152600401611aa39291906144ec565b602060405180830381600087803b158015611abd57600080fd5b505af1158015611ad1573d6000803e3d6000fd5b505050506040513d601f19601f82011682018060405250810190611af59190614029565b611b34576040517f08c379a0000000000000000000000000000000000000000000000000000000008152600401611b2b906146a8565b60405180910390fd5b5050565b60076020528060005260406000206000915090505481565b60008060009054906101000a900473ffffffffffffffffffffffffffffffffffffffff1690503373ffffffffffffffffffffffffffffffffffffffff168173ffffffffffffffffffffffffffffffffffffffff16636352211e866040518263ffffffff1660e01b8152600401611bc69190614828565b60206040518083038186803b158015611bde57600080fd5b505afa158015611bf2573d6000803e3d6000fd5b505050506040513d601f19601f82011682018060405250810190611c169190614000565b73ffffffffffffffffffffffffffffffffffffffff1614611c6c576040517f08c379a0000000000000000000000000000000000000000000000000000000008152600401611c6390614788565b60405180910390fd5b3073ffffffffffffffffffffffffffffffffffffffff168173ffffffffffffffffffffffffffffffffffffffff1663081812fc866040518263ffffffff1660e01b8152600401611cbc9190614828565b60206040518083038186803b158015611cd457600080fd5b505afa158015611ce8573d6000803e3d6000fd5b505050506040513d601f19601f82011682018060405250810190611d0c9190614000565b73ffffffffffffffffffffffffffffffffffffffff1614611d62576040517f08c379a0000000000000000000000000000000000000000000000000000000008152600401611d5990614768565b60405180910390fd5b6040518060a001604052806001151581526020018581526020013373ffffffffffffffffffffffffffffffffffffffff1681526020018481526020018373ffffffffffffffffffffffffffffffffffffffff168152506004600086815260200190815260200160002060008201518160000160006101000a81548160ff0219169083151502179055506020820151816001015560408201518160020160006101000a81548173ffffffffffffffffffffffffffffffffffffffff021916908373ffffffffffffffffffffffffffffffffffffffff1602179055506060820151816003015560808201518160040160006101000a81548173ffffffffffffffffffffffffffffffffffffffff021916908373ffffffffffffffffffffffffffffffffffffffff1602179055509050508173ffffffffffffffffffffffffffffffffffffffff16847fd404299d246c4005586dcbb400b48be82e12aed7cdc85f1055f9c1fcec8c8fc085604051611ed79190614828565b60405180910390a350505050565b60008060009054906101000a900473ffffffffffffffffffffffffffffffffffffffff16905060008173ffffffffffffffffffffffffffffffffffffffff16636d780e6b856040518263ffffffff1660e01b8152600401611f469190614828565b60206040518083038186803b158015611f5e57600080fd5b505afa158015611f72573d6000803e3d6000fd5b505050506040513d601f19601f82011682018060405250810190611f96919061407b565b90503373ffffffffffffffffffffffffffffffffffffffff168273ffffffffffffffffffffffffffffffffffffffff16636352211e836040518263ffffffff1660e01b8152600401611fe89190614828565b60206040518083038186803b15801561200057600080fd5b505afa158015612014573d6000803e3d6000fd5b505050506040513d601f19601f820116820180604052508101906120389190614000565b73ffffffffffffffffffffffffffffffffffffffff161461208e576040517f08c379a000000000000000000000000000000000000000000000000000000000815260040161208590614568565b60405180910390fd5b3073ffffffffffffffffffffffffffffffffffffffff168273ffffffffffffffffffffffffffffffffffffffff1663081812fc836040518263ffffffff1660e01b81526004016120de9190614828565b60206040518083038186803b1580156120f657600080fd5b505afa15801561210a573d6000803e3d6000fd5b505050506040513d601f19601f8201168201806040525081019061212e9190614000565b73ffffffffffffffffffffffffffffffffffffffff1614612184576040517f08c379a000000000000000000000000000000000000000000000000000000000815260040161217b90614668565b60405180910390fd5b60006005600086815260200190815260200160002060008573ffffffffffffffffffffffffffffffffffffffff1673ffffffffffffffffffffffffffffffffffffffff1681526020019081526020016000206002015490506000811161221f576040517f08c379a0000000000000000000000000000000000000000000000000000000008152600401612216906145c8565b60405180910390fd5b60008373ffffffffffffffffffffffffffffffffffffffff1663aad3ec9686886040518363ffffffff1660e01b815260040161225c9291906144ec565b602060405180830381600087803b15801561227657600080fd5b505af115801561228a573d6000803e3d6000fd5b505050506040513d601f19601f820116820180604052508101906122ae919061407b565b905060006005600088815260200190815260200160002060008773ffffffffffffffffffffffffffffffffffffffff1673ffffffffffffffffffffffffffffffffffffffff1681526020019081526020016000206002018190555060006005600088815260200190815260200160002060008773ffffffffffffffffffffffffffffffffffffffff1673ffffffffffffffffffffffffffffffffffffffff16815260200190815260200160002060010160009054906101000a900473ffffffffffffffffffffffffffffffffffffffff16905060006005600089815260200190815260200160002060008873ffffffffffffffffffffffffffffffffffffffff1673ffffffffffffffffffffffffffffffffffffffff16815260200190815260200160002060000160009054906101000a900473ffffffffffffffffffffffffffffffffffffffff16905081600560008a815260200190815260200160002060008373ffffffffffffffffffffffffffffffffffffffff1673ffffffffffffffffffffffffffffffffffffffff16815260200190815260200160002060010160006101000a81548173ffffffffffffffffffffffffffffffffffffffff021916908373ffffffffffffffffffffffffffffffffffffffff16021790555080600560008a815260200190815260200160002060008473ffffffffffffffffffffffffffffffffffffffff1673ffffffffffffffffffffffffffffffffffffffff16815260200190815260200160002060000160006101000a81548173ffffffffffffffffffffffffffffffffffffffff021916908373ffffffffffffffffffffffffffffffffffffffff16021790555060006125298686613c4b565b905060008773ffffffffffffffffffffffffffffffffffffffff1663589a17438b6040518263ffffffff1660e01b81526004016125669190614828565b60206040518083038186803b15801561257e57600080fd5b505afa158015612592573d6000803e3d6000fd5b505050506040513d601f19601f820116820180604052508101906125b69190614000565b905081600660008373ffffffffffffffffffffffffffffffffffffffff1673ffffffffffffffffffffffffffffffffffffffff16815260200190815260200160002060008282546126079190614854565b925050819055508873ffffffffffffffffffffffffffffffffffffffff16857f17e30385b93a3f258fa9383ee3a05c2d88f6fb7d2fb482a488f3874af22a64ed886040516126559190614828565b60405180910390a350505050505050505050565b60008060009054906101000a900473ffffffffffffffffffffffffffffffffffffffff1690503373ffffffffffffffffffffffffffffffffffffffff168173ffffffffffffffffffffffffffffffffffffffff16636352211e856040518263ffffffff1660e01b81526004016126df9190614828565b60206040518083038186803b1580156126f757600080fd5b505afa15801561270b573d6000803e3d6000fd5b505050506040513d601f19601f8201168201806040525081019061272f9190614000565b73ffffffffffffffffffffffffffffffffffffffff1614612785576040517f08c379a000000000000000000000000000000000000000000000000000000000815260040161277c90614788565b60405180910390fd5b3073ffffffffffffffffffffffffffffffffffffffff168173ffffffffffffffffffffffffffffffffffffffff1663081812fc856040518263ffffffff1660e01b81526004016127d59190614828565b60206040518083038186803b1580156127ed57600080fd5b505afa158015612801573d6000803e3d6000fd5b505050506040513d601f19601f820116820180604052508101906128259190614000565b73ffffffffffffffffffffffffffffffffffffffff161461287b576040517f08c379a000000000000000000000000000000000000000000000000000000000815260040161287290614768565b60405180910390fd5b6040518060a001604052806001151581526020018481526020013373ffffffffffffffffffffffffffffffffffffffff168152602001838152602001600073ffffffffffffffffffffffffffffffffffffffff168152506004600085815260200190815260200160002060008201518160000160006101000a81548160ff0219169083151502179055506020820151816001015560408201518160020160006101000a81548173ffffffffffffffffffffffffffffffffffffffff021916908373ffffffffffffffffffffffffffffffffffffffff1602179055506060820151816003015560808201518160040160006101000a81548173ffffffffffffffffffffffffffffffffffffffff021916908373ffffffffffffffffffffffffffffffffffffffff160217905550905050600073ffffffffffffffffffffffffffffffffffffffff16837fd404299d246c4005586dcbb400b48be82e12aed7cdc85f1055f9c1fcec8c8fc0846040516129f29190614828565b60405180910390a3505050565b60046020528060005260406000206000915090508060000160009054906101000a900460ff16908060010154908060020160009054906101000a900473ffffffffffffffffffffffffffffffffffffffff16908060030154908060040160009054906101000a900473ffffffffffffffffffffffffffffffffffffffff16905085565b6000600760008481526020019081526020016000205411612ad8576040517f08c379a0000000000000000000000000000000000000000000000000000000008152600401612acf90614748565b60405180910390fd5b6007600083815260200190815260200160002054811015612b2e576040517f08c379a0000000000000000000000000000000000000000000000000000000008152600401612b25906145e8565b60405180910390fd5b60008060009054906101000a900473ffffffffffffffffffffffffffffffffffffffff16905060008173ffffffffffffffffffffffffffffffffffffffff16636d780e6b856040518263ffffffff1660e01b8152600401612b8f9190614828565b60206040518083038186803b158015612ba757600080fd5b505afa158015612bbb573d6000803e3d6000fd5b505050506040513d601f19601f82011682018060405250810190612bdf919061407b565b90503073ffffffffffffffffffffffffffffffffffffffff168273ffffffffffffffffffffffffffffffffffffffff1663081812fc836040518263ffffffff1660e01b8152600401612c319190614828565b60206040518083038186803b158015612c4957600080fd5b505afa158015612c5d573d6000803e3d6000fd5b505050506040513d601f19601f82011682018060405250810190612c819190614000565b73ffffffffffffffffffffffffffffffffffffffff1614612cd7576040517f08c379a0000000000000000000000000000000000000000000000000000000008152600401612cce906146c8565b60405180910390fd5b6000600160009054906101000a900473ffffffffffffffffffffffffffffffffffffffff1690508073ffffffffffffffffffffffffffffffffffffffff166323b872dd3330876040518463ffffffff1660e01b8152600401612d3b939291906144b5565b602060405180830381600087803b158015612d5557600080fd5b505af1158015612d69573d6000803e3d6000fd5b505050506040513d601f19601f82011682018060405250810190612d8d9190614029565b612dcc576040517f08c379a0000000000000000000000000000000000000000000000000000000008152600401612dc3906146a8565b60405180910390fd5b60008373ffffffffffffffffffffffffffffffffffffffff1663aad3ec9633886040518363ffffffff1660e01b8152600401612e099291906144ec565b602060405180830381600087803b158015612e2357600080fd5b505af1158015612e37573d6000803e3d6000fd5b505050506040513d601f19601f82011682018060405250810190612e5b919061407b565b90506000612e698487613c4b565b905060008573ffffffffffffffffffffffffffffffffffffffff1663589a1743896040518263ffffffff1660e01b8152600401612ea69190614828565b60206040518083038186803b158015612ebe57600080fd5b505afa158015612ed2573d6000803e3d6000fd5b505050506040513d601f19601f82011682018060405250810190612ef69190614000565b905081600660008373ffffffffffffffffffffffffffffffffffffffff1673ffffffffffffffffffffffffffffffffffffffff1681526020019081526020016000206000828254612f479190614854565b925050819055503373ffffffffffffffffffffffffffffffffffffffff16837f17e30385b93a3f258fa9383ee3a05c2d88f6fb7d2fb482a488f3874af22a64ed89604051612f959190614828565b60405180910390a35050505050505050565b60008060009054906101000a900473ffffffffffffffffffffffffffffffffffffffff16905060008173ffffffffffffffffffffffffffffffffffffffff16636d780e6b856040518263ffffffff1660e01b81526004016130089190614828565b60206040518083038186803b15801561302057600080fd5b505afa158015613034573d6000803e3d6000fd5b505050506040513d601f19601f82011682018060405250810190613058919061407b565b90503373ffffffffffffffffffffffffffffffffffffffff168273ffffffffffffffffffffffffffffffffffffffff16636352211e836040518263ffffffff1660e01b81526004016130aa9190614828565b60206040518083038186803b1580156130c257600080fd5b505afa1580156130d6573d6000803e3d6000fd5b505050506040513d601f19601f820116820180604052508101906130fa9190614000565b73ffffffffffffffffffffffffffffffffffffffff1614613150576040517f08c379a000000000000000000000000000000000000000000000000000000000815260040161314790614568565b60405180910390fd5b3073ffffffffffffffffffffffffffffffffffffffff168273ffffffffffffffffffffffffffffffffffffffff1663081812fc836040518263ffffffff1660e01b81526004016131a09190614828565b60206040518083038186803b1580156131b857600080fd5b505afa1580156131cc573d6000803e3d6000fd5b505050506040513d601f19601f820116820180604052508101906131f09190614000565b73ffffffffffffffffffffffffffffffffffffffff1614613246576040517f08c379a000000000000000000000000000000000000000000000000000000000815260040161323d90614668565b60405180910390fd5b60008311613289576040517f08c379a000000000000000000000000000000000000000000000000000000000815260040161328090614728565b60405180910390fd5b826007600086815260200190815260200160002081905550837f6e43a44e935111ad2e5fc6b5c1753c415d428125be44ec19cbebb5969a138e21846040516132d19190614828565b60405180910390a250505050565b600160009054906101000a900473ffffffffffffffffffffffffffffffffffffffff1681565b600260009054906101000a900473ffffffffffffffffffffffffffffffffffffffff1681565b6000600460008481526020019081526020016000206040518060a00160405290816000820160009054906101000a900460ff16151515158152602001600182015481526020016002820160009054906101000a900473ffffffffffffffffffffffffffffffffffffffff1673ffffffffffffffffffffffffffffffffffffffff1673ffffffffffffffffffffffffffffffffffffffff168152602001600382015481526020016004820160009054906101000a900473ffffffffffffffffffffffffffffffffffffffff1673ffffffffffffffffffffffffffffffffffffffff1673ffffffffffffffffffffffffffffffffffffffff16815250509050806000015161346c576040517f08c379a0000000000000000000000000000000000000000000000000000000008152600401613463906147e8565b60405180910390fd5b600073ffffffffffffffffffffffffffffffffffffffff16816080015173ffffffffffffffffffffffffffffffffffffffff1614806134da57503373ffffffffffffffffffffffffffffffffffffffff16816080015173ffffffffffffffffffffffffffffffffffffffff16145b613519576040517f08c379a000000000000000000000000000000000000000000000000000000000815260040161351090614588565b60405180910390fd5b8060600151821015613560576040517f08c379a0000000000000000000000000000000000000000000000000000000008152600401613557906145e8565b60405180910390fd5b60008060009054906101000a900473ffffffffffffffffffffffffffffffffffffffff1690508073ffffffffffffffffffffffffffffffffffffffff16636352211e856040518263ffffffff1660e01b81526004016135bf9190614828565b60206040518083038186803b1580156135d757600080fd5b505afa1580156135eb573d6000803e3d6000fd5b505050506040513d601f19601f8201168201806040525081019061360f9190614000565b73ffffffffffffffffffffffffffffffffffffffff16826040015173ffffffffffffffffffffffffffffffffffffffff1614613680576040517f08c379a000000000000000000000000000000000000000000000000000000000815260040161367790614628565b60405180910390fd5b6000600160009054906101000a900473ffffffffffffffffffffffffffffffffffffffff1690508073ffffffffffffffffffffffffffffffffffffffff166323b872dd3330876040518463ffffffff1660e01b81526004016136e4939291906144b5565b602060405180830381600087803b1580156136fe57600080fd5b505af1158015613712573d6000803e3d6000fd5b505050506040513d601f19601f820116820180604052508101906137369190614029565b613775576040517f08c379a000000000000000000000000000000000000000000000000000000000815260040161376c906146a8565b60405180910390fd5b6000836040015190508273ffffffffffffffffffffffffffffffffffffffff166342842e0e8233896040518463ffffffff1660e01b81526004016137bb939291906144b5565b600060405180830381600087803b1580156137d557600080fd5b505af11580156137e9573d6000803e3d6000fd5b505050506137f686610c1d565b60006138028787613c4b565b905080600660008473ffffffffffffffffffffffffffffffffffffffff1673ffffffffffffffffffffffffffffffffffffffff16815260200190815260200160002060008282546138539190614854565b925050819055503373ffffffffffffffffffffffffffffffffffffffff168273ffffffffffffffffffffffffffffffffffffffff16887f7dabc6512298d15f481bd3755e8e2e4387bdd4497983824ce33f9c315005e896896040516138b89190614828565b60405180910390a450505050505050565b6000811161390c576040517f08c379a0000000000000000000000000000000000000000000000000000000008152600401613903906147c8565b60405180910390fd5b6000600160009054906101000a900473ffffffffffffffffffffffffffffffffffffffff1690508073ffffffffffffffffffffffffffffffffffffffff166323b872dd3230856040518463ffffffff1660e01b8152600401613970939291906144b5565b602060405180830381600087803b15801561398a57600080fd5b505af115801561399e573d6000803e3d6000fd5b505050506040513d601f19601f820116820180604052508101906139c29190614029565b613a01576040517f08c379a00000000000000000000000000000000000000000000000000000000081526004016139f8906146a8565b60405180910390fd5b81600660003273ffffffffffffffffffffffffffffffffffffffff1673ffffffffffffffffffffffffffffffffffffffff1681526020019081526020016000206000828254613a509190614854565b925050819055505050565b61271081565b60035481565b600260009054906101000a900473ffffffffffffffffffffffffffffffffffffffff1673ffffffffffffffffffffffffffffffffffffffff163373ffffffffffffffffffffffffffffffffffffffff1614613af7576040517f08c379a0000000000000000000000000000000000000000000000000000000008152600401613aee90614808565b60405180910390fd5b6000600160009054906101000a900473ffffffffffffffffffffffffffffffffffffffff1690508073ffffffffffffffffffffffffffffffffffffffff1663a9059cbb33600660003073ffffffffffffffffffffffffffffffffffffffff1673ffffffffffffffffffffffffffffffffffffffff168152602001908152602001600020546040518363ffffffff1660e01b8152600401613b989291906144ec565b602060405180830381600087803b158015613bb257600080fd5b505af1158015613bc6573d6000803e3d6000fd5b505050506040513d601f19601f82011682018060405250810190613bea9190614029565b506000600660003073ffffffffffffffffffffffffffffffffffffffff1673ffffffffffffffffffffffffffffffffffffffff1681526020019081526020016000208190555050565b60066020528060005260406000206000915090505481565b60008060008054906101000a900473ffffffffffffffffffffffffffffffffffffffff16905060008173ffffffffffffffffffffffffffffffffffffffff1663503ae187866040518263ffffffff1660e01b8152600401613cac9190614828565b60206040518083038186803b158015613cc457600080fd5b505afa158015613cd8573d6000803e3d6000fd5b505050506040513d601f19601f82011682018060405250810190613cfc919061407b565b905060008273ffffffffffffffffffffffffffffffffffffffff1663d26509b1836040518263ffffffff1660e01b8152600401613d399190614828565b60206040518083038186803b158015613d5157600080fd5b505afa158015613d65573d6000803e3d6000fd5b505050506040513d601f19601f82011682018060405250810190613d89919061407b565b9050600060035461271087613d9e91906148aa565b613da891906148db565b905060008261271088613dbb91906148aa565b613dc591906148db565b90506000818389613dd69190614935565b613de09190614935565b905060008673ffffffffffffffffffffffffffffffffffffffff1663589a1743876040518263ffffffff1660e01b8152600401613e1d9190614828565b60206040518083038186803b158015613e3557600080fd5b505afa158015613e49573d6000803e3d6000fd5b505050506040513d601f19601f82011682018060405250810190613e6d9190614000565b905060008211613eb2576040517f08c379a0000000000000000000000000000000000000000000000000000000008152600401613ea990614708565b60405180910390fd5b82600660008373ffffffffffffffffffffffffffffffffffffffff1673ffffffffffffffffffffffffffffffffffffffff1681526020019081526020016000206000828254613f019190614854565b9250508190555083600660003073ffffffffffffffffffffffffffffffffffffffff1673ffffffffffffffffffffffffffffffffffffffff1681526020019081526020016000206000828254613f579190614854565b925050819055508197505050505050505092915050565b600081359050613f7d81614eeb565b92915050565b600081519050613f9281614eeb565b92915050565b600081519050613fa781614f02565b92915050565b600081359050613fbc81614f19565b92915050565b600081519050613fd181614f19565b92915050565b600060208284031215613fe957600080fd5b6000613ff784828501613f6e565b91505092915050565b60006020828403121561401257600080fd5b600061402084828501613f83565b91505092915050565b60006020828403121561403b57600080fd5b600061404984828501613f98565b91505092915050565b60006020828403121561406457600080fd5b600061407284828501613fad565b91505092915050565b60006020828403121561408d57600080fd5b600061409b84828501613fc2565b91505092915050565b600080604083850312156140b757600080fd5b60006140c585828601613fad565b92505060206140d685828601613f6e565b9150509250929050565b600080604083850312156140f357600080fd5b600061410185828601613fad565b925050602061411285828601613fad565b9150509250929050565b60008060006060848603121561413157600080fd5b600061413f86828701613fad565b935050602061415086828701613fad565b925050604061416186828701613f6e565b9150509250925092565b61417481614969565b82525050565b6141838161497b565b82525050565b6000614196603c83614843565b91506141a182614a0f565b604082019050919050565b60006141b9602e83614843565b91506141c482614a5e565b604082019050919050565b60006141dc601d83614843565b91506141e782614aad565b602082019050919050565b60006141ff602b83614843565b915061420a82614ad6565b604082019050919050565b6000614222601c83614843565b915061422d82614b25565b602082019050919050565b6000614245601683614843565b915061425082614b4e565b602082019050919050565b6000614268602483614843565b915061427382614b77565b604082019050919050565b600061428b602b83614843565b915061429682614bc6565b604082019050919050565b60006142ae603483614843565b91506142b982614c15565b604082019050919050565b60006142d1601a83614843565b91506142dc82614c64565b602082019050919050565b60006142f4601483614843565b91506142ff82614c8d565b602082019050919050565b6000614317602c83614843565b915061432282614cb6565b604082019050919050565b600061433a602683614843565b915061434582614d05565b604082019050919050565b600061435d602c83614843565b915061436882614d54565b604082019050919050565b6000614380601f83614843565b915061438b82614da3565b602082019050919050565b60006143a3601d83614843565b91506143ae82614dcc565b602082019050919050565b60006143c6601983614843565b91506143d182614df5565b602082019050919050565b60006143e9601983614843565b91506143f482614e1e565b602082019050919050565b600061440c601c83614843565b915061441782614e47565b602082019050919050565b600061442f601483614843565b915061443a82614e70565b602082019050919050565b6000614452602083614843565b915061445d82614e99565b602082019050919050565b6000614475601e83614843565b915061448082614ec2565b602082019050919050565b614494816149a7565b82525050565b60006020820190506144af600083018461416b565b92915050565b60006060820190506144ca600083018661416b565b6144d7602083018561416b565b6144e4604083018461448b565b949350505050565b6000604082019050614501600083018561416b565b61450e602083018461448b565b9392505050565b600060a08201905061452a600083018861417a565b614537602083018761448b565b614544604083018661416b565b614551606083018561448b565b61455e608083018461416b565b9695505050505050565b6000602082019050818103600083015261458181614189565b9050919050565b600060208201905081810360008301526145a1816141ac565b9050919050565b600060208201905081810360008301526145c1816141cf565b9050919050565b600060208201905081810360008301526145e1816141f2565b9050919050565b6000602082019050818103600083015261460181614215565b9050919050565b6000602082019050818103600083015261462181614238565b9050919050565b600060208201905081810360008301526146418161425b565b9050919050565b600060208201905081810360008301526146618161427e565b9050919050565b60006020820190508181036000830152614681816142a1565b9050919050565b600060208201905081810360008301526146a1816142c4565b9050919050565b600060208201905081810360008301526146c1816142e7565b9050919050565b600060208201905081810360008301526146e18161430a565b9050919050565b600060208201905081810360008301526147018161432d565b9050919050565b6000602082019050818103600083015261472181614350565b9050919050565b6000602082019050818103600083015261474181614373565b9050919050565b6000602082019050818103600083015261476181614396565b9050919050565b60006020820190508181036000830152614781816143b9565b9050919050565b600060208201905081810360008301526147a1816143dc565b9050919050565b600060208201905081810360008301526147c1816143ff565b9050919050565b600060208201905081810360008301526147e181614422565b9050919050565b6000602082019050818103600083015261480181614445565b9050919050565b6000602082019050818103600083015261482181614468565b9050919050565b600060208201905061483d600083018461448b565b92915050565b600082825260208201905092915050565b600061485f826149a7565b915061486a836149a7565b9250827fffffffffffffffffffffffffffffffffffffffffffffffffffffffffffffffff0382111561489f5761489e6149b1565b5b828201905092915050565b60006148b5826149a7565b91506148c0836149a7565b9250826148d0576148cf6149e0565b5b828204905092915050565b60006148e6826149a7565b91506148f1836149a7565b9250817fffffffffffffffffffffffffffffffffffffffffffffffffffffffffffffffff048311821515161561492a576149296149b1565b5b828202905092915050565b6000614940826149a7565b915061494b836149a7565b92508282101561495e5761495d6149b1565b5b828203905092915050565b600061497482614987565b9050919050565b60008115159050919050565b600073ffffffffffffffffffffffffffffffffffffffff82169050919050565b6000819050919050565b7f4e487b7100000000000000000000000000000000000000000000000000000000600052601160045260246000fd5b7f4e487b7100000000000000000000000000000000000000000000000000000000600052601260045260246000fd5b7f596f7520646f6e277420686176652061636365737320746f20617070726f766560008201527f20746869732062696420666f7220746865206e657720746f6b656e2e00000000602082015250565b7f74686973206974656d206e6f7420737570706f73656420746f20626520736f6c60008201527f6420746f20746869732075736572000000000000000000000000000000000000602082015250565b7f596f7527766520616c726561647920656e746572656420612062696421000000600082015250565b7f4e6f206269642066726f6d2074686973206164647265737320666f722074686960008201527f73206974656d207965742e000000000000000000000000000000000000000000602082015250565b7f596f75206469646e27742073656e6420656e6f756768204c4f57422e00000000600082015250565b7f546f6b656e206e6f742063726561746564207965742e00000000000000000000600082015250565b7f53656c6c6572206e6f206c6f6e676572206f776e6572206f662074686973206960008201527f74656d2e00000000000000000000000000000000000000000000000000000000602082015250565b7f616d6f756e74206c6172676572207468616e20746861742070656e64696e672060008201527f746f207769746864726177000000000000000000000000000000000000000000602082015250565b7f417070726f7665207468697320636f6e747261637420746f20636c61696d207460008201527f6865206e657720746f6b656e732066697273742e000000000000000000000000602082015250565b7f506c6561736520626964207769746820736f6d65206c6f776221000000000000600082015250565b7f4c6f7762207472616e73666572206661696c6564000000000000000000000000600082015250565b7f5265717569726520617070726f76656d656e7420746f20636c61696d2074686560008201527f206e657720746f6b656e732e0000000000000000000000000000000000000000602082015250565b7f506c65617365206465706f73697420656e6f756768206c6f7762206265666f7260008201527f6520626964210000000000000000000000000000000000000000000000000000602082015250565b7f466565732073686f756c64206c657373207468616e20746865207472616e736160008201527f6374696f6e2076616c75652e0000000000000000000000000000000000000000602082015250565b7f546f6b656e2070726963652073686f756c64206e6f74206265207a65726f2e00600082015250565b7f74686973206974656d206973206e6f7420666f722073616c65206e6f77000000600082015250565b7f417070726f7665207468697320746f6b656e2066697273742e00000000000000600082015250565b7f596f7520646f6e2774206f776e207468697320746f6b656e2e00000000000000600082015250565b7f596f7520646f6e2774206861766520612062696420666f722069742e00000000600082015250565b7f596f75206465706f736974206e6f7468696e6721000000000000000000000000600082015250565b7f54686973206974656d206e6f742061637475616c6c7920666f722073616c652e600082015250565b7f4f6e6c79206f776e65722063616e2070756c6c207468652066756e6473210000600082015250565b614ef481614969565b8114614eff57600080fd5b50565b614f0b8161497b565b8114614f1657600080fd5b50565b614f22816149a7565b8114614f2d57600080fd5b5056fea264697066735822122030012a2efcf1dd413f43c752167ffecfd0d523c6348cc9539dd7eb5379bee13564736f6c63430008030033",
  "immutableReferences": {},
  "source": "// contracts/LowbMarket.sol\r\n// SPDX-License-Identifier: MIT\r\npragma solidity ^0.8.0;\r\n\r\nimport \"./IERC721LOWB.sol\";\r\nimport \"@openzeppelin/contracts/token/ERC20/IERC20.sol\";\r\n\r\ncontract LowbMarket {\r\n\r\n    address public nonFungibleTokenAddress;\r\n    address public lowbTokenAddress;\r\n\r\n    address public owner;\r\n\r\n    /* Inverse basis point. */\r\n    uint public constant INVERSE_BASIS_POINT = 10000;\r\n    uint public fee;\r\n\r\n    struct Offer {\r\n        bool isForSale;\r\n        uint itemId;\r\n        address seller;\r\n        uint minValue;          // in lowb\r\n        address onlySellTo;     // specify to sell only to a specific person\r\n    }\r\n\r\n    struct Bid {\r\n        address prevBidder;\r\n        address nextBidder;\r\n        uint value;\r\n    }\r\n\r\n    // A record of items that are offered for sale at a specific minimum value, and perhaps to a specific person\r\n    mapping (uint => Offer) public itemsOfferedForSale;\r\n\r\n    // A record of the highest bid\r\n    mapping (uint => mapping (address => Bid)) public itemBids;\r\n\r\n    mapping (address => uint) public pendingWithdrawals;\r\n    mapping (uint => uint) public newTokenOffer;\r\n\r\n    event ItemNoLongerForSale(uint indexed itemId);\r\n    event ItemOffered(uint indexed itemId, uint minValue, address indexed toAddress);\r\n    event NewItemsOffered(uint indexed groupId, uint minValue);\r\n    event NewBidEntered(uint indexed groupId, uint value, address indexed fromAddress);\r\n    event BidWithdrawn(uint indexed itemId, uint value, address indexed fromAddress);\r\n    event ItemBought(uint indexed itemId, uint value, address indexed fromAddress, address indexed toAddress);\r\n    event ItemMint(uint indexed itemId, uint value, address indexed toAddress);\r\n\r\n    constructor(address lowbToken_, address nonFungibleToken_) {\r\n        require(nonFungibleToken_ != address(0));\r\n        nonFungibleTokenAddress = nonFungibleToken_;\r\n        lowbTokenAddress = lowbToken_;\r\n        owner = msg.sender;\r\n        fee = 250;\r\n    }\r\n\r\n    function itemNoLongerForSale(uint itemId) public {\r\n        IERC721 token = IERC721(nonFungibleTokenAddress);\r\n        require(token.ownerOf(itemId) == msg.sender, \"You don't own this token.\");\r\n\r\n        itemsOfferedForSale[itemId] = Offer(false, itemId, msg.sender, 0, address(0));\r\n        emit ItemNoLongerForSale(itemId);\r\n    }\r\n\r\n    function offerItemForSale(uint itemId, uint minSalePriceInWei) public {\r\n        IERC721 token = IERC721(nonFungibleTokenAddress);\r\n        require(token.ownerOf(itemId) == msg.sender, \"You don't own this token.\");\r\n        require(token.getApproved(itemId) == address(this), \"Approve this token first.\");\r\n\r\n        itemsOfferedForSale[itemId] = Offer(true, itemId, msg.sender, minSalePriceInWei, address(0));\r\n        emit ItemOffered(itemId, minSalePriceInWei, address(0));\r\n    }\r\n\r\n    function offerItemForSaleToAddress(uint itemId, uint minSalePriceInWei, address toAddress) public {\r\n        IERC721 token = IERC721(nonFungibleTokenAddress);\r\n        require(token.ownerOf(itemId) == msg.sender, \"You don't own this token.\");\r\n        require(token.getApproved(itemId) == address(this), \"Approve this token first.\");\r\n\r\n        itemsOfferedForSale[itemId] = Offer(true, itemId, msg.sender, minSalePriceInWei, toAddress);\r\n        emit ItemOffered(itemId, minSalePriceInWei, toAddress);\r\n    }\r\n\r\n    function deposit(uint amount) public {\r\n        require(amount > 0, \"You deposit nothing!\");\r\n        IERC20 token = IERC20(lowbTokenAddress);\r\n        require(token.transferFrom(tx.origin, address(this), amount), \"Lowb transfer failed\");\r\n        pendingWithdrawals[tx.origin] +=  amount;\r\n    }\r\n\r\n    function withdraw(uint amount) public {\r\n        require(amount <= pendingWithdrawals[tx.origin], \"amount larger than that pending to withdraw\");  \r\n        pendingWithdrawals[tx.origin] -= amount;\r\n        IERC20 token = IERC20(lowbTokenAddress);\r\n        require(token.transfer(tx.origin, amount), \"Lowb transfer failed\");\r\n    }\r\n\r\n    function _makeDeal(uint itemId, uint amount) private returns (uint) {\r\n        IERC721LOWB nft = IERC721LOWB(nonFungibleTokenAddress);\r\n        uint groupId = nft.groupOf(itemId);\r\n        uint royalty = nft.royaltyOf(groupId);\r\n        uint fee_amount = amount / INVERSE_BASIS_POINT * fee;\r\n        uint royalty_amount = amount / INVERSE_BASIS_POINT * royalty;\r\n        uint actual_amount = amount - fee_amount - royalty_amount;\r\n        address creator = nft.creatorOf(groupId);\r\n        require(actual_amount > 0, \"Fees should less than the transaction value.\");\r\n        pendingWithdrawals[creator] += royalty_amount;\r\n        pendingWithdrawals[address(this)] += fee_amount;\r\n        return actual_amount;\r\n    }\r\n\r\n    function buyItem(uint itemId, uint amount) public {\r\n        Offer memory offer = itemsOfferedForSale[itemId];\r\n        require(offer.isForSale, \"This item not actually for sale.\");\r\n        require(offer.onlySellTo == address(0) || offer.onlySellTo == msg.sender, \"this item not supposed to be sold to this user\");\r\n        require(amount >= offer.minValue, \"You didn't send enough LOWB.\");\r\n\r\n        IERC721 nft = IERC721(nonFungibleTokenAddress);\r\n        require(offer.seller == nft.ownerOf(itemId), \"Seller no longer owner of this item.\");\r\n\r\n        IERC20 lowb = IERC20(lowbTokenAddress);\r\n        require(lowb.transferFrom(msg.sender, address(this), amount), \"Lowb transfer failed\");\r\n\r\n        address seller = offer.seller;\r\n        nft.safeTransferFrom(seller, msg.sender, itemId);\r\n\r\n        itemNoLongerForSale(itemId);\r\n\r\n        uint actual_amount = _makeDeal(itemId, amount);\r\n        pendingWithdrawals[seller] += actual_amount;\r\n        emit ItemBought(itemId, amount, seller, msg.sender);\r\n    }\r\n\r\n    function enterBid(uint groupId, uint amount) public {\r\n        require(pendingWithdrawals[msg.sender] >= amount, \"Please deposit enough lowb before bid!\");\r\n        require(amount > 0, \"Please bid with some lowb!\");\r\n\r\n        IERC721LOWB nft = IERC721LOWB(nonFungibleTokenAddress);\r\n        uint itemId = nft.groupStart(groupId);\r\n        require(nft.ownerOf(itemId) != address(0), \"Token not created yet.\");\r\n\r\n        require(itemBids[groupId][msg.sender].value == 0, \"You've already entered a bid!\");\r\n\r\n        // Lock the current bid\r\n        pendingWithdrawals[msg.sender] -= amount;\r\n        address latestBidder = itemBids[groupId][address(0)].nextBidder;\r\n        itemBids[groupId][latestBidder].prevBidder = msg.sender;\r\n        itemBids[groupId][msg.sender] = Bid(address(0), latestBidder, amount);\r\n        itemBids[groupId][address(0)].nextBidder = msg.sender;\r\n\r\n        emit NewBidEntered(groupId, amount, msg.sender);\r\n    }\r\n\r\n    function acceptBid(uint itemId, address bidder) public {\r\n        IERC721LOWB nft = IERC721LOWB(nonFungibleTokenAddress);\r\n        require(nft.ownerOf(itemId) == msg.sender, \"You don't own this token.\");\r\n        require(nft.getApproved(itemId) == address(this), \"Approve this token first.\");\r\n        \r\n        address seller = msg.sender;\r\n        uint groupId = nft.groupOf(itemId);\r\n        uint amount = itemBids[groupId][bidder].value;\r\n        require(amount > 0, \"No bid from this address for this item yet.\");\r\n\r\n        nft.safeTransferFrom(seller, bidder, itemId);\r\n        itemsOfferedForSale[itemId] = Offer(false, itemId, bidder, 0, address(0));\r\n\r\n        itemBids[groupId][bidder].value = 0;\r\n        address nextBidder = itemBids[groupId][bidder].nextBidder;\r\n        address prevBidder = itemBids[groupId][bidder].prevBidder;\r\n        itemBids[groupId][prevBidder].nextBidder = nextBidder;\r\n        itemBids[groupId][nextBidder].prevBidder = prevBidder;\r\n        \r\n        uint actual_amount = _makeDeal(itemId, amount);\r\n        pendingWithdrawals[seller] += actual_amount;\r\n        emit ItemBought(itemId, amount, seller, bidder);\r\n    }\r\n\r\n    function withdrawBid(uint groupId) public {\r\n        uint amount = itemBids[groupId][msg.sender].value;\r\n        require(amount > 0, \"You don't have a bid for it.\");\r\n        emit BidWithdrawn(groupId, amount, msg.sender);\r\n        \r\n        itemBids[groupId][msg.sender].value = 0;\r\n        address nextBidder = itemBids[groupId][msg.sender].nextBidder;\r\n        address prevBidder = itemBids[groupId][msg.sender].prevBidder;\r\n        itemBids[groupId][prevBidder].nextBidder = nextBidder;\r\n        itemBids[groupId][nextBidder].prevBidder = prevBidder;\r\n        // Refund the bid money\r\n        pendingWithdrawals[msg.sender] += amount;\r\n    }\r\n\r\n    function approveBid(uint groupId, address bidder) public {\r\n        IERC721LOWB nft = IERC721LOWB(nonFungibleTokenAddress);\r\n        uint itemId = nft.groupStart(groupId);\r\n        require(nft.ownerOf(itemId) == msg.sender, \"You don't have access to approve this bid for the new token.\");\r\n        require(nft.getApproved(itemId) == address(this), \"Approve this contract to claim the new tokens first.\");\r\n\r\n        uint amount = itemBids[groupId][bidder].value;\r\n        require(amount > 0, \"No bid from this address for this item yet.\");\r\n        \r\n        uint tokenId = nft.claim(bidder, groupId);\r\n        \r\n        itemBids[groupId][bidder].value = 0;\r\n        address nextBidder = itemBids[groupId][bidder].nextBidder;\r\n        address prevBidder = itemBids[groupId][bidder].prevBidder;\r\n        itemBids[groupId][prevBidder].nextBidder = nextBidder;\r\n        itemBids[groupId][nextBidder].prevBidder = prevBidder;\r\n\r\n        uint actual_amount = _makeDeal(itemId, amount);\r\n        address creator = nft.creatorOf(groupId);\r\n        pendingWithdrawals[creator] += actual_amount;\r\n        emit ItemMint(tokenId, amount, bidder);\r\n    }\r\n\r\n    function offerItemsForPublicSale(uint groupId, uint minSalePriceInWei) public {\r\n        IERC721LOWB nft = IERC721LOWB(nonFungibleTokenAddress);\r\n        uint itemId = nft.groupStart(groupId);\r\n        require(nft.ownerOf(itemId) == msg.sender, \"You don't have access to approve this bid for the new token.\");\r\n        require(nft.getApproved(itemId) == address(this), \"Approve this contract to claim the new tokens first.\");\r\n        require(minSalePriceInWei > 0, \"Token price should not be zero.\");\r\n\r\n        newTokenOffer[groupId] = minSalePriceInWei;\r\n        emit NewItemsOffered(groupId, minSalePriceInWei);\r\n    }\r\n\r\n    function buyNewItem(uint groupId, uint amount) public {\r\n        require(newTokenOffer[groupId] > 0, \"this item is not for sale now\");\r\n        require(amount >= newTokenOffer[groupId], \"You didn't send enough LOWB.\");\r\n\r\n        IERC721LOWB nft = IERC721LOWB(nonFungibleTokenAddress);\r\n        uint itemId = nft.groupStart(groupId);\r\n        require(nft.getApproved(itemId) == address(this), \"Require approvement to claim the new tokens.\");\r\n\r\n        IERC20 lowb = IERC20(lowbTokenAddress);\r\n        require(lowb.transferFrom(msg.sender, address(this), amount), \"Lowb transfer failed\");\r\n\r\n        uint tokenId = nft.claim(msg.sender, groupId);\r\n\r\n        uint actual_amount = _makeDeal(itemId, amount);\r\n        address creator = nft.creatorOf(groupId);\r\n        pendingWithdrawals[creator] += actual_amount;\r\n        emit ItemMint(tokenId, amount, msg.sender);\r\n    }\r\n\r\n    function pullFunds() public {\r\n        require(msg.sender == owner, \"Only owner can pull the funds!\");\r\n        IERC20 lowb = IERC20(lowbTokenAddress);\r\n        lowb.transfer(msg.sender, pendingWithdrawals[address(this)]);\r\n        pendingWithdrawals[address(this)] = 0;\r\n    }\r\n\r\n}",
  "sourcePath": "E:\\work\\lowb\\source\\LowbMarket\\contracts\\Contract\\LowbMarket.sol",
  "compiler": {
    "name": "solc",
    "version": "0.8.3+commit.8d00100c.Emscripten.clang"
  },
  "schemaVersion": "3.4.4",
  "updatedAt": "2022-01-24T09:16:55.346Z",
  "devdoc": {
    "kind": "dev",
    "methods": {},
    "version": 1
  },
  "userdoc": {
    "kind": "user",
    "methods": {},
    "version": 1
  }
}