{
  "contractName": "MyCollectible",
  "abi": [
    {
      "anonymous": false,
      "inputs": [
        {
          "indexed": true,
          "internalType": "address",
          "name": "owner",
          "type": "address"
        },
        {
          "indexed": true,
          "internalType": "address",
          "name": "approved",
          "type": "address"
        },
        {
          "indexed": true,
          "internalType": "uint256",
          "name": "tokenId",
          "type": "uint256"
        }
      ],
      "name": "Approval",
      "type": "event"
    },
    {
      "anonymous": false,
      "inputs": [
        {
          "indexed": true,
          "internalType": "address",
          "name": "owner",
          "type": "address"
        },
        {
          "indexed": true,
          "internalType": "address",
          "name": "operator",
          "type": "address"
        },
        {
          "indexed": false,
          "internalType": "bool",
          "name": "approved",
          "type": "bool"
        }
      ],
      "name": "ApprovalForAll",
      "type": "event"
    },
    {
      "anonymous": false,
      "inputs": [
        {
          "indexed": true,
          "internalType": "uint256",
          "name": "groupId",
          "type": "uint256"
        },
        {
          "indexed": true,
          "internalType": "uint256",
          "name": "serialId",
          "type": "uint256"
        },
        {
          "indexed": false,
          "internalType": "uint256",
          "name": "maxSupply",
          "type": "uint256"
        }
      ],
      "name": "GroupPublished",
      "type": "event"
    },
    {
      "anonymous": false,
      "inputs": [
        {
          "indexed": true,
          "internalType": "uint256",
          "name": "itemId",
          "type": "uint256"
        },
        {
          "indexed": true,
          "internalType": "uint256",
          "name": "groupId",
          "type": "uint256"
        },
        {
          "indexed": true,
          "internalType": "address",
          "name": "toAddress",
          "type": "address"
        }
      ],
      "name": "NewItemClaimed",
      "type": "event"
    },
    {
      "anonymous": false,
      "inputs": [
        {
          "indexed": true,
          "internalType": "address",
          "name": "previousOwner",
          "type": "address"
        },
        {
          "indexed": true,
          "internalType": "address",
          "name": "newOwner",
          "type": "address"
        }
      ],
      "name": "OwnershipTransferred",
      "type": "event"
    },
    {
      "anonymous": false,
      "inputs": [
        {
          "indexed": true,
          "internalType": "uint256",
          "name": "serialId",
          "type": "uint256"
        },
        {
          "indexed": false,
          "internalType": "uint256",
          "name": "maxGroup",
          "type": "uint256"
        },
        {
          "indexed": false,
          "internalType": "uint256",
          "name": "maxSupply",
          "type": "uint256"
        }
      ],
      "name": "SerialAdded",
      "type": "event"
    },
    {
      "anonymous": false,
      "inputs": [
        {
          "indexed": true,
          "internalType": "address",
          "name": "from",
          "type": "address"
        },
        {
          "indexed": true,
          "internalType": "address",
          "name": "to",
          "type": "address"
        },
        {
          "indexed": true,
          "internalType": "uint256",
          "name": "tokenId",
          "type": "uint256"
        }
      ],
      "name": "Transfer",
      "type": "event"
    },
    {
      "inputs": [],
      "name": "INVERSE_BASIS_POINT",
      "outputs": [
        {
          "internalType": "uint256",
          "name": "",
          "type": "uint256"
        }
      ],
      "stateMutability": "view",
      "type": "function"
    },
    {
      "inputs": [
        {
          "internalType": "address",
          "name": "to",
          "type": "address"
        },
        {
          "internalType": "uint256",
          "name": "tokenId",
          "type": "uint256"
        }
      ],
      "name": "approve",
      "outputs": [],
      "stateMutability": "nonpayable",
      "type": "function"
    },
    {
      "inputs": [
        {
          "internalType": "address",
          "name": "owner",
          "type": "address"
        }
      ],
      "name": "balanceOf",
      "outputs": [
        {
          "internalType": "uint256",
          "name": "",
          "type": "uint256"
        }
      ],
      "stateMutability": "view",
      "type": "function"
    },
    {
      "inputs": [
        {
          "internalType": "uint256",
          "name": "",
          "type": "uint256"
        }
      ],
      "name": "creatorOf",
      "outputs": [
        {
          "internalType": "address",
          "name": "",
          "type": "address"
        }
      ],
      "stateMutability": "view",
      "type": "function"
    },
    {
      "inputs": [
        {
          "internalType": "uint256",
          "name": "tokenId",
          "type": "uint256"
        }
      ],
      "name": "getApproved",
      "outputs": [
        {
          "internalType": "address",
          "name": "",
          "type": "address"
        }
      ],
      "stateMutability": "view",
      "type": "function"
    },
    {
      "inputs": [
        {
          "internalType": "uint256",
          "name": "",
          "type": "uint256"
        }
      ],
      "name": "groupCurrentSupply",
      "outputs": [
        {
          "internalType": "uint256",
          "name": "",
          "type": "uint256"
        }
      ],
      "stateMutability": "view",
      "type": "function"
    },
    {
      "inputs": [
        {
          "internalType": "uint256",
          "name": "",
          "type": "uint256"
        }
      ],
      "name": "groupMaxSupply",
      "outputs": [
        {
          "internalType": "uint256",
          "name": "",
          "type": "uint256"
        }
      ],
      "stateMutability": "view",
      "type": "function"
    },
    {
      "inputs": [
        {
          "internalType": "uint256",
          "name": "",
          "type": "uint256"
        }
      ],
      "name": "groupOf",
      "outputs": [
        {
          "internalType": "uint256",
          "name": "",
          "type": "uint256"
        }
      ],
      "stateMutability": "view",
      "type": "function"
    },
    {
      "inputs": [
        {
          "internalType": "uint256",
          "name": "",
          "type": "uint256"
        }
      ],
      "name": "groupStart",
      "outputs": [
        {
          "internalType": "uint256",
          "name": "",
          "type": "uint256"
        }
      ],
      "stateMutability": "view",
      "type": "function"
    },
    {
      "inputs": [
        {
          "internalType": "address",
          "name": "owner",
          "type": "address"
        },
        {
          "internalType": "address",
          "name": "operator",
          "type": "address"
        }
      ],
      "name": "isApprovedForAll",
      "outputs": [
        {
          "internalType": "bool",
          "name": "",
          "type": "bool"
        }
      ],
      "stateMutability": "view",
      "type": "function"
    },
    {
      "inputs": [],
      "name": "name",
      "outputs": [
        {
          "internalType": "string",
          "name": "",
          "type": "string"
        }
      ],
      "stateMutability": "view",
      "type": "function"
    },
    {
      "inputs": [],
      "name": "owner",
      "outputs": [
        {
          "internalType": "address",
          "name": "",
          "type": "address"
        }
      ],
      "stateMutability": "view",
      "type": "function"
    },
    {
      "inputs": [
        {
          "internalType": "uint256",
          "name": "tokenId",
          "type": "uint256"
        }
      ],
      "name": "ownerOf",
      "outputs": [
        {
          "internalType": "address",
          "name": "",
          "type": "address"
        }
      ],
      "stateMutability": "view",
      "type": "function"
    },
    {
      "inputs": [],
      "name": "renounceOwnership",
      "outputs": [],
      "stateMutability": "nonpayable",
      "type": "function"
    },
    {
      "inputs": [
        {
          "internalType": "uint256",
          "name": "",
          "type": "uint256"
        }
      ],
      "name": "royaltyOf",
      "outputs": [
        {
          "internalType": "uint256",
          "name": "",
          "type": "uint256"
        }
      ],
      "stateMutability": "view",
      "type": "function"
    },
    {
      "inputs": [
        {
          "internalType": "address",
          "name": "from",
          "type": "address"
        },
        {
          "internalType": "address",
          "name": "to",
          "type": "address"
        },
        {
          "internalType": "uint256",
          "name": "tokenId",
          "type": "uint256"
        }
      ],
      "name": "safeTransferFrom",
      "outputs": [],
      "stateMutability": "nonpayable",
      "type": "function"
    },
    {
      "inputs": [
        {
          "internalType": "address",
          "name": "from",
          "type": "address"
        },
        {
          "internalType": "address",
          "name": "to",
          "type": "address"
        },
        {
          "internalType": "uint256",
          "name": "tokenId",
          "type": "uint256"
        },
        {
          "internalType": "bytes",
          "name": "_data",
          "type": "bytes"
        }
      ],
      "name": "safeTransferFrom",
      "outputs": [],
      "stateMutability": "nonpayable",
      "type": "function"
    },
    {
      "inputs": [
        {
          "internalType": "uint256",
          "name": "",
          "type": "uint256"
        }
      ],
      "name": "serialCurrentGroup",
      "outputs": [
        {
          "internalType": "uint256",
          "name": "",
          "type": "uint256"
        }
      ],
      "stateMutability": "view",
      "type": "function"
    },
    {
      "inputs": [
        {
          "internalType": "uint256",
          "name": "",
          "type": "uint256"
        }
      ],
      "name": "serialCurrentSupply",
      "outputs": [
        {
          "internalType": "uint256",
          "name": "",
          "type": "uint256"
        }
      ],
      "stateMutability": "view",
      "type": "function"
    },
    {
      "inputs": [
        {
          "internalType": "uint256",
          "name": "",
          "type": "uint256"
        }
      ],
      "name": "serialGroupStart",
      "outputs": [
        {
          "internalType": "uint256",
          "name": "",
          "type": "uint256"
        }
      ],
      "stateMutability": "view",
      "type": "function"
    },
    {
      "inputs": [],
      "name": "serialIds",
      "outputs": [
        {
          "internalType": "uint256",
          "name": "_value",
          "type": "uint256"
        }
      ],
      "stateMutability": "view",
      "type": "function"
    },
    {
      "inputs": [
        {
          "internalType": "uint256",
          "name": "",
          "type": "uint256"
        }
      ],
      "name": "serialMaxGroup",
      "outputs": [
        {
          "internalType": "uint256",
          "name": "",
          "type": "uint256"
        }
      ],
      "stateMutability": "view",
      "type": "function"
    },
    {
      "inputs": [
        {
          "internalType": "uint256",
          "name": "",
          "type": "uint256"
        }
      ],
      "name": "serialMaxSupply",
      "outputs": [
        {
          "internalType": "uint256",
          "name": "",
          "type": "uint256"
        }
      ],
      "stateMutability": "view",
      "type": "function"
    },
    {
      "inputs": [
        {
          "internalType": "uint256",
          "name": "",
          "type": "uint256"
        }
      ],
      "name": "serialOf",
      "outputs": [
        {
          "internalType": "uint256",
          "name": "",
          "type": "uint256"
        }
      ],
      "stateMutability": "view",
      "type": "function"
    },
    {
      "inputs": [
        {
          "internalType": "uint256",
          "name": "",
          "type": "uint256"
        }
      ],
      "name": "serialTokenStart",
      "outputs": [
        {
          "internalType": "uint256",
          "name": "",
          "type": "uint256"
        }
      ],
      "stateMutability": "view",
      "type": "function"
    },
    {
      "inputs": [
        {
          "internalType": "address",
          "name": "operator",
          "type": "address"
        },
        {
          "internalType": "bool",
          "name": "approved",
          "type": "bool"
        }
      ],
      "name": "setApprovalForAll",
      "outputs": [],
      "stateMutability": "nonpayable",
      "type": "function"
    },
    {
      "inputs": [
        {
          "internalType": "bytes4",
          "name": "interfaceId",
          "type": "bytes4"
        }
      ],
      "name": "supportsInterface",
      "outputs": [
        {
          "internalType": "bool",
          "name": "",
          "type": "bool"
        }
      ],
      "stateMutability": "view",
      "type": "function"
    },
    {
      "inputs": [],
      "name": "symbol",
      "outputs": [
        {
          "internalType": "string",
          "name": "",
          "type": "string"
        }
      ],
      "stateMutability": "view",
      "type": "function"
    },
    {
      "inputs": [
        {
          "internalType": "uint256",
          "name": "index",
          "type": "uint256"
        }
      ],
      "name": "tokenByIndex",
      "outputs": [
        {
          "internalType": "uint256",
          "name": "",
          "type": "uint256"
        }
      ],
      "stateMutability": "view",
      "type": "function"
    },
    {
      "inputs": [
        {
          "internalType": "address",
          "name": "owner",
          "type": "address"
        },
        {
          "internalType": "uint256",
          "name": "index",
          "type": "uint256"
        }
      ],
      "name": "tokenOfOwnerByIndex",
      "outputs": [
        {
          "internalType": "uint256",
          "name": "",
          "type": "uint256"
        }
      ],
      "stateMutability": "view",
      "type": "function"
    },
    {
      "inputs": [],
      "name": "totalSupply",
      "outputs": [
        {
          "internalType": "uint256",
          "name": "",
          "type": "uint256"
        }
      ],
      "stateMutability": "view",
      "type": "function"
    },
    {
      "inputs": [
        {
          "internalType": "address",
          "name": "from",
          "type": "address"
        },
        {
          "internalType": "address",
          "name": "to",
          "type": "address"
        },
        {
          "internalType": "uint256",
          "name": "tokenId",
          "type": "uint256"
        }
      ],
      "name": "transferFrom",
      "outputs": [],
      "stateMutability": "nonpayable",
      "type": "function"
    },
    {
      "inputs": [
        {
          "internalType": "address",
          "name": "newOwner",
          "type": "address"
        }
      ],
      "name": "transferOwnership",
      "outputs": [],
      "stateMutability": "nonpayable",
      "type": "function"
    },
    {
      "inputs": [],
      "name": "initialize",
      "outputs": [],
      "stateMutability": "nonpayable",
      "type": "function"
    },
    {
      "inputs": [
        {
          "internalType": "uint256",
          "name": "maxGroup",
          "type": "uint256"
        },
        {
          "internalType": "uint256",
          "name": "maxSupply",
          "type": "uint256"
        }
      ],
      "name": "addSerial",
      "outputs": [
        {
          "internalType": "uint256",
          "name": "",
          "type": "uint256"
        }
      ],
      "stateMutability": "nonpayable",
      "type": "function"
    },
    {
      "inputs": [
        {
          "internalType": "address",
          "name": "to",
          "type": "address"
        },
        {
          "internalType": "uint256",
          "name": "serial",
          "type": "uint256"
        },
        {
          "internalType": "uint256",
          "name": "maxSupply",
          "type": "uint256"
        },
        {
          "internalType": "string",
          "name": "_tokenURI",
          "type": "string"
        },
        {
          "internalType": "uint256",
          "name": "royalty",
          "type": "uint256"
        }
      ],
      "name": "publish",
      "outputs": [
        {
          "internalType": "uint256",
          "name": "",
          "type": "uint256"
        }
      ],
      "stateMutability": "nonpayable",
      "type": "function"
    },
    {
      "inputs": [
        {
          "internalType": "address",
          "name": "to",
          "type": "address"
        },
        {
          "internalType": "uint256",
          "name": "groupId",
          "type": "uint256"
        }
      ],
      "name": "claim",
      "outputs": [
        {
          "internalType": "uint256",
          "name": "",
          "type": "uint256"
        }
      ],
      "stateMutability": "nonpayable",
      "type": "function"
    },
    {
      "inputs": [
        {
          "internalType": "uint256",
          "name": "tokenId",
          "type": "uint256"
        }
      ],
      "name": "tokenURI",
      "outputs": [
        {
          "internalType": "string",
          "name": "",
          "type": "string"
        }
      ],
      "stateMutability": "view",
      "type": "function"
    }
  ],
  "bytecode": "0x608060405234801561001057600080fd5b506146e0806100206000396000f3fe608060405234801561001057600080fd5b50600436106102325760003560e01c80637c1b718811610130578063b88d4fde116100b8578063e985e9c51161007c578063e985e9c51461075d578063ecc6346f1461078d578063ed8e037b146107ab578063f2fde38b146107db578063fc33ea1d146107f757610232565b8063b88d4fde14610693578063c15e6335146106af578063c87b56dd146106df578063cae6047f1461070f578063d26509b11461072d57610232565b80638da5cb5b116100ff5780638da5cb5b146105db57806395d89b41146105f9578063a22cb46514610617578063a97e51a614610633578063aad3ec961461066357610232565b80637c1b7188146105415780637ec8b110146105715780638129fc1c146105a15780638524d9fb146105ab57610232565b80632f745c59116101be578063589a174311610182578063589a1743146104775780636352211e146104a75780636d780e6b146104d757806370a0823114610507578063715018a61461053757610232565b80632f745c591461039b57806342842e0e146103cb57806343340fcf146103e75780634f6ccce714610417578063503ae1871461044757610232565b806318160ddd1161020557806318160ddd146102d157806323b872dd146102ef578063270f417b1461030b57806329a54a5c1461033b5780632d6a8da91461036b57610232565b806301ffc9a71461023757806306fdde0314610267578063081812fc14610285578063095ea7b3146102b5575b600080fd5b610251600480360381019061024c9190613343565b610827565b60405161025e919061386b565b60405180910390f35b61026f6108a1565b60405161027c9190613886565b60405180910390f35b61029f600480360381019061029a9190613395565b610933565b6040516102ac9190613804565b60405180910390f35b6102cf60048036038101906102ca9190613278565b6109b8565b005b6102d9610ad0565b6040516102e69190613bc8565b60405180910390f35b61030960048036038101906103049190613172565b610add565b005b610325600480360381019061032091906133be565b610b3d565b6040516103329190613bc8565b60405180910390f35b61035560048036038101906103509190613395565b610cc7565b6040516103629190613bc8565b60405180910390f35b61038560048036038101906103809190613395565b610ce0565b6040516103929190613bc8565b60405180910390f35b6103b560048036038101906103b09190613278565b610cf9565b6040516103c29190613bc8565b60405180910390f35b6103e560048036038101906103e09190613172565b610d9e565b005b61040160048036038101906103fc9190613395565b610dbe565b60405161040e9190613bc8565b60405180910390f35b610431600480360381019061042c9190613395565b610dd6565b60405161043e9190613bc8565b60405180910390f35b610461600480360381019061045c9190613395565b610e6d565b60405161046e9190613bc8565b60405180910390f35b610491600480360381019061048c9190613395565b610e86565b60405161049e9190613804565b60405180910390f35b6104c160048036038101906104bc9190613395565b610eba565b6040516104ce9190613804565b60405180910390f35b6104f160048036038101906104ec9190613395565b610f6c565b6040516104fe9190613bc8565b60405180910390f35b610521600480360381019061051c919061310d565b610f85565b60405161052e9190613bc8565b60405180910390f35b61053f61103d565b005b61055b60048036038101906105569190613395565b6110c5565b6040516105689190613bc8565b60405180910390f35b61058b60048036038101906105869190613395565b6110de565b6040516105989190613bc8565b60405180910390f35b6105a96110f7565b005b6105c560048036038101906105c09190613395565b611257565b6040516105d29190613bc8565b60405180910390f35b6105e3611270565b6040516105f09190613804565b60405180910390f35b61060161129a565b60405161060e9190613886565b60405180910390f35b610631600480360381019061062c919061323c565b61132c565b005b61064d60048036038101906106489190613395565b611342565b60405161065a9190613bc8565b60405180910390f35b61067d60048036038101906106789190613278565b61135b565b60405161068a9190613bc8565b60405180910390f35b6106ad60048036038101906106a891906131c1565b611557565b005b6106c960048036038101906106c491906132b4565b6115b9565b6040516106d69190613bc8565b60405180910390f35b6106f960048036038101906106f49190613395565b6119b7565b6040516107069190613886565b60405180910390f35b610717611a77565b6040516107249190613bc8565b60405180910390f35b61074760048036038101906107429190613395565b611a7d565b6040516107549190613bc8565b60405180910390f35b61077760048036038101906107729190613136565b611a96565b604051610784919061386b565b60405180910390f35b610795611b2a565b6040516107a29190613bc8565b60405180910390f35b6107c560048036038101906107c09190613395565b611b36565b6040516107d29190613bc8565b60405180910390f35b6107f560048036038101906107f0919061310d565b611b4e565b005b610811600480360381019061080c9190613395565b611c46565b60405161081e9190613bc8565b60405180910390f35b60007f780e9d63000000000000000000000000000000000000000000000000000000007bffffffffffffffffffffffffffffffffffffffffffffffffffffffff1916827bffffffffffffffffffffffffffffffffffffffffffffffffffffffff1916148061089a575061089982611c5f565b5b9050919050565b6060606580546108b090613e0b565b80601f01602080910402602001604051908101604052809291908181526020018280546108dc90613e0b565b80156109295780601f106108fe57610100808354040283529160200191610929565b820191906000526020600020905b81548152906001019060200180831161090c57829003601f168201915b5050505050905090565b600061093e82611d41565b61097d576040517f08c379a000000000000000000000000000000000000000000000000000000000815260040161097490613aa8565b60405180910390fd5b6069600083815260200190815260200160002060009054906101000a900473ffffffffffffffffffffffffffffffffffffffff169050919050565b60006109c382610eba565b90508073ffffffffffffffffffffffffffffffffffffffff168373ffffffffffffffffffffffffffffffffffffffff161415610a34576040517f08c379a0000000000000000000000000000000000000000000000000000000008152600401610a2b90613b28565b60405180910390fd5b8073ffffffffffffffffffffffffffffffffffffffff16610a53611dad565b73ffffffffffffffffffffffffffffffffffffffff161480610a825750610a8181610a7c611dad565b611a96565b5b610ac1576040517f08c379a0000000000000000000000000000000000000000000000000000000008152600401610ab890613a08565b60405180910390fd5b610acb8383611db5565b505050565b6000609980549050905090565b610aee610ae8611dad565b82611e6e565b610b2d576040517f08c379a0000000000000000000000000000000000000000000000000000000008152600401610b2490613b48565b60405180910390fd5b610b38838383611f4c565b505050565b6000610b47611dad565b73ffffffffffffffffffffffffffffffffffffffff16610b65611270565b73ffffffffffffffffffffffffffffffffffffffff1614610bbb576040517f08c379a0000000000000000000000000000000000000000000000000000000008152600401610bb290613ac8565b60405180910390fd5b610bc560fb6121a8565b6000610bd160fb6121be565b9050600160fc54610be29190613ccb565b60fe600083815260200190815260200160002081905550600160fd54610c089190613ccb565b60ff60008381526020019081526020016000208190555082610101600083815260200190815260200160002081905550836101006000838152602001908152602001600020819055508260fc6000828254610c639190613ccb565b925050819055508360fd6000828254610c7c9190613ccb565b92505081905550807f53f5b2871a004d244781f89242df264b0744d347b26753a3cb547fcdc8af616d8585604051610cb5929190613be3565b60405180910390a28091505092915050565b6101006020528060005260406000206000915090505481565b6101036020528060005260406000206000915090505481565b6000610d0483610f85565b8210610d45576040517f08c379a0000000000000000000000000000000000000000000000000000000008152600401610d3c906138a8565b60405180910390fd5b609760008473ffffffffffffffffffffffffffffffffffffffff1673ffffffffffffffffffffffffffffffffffffffff168152602001908152602001600020600083815260200190815260200160002054905092915050565b610db983838360405180602001604052806000815250611557565b505050565b60fe6020528060005260406000206000915090505481565b6000610de0610ad0565b8210610e21576040517f08c379a0000000000000000000000000000000000000000000000000000000008152600401610e1890613b68565b60405180910390fd5b60998281548110610e5b577f4e487b7100000000000000000000000000000000000000000000000000000000600052603260045260246000fd5b90600052602060002001549050919050565b61010b6020528060005260406000206000915090505481565b6101046020528060005260406000206000915054906101000a900473ffffffffffffffffffffffffffffffffffffffff1681565b6000806067600084815260200190815260200160002060009054906101000a900473ffffffffffffffffffffffffffffffffffffffff169050600073ffffffffffffffffffffffffffffffffffffffff168173ffffffffffffffffffffffffffffffffffffffff161415610f63576040517f08c379a0000000000000000000000000000000000000000000000000000000008152600401610f5a90613a48565b60405180910390fd5b80915050919050565b6101086020528060005260406000206000915090505481565b60008073ffffffffffffffffffffffffffffffffffffffff168273ffffffffffffffffffffffffffffffffffffffff161415610ff6576040517f08c379a0000000000000000000000000000000000000000000000000000000008152600401610fed90613a28565b60405180910390fd5b606860008373ffffffffffffffffffffffffffffffffffffffff1673ffffffffffffffffffffffffffffffffffffffff168152602001908152602001600020549050919050565b611045611dad565b73ffffffffffffffffffffffffffffffffffffffff16611063611270565b73ffffffffffffffffffffffffffffffffffffffff16146110b9576040517f08c379a00000000000000000000000000000000000000000000000000000000081526004016110b090613ac8565b60405180910390fd5b6110c360006121cc565b565b61010a6020528060005260406000206000915090505481565b6101026020528060005260406000206000915090505481565b600060019054906101000a900460ff1661111f5760008054906101000a900460ff1615611128565b611127612292565b5b611167576040517f08c379a000000000000000000000000000000000000000000000000000000000815260040161115e90613a68565b60405180910390fd5b60008060019054906101000a900460ff1615905080156111b7576001600060016101000a81548160ff02191690831515021790555060016000806101000a81548160ff0219169083151502179055505b61122b6040518060400160405280600981526020017f4c6f736572204e465400000000000000000000000000000000000000000000008152506040518060400160405280600481526020017f4c4f5758000000000000000000000000000000000000000000000000000000008152506122a3565b611233612310565b80156112545760008060016101000a81548160ff0219169083151502179055505b50565b6101096020528060005260406000206000915090505481565b600060c960009054906101000a900473ffffffffffffffffffffffffffffffffffffffff16905090565b6060606680546112a990613e0b565b80601f01602080910402602001604051908101604052809291908181526020018280546112d590613e0b565b80156113225780601f106112f757610100808354040283529160200191611322565b820191906000526020600020905b81548152906001019060200180831161130557829003601f168201915b5050505050905090565b61133e611337611dad565b8383612371565b5050565b6101066020528060005260406000206000915090505481565b600061010a600083815260200190815260200160002054610109600084815260200190815260200160002054106113c7576040517f08c379a00000000000000000000000000000000000000000000000000000000081526004016113be90613b08565b60405180910390fd5b600061010860008481526020019081526020016000205490503373ffffffffffffffffffffffffffffffffffffffff1661140082610eba565b73ffffffffffffffffffffffffffffffffffffffff16148061145557503373ffffffffffffffffffffffffffffffffffffffff1661143d82610933565b73ffffffffffffffffffffffffffffffffffffffff16145b611494576040517f08c379a000000000000000000000000000000000000000000000000000000000815260040161148b90613948565b60405180910390fd5b6000610109600085815260200190815260200160002054826114b69190613ccb565b90506114c285826124de565b8361010b6000838152602001908152602001600020819055506001610109600086815260200190815260200160002060008282546115009190613ccb565b925050819055508473ffffffffffffffffffffffffffffffffffffffff1684827f36a93433b448906198d3db3984c15127c7b02a505a467b5e194977253f44cc1260405160405180910390a4809250505092915050565b611568611562611dad565b83611e6e565b6115a7576040517f08c379a000000000000000000000000000000000000000000000000000000000815260040161159e90613b48565b60405180910390fd5b6115b3848484846126ac565b50505050565b60006115c3611dad565b73ffffffffffffffffffffffffffffffffffffffff166115e1611270565b73ffffffffffffffffffffffffffffffffffffffff1614611637576040517f08c379a000000000000000000000000000000000000000000000000000000000815260040161162e90613ac8565b60405180910390fd5b61164160fb6121be565b851115611683576040517f08c379a000000000000000000000000000000000000000000000000000000000815260040161167a90613908565b60405180910390fd5b6000821015801561169657506127108211155b6116d5576040517f08c379a00000000000000000000000000000000000000000000000000000000081526004016116cc90613988565b60405180910390fd5b6101006000868152602001908152602001600020546101026000878152602001908152602001600020541061173f576040517f08c379a0000000000000000000000000000000000000000000000000000000008152600401611736906139c8565b60405180910390fd5b610101600086815260200190815260200160002054610103600087815260200190815260200160002054106117a9576040517f08c379a00000000000000000000000000000000000000000000000000000000081526004016117a090613ba8565b60405180910390fd5b600061010260008781526020019081526020016000205460ff6000888152602001908152602001600020546117de9190613ccb565b90506101026000878152602001908152602001600020600081548092919061180590613e6e565b9190505550600061010360008881526020019081526020016000205460fe60008981526020019081526020016000205461183f9190613ccb565b905085610103600089815260200190815260200160002060008282546118659190613ccb565b92505081905550806101086000848152602001908152602001600020819055508561010a60008481526020019081526020016000208190555084610107600084815260200190815260200160002090805190602001906118c6929190612f31565b5087610104600084815260200190815260200160002060006101000a81548173ffffffffffffffffffffffffffffffffffffffff021916908373ffffffffffffffffffffffffffffffffffffffff1602179055508361010560008481526020019081526020016000208190555061193d88826124de565b8161010b600083815260200190815260200160002081905550600161010960008481526020019081526020016000208190555086827f4c5fd817f8fc8ca41f71bf889df0e14dc6987b3716f25861004c1ff8ffa79270886040516119a19190613bc8565b60405180910390a3819250505095945050505050565b6060600061010b6000848152602001908152602001600020549050610107600082815260200190815260200160002080546119f190613e0b565b80601f0160208091040260200160405190810160405280929190818152602001828054611a1d90613e0b565b8015611a6a5780601f10611a3f57610100808354040283529160200191611a6a565b820191906000526020600020905b815481529060010190602001808311611a4d57829003601f168201915b5050505050915050919050565b61271081565b6101056020528060005260406000206000915090505481565b6000606a60008473ffffffffffffffffffffffffffffffffffffffff1673ffffffffffffffffffffffffffffffffffffffff16815260200190815260200160002060008373ffffffffffffffffffffffffffffffffffffffff1673ffffffffffffffffffffffffffffffffffffffff16815260200190815260200160002060009054906101000a900460ff16905092915050565b60fb8060000154905081565b60ff6020528060005260406000206000915090505481565b611b56611dad565b73ffffffffffffffffffffffffffffffffffffffff16611b74611270565b73ffffffffffffffffffffffffffffffffffffffff1614611bca576040517f08c379a0000000000000000000000000000000000000000000000000000000008152600401611bc190613ac8565b60405180910390fd5b600073ffffffffffffffffffffffffffffffffffffffff168173ffffffffffffffffffffffffffffffffffffffff161415611c3a576040517f08c379a0000000000000000000000000000000000000000000000000000000008152600401611c31906138e8565b60405180910390fd5b611c43816121cc565b50565b6101016020528060005260406000206000915090505481565b60007f80ac58cd000000000000000000000000000000000000000000000000000000007bffffffffffffffffffffffffffffffffffffffffffffffffffffffff1916827bffffffffffffffffffffffffffffffffffffffffffffffffffffffff19161480611d2a57507f5b5e139f000000000000000000000000000000000000000000000000000000007bffffffffffffffffffffffffffffffffffffffffffffffffffffffff1916827bffffffffffffffffffffffffffffffffffffffffffffffffffffffff1916145b80611d3a5750611d3982612708565b5b9050919050565b60008073ffffffffffffffffffffffffffffffffffffffff166067600084815260200190815260200160002060009054906101000a900473ffffffffffffffffffffffffffffffffffffffff1673ffffffffffffffffffffffffffffffffffffffff1614159050919050565b600033905090565b816069600083815260200190815260200160002060006101000a81548173ffffffffffffffffffffffffffffffffffffffff021916908373ffffffffffffffffffffffffffffffffffffffff160217905550808273ffffffffffffffffffffffffffffffffffffffff16611e2883610eba565b73ffffffffffffffffffffffffffffffffffffffff167f8c5be1e5ebec7d5bd14f71427d1e84f3dd0314c0f7b2291e5b200ac8c7c3b92560405160405180910390a45050565b6000611e7982611d41565b611eb8576040517f08c379a0000000000000000000000000000000000000000000000000000000008152600401611eaf906139e8565b60405180910390fd5b6000611ec383610eba565b90508073ffffffffffffffffffffffffffffffffffffffff168473ffffffffffffffffffffffffffffffffffffffff161480611f3257508373ffffffffffffffffffffffffffffffffffffffff16611f1a84610933565b73ffffffffffffffffffffffffffffffffffffffff16145b80611f435750611f428185611a96565b5b91505092915050565b8273ffffffffffffffffffffffffffffffffffffffff16611f6c82610eba565b73ffffffffffffffffffffffffffffffffffffffff1614611fc2576040517f08c379a0000000000000000000000000000000000000000000000000000000008152600401611fb990613ae8565b60405180910390fd5b600073ffffffffffffffffffffffffffffffffffffffff168273ffffffffffffffffffffffffffffffffffffffff161415612032576040517f08c379a000000000000000000000000000000000000000000000000000000000815260040161202990613968565b60405180910390fd5b61203d838383612772565b612048600082611db5565b6001606860008573ffffffffffffffffffffffffffffffffffffffff1673ffffffffffffffffffffffffffffffffffffffff16815260200190815260200160002060008282546120989190613d21565b925050819055506001606860008473ffffffffffffffffffffffffffffffffffffffff1673ffffffffffffffffffffffffffffffffffffffff16815260200190815260200160002060008282546120ef9190613ccb565b92505081905550816067600083815260200190815260200160002060006101000a81548173ffffffffffffffffffffffffffffffffffffffff021916908373ffffffffffffffffffffffffffffffffffffffff160217905550808273ffffffffffffffffffffffffffffffffffffffff168473ffffffffffffffffffffffffffffffffffffffff167fddf252ad1be2c89b69c2b068fc378daa952ba7f163c4a11628f55a4df523b3ef60405160405180910390a4505050565b6001816000016000828254019250508190555050565b600081600001549050919050565b600060c960009054906101000a900473ffffffffffffffffffffffffffffffffffffffff1690508160c960006101000a81548173ffffffffffffffffffffffffffffffffffffffff021916908373ffffffffffffffffffffffffffffffffffffffff1602179055508173ffffffffffffffffffffffffffffffffffffffff168173ffffffffffffffffffffffffffffffffffffffff167f8be0079c531659141344cd1fd0a4f28419497f9722a3daafe3b4186f6b6457e060405160405180910390a35050565b600061229d30612886565b15905090565b600060019054906101000a900460ff166122f2576040517f08c379a00000000000000000000000000000000000000000000000000000000081526004016122e990613b88565b60405180910390fd5b6122fa612899565b6123026128ea565b61230c828261293b565b5050565b600060019054906101000a900460ff1661235f576040517f08c379a000000000000000000000000000000000000000000000000000000000815260040161235690613b88565b60405180910390fd5b612367612899565b61236f6129bc565b565b8173ffffffffffffffffffffffffffffffffffffffff168373ffffffffffffffffffffffffffffffffffffffff1614156123e0576040517f08c379a00000000000000000000000000000000000000000000000000000000081526004016123d7906139a8565b60405180910390fd5b80606a60008573ffffffffffffffffffffffffffffffffffffffff1673ffffffffffffffffffffffffffffffffffffffff16815260200190815260200160002060008473ffffffffffffffffffffffffffffffffffffffff1673ffffffffffffffffffffffffffffffffffffffff16815260200190815260200160002060006101000a81548160ff0219169083151502179055508173ffffffffffffffffffffffffffffffffffffffff168373ffffffffffffffffffffffffffffffffffffffff167f17307eab39ab6107e8899845ad3d59bd9653f200f220920489ca2b5937696c31836040516124d1919061386b565b60405180910390a3505050565b600073ffffffffffffffffffffffffffffffffffffffff168273ffffffffffffffffffffffffffffffffffffffff16141561254e576040517f08c379a000000000000000000000000000000000000000000000000000000000815260040161254590613a88565b60405180910390fd5b61255781611d41565b15612597576040517f08c379a000000000000000000000000000000000000000000000000000000000815260040161258e90613928565b60405180910390fd5b6125a360008383612772565b6001606860008473ffffffffffffffffffffffffffffffffffffffff1673ffffffffffffffffffffffffffffffffffffffff16815260200190815260200160002060008282546125f39190613ccb565b92505081905550816067600083815260200190815260200160002060006101000a81548173ffffffffffffffffffffffffffffffffffffffff021916908373ffffffffffffffffffffffffffffffffffffffff160217905550808273ffffffffffffffffffffffffffffffffffffffff16600073ffffffffffffffffffffffffffffffffffffffff167fddf252ad1be2c89b69c2b068fc378daa952ba7f163c4a11628f55a4df523b3ef60405160405180910390a45050565b6126b7848484611f4c565b6126c384848484612a1d565b612702576040517f08c379a00000000000000000000000000000000000000000000000000000000081526004016126f9906138c8565b60405180910390fd5b50505050565b60007f01ffc9a7000000000000000000000000000000000000000000000000000000007bffffffffffffffffffffffffffffffffffffffffffffffffffffffff1916827bffffffffffffffffffffffffffffffffffffffffffffffffffffffff1916149050919050565b61277d838383612bb4565b600073ffffffffffffffffffffffffffffffffffffffff168373ffffffffffffffffffffffffffffffffffffffff1614156127c0576127bb81612bb9565b6127ff565b8173ffffffffffffffffffffffffffffffffffffffff168373ffffffffffffffffffffffffffffffffffffffff16146127fe576127fd8382612c02565b5b5b600073ffffffffffffffffffffffffffffffffffffffff168273ffffffffffffffffffffffffffffffffffffffff1614156128425761283d81612d6f565b612881565b8273ffffffffffffffffffffffffffffffffffffffff168273ffffffffffffffffffffffffffffffffffffffff16146128805761287f8282612eb2565b5b5b505050565b600080823b905060008111915050919050565b600060019054906101000a900460ff166128e8576040517f08c379a00000000000000000000000000000000000000000000000000000000081526004016128df90613b88565b60405180910390fd5b565b600060019054906101000a900460ff16612939576040517f08c379a000000000000000000000000000000000000000000000000000000000815260040161293090613b88565b60405180910390fd5b565b600060019054906101000a900460ff1661298a576040517f08c379a000000000000000000000000000000000000000000000000000000000815260040161298190613b88565b60405180910390fd5b81606590805190602001906129a0929190612f31565b5080606690805190602001906129b7929190612f31565b505050565b600060019054906101000a900460ff16612a0b576040517f08c379a0000000000000000000000000000000000000000000000000000000008152600401612a0290613b88565b60405180910390fd5b612a1b612a16611dad565b6121cc565b565b6000612a3e8473ffffffffffffffffffffffffffffffffffffffff16612886565b15612ba7578373ffffffffffffffffffffffffffffffffffffffff1663150b7a02612a67611dad565b8786866040518563ffffffff1660e01b8152600401612a89949392919061381f565b602060405180830381600087803b158015612aa357600080fd5b505af1925050508015612ad457506040513d601f19601f82011682018060405250810190612ad1919061336c565b60015b612b57573d8060008114612b04576040519150601f19603f3d011682016040523d82523d6000602084013e612b09565b606091505b50600081511415612b4f576040517f08c379a0000000000000000000000000000000000000000000000000000000008152600401612b46906138c8565b60405180910390fd5b805181602001fd5b63150b7a0260e01b7bffffffffffffffffffffffffffffffffffffffffffffffffffffffff1916817bffffffffffffffffffffffffffffffffffffffffffffffffffffffff191614915050612bac565b600190505b949350505050565b505050565b609980549050609a600083815260200190815260200160002081905550609981908060018154018082558091505060019003906000526020600020016000909190919091505550565b60006001612c0f84610f85565b612c199190613d21565b9050600060986000848152602001908152602001600020549050818114612cfe576000609760008673ffffffffffffffffffffffffffffffffffffffff1673ffffffffffffffffffffffffffffffffffffffff168152602001908152602001600020600084815260200190815260200160002054905080609760008773ffffffffffffffffffffffffffffffffffffffff1673ffffffffffffffffffffffffffffffffffffffff168152602001908152602001600020600084815260200190815260200160002081905550816098600083815260200190815260200160002081905550505b6098600084815260200190815260200160002060009055609760008573ffffffffffffffffffffffffffffffffffffffff1673ffffffffffffffffffffffffffffffffffffffff16815260200190815260200160002060008381526020019081526020016000206000905550505050565b60006001609980549050612d839190613d21565b90506000609a6000848152602001908152602001600020549050600060998381548110612dd9577f4e487b7100000000000000000000000000000000000000000000000000000000600052603260045260246000fd5b906000526020600020015490508060998381548110612e21577f4e487b7100000000000000000000000000000000000000000000000000000000600052603260045260246000fd5b906000526020600020018190555081609a600083815260200190815260200160002081905550609a6000858152602001908152602001600020600090556099805480612e96577f4e487b7100000000000000000000000000000000000000000000000000000000600052603160045260246000fd5b6001900381819060005260206000200160009055905550505050565b6000612ebd83610f85565b905081609760008573ffffffffffffffffffffffffffffffffffffffff1673ffffffffffffffffffffffffffffffffffffffff168152602001908152602001600020600083815260200190815260200160002081905550806098600084815260200190815260200160002081905550505050565b828054612f3d90613e0b565b90600052602060002090601f016020900481019282612f5f5760008555612fa6565b82601f10612f7857805160ff1916838001178555612fa6565b82800160010185558215612fa6579182015b82811115612fa5578251825591602001919060010190612f8a565b5b509050612fb39190612fb7565b5090565b5b80821115612fd0576000816000905550600101612fb8565b5090565b6000612fe7612fe284613c31565b613c0c565b905082815260208101848484011115612fff57600080fd5b61300a848285613dc9565b509392505050565b600061302561302084613c62565b613c0c565b90508281526020810184848401111561303d57600080fd5b613048848285613dc9565b509392505050565b60008135905061305f8161464e565b92915050565b60008135905061307481614665565b92915050565b6000813590506130898161467c565b92915050565b60008151905061309e8161467c565b92915050565b600082601f8301126130b557600080fd5b81356130c5848260208601612fd4565b91505092915050565b600082601f8301126130df57600080fd5b81356130ef848260208601613012565b91505092915050565b60008135905061310781614693565b92915050565b60006020828403121561311f57600080fd5b600061312d84828501613050565b91505092915050565b6000806040838503121561314957600080fd5b600061315785828601613050565b925050602061316885828601613050565b9150509250929050565b60008060006060848603121561318757600080fd5b600061319586828701613050565b93505060206131a686828701613050565b92505060406131b7868287016130f8565b9150509250925092565b600080600080608085870312156131d757600080fd5b60006131e587828801613050565b94505060206131f687828801613050565b9350506040613207878288016130f8565b925050606085013567ffffffffffffffff81111561322457600080fd5b613230878288016130a4565b91505092959194509250565b6000806040838503121561324f57600080fd5b600061325d85828601613050565b925050602061326e85828601613065565b9150509250929050565b6000806040838503121561328b57600080fd5b600061329985828601613050565b92505060206132aa858286016130f8565b9150509250929050565b600080600080600060a086880312156132cc57600080fd5b60006132da88828901613050565b95505060206132eb888289016130f8565b94505060406132fc888289016130f8565b935050606086013567ffffffffffffffff81111561331957600080fd5b613325888289016130ce565b9250506080613336888289016130f8565b9150509295509295909350565b60006020828403121561335557600080fd5b60006133638482850161307a565b91505092915050565b60006020828403121561337e57600080fd5b600061338c8482850161308f565b91505092915050565b6000602082840312156133a757600080fd5b60006133b5848285016130f8565b91505092915050565b600080604083850312156133d157600080fd5b60006133df858286016130f8565b92505060206133f0858286016130f8565b9150509250929050565b61340381613d55565b82525050565b61341281613d67565b82525050565b600061342382613c93565b61342d8185613ca9565b935061343d818560208601613dd8565b61344681613f44565b840191505092915050565b600061345c82613c9e565b6134668185613cba565b9350613476818560208601613dd8565b61347f81613f44565b840191505092915050565b6000613497602b83613cba565b91506134a282613f55565b604082019050919050565b60006134ba603283613cba565b91506134c582613fa4565b604082019050919050565b60006134dd602683613cba565b91506134e882613ff3565b604082019050919050565b6000613500600f83613cba565b915061350b82614042565b602082019050919050565b6000613523601c83613cba565b915061352e8261406b565b602082019050919050565b6000613546602d83613cba565b915061355182614094565b604082019050919050565b6000613569602483613cba565b9150613574826140e3565b604082019050919050565b600061358c602383613cba565b915061359782614132565b604082019050919050565b60006135af601983613cba565b91506135ba82614181565b602082019050919050565b60006135d2602e83613cba565b91506135dd826141aa565b604082019050919050565b60006135f5602c83613cba565b9150613600826141f9565b604082019050919050565b6000613618603883613cba565b915061362382614248565b604082019050919050565b600061363b602a83613cba565b915061364682614297565b604082019050919050565b600061365e602983613cba565b9150613669826142e6565b604082019050919050565b6000613681602e83613cba565b915061368c82614335565b604082019050919050565b60006136a4602083613cba565b91506136af82614384565b602082019050919050565b60006136c7602c83613cba565b91506136d2826143ad565b604082019050919050565b60006136ea602083613cba565b91506136f5826143fc565b602082019050919050565b600061370d602983613cba565b915061371882614425565b604082019050919050565b6000613730602983613cba565b915061373b82614474565b604082019050919050565b6000613753602183613cba565b915061375e826144c3565b604082019050919050565b6000613776603183613cba565b915061378182614512565b604082019050919050565b6000613799602c83613cba565b91506137a482614561565b604082019050919050565b60006137bc602b83613cba565b91506137c7826145b0565b604082019050919050565b60006137df602e83613cba565b91506137ea826145ff565b604082019050919050565b6137fe81613dbf565b82525050565b600060208201905061381960008301846133fa565b92915050565b600060808201905061383460008301876133fa565b61384160208301866133fa565b61384e60408301856137f5565b81810360608301526138608184613418565b905095945050505050565b60006020820190506138806000830184613409565b92915050565b600060208201905081810360008301526138a08184613451565b905092915050565b600060208201905081810360008301526138c18161348a565b9050919050565b600060208201905081810360008301526138e1816134ad565b9050919050565b60006020820190508181036000830152613901816134d0565b9050919050565b60006020820190508181036000830152613921816134f3565b9050919050565b6000602082019050818103600083015261394181613516565b9050919050565b6000602082019050818103600083015261396181613539565b9050919050565b600060208201905081810360008301526139818161355c565b9050919050565b600060208201905081810360008301526139a18161357f565b9050919050565b600060208201905081810360008301526139c1816135a2565b9050919050565b600060208201905081810360008301526139e1816135c5565b9050919050565b60006020820190508181036000830152613a01816135e8565b9050919050565b60006020820190508181036000830152613a218161360b565b9050919050565b60006020820190508181036000830152613a418161362e565b9050919050565b60006020820190508181036000830152613a6181613651565b9050919050565b60006020820190508181036000830152613a8181613674565b9050919050565b60006020820190508181036000830152613aa181613697565b9050919050565b60006020820190508181036000830152613ac1816136ba565b9050919050565b60006020820190508181036000830152613ae1816136dd565b9050919050565b60006020820190508181036000830152613b0181613700565b9050919050565b60006020820190508181036000830152613b2181613723565b9050919050565b60006020820190508181036000830152613b4181613746565b9050919050565b60006020820190508181036000830152613b6181613769565b9050919050565b60006020820190508181036000830152613b818161378c565b9050919050565b60006020820190508181036000830152613ba1816137af565b9050919050565b60006020820190508181036000830152613bc1816137d2565b9050919050565b6000602082019050613bdd60008301846137f5565b92915050565b6000604082019050613bf860008301856137f5565b613c0560208301846137f5565b9392505050565b6000613c16613c27565b9050613c228282613e3d565b919050565b6000604051905090565b600067ffffffffffffffff821115613c4c57613c4b613f15565b5b613c5582613f44565b9050602081019050919050565b600067ffffffffffffffff821115613c7d57613c7c613f15565b5b613c8682613f44565b9050602081019050919050565b600081519050919050565b600081519050919050565b600082825260208201905092915050565b600082825260208201905092915050565b6000613cd682613dbf565b9150613ce183613dbf565b9250827fffffffffffffffffffffffffffffffffffffffffffffffffffffffffffffffff03821115613d1657613d15613eb7565b5b828201905092915050565b6000613d2c82613dbf565b9150613d3783613dbf565b925082821015613d4a57613d49613eb7565b5b828203905092915050565b6000613d6082613d9f565b9050919050565b60008115159050919050565b60007fffffffff0000000000000000000000000000000000000000000000000000000082169050919050565b600073ffffffffffffffffffffffffffffffffffffffff82169050919050565b6000819050919050565b82818337600083830152505050565b60005b83811015613df6578082015181840152602081019050613ddb565b83811115613e05576000848401525b50505050565b60006002820490506001821680613e2357607f821691505b60208210811415613e3757613e36613ee6565b5b50919050565b613e4682613f44565b810181811067ffffffffffffffff82111715613e6557613e64613f15565b5b80604052505050565b6000613e7982613dbf565b91507fffffffffffffffffffffffffffffffffffffffffffffffffffffffffffffffff821415613eac57613eab613eb7565b5b600182019050919050565b7f4e487b7100000000000000000000000000000000000000000000000000000000600052601160045260246000fd5b7f4e487b7100000000000000000000000000000000000000000000000000000000600052602260045260246000fd5b7f4e487b7100000000000000000000000000000000000000000000000000000000600052604160045260246000fd5b6000601f19601f8301169050919050565b7f455243373231456e756d657261626c653a206f776e657220696e646578206f7560008201527f74206f6620626f756e6473000000000000000000000000000000000000000000602082015250565b7f4552433732313a207472616e7366657220746f206e6f6e20455243373231526560008201527f63656976657220696d706c656d656e7465720000000000000000000000000000602082015250565b7f4f776e61626c653a206e6577206f776e657220697320746865207a65726f206160008201527f6464726573730000000000000000000000000000000000000000000000000000602082015250565b7f556e6b6e6f776e2073657269616c2e0000000000000000000000000000000000600082015250565b7f4552433732313a20746f6b656e20616c7265616479206d696e74656400000000600082015250565b7f596f7520646f6e27742068617665207468652061636365737320746f206d696e60008201527f74207468697320746f6b656e2e00000000000000000000000000000000000000602082015250565b7f4552433732313a207472616e7366657220746f20746865207a65726f2061646460008201527f7265737300000000000000000000000000000000000000000000000000000000602082015250565b7f526f79616c74792073686f756c64206265206265747765656e2030202d20313060008201527f30252e0000000000000000000000000000000000000000000000000000000000602082015250565b7f4552433732313a20617070726f766520746f2063616c6c657200000000000000600082015250565b7f416c6c2067726f757073206f6620746869732073657269616c2068617665206260008201527f65656e207075626c69736865642e000000000000000000000000000000000000602082015250565b7f4552433732313a206f70657261746f7220717565727920666f72206e6f6e657860008201527f697374656e7420746f6b656e0000000000000000000000000000000000000000602082015250565b7f4552433732313a20617070726f76652063616c6c6572206973206e6f74206f7760008201527f6e6572206e6f7220617070726f76656420666f7220616c6c0000000000000000602082015250565b7f4552433732313a2062616c616e636520717565727920666f7220746865207a6560008201527f726f206164647265737300000000000000000000000000000000000000000000602082015250565b7f4552433732313a206f776e657220717565727920666f72206e6f6e657869737460008201527f656e7420746f6b656e0000000000000000000000000000000000000000000000602082015250565b7f496e697469616c697a61626c653a20636f6e747261637420697320616c72656160008201527f647920696e697469616c697a6564000000000000000000000000000000000000602082015250565b7f4552433732313a206d696e7420746f20746865207a65726f2061646472657373600082015250565b7f4552433732313a20617070726f76656420717565727920666f72206e6f6e657860008201527f697374656e7420746f6b656e0000000000000000000000000000000000000000602082015250565b7f4f776e61626c653a2063616c6c6572206973206e6f7420746865206f776e6572600082015250565b7f4552433732313a207472616e73666572206f6620746f6b656e2074686174206960008201527f73206e6f74206f776e0000000000000000000000000000000000000000000000602082015250565b7f416c6c20746f6b656e73206f6620746869732067726f7570206861732062656560008201527f6e206d696e7465642e0000000000000000000000000000000000000000000000602082015250565b7f4552433732313a20617070726f76616c20746f2063757272656e74206f776e6560008201527f7200000000000000000000000000000000000000000000000000000000000000602082015250565b7f4552433732313a207472616e736665722063616c6c6572206973206e6f74206f60008201527f776e6572206e6f7220617070726f766564000000000000000000000000000000602082015250565b7f455243373231456e756d657261626c653a20676c6f62616c20696e646578206f60008201527f7574206f6620626f756e64730000000000000000000000000000000000000000602082015250565b7f496e697469616c697a61626c653a20636f6e7472616374206973206e6f74206960008201527f6e697469616c697a696e67000000000000000000000000000000000000000000602082015250565b7f416c6c20746f6b656e73206f6620746869732073657269616c2068617665206260008201527f65656e207075626c69736865642e000000000000000000000000000000000000602082015250565b61465781613d55565b811461466257600080fd5b50565b61466e81613d67565b811461467957600080fd5b50565b61468581613d73565b811461469057600080fd5b50565b61469c81613dbf565b81146146a757600080fd5b5056fea264697066735822122097b0cb65dc435c16dc16774a51b0142abfd0649899412a668e7c9694169040a064736f6c63430008030033",
  "immutableReferences": {},
  "source": "// contracts/GameItem.sol\r\n// SPDX-License-Identifier: MIT\r\npragma solidity ^0.8.3;\r\n\r\nimport \"@openzeppelin/contracts-upgradeable/token/ERC721/ERC721Upgradeable.sol\";\r\nimport \"@openzeppelin/contracts-upgradeable/token/ERC721/extensions/ERC721EnumerableUpgradeable.sol\";\r\nimport \"@openzeppelin/contracts-upgradeable/utils/CountersUpgradeable.sol\";\r\nimport \"@openzeppelin/contracts-upgradeable/access/OwnableUpgradeable.sol\";\r\n\r\ncontract MyCollectible is ERC721EnumerableUpgradeable, OwnableUpgradeable {\r\n    using CountersUpgradeable for CountersUpgradeable.Counter;\r\n    CountersUpgradeable.Counter public serialIds;\r\n\r\n    uint private _serialTokenStart;\r\n    uint private _serialGroupStart;\r\n    mapping (uint => uint) public serialTokenStart;\r\n    mapping (uint => uint) public serialGroupStart;\r\n    mapping (uint => uint) public serialMaxGroup;\r\n    mapping (uint => uint) public serialMaxSupply;\r\n    mapping (uint => uint) public serialCurrentGroup;\r\n    mapping (uint => uint) public serialCurrentSupply;\r\n\r\n    mapping (uint => address) public creatorOf;\r\n    mapping (uint => uint) public royaltyOf;\r\n    mapping (uint => uint) public serialOf;\r\n    mapping (uint => string) private _groupURI;\r\n    mapping (uint => uint) public groupStart;\r\n    mapping (uint => uint) public groupCurrentSupply;\r\n    mapping (uint => uint) public groupMaxSupply;\r\n\r\n    mapping (uint => uint) public groupOf;\r\n\r\n    /* Inverse basis point. */\r\n    uint public constant INVERSE_BASIS_POINT = 10000;\r\n\r\n    event SerialAdded(uint indexed serialId, uint maxGroup, uint maxSupply);\r\n    event GroupPublished(uint indexed groupId, uint indexed serialId, uint maxSupply);\r\n    event NewItemClaimed(uint indexed itemId, uint indexed groupId, address indexed toAddress);\r\n\r\n    function initialize() initializer public {\r\n        __ERC721_init(\"Loser NFT\", \"LOWX\");\r\n        OwnableUpgradeable.__Ownable_init();\r\n    }\r\n\r\n    function addSerial(uint256 maxGroup, uint256 maxSupply)\r\n        public onlyOwner\r\n        returns (uint256)\r\n    {\r\n        serialIds.increment();\r\n        uint256 newSerialId = serialIds.current();\r\n        serialTokenStart[newSerialId] = _serialTokenStart + 1; // start token id of this serial\r\n        serialGroupStart[newSerialId] = _serialGroupStart + 1; // start group id of this serial\r\n        serialMaxSupply[newSerialId] = maxSupply;\r\n        serialMaxGroup[newSerialId] = maxGroup;\r\n        _serialTokenStart += maxSupply;\r\n        _serialGroupStart += maxGroup;\r\n\r\n        emit SerialAdded(newSerialId, maxGroup, maxSupply);\r\n\r\n        return newSerialId;\r\n    }\r\n\r\n    function publish(address to, uint256 serial, uint256 maxSupply, string memory _tokenURI, uint256 royalty)\r\n        public onlyOwner\r\n        returns (uint256)\r\n    {\r\n        require(serial <= serialIds.current(), \"Unknown serial.\");\r\n        require(royalty >= 0 && royalty <= INVERSE_BASIS_POINT, \"Royalty should be between 0 - 100%.\");\r\n        require(serialCurrentGroup[serial] < serialMaxGroup[serial], \"All groups of this serial have been published.\");\r\n        require(serialCurrentSupply[serial] < serialMaxSupply[serial], \"All tokens of this serial have been published.\");\r\n        \r\n        uint256 groupId = serialGroupStart[serial] + serialCurrentGroup[serial];\r\n        serialCurrentGroup[serial] ++;\r\n\r\n        uint256 tokenId = serialTokenStart[serial] + serialCurrentSupply[serial];\r\n        serialCurrentSupply[serial] += maxSupply;\r\n\r\n        groupStart[groupId] = tokenId;\r\n        groupMaxSupply[groupId] = maxSupply;\r\n        _groupURI[groupId] = _tokenURI;\r\n        creatorOf[groupId] = to;\r\n        royaltyOf[groupId] = royalty;\r\n\r\n        _mint(to, tokenId);\r\n        groupOf[tokenId] = groupId;\r\n        groupCurrentSupply[groupId] = 1;\r\n\r\n        emit GroupPublished(groupId, serial, maxSupply);\r\n\r\n        return groupId;\r\n    }\r\n\r\n    function claim(address to, uint256 groupId)\r\n        public \r\n        returns (uint256)\r\n    {\r\n        require(groupCurrentSupply[groupId] < groupMaxSupply[groupId], \"All tokens of this group has been minted.\");\r\n        uint256 startId = groupStart[groupId];\r\n        require(ownerOf(startId) == msg.sender || getApproved(startId) == msg.sender, \"You don't have the access to mint this token.\");\r\n        uint256 newtokenId = startId + groupCurrentSupply[groupId];\r\n\r\n        _mint(to, newtokenId);\r\n        groupOf[newtokenId] = groupId;\r\n        groupCurrentSupply[groupId] += 1;\r\n\r\n        emit NewItemClaimed(newtokenId, groupId, to);\r\n\r\n        return newtokenId;\r\n    }\r\n\r\n    function tokenURI(uint256 tokenId)\r\n        public view override\r\n        returns (string memory)\r\n    {\r\n        uint256 groupId = groupOf[tokenId];\r\n        return _groupURI[groupId];\r\n    }\r\n}",
  "sourcePath": "E:\\work\\lowb\\source\\LowbMarket\\contracts\\MyCollectible\\MyCollectible.sol",
  "compiler": {
    "name": "solc",
    "version": "0.8.3+commit.8d00100c.Emscripten.clang"
  },
  "schemaVersion": "3.4.4",
  "updatedAt": "2022-02-06T05:29:58.119Z",
  "devdoc": {
    "kind": "dev",
    "methods": {
      "approve(address,uint256)": {
        "details": "See {IERC721-approve}."
      },
      "balanceOf(address)": {
        "details": "See {IERC721-balanceOf}."
      },
      "getApproved(uint256)": {
        "details": "See {IERC721-getApproved}."
      },
      "isApprovedForAll(address,address)": {
        "details": "See {IERC721-isApprovedForAll}."
      },
      "name()": {
        "details": "See {IERC721Metadata-name}."
      },
      "owner()": {
        "details": "Returns the address of the current owner."
      },
      "ownerOf(uint256)": {
        "details": "See {IERC721-ownerOf}."
      },
      "renounceOwnership()": {
        "details": "Leaves the contract without owner. It will not be possible to call `onlyOwner` functions anymore. Can only be called by the current owner. NOTE: Renouncing ownership will leave the contract without an owner, thereby removing any functionality that is only available to the owner."
      },
      "safeTransferFrom(address,address,uint256)": {
        "details": "See {IERC721-safeTransferFrom}."
      },
      "safeTransferFrom(address,address,uint256,bytes)": {
        "details": "See {IERC721-safeTransferFrom}."
      },
      "setApprovalForAll(address,bool)": {
        "details": "See {IERC721-setApprovalForAll}."
      },
      "supportsInterface(bytes4)": {
        "details": "See {IERC165-supportsInterface}."
      },
      "symbol()": {
        "details": "See {IERC721Metadata-symbol}."
      },
      "tokenByIndex(uint256)": {
        "details": "See {IERC721Enumerable-tokenByIndex}."
      },
      "tokenOfOwnerByIndex(address,uint256)": {
        "details": "See {IERC721Enumerable-tokenOfOwnerByIndex}."
      },
      "tokenURI(uint256)": {
        "details": "See {IERC721Metadata-tokenURI}."
      },
      "totalSupply()": {
        "details": "See {IERC721Enumerable-totalSupply}."
      },
      "transferFrom(address,address,uint256)": {
        "details": "See {IERC721-transferFrom}."
      },
      "transferOwnership(address)": {
        "details": "Transfers ownership of the contract to a new account (`newOwner`). Can only be called by the current owner."
      }
    },
    "version": 1
  },
  "userdoc": {
    "kind": "user",
    "methods": {},
    "version": 1
  }
}