{
  "contractName": "NFTCollection",
  "abi": [
    {
      "inputs": [],
      "stateMutability": "nonpayable",
      "type": "constructor"
    },
    {
      "anonymous": false,
      "inputs": [
        {
          "indexed": true,
          "internalType": "address",
          "name": "owner",
          "type": "address"
        },
        {
          "indexed": true,
          "internalType": "address",
          "name": "approved",
          "type": "address"
        },
        {
          "indexed": true,
          "internalType": "uint256",
          "name": "tokenId",
          "type": "uint256"
        }
      ],
      "name": "Approval",
      "type": "event"
    },
    {
      "anonymous": false,
      "inputs": [
        {
          "indexed": true,
          "internalType": "address",
          "name": "owner",
          "type": "address"
        },
        {
          "indexed": true,
          "internalType": "address",
          "name": "operator",
          "type": "address"
        },
        {
          "indexed": false,
          "internalType": "bool",
          "name": "approved",
          "type": "bool"
        }
      ],
      "name": "ApprovalForAll",
      "type": "event"
    },
    {
      "anonymous": false,
      "inputs": [
        {
          "indexed": true,
          "internalType": "address",
          "name": "from",
          "type": "address"
        },
        {
          "indexed": true,
          "internalType": "address",
          "name": "to",
          "type": "address"
        },
        {
          "indexed": true,
          "internalType": "uint256",
          "name": "tokenId",
          "type": "uint256"
        }
      ],
      "name": "Transfer",
      "type": "event"
    },
    {
      "anonymous": false,
      "inputs": [
        {
          "indexed": true,
          "internalType": "uint256",
          "name": "tokenId",
          "type": "uint256"
        },
        {
          "indexed": true,
          "internalType": "address",
          "name": "owner",
          "type": "address"
        },
        {
          "indexed": false,
          "internalType": "string",
          "name": "uri",
          "type": "string"
        },
        {
          "indexed": false,
          "internalType": "string",
          "name": "name",
          "type": "string"
        },
        {
          "indexed": false,
          "internalType": "string",
          "name": "description",
          "type": "string"
        }
      ],
      "name": "mintNFT",
      "type": "event"
    },
    {
      "inputs": [
        {
          "internalType": "address",
          "name": "to",
          "type": "address"
        },
        {
          "internalType": "uint256",
          "name": "tokenId",
          "type": "uint256"
        }
      ],
      "name": "approve",
      "outputs": [],
      "stateMutability": "nonpayable",
      "type": "function"
    },
    {
      "inputs": [
        {
          "internalType": "address",
          "name": "owner",
          "type": "address"
        }
      ],
      "name": "balanceOf",
      "outputs": [
        {
          "internalType": "uint256",
          "name": "",
          "type": "uint256"
        }
      ],
      "stateMutability": "view",
      "type": "function",
      "constant": true
    },
    {
      "inputs": [
        {
          "internalType": "uint256",
          "name": "tokenId",
          "type": "uint256"
        }
      ],
      "name": "getApproved",
      "outputs": [
        {
          "internalType": "address",
          "name": "",
          "type": "address"
        }
      ],
      "stateMutability": "view",
      "type": "function",
      "constant": true
    },
    {
      "inputs": [
        {
          "internalType": "address",
          "name": "owner",
          "type": "address"
        },
        {
          "internalType": "address",
          "name": "operator",
          "type": "address"
        }
      ],
      "name": "isApprovedForAll",
      "outputs": [
        {
          "internalType": "bool",
          "name": "",
          "type": "bool"
        }
      ],
      "stateMutability": "view",
      "type": "function",
      "constant": true
    },
    {
      "inputs": [],
      "name": "name",
      "outputs": [
        {
          "internalType": "string",
          "name": "",
          "type": "string"
        }
      ],
      "stateMutability": "view",
      "type": "function",
      "constant": true
    },
    {
      "inputs": [
        {
          "internalType": "uint256",
          "name": "tokenId",
          "type": "uint256"
        }
      ],
      "name": "ownerOf",
      "outputs": [
        {
          "internalType": "address",
          "name": "",
          "type": "address"
        }
      ],
      "stateMutability": "view",
      "type": "function",
      "constant": true
    },
    {
      "inputs": [
        {
          "internalType": "address",
          "name": "from",
          "type": "address"
        },
        {
          "internalType": "address",
          "name": "to",
          "type": "address"
        },
        {
          "internalType": "uint256",
          "name": "tokenId",
          "type": "uint256"
        }
      ],
      "name": "safeTransferFrom",
      "outputs": [],
      "stateMutability": "nonpayable",
      "type": "function"
    },
    {
      "inputs": [
        {
          "internalType": "address",
          "name": "from",
          "type": "address"
        },
        {
          "internalType": "address",
          "name": "to",
          "type": "address"
        },
        {
          "internalType": "uint256",
          "name": "tokenId",
          "type": "uint256"
        },
        {
          "internalType": "bytes",
          "name": "_data",
          "type": "bytes"
        }
      ],
      "name": "safeTransferFrom",
      "outputs": [],
      "stateMutability": "nonpayable",
      "type": "function"
    },
    {
      "inputs": [
        {
          "internalType": "address",
          "name": "operator",
          "type": "address"
        },
        {
          "internalType": "bool",
          "name": "approved",
          "type": "bool"
        }
      ],
      "name": "setApprovalForAll",
      "outputs": [],
      "stateMutability": "nonpayable",
      "type": "function"
    },
    {
      "inputs": [],
      "name": "symbol",
      "outputs": [
        {
          "internalType": "string",
          "name": "",
          "type": "string"
        }
      ],
      "stateMutability": "view",
      "type": "function",
      "constant": true
    },
    {
      "inputs": [
        {
          "internalType": "uint256",
          "name": "index",
          "type": "uint256"
        }
      ],
      "name": "tokenByIndex",
      "outputs": [
        {
          "internalType": "uint256",
          "name": "",
          "type": "uint256"
        }
      ],
      "stateMutability": "view",
      "type": "function",
      "constant": true
    },
    {
      "inputs": [
        {
          "internalType": "address",
          "name": "owner",
          "type": "address"
        },
        {
          "internalType": "uint256",
          "name": "index",
          "type": "uint256"
        }
      ],
      "name": "tokenOfOwnerByIndex",
      "outputs": [
        {
          "internalType": "uint256",
          "name": "",
          "type": "uint256"
        }
      ],
      "stateMutability": "view",
      "type": "function",
      "constant": true
    },
    {
      "inputs": [
        {
          "internalType": "uint256",
          "name": "tokenId",
          "type": "uint256"
        }
      ],
      "name": "tokenURI",
      "outputs": [
        {
          "internalType": "string",
          "name": "",
          "type": "string"
        }
      ],
      "stateMutability": "view",
      "type": "function",
      "constant": true
    },
    {
      "inputs": [],
      "name": "totalSupply",
      "outputs": [
        {
          "internalType": "uint256",
          "name": "",
          "type": "uint256"
        }
      ],
      "stateMutability": "view",
      "type": "function",
      "constant": true
    },
    {
      "inputs": [
        {
          "internalType": "address",
          "name": "from",
          "type": "address"
        },
        {
          "internalType": "address",
          "name": "to",
          "type": "address"
        },
        {
          "internalType": "uint256",
          "name": "tokenId",
          "type": "uint256"
        }
      ],
      "name": "transferFrom",
      "outputs": [],
      "stateMutability": "nonpayable",
      "type": "function"
    },
    {
      "inputs": [
        {
          "internalType": "bytes4",
          "name": "interfaceId",
          "type": "bytes4"
        }
      ],
      "name": "supportsInterface",
      "outputs": [
        {
          "internalType": "bool",
          "name": "",
          "type": "bool"
        }
      ],
      "stateMutability": "view",
      "type": "function",
      "constant": true
    },
    {
      "inputs": [
        {
          "internalType": "uint256",
          "name": "tokenId",
          "type": "uint256"
        },
        {
          "internalType": "string",
          "name": "uri",
          "type": "string"
        },
        {
          "internalType": "string",
          "name": "name",
          "type": "string"
        },
        {
          "internalType": "string",
          "name": "description",
          "type": "string"
        }
      ],
      "name": "safeMint",
      "outputs": [],
      "stateMutability": "nonpayable",
      "type": "function"
    }
  ],
  "bytecode": "0x60806040523480156200001157600080fd5b506040518060400160405280600f81526020017f4c6f776220436f6c6c656374696f6e00000000000000000000000000000000008152506040518060400160405280600481526020017f4c6f776200000000000000000000000000000000000000000000000000000000815250816000908051906020019062000096929190620000b8565b508060019080519060200190620000af929190620000b8565b505050620001cd565b828054620000c69062000168565b90600052602060002090601f016020900481019282620000ea576000855562000136565b82601f106200010557805160ff191683800117855562000136565b8280016001018555821562000136579182015b828111156200013557825182559160200191906001019062000118565b5b50905062000145919062000149565b5090565b5b80821115620001645760008160009055506001016200014a565b5090565b600060028204905060018216806200018157607f821691505b602082108114156200019857620001976200019e565b5b50919050565b7f4e487b7100000000000000000000000000000000000000000000000000000000600052602260045260246000fd5b61312480620001dd6000396000f3fe608060405234801561001057600080fd5b506004361061010b5760003560e01c80634f6ccce7116100a257806395d89b411161007157806395d89b41146102dc578063a22cb465146102fa578063b88d4fde14610316578063c87b56dd14610332578063e985e9c5146103625761010b565b80634f6ccce7146102305780636352211e1461026057806368974aaa1461029057806370a08231146102ac5761010b565b806318160ddd116100de57806318160ddd146101aa57806323b872dd146101c85780632f745c59146101e457806342842e0e146102145761010b565b806301ffc9a71461011057806306fdde0314610140578063081812fc1461015e578063095ea7b31461018e575b600080fd5b61012a600480360381019061012591906120da565b610392565b604051610137919061258b565b60405180910390f35b6101486103a4565b60405161015591906125a6565b60405180910390f35b6101786004803603810190610173919061212c565b610436565b6040516101859190612524565b60405180910390f35b6101a860048036038101906101a3919061209e565b6104bb565b005b6101b26105d3565b6040516101bf9190612814565b60405180910390f35b6101e260048036038101906101dd9190611f98565b6105e0565b005b6101fe60048036038101906101f9919061209e565b610640565b60405161020b9190612814565b60405180910390f35b61022e60048036038101906102299190611f98565b6106e5565b005b61024a6004803603810190610245919061212c565b610705565b6040516102579190612814565b60405180910390f35b61027a6004803603810190610275919061212c565b61079c565b6040516102879190612524565b60405180910390f35b6102aa60048036038101906102a59190612155565b61084e565b005b6102c660048036038101906102c19190611f33565b6108b1565b6040516102d39190612814565b60405180910390f35b6102e4610969565b6040516102f191906125a6565b60405180910390f35b610314600480360381019061030f9190612062565b6109fb565b005b610330600480360381019061032b9190611fe7565b610a11565b005b61034c6004803603810190610347919061212c565b610a73565b60405161035991906125a6565b60405180910390f35b61037c60048036038101906103779190611f5c565b610b1a565b604051610389919061258b565b60405180910390f35b600061039d82610bae565b9050919050565b6060600080546103b390612a6a565b80601f01602080910402602001604051908101604052809291908181526020018280546103df90612a6a565b801561042c5780601f106104015761010080835404028352916020019161042c565b820191906000526020600020905b81548152906001019060200180831161040f57829003601f168201915b5050505050905090565b600061044182610c28565b610480576040517f08c379a000000000000000000000000000000000000000000000000000000000815260040161047790612754565b60405180910390fd5b6004600083815260200190815260200160002060009054906101000a900473ffffffffffffffffffffffffffffffffffffffff169050919050565b60006104c68261079c565b90508073ffffffffffffffffffffffffffffffffffffffff168373ffffffffffffffffffffffffffffffffffffffff161415610537576040517f08c379a000000000000000000000000000000000000000000000000000000000815260040161052e906127b4565b60405180910390fd5b8073ffffffffffffffffffffffffffffffffffffffff16610556610c94565b73ffffffffffffffffffffffffffffffffffffffff16148061058557506105848161057f610c94565b610b1a565b5b6105c4576040517f08c379a00000000000000000000000000000000000000000000000000000000081526004016105bb906126d4565b60405180910390fd5b6105ce8383610c9c565b505050565b6000600880549050905090565b6105f16105eb610c94565b82610d55565b610630576040517f08c379a0000000000000000000000000000000000000000000000000000000008152600401610627906127d4565b60405180910390fd5b61063b838383610e33565b505050565b600061064b836108b1565b821061068c576040517f08c379a000000000000000000000000000000000000000000000000000000000815260040161068390612614565b60405180910390fd5b600660008473ffffffffffffffffffffffffffffffffffffffff1673ffffffffffffffffffffffffffffffffffffffff168152602001908152602001600020600083815260200190815260200160002054905092915050565b61070083838360405180602001604052806000815250610a11565b505050565b600061070f6105d3565b8210610750576040517f08c379a0000000000000000000000000000000000000000000000000000000008152600401610747906127f4565b60405180910390fd5b6008828154811061078a577f4e487b7100000000000000000000000000000000000000000000000000000000600052603260045260246000fd5b90600052602060002001549050919050565b6000806002600084815260200190815260200160002060009054906101000a900473ffffffffffffffffffffffffffffffffffffffff169050600073ffffffffffffffffffffffffffffffffffffffff168173ffffffffffffffffffffffffffffffffffffffff161415610845576040517f08c379a000000000000000000000000000000000000000000000000000000000815260040161083c90612714565b60405180910390fd5b80915050919050565b610858338561108f565b3373ffffffffffffffffffffffffffffffffffffffff16847f06d93a7a380979a926ce6a1cf70f681a3a9f85b7624a4668dd06f262097010578585856040516108a3939291906125c8565b60405180910390a350505050565b60008073ffffffffffffffffffffffffffffffffffffffff168273ffffffffffffffffffffffffffffffffffffffff161415610922576040517f08c379a0000000000000000000000000000000000000000000000000000000008152600401610919906126f4565b60405180910390fd5b600360008373ffffffffffffffffffffffffffffffffffffffff1673ffffffffffffffffffffffffffffffffffffffff168152602001908152602001600020549050919050565b60606001805461097890612a6a565b80601f01602080910402602001604051908101604052809291908181526020018280546109a490612a6a565b80156109f15780601f106109c6576101008083540402835291602001916109f1565b820191906000526020600020905b8154815290600101906020018083116109d457829003601f168201915b5050505050905090565b610a0d610a06610c94565b83836110ad565b5050565b610a22610a1c610c94565b83610d55565b610a61576040517f08c379a0000000000000000000000000000000000000000000000000000000008152600401610a58906127d4565b60405180910390fd5b610a6d8484848461121a565b50505050565b6060610a7e82610c28565b610abd576040517f08c379a0000000000000000000000000000000000000000000000000000000008152600401610ab490612794565b60405180910390fd5b6000610ac7611276565b90506000815111610ae75760405180602001604052806000815250610b12565b80610af18461128d565b604051602001610b02929190612500565b6040516020818303038152906040525b915050919050565b6000600560008473ffffffffffffffffffffffffffffffffffffffff1673ffffffffffffffffffffffffffffffffffffffff16815260200190815260200160002060008373ffffffffffffffffffffffffffffffffffffffff1673ffffffffffffffffffffffffffffffffffffffff16815260200190815260200160002060009054906101000a900460ff16905092915050565b60007f780e9d63000000000000000000000000000000000000000000000000000000007bffffffffffffffffffffffffffffffffffffffffffffffffffffffff1916827bffffffffffffffffffffffffffffffffffffffffffffffffffffffff19161480610c215750610c208261143a565b5b9050919050565b60008073ffffffffffffffffffffffffffffffffffffffff166002600084815260200190815260200160002060009054906101000a900473ffffffffffffffffffffffffffffffffffffffff1673ffffffffffffffffffffffffffffffffffffffff1614159050919050565b600033905090565b816004600083815260200190815260200160002060006101000a81548173ffffffffffffffffffffffffffffffffffffffff021916908373ffffffffffffffffffffffffffffffffffffffff160217905550808273ffffffffffffffffffffffffffffffffffffffff16610d0f8361079c565b73ffffffffffffffffffffffffffffffffffffffff167f8c5be1e5ebec7d5bd14f71427d1e84f3dd0314c0f7b2291e5b200ac8c7c3b92560405160405180910390a45050565b6000610d6082610c28565b610d9f576040517f08c379a0000000000000000000000000000000000000000000000000000000008152600401610d96906126b4565b60405180910390fd5b6000610daa8361079c565b90508073ffffffffffffffffffffffffffffffffffffffff168473ffffffffffffffffffffffffffffffffffffffff161480610e1957508373ffffffffffffffffffffffffffffffffffffffff16610e0184610436565b73ffffffffffffffffffffffffffffffffffffffff16145b80610e2a5750610e298185610b1a565b5b91505092915050565b8273ffffffffffffffffffffffffffffffffffffffff16610e538261079c565b73ffffffffffffffffffffffffffffffffffffffff1614610ea9576040517f08c379a0000000000000000000000000000000000000000000000000000000008152600401610ea090612774565b60405180910390fd5b600073ffffffffffffffffffffffffffffffffffffffff168273ffffffffffffffffffffffffffffffffffffffff161415610f19576040517f08c379a0000000000000000000000000000000000000000000000000000000008152600401610f1090612674565b60405180910390fd5b610f2483838361151c565b610f2f600082610c9c565b6001600360008573ffffffffffffffffffffffffffffffffffffffff1673ffffffffffffffffffffffffffffffffffffffff1681526020019081526020016000206000828254610f7f9190612980565b925050819055506001600360008473ffffffffffffffffffffffffffffffffffffffff1673ffffffffffffffffffffffffffffffffffffffff1681526020019081526020016000206000828254610fd691906128f9565b92505081905550816002600083815260200190815260200160002060006101000a81548173ffffffffffffffffffffffffffffffffffffffff021916908373ffffffffffffffffffffffffffffffffffffffff160217905550808273ffffffffffffffffffffffffffffffffffffffff168473ffffffffffffffffffffffffffffffffffffffff167fddf252ad1be2c89b69c2b068fc378daa952ba7f163c4a11628f55a4df523b3ef60405160405180910390a4505050565b6110a982826040518060200160405280600081525061152c565b5050565b8173ffffffffffffffffffffffffffffffffffffffff168373ffffffffffffffffffffffffffffffffffffffff16141561111c576040517f08c379a000000000000000000000000000000000000000000000000000000000815260040161111390612694565b60405180910390fd5b80600560008573ffffffffffffffffffffffffffffffffffffffff1673ffffffffffffffffffffffffffffffffffffffff16815260200190815260200160002060008473ffffffffffffffffffffffffffffffffffffffff1673ffffffffffffffffffffffffffffffffffffffff16815260200190815260200160002060006101000a81548160ff0219169083151502179055508173ffffffffffffffffffffffffffffffffffffffff168373ffffffffffffffffffffffffffffffffffffffff167f17307eab39ab6107e8899845ad3d59bd9653f200f220920489ca2b5937696c318360405161120d919061258b565b60405180910390a3505050565b611225848484610e33565b61123184848484611587565b611270576040517f08c379a000000000000000000000000000000000000000000000000000000000815260040161126790612634565b60405180910390fd5b50505050565b606060405180602001604052806000815250905090565b606060008214156112d5576040518060400160405280600181526020017f30000000000000000000000000000000000000000000000000000000000000008152509050611435565b600082905060005b600082146113075780806112f090612acd565b915050600a82611300919061294f565b91506112dd565b60008167ffffffffffffffff811115611349577f4e487b7100000000000000000000000000000000000000000000000000000000600052604160045260246000fd5b6040519080825280601f01601f19166020018201604052801561137b5781602001600182028036833780820191505090505b5090505b6000851461142e576001826113949190612980565b9150600a856113a39190612b16565b60306113af91906128f9565b60f81b8183815181106113eb577f4e487b7100000000000000000000000000000000000000000000000000000000600052603260045260246000fd5b60200101907effffffffffffffffffffffffffffffffffffffffffffffffffffffffffffff1916908160001a905350600a85611427919061294f565b945061137f565b8093505050505b919050565b60007f80ac58cd000000000000000000000000000000000000000000000000000000007bffffffffffffffffffffffffffffffffffffffffffffffffffffffff1916827bffffffffffffffffffffffffffffffffffffffffffffffffffffffff1916148061150557507f5b5e139f000000000000000000000000000000000000000000000000000000007bffffffffffffffffffffffffffffffffffffffffffffffffffffffff1916827bffffffffffffffffffffffffffffffffffffffffffffffffffffffff1916145b8061151557506115148261171e565b5b9050919050565b611527838383611788565b505050565b611536838361189c565b6115436000848484611587565b611582576040517f08c379a000000000000000000000000000000000000000000000000000000000815260040161157990612634565b60405180910390fd5b505050565b60006115a88473ffffffffffffffffffffffffffffffffffffffff16611a6a565b15611711578373ffffffffffffffffffffffffffffffffffffffff1663150b7a026115d1610c94565b8786866040518563ffffffff1660e01b81526004016115f3949392919061253f565b602060405180830381600087803b15801561160d57600080fd5b505af192505050801561163e57506040513d601f19601f8201168201806040525081019061163b9190612103565b60015b6116c1573d806000811461166e576040519150601f19603f3d011682016040523d82523d6000602084013e611673565b606091505b506000815114156116b9576040517f08c379a00000000000000000000000000000000000000000000000000000000081526004016116b090612634565b60405180910390fd5b805181602001fd5b63150b7a0260e01b7bffffffffffffffffffffffffffffffffffffffffffffffffffffffff1916817bffffffffffffffffffffffffffffffffffffffffffffffffffffffff191614915050611716565b600190505b949350505050565b60007f01ffc9a7000000000000000000000000000000000000000000000000000000007bffffffffffffffffffffffffffffffffffffffffffffffffffffffff1916827bffffffffffffffffffffffffffffffffffffffffffffffffffffffff1916149050919050565b611793838383611a7d565b600073ffffffffffffffffffffffffffffffffffffffff168373ffffffffffffffffffffffffffffffffffffffff1614156117d6576117d181611a82565b611815565b8173ffffffffffffffffffffffffffffffffffffffff168373ffffffffffffffffffffffffffffffffffffffff1614611814576118138382611acb565b5b5b600073ffffffffffffffffffffffffffffffffffffffff168273ffffffffffffffffffffffffffffffffffffffff1614156118585761185381611c38565b611897565b8273ffffffffffffffffffffffffffffffffffffffff168273ffffffffffffffffffffffffffffffffffffffff1614611896576118958282611d7b565b5b5b505050565b600073ffffffffffffffffffffffffffffffffffffffff168273ffffffffffffffffffffffffffffffffffffffff16141561190c576040517f08c379a000000000000000000000000000000000000000000000000000000000815260040161190390612734565b60405180910390fd5b61191581610c28565b15611955576040517f08c379a000000000000000000000000000000000000000000000000000000000815260040161194c90612654565b60405180910390fd5b6119616000838361151c565b6001600360008473ffffffffffffffffffffffffffffffffffffffff1673ffffffffffffffffffffffffffffffffffffffff16815260200190815260200160002060008282546119b191906128f9565b92505081905550816002600083815260200190815260200160002060006101000a81548173ffffffffffffffffffffffffffffffffffffffff021916908373ffffffffffffffffffffffffffffffffffffffff160217905550808273ffffffffffffffffffffffffffffffffffffffff16600073ffffffffffffffffffffffffffffffffffffffff167fddf252ad1be2c89b69c2b068fc378daa952ba7f163c4a11628f55a4df523b3ef60405160405180910390a45050565b600080823b905060008111915050919050565b505050565b6008805490506009600083815260200190815260200160002081905550600881908060018154018082558091505060019003906000526020600020016000909190919091505550565b60006001611ad8846108b1565b611ae29190612980565b9050600060076000848152602001908152602001600020549050818114611bc7576000600660008673ffffffffffffffffffffffffffffffffffffffff1673ffffffffffffffffffffffffffffffffffffffff168152602001908152602001600020600084815260200190815260200160002054905080600660008773ffffffffffffffffffffffffffffffffffffffff1673ffffffffffffffffffffffffffffffffffffffff168152602001908152602001600020600084815260200190815260200160002081905550816007600083815260200190815260200160002081905550505b6007600084815260200190815260200160002060009055600660008573ffffffffffffffffffffffffffffffffffffffff1673ffffffffffffffffffffffffffffffffffffffff16815260200190815260200160002060008381526020019081526020016000206000905550505050565b60006001600880549050611c4c9190612980565b9050600060096000848152602001908152602001600020549050600060088381548110611ca2577f4e487b7100000000000000000000000000000000000000000000000000000000600052603260045260246000fd5b906000526020600020015490508060088381548110611cea577f4e487b7100000000000000000000000000000000000000000000000000000000600052603260045260246000fd5b906000526020600020018190555081600960008381526020019081526020016000208190555060096000858152602001908152602001600020600090556008805480611d5f577f4e487b7100000000000000000000000000000000000000000000000000000000600052603160045260246000fd5b6001900381819060005260206000200160009055905550505050565b6000611d86836108b1565b905081600660008573ffffffffffffffffffffffffffffffffffffffff1673ffffffffffffffffffffffffffffffffffffffff168152602001908152602001600020600083815260200190815260200160002081905550806007600084815260200190815260200160002081905550505050565b6000611e0d611e0884612854565b61282f565b905082815260208101848484011115611e2557600080fd5b611e30848285612a28565b509392505050565b6000611e4b611e4684612885565b61282f565b905082815260208101848484011115611e6357600080fd5b611e6e848285612a28565b509392505050565b600081359050611e8581613092565b92915050565b600081359050611e9a816130a9565b92915050565b600081359050611eaf816130c0565b92915050565b600081519050611ec4816130c0565b92915050565b600082601f830112611edb57600080fd5b8135611eeb848260208601611dfa565b91505092915050565b600082601f830112611f0557600080fd5b8135611f15848260208601611e38565b91505092915050565b600081359050611f2d816130d7565b92915050565b600060208284031215611f4557600080fd5b6000611f5384828501611e76565b91505092915050565b60008060408385031215611f6f57600080fd5b6000611f7d85828601611e76565b9250506020611f8e85828601611e76565b9150509250929050565b600080600060608486031215611fad57600080fd5b6000611fbb86828701611e76565b9350506020611fcc86828701611e76565b9250506040611fdd86828701611f1e565b9150509250925092565b60008060008060808587031215611ffd57600080fd5b600061200b87828801611e76565b945050602061201c87828801611e76565b935050604061202d87828801611f1e565b925050606085013567ffffffffffffffff81111561204a57600080fd5b61205687828801611eca565b91505092959194509250565b6000806040838503121561207557600080fd5b600061208385828601611e76565b925050602061209485828601611e8b565b9150509250929050565b600080604083850312156120b157600080fd5b60006120bf85828601611e76565b92505060206120d085828601611f1e565b9150509250929050565b6000602082840312156120ec57600080fd5b60006120fa84828501611ea0565b91505092915050565b60006020828403121561211557600080fd5b600061212384828501611eb5565b91505092915050565b60006020828403121561213e57600080fd5b600061214c84828501611f1e565b91505092915050565b6000806000806080858703121561216b57600080fd5b600061217987828801611f1e565b945050602085013567ffffffffffffffff81111561219657600080fd5b6121a287828801611ef4565b935050604085013567ffffffffffffffff8111156121bf57600080fd5b6121cb87828801611ef4565b925050606085013567ffffffffffffffff8111156121e857600080fd5b6121f487828801611ef4565b91505092959194509250565b612209816129b4565b82525050565b612218816129c6565b82525050565b6000612229826128b6565b61223381856128cc565b9350612243818560208601612a37565b61224c81612c03565b840191505092915050565b6000612262826128c1565b61226c81856128dd565b935061227c818560208601612a37565b61228581612c03565b840191505092915050565b600061229b826128c1565b6122a581856128ee565b93506122b5818560208601612a37565b80840191505092915050565b60006122ce602b836128dd565b91506122d982612c14565b604082019050919050565b60006122f16032836128dd565b91506122fc82612c63565b604082019050919050565b6000612314601c836128dd565b915061231f82612cb2565b602082019050919050565b60006123376024836128dd565b915061234282612cdb565b604082019050919050565b600061235a6019836128dd565b915061236582612d2a565b602082019050919050565b600061237d602c836128dd565b915061238882612d53565b604082019050919050565b60006123a06038836128dd565b91506123ab82612da2565b604082019050919050565b60006123c3602a836128dd565b91506123ce82612df1565b604082019050919050565b60006123e66029836128dd565b91506123f182612e40565b604082019050919050565b60006124096020836128dd565b915061241482612e8f565b602082019050919050565b600061242c602c836128dd565b915061243782612eb8565b604082019050919050565b600061244f6029836128dd565b915061245a82612f07565b604082019050919050565b6000612472602f836128dd565b915061247d82612f56565b604082019050919050565b60006124956021836128dd565b91506124a082612fa5565b604082019050919050565b60006124b86031836128dd565b91506124c382612ff4565b604082019050919050565b60006124db602c836128dd565b91506124e682613043565b604082019050919050565b6124fa81612a1e565b82525050565b600061250c8285612290565b91506125188284612290565b91508190509392505050565b60006020820190506125396000830184612200565b92915050565b60006080820190506125546000830187612200565b6125616020830186612200565b61256e60408301856124f1565b8181036060830152612580818461221e565b905095945050505050565b60006020820190506125a0600083018461220f565b92915050565b600060208201905081810360008301526125c08184612257565b905092915050565b600060608201905081810360008301526125e28186612257565b905081810360208301526125f68185612257565b9050818103604083015261260a8184612257565b9050949350505050565b6000602082019050818103600083015261262d816122c1565b9050919050565b6000602082019050818103600083015261264d816122e4565b9050919050565b6000602082019050818103600083015261266d81612307565b9050919050565b6000602082019050818103600083015261268d8161232a565b9050919050565b600060208201905081810360008301526126ad8161234d565b9050919050565b600060208201905081810360008301526126cd81612370565b9050919050565b600060208201905081810360008301526126ed81612393565b9050919050565b6000602082019050818103600083015261270d816123b6565b9050919050565b6000602082019050818103600083015261272d816123d9565b9050919050565b6000602082019050818103600083015261274d816123fc565b9050919050565b6000602082019050818103600083015261276d8161241f565b9050919050565b6000602082019050818103600083015261278d81612442565b9050919050565b600060208201905081810360008301526127ad81612465565b9050919050565b600060208201905081810360008301526127cd81612488565b9050919050565b600060208201905081810360008301526127ed816124ab565b9050919050565b6000602082019050818103600083015261280d816124ce565b9050919050565b600060208201905061282960008301846124f1565b92915050565b600061283961284a565b90506128458282612a9c565b919050565b6000604051905090565b600067ffffffffffffffff82111561286f5761286e612bd4565b5b61287882612c03565b9050602081019050919050565b600067ffffffffffffffff8211156128a05761289f612bd4565b5b6128a982612c03565b9050602081019050919050565b600081519050919050565b600081519050919050565b600082825260208201905092915050565b600082825260208201905092915050565b600081905092915050565b600061290482612a1e565b915061290f83612a1e565b9250827fffffffffffffffffffffffffffffffffffffffffffffffffffffffffffffffff0382111561294457612943612b47565b5b828201905092915050565b600061295a82612a1e565b915061296583612a1e565b92508261297557612974612b76565b5b828204905092915050565b600061298b82612a1e565b915061299683612a1e565b9250828210156129a9576129a8612b47565b5b828203905092915050565b60006129bf826129fe565b9050919050565b60008115159050919050565b60007fffffffff0000000000000000000000000000000000000000000000000000000082169050919050565b600073ffffffffffffffffffffffffffffffffffffffff82169050919050565b6000819050919050565b82818337600083830152505050565b60005b83811015612a55578082015181840152602081019050612a3a565b83811115612a64576000848401525b50505050565b60006002820490506001821680612a8257607f821691505b60208210811415612a9657612a95612ba5565b5b50919050565b612aa582612c03565b810181811067ffffffffffffffff82111715612ac457612ac3612bd4565b5b80604052505050565b6000612ad882612a1e565b91507fffffffffffffffffffffffffffffffffffffffffffffffffffffffffffffffff821415612b0b57612b0a612b47565b5b600182019050919050565b6000612b2182612a1e565b9150612b2c83612a1e565b925082612b3c57612b3b612b76565b5b828206905092915050565b7f4e487b7100000000000000000000000000000000000000000000000000000000600052601160045260246000fd5b7f4e487b7100000000000000000000000000000000000000000000000000000000600052601260045260246000fd5b7f4e487b7100000000000000000000000000000000000000000000000000000000600052602260045260246000fd5b7f4e487b7100000000000000000000000000000000000000000000000000000000600052604160045260246000fd5b6000601f19601f8301169050919050565b7f455243373231456e756d657261626c653a206f776e657220696e646578206f7560008201527f74206f6620626f756e6473000000000000000000000000000000000000000000602082015250565b7f4552433732313a207472616e7366657220746f206e6f6e20455243373231526560008201527f63656976657220696d706c656d656e7465720000000000000000000000000000602082015250565b7f4552433732313a20746f6b656e20616c7265616479206d696e74656400000000600082015250565b7f4552433732313a207472616e7366657220746f20746865207a65726f2061646460008201527f7265737300000000000000000000000000000000000000000000000000000000602082015250565b7f4552433732313a20617070726f766520746f2063616c6c657200000000000000600082015250565b7f4552433732313a206f70657261746f7220717565727920666f72206e6f6e657860008201527f697374656e7420746f6b656e0000000000000000000000000000000000000000602082015250565b7f4552433732313a20617070726f76652063616c6c6572206973206e6f74206f7760008201527f6e6572206e6f7220617070726f76656420666f7220616c6c0000000000000000602082015250565b7f4552433732313a2062616c616e636520717565727920666f7220746865207a6560008201527f726f206164647265737300000000000000000000000000000000000000000000602082015250565b7f4552433732313a206f776e657220717565727920666f72206e6f6e657869737460008201527f656e7420746f6b656e0000000000000000000000000000000000000000000000602082015250565b7f4552433732313a206d696e7420746f20746865207a65726f2061646472657373600082015250565b7f4552433732313a20617070726f76656420717565727920666f72206e6f6e657860008201527f697374656e7420746f6b656e0000000000000000000000000000000000000000602082015250565b7f4552433732313a207472616e73666572206f6620746f6b656e2074686174206960008201527f73206e6f74206f776e0000000000000000000000000000000000000000000000602082015250565b7f4552433732314d657461646174613a2055524920717565727920666f72206e6f60008201527f6e6578697374656e7420746f6b656e0000000000000000000000000000000000602082015250565b7f4552433732313a20617070726f76616c20746f2063757272656e74206f776e6560008201527f7200000000000000000000000000000000000000000000000000000000000000602082015250565b7f4552433732313a207472616e736665722063616c6c6572206973206e6f74206f60008201527f776e6572206e6f7220617070726f766564000000000000000000000000000000602082015250565b7f455243373231456e756d657261626c653a20676c6f62616c20696e646578206f60008201527f7574206f6620626f756e64730000000000000000000000000000000000000000602082015250565b61309b816129b4565b81146130a657600080fd5b50565b6130b2816129c6565b81146130bd57600080fd5b50565b6130c9816129d2565b81146130d457600080fd5b50565b6130e081612a1e565b81146130eb57600080fd5b5056fea26469706673582212204deb2eaf9dd033f27e0377d8ba54339a0b707152fe0d4b74cee249c5531cd34d64736f6c63430008030033",
  "immutableReferences": {},
  "source": "// SPDX-License-Identifier: MIT\r\npragma solidity ^0.8.0;\r\n\r\nimport \"@openzeppelin/contracts/token/ERC721/ERC721.sol\";\r\nimport \"@openzeppelin/contracts/token/ERC721/extensions/ERC721Enumerable.sol\";\r\n\r\ncontract NFTCollection is ERC721, ERC721Enumerable {\r\n  \r\n  event mintNFT(uint256 indexed tokenId, address indexed owner, string uri, string name, string description);\r\n\r\n  constructor() ERC721(\"Lowb Collection\", \"Lowb\") {\r\n\r\n  }\r\n\r\n  function _beforeTokenTransfer(address from, address to, uint tokenId) internal override(ERC721, ERC721Enumerable) {\r\n    super._beforeTokenTransfer(from, to, tokenId);\r\n  }\r\n\r\n  function supportsInterface(bytes4 interfaceId) public view override(ERC721, ERC721Enumerable) returns(bool) {\r\n    return super.supportsInterface(interfaceId);\r\n  }\r\n\r\n  function safeMint(uint256 tokenId, string memory uri, string memory name, string memory description) public {\r\n    _safeMint(msg.sender, tokenId);\r\n    emit mintNFT(tokenId, msg.sender, uri, name, description);\r\n  }\r\n\r\n}",
  "sourcePath": "D:\\work\\lowb\\source\\LowbMarket\\contracts\\NFTCollection\\NFTCollection.sol",
  "compiler": {
    "name": "solc",
    "version": "0.8.3+commit.8d00100c.Emscripten.clang"
  },
  "schemaVersion": "3.4.4",
  "updatedAt": "2022-03-24T05:36:30.468Z",
  "networkType": "ethereum",
  "devdoc": {
    "kind": "dev",
    "methods": {
      "approve(address,uint256)": {
        "details": "See {IERC721-approve}."
      },
      "balanceOf(address)": {
        "details": "See {IERC721-balanceOf}."
      },
      "getApproved(uint256)": {
        "details": "See {IERC721-getApproved}."
      },
      "isApprovedForAll(address,address)": {
        "details": "See {IERC721-isApprovedForAll}."
      },
      "name()": {
        "details": "See {IERC721Metadata-name}."
      },
      "ownerOf(uint256)": {
        "details": "See {IERC721-ownerOf}."
      },
      "safeTransferFrom(address,address,uint256)": {
        "details": "See {IERC721-safeTransferFrom}."
      },
      "safeTransferFrom(address,address,uint256,bytes)": {
        "details": "See {IERC721-safeTransferFrom}."
      },
      "setApprovalForAll(address,bool)": {
        "details": "See {IERC721-setApprovalForAll}."
      },
      "symbol()": {
        "details": "See {IERC721Metadata-symbol}."
      },
      "tokenByIndex(uint256)": {
        "details": "See {IERC721Enumerable-tokenByIndex}."
      },
      "tokenOfOwnerByIndex(address,uint256)": {
        "details": "See {IERC721Enumerable-tokenOfOwnerByIndex}."
      },
      "tokenURI(uint256)": {
        "details": "See {IERC721Metadata-tokenURI}."
      },
      "totalSupply()": {
        "details": "See {IERC721Enumerable-totalSupply}."
      },
      "transferFrom(address,address,uint256)": {
        "details": "See {IERC721-transferFrom}."
      }
    },
    "version": 1
  },
  "userdoc": {
    "kind": "user",
    "methods": {},
    "version": 1
  }
}