{
  "contractName": "NFTCollection",
  "abi": [
    {
      "inputs": [
        {
          "internalType": "address",
          "name": "_address",
          "type": "address"
        }
      ],
      "stateMutability": "nonpayable",
      "type": "constructor"
    },
    {
      "anonymous": false,
      "inputs": [
        {
          "indexed": true,
          "internalType": "address",
          "name": "owner",
          "type": "address"
        },
        {
          "indexed": true,
          "internalType": "address",
          "name": "approved",
          "type": "address"
        },
        {
          "indexed": true,
          "internalType": "uint256",
          "name": "tokenId",
          "type": "uint256"
        }
      ],
      "name": "Approval",
      "type": "event"
    },
    {
      "anonymous": false,
      "inputs": [
        {
          "indexed": true,
          "internalType": "address",
          "name": "owner",
          "type": "address"
        },
        {
          "indexed": true,
          "internalType": "address",
          "name": "operator",
          "type": "address"
        },
        {
          "indexed": false,
          "internalType": "bool",
          "name": "approved",
          "type": "bool"
        }
      ],
      "name": "ApprovalForAll",
      "type": "event"
    },
    {
      "anonymous": false,
      "inputs": [
        {
          "indexed": true,
          "internalType": "address",
          "name": "from",
          "type": "address"
        },
        {
          "indexed": true,
          "internalType": "address",
          "name": "to",
          "type": "address"
        },
        {
          "indexed": true,
          "internalType": "uint256",
          "name": "tokenId",
          "type": "uint256"
        }
      ],
      "name": "Transfer",
      "type": "event"
    },
    {
      "anonymous": false,
      "inputs": [
        {
          "indexed": true,
          "internalType": "uint256",
          "name": "tokenId",
          "type": "uint256"
        },
        {
          "indexed": true,
          "internalType": "address",
          "name": "owner",
          "type": "address"
        },
        {
          "indexed": false,
          "internalType": "string",
          "name": "uri",
          "type": "string"
        },
        {
          "indexed": false,
          "internalType": "string",
          "name": "name",
          "type": "string"
        },
        {
          "indexed": false,
          "internalType": "string",
          "name": "description",
          "type": "string"
        }
      ],
      "name": "mintNFT",
      "type": "event"
    },
    {
      "anonymous": false,
      "inputs": [
        {
          "indexed": true,
          "internalType": "uint256",
          "name": "tokenId",
          "type": "uint256"
        },
        {
          "indexed": false,
          "internalType": "string",
          "name": "price",
          "type": "string"
        }
      ],
      "name": "saleNFT",
      "type": "event"
    },
    {
      "inputs": [
        {
          "internalType": "address",
          "name": "to",
          "type": "address"
        },
        {
          "internalType": "uint256",
          "name": "tokenId",
          "type": "uint256"
        }
      ],
      "name": "approve",
      "outputs": [],
      "stateMutability": "nonpayable",
      "type": "function"
    },
    {
      "inputs": [
        {
          "internalType": "address",
          "name": "owner",
          "type": "address"
        }
      ],
      "name": "balanceOf",
      "outputs": [
        {
          "internalType": "uint256",
          "name": "",
          "type": "uint256"
        }
      ],
      "stateMutability": "view",
      "type": "function",
      "constant": true
    },
    {
      "inputs": [
        {
          "internalType": "uint256",
          "name": "tokenId",
          "type": "uint256"
        }
      ],
      "name": "getApproved",
      "outputs": [
        {
          "internalType": "address",
          "name": "",
          "type": "address"
        }
      ],
      "stateMutability": "view",
      "type": "function",
      "constant": true
    },
    {
      "inputs": [
        {
          "internalType": "address",
          "name": "owner",
          "type": "address"
        },
        {
          "internalType": "address",
          "name": "operator",
          "type": "address"
        }
      ],
      "name": "isApprovedForAll",
      "outputs": [
        {
          "internalType": "bool",
          "name": "",
          "type": "bool"
        }
      ],
      "stateMutability": "view",
      "type": "function",
      "constant": true
    },
    {
      "inputs": [],
      "name": "name",
      "outputs": [
        {
          "internalType": "string",
          "name": "",
          "type": "string"
        }
      ],
      "stateMutability": "view",
      "type": "function",
      "constant": true
    },
    {
      "inputs": [
        {
          "internalType": "uint256",
          "name": "tokenId",
          "type": "uint256"
        }
      ],
      "name": "ownerOf",
      "outputs": [
        {
          "internalType": "address",
          "name": "",
          "type": "address"
        }
      ],
      "stateMutability": "view",
      "type": "function",
      "constant": true
    },
    {
      "inputs": [
        {
          "internalType": "address",
          "name": "from",
          "type": "address"
        },
        {
          "internalType": "address",
          "name": "to",
          "type": "address"
        },
        {
          "internalType": "uint256",
          "name": "tokenId",
          "type": "uint256"
        }
      ],
      "name": "safeTransferFrom",
      "outputs": [],
      "stateMutability": "nonpayable",
      "type": "function"
    },
    {
      "inputs": [
        {
          "internalType": "address",
          "name": "from",
          "type": "address"
        },
        {
          "internalType": "address",
          "name": "to",
          "type": "address"
        },
        {
          "internalType": "uint256",
          "name": "tokenId",
          "type": "uint256"
        },
        {
          "internalType": "bytes",
          "name": "_data",
          "type": "bytes"
        }
      ],
      "name": "safeTransferFrom",
      "outputs": [],
      "stateMutability": "nonpayable",
      "type": "function"
    },
    {
      "inputs": [
        {
          "internalType": "address",
          "name": "operator",
          "type": "address"
        },
        {
          "internalType": "bool",
          "name": "approved",
          "type": "bool"
        }
      ],
      "name": "setApprovalForAll",
      "outputs": [],
      "stateMutability": "nonpayable",
      "type": "function"
    },
    {
      "inputs": [],
      "name": "symbol",
      "outputs": [
        {
          "internalType": "string",
          "name": "",
          "type": "string"
        }
      ],
      "stateMutability": "view",
      "type": "function",
      "constant": true
    },
    {
      "inputs": [
        {
          "internalType": "uint256",
          "name": "index",
          "type": "uint256"
        }
      ],
      "name": "tokenByIndex",
      "outputs": [
        {
          "internalType": "uint256",
          "name": "",
          "type": "uint256"
        }
      ],
      "stateMutability": "view",
      "type": "function",
      "constant": true
    },
    {
      "inputs": [
        {
          "internalType": "address",
          "name": "owner",
          "type": "address"
        },
        {
          "internalType": "uint256",
          "name": "index",
          "type": "uint256"
        }
      ],
      "name": "tokenOfOwnerByIndex",
      "outputs": [
        {
          "internalType": "uint256",
          "name": "",
          "type": "uint256"
        }
      ],
      "stateMutability": "view",
      "type": "function",
      "constant": true
    },
    {
      "inputs": [
        {
          "internalType": "uint256",
          "name": "tokenId",
          "type": "uint256"
        }
      ],
      "name": "tokenURI",
      "outputs": [
        {
          "internalType": "string",
          "name": "",
          "type": "string"
        }
      ],
      "stateMutability": "view",
      "type": "function",
      "constant": true
    },
    {
      "inputs": [],
      "name": "totalSupply",
      "outputs": [
        {
          "internalType": "uint256",
          "name": "",
          "type": "uint256"
        }
      ],
      "stateMutability": "view",
      "type": "function",
      "constant": true
    },
    {
      "inputs": [
        {
          "internalType": "address",
          "name": "from",
          "type": "address"
        },
        {
          "internalType": "address",
          "name": "to",
          "type": "address"
        },
        {
          "internalType": "uint256",
          "name": "tokenId",
          "type": "uint256"
        }
      ],
      "name": "transferFrom",
      "outputs": [],
      "stateMutability": "nonpayable",
      "type": "function"
    },
    {
      "inputs": [
        {
          "internalType": "bytes4",
          "name": "interfaceId",
          "type": "bytes4"
        }
      ],
      "name": "supportsInterface",
      "outputs": [
        {
          "internalType": "bool",
          "name": "",
          "type": "bool"
        }
      ],
      "stateMutability": "view",
      "type": "function",
      "constant": true
    },
    {
      "inputs": [
        {
          "internalType": "uint256",
          "name": "tokenId",
          "type": "uint256"
        },
        {
          "internalType": "string",
          "name": "uri",
          "type": "string"
        },
        {
          "internalType": "string",
          "name": "name",
          "type": "string"
        },
        {
          "internalType": "string",
          "name": "description",
          "type": "string"
        }
      ],
      "name": "safeMint",
      "outputs": [],
      "stateMutability": "nonpayable",
      "type": "function"
    },
    {
      "inputs": [
        {
          "internalType": "uint256",
          "name": "tokenId",
          "type": "uint256"
        },
        {
          "internalType": "string",
          "name": "price",
          "type": "string"
        }
      ],
      "name": "prepareForSale",
      "outputs": [],
      "stateMutability": "payable",
      "type": "function",
      "payable": true
    }
  ],
  "bytecode": "0x60806040523480156200001157600080fd5b506040516200358b3803806200358b8339818101604052810190620000379190620001a5565b6040518060400160405280600f81526020017f4c6f776220436f6c6c656374696f6e00000000000000000000000000000000008152506040518060400160405280600481526020017f4c6f7762000000000000000000000000000000000000000000000000000000008152508160009080519060200190620000bb929190620000de565b508060019080519060200190620000d4929190620000de565b5050505062000284565b828054620000ec9062000205565b90600052602060002090601f0160209004810192826200011057600085556200015c565b82601f106200012b57805160ff19168380011785556200015c565b828001600101855582156200015c579182015b828111156200015b5782518255916020019190600101906200013e565b5b5090506200016b91906200016f565b5090565b5b808211156200018a57600081600090555060010162000170565b5090565b6000815190506200019f816200026a565b92915050565b600060208284031215620001b857600080fd5b6000620001c8848285016200018e565b91505092915050565b6000620001de82620001e5565b9050919050565b600073ffffffffffffffffffffffffffffffffffffffff82169050919050565b600060028204905060018216806200021e57607f821691505b602082108114156200023557620002346200023b565b5b50919050565b7f4e487b7100000000000000000000000000000000000000000000000000000000600052602260045260246000fd5b6200027581620001d1565b81146200028157600080fd5b50565b6132f780620002946000396000f3fe6080604052600436106101095760003560e01c80634f6ccce71161009557806395d89b411161006457806395d89b4114610392578063a22cb465146103bd578063b88d4fde146103e6578063c87b56dd1461040f578063e985e9c51461044c57610109565b80634f6ccce7146102b25780636352211e146102ef57806368974aaa1461032c57806370a082311461035557610109565b806318160ddd116100dc57806318160ddd146101dc57806323b872dd146102075780632f745c591461023057806342842e0e1461026d5780634a09054d1461029657610109565b806301ffc9a71461010e57806306fdde031461014b578063081812fc14610176578063095ea7b3146101b3575b600080fd5b34801561011a57600080fd5b5061013560048036038101906101309190612259565b610489565b604051610142919061275e565b60405180910390f35b34801561015757600080fd5b5061016061049b565b60405161016d9190612779565b60405180910390f35b34801561018257600080fd5b5061019d600480360381019061019891906122ab565b61052d565b6040516101aa91906126f7565b60405180910390f35b3480156101bf57600080fd5b506101da60048036038101906101d5919061221d565b6105b2565b005b3480156101e857600080fd5b506101f16106ca565b6040516101fe91906129e7565b60405180910390f35b34801561021357600080fd5b5061022e60048036038101906102299190612117565b6106d7565b005b34801561023c57600080fd5b506102576004803603810190610252919061221d565b610737565b60405161026491906129e7565b60405180910390f35b34801561027957600080fd5b50610294600480360381019061028f9190612117565b6107dc565b005b6102b060048036038101906102ab91906122d4565b6107fc565b005b3480156102be57600080fd5b506102d960048036038101906102d491906122ab565b610884565b6040516102e691906129e7565b60405180910390f35b3480156102fb57600080fd5b50610316600480360381019061031191906122ab565b61091b565b60405161032391906126f7565b60405180910390f35b34801561033857600080fd5b50610353600480360381019061034e9190612328565b6109cd565b005b34801561036157600080fd5b5061037c600480360381019061037791906120b2565b610a30565b60405161038991906129e7565b60405180910390f35b34801561039e57600080fd5b506103a7610ae8565b6040516103b49190612779565b60405180910390f35b3480156103c957600080fd5b506103e460048036038101906103df91906121e1565b610b7a565b005b3480156103f257600080fd5b5061040d60048036038101906104089190612166565b610b90565b005b34801561041b57600080fd5b50610436600480360381019061043191906122ab565b610bf2565b6040516104439190612779565b60405180910390f35b34801561045857600080fd5b50610473600480360381019061046e91906120db565b610c99565b604051610480919061275e565b60405180910390f35b600061049482610d2d565b9050919050565b6060600080546104aa90612c3d565b80601f01602080910402602001604051908101604052809291908181526020018280546104d690612c3d565b80156105235780601f106104f857610100808354040283529160200191610523565b820191906000526020600020905b81548152906001019060200180831161050657829003601f168201915b5050505050905090565b600061053882610da7565b610577576040517f08c379a000000000000000000000000000000000000000000000000000000000815260040161056e90612927565b60405180910390fd5b6004600083815260200190815260200160002060009054906101000a900473ffffffffffffffffffffffffffffffffffffffff169050919050565b60006105bd8261091b565b90508073ffffffffffffffffffffffffffffffffffffffff168373ffffffffffffffffffffffffffffffffffffffff16141561062e576040517f08c379a000000000000000000000000000000000000000000000000000000000815260040161062590612987565b60405180910390fd5b8073ffffffffffffffffffffffffffffffffffffffff1661064d610e13565b73ffffffffffffffffffffffffffffffffffffffff16148061067c575061067b81610676610e13565b610c99565b5b6106bb576040517f08c379a00000000000000000000000000000000000000000000000000000000081526004016106b2906128a7565b60405180910390fd5b6106c58383610e1b565b505050565b6000600880549050905090565b6106e86106e2610e13565b82610ed4565b610727576040517f08c379a000000000000000000000000000000000000000000000000000000000815260040161071e906129a7565b60405180910390fd5b610732838383610fb2565b505050565b600061074283610a30565b8210610783576040517f08c379a000000000000000000000000000000000000000000000000000000000815260040161077a906127e7565b60405180910390fd5b600660008473ffffffffffffffffffffffffffffffffffffffff1673ffffffffffffffffffffffffffffffffffffffff168152602001908152602001600020600083815260200190815260200160002054905092915050565b6107f783838360405180602001604052806000815250610b90565b505050565b600073ffffffffffffffffffffffffffffffffffffffff163373ffffffffffffffffffffffffffffffffffffffff16141561083657600080fd5b61083f82610da7565b61084857600080fd5b817fbb4a8643febb0c59b513cb9b06696eab06ae94ee23c884fdf4dbeff057c5d207826040516108789190612779565b60405180910390a25050565b600061088e6106ca565b82106108cf576040517f08c379a00000000000000000000000000000000000000000000000000000000081526004016108c6906129c7565b60405180910390fd5b60088281548110610909577f4e487b7100000000000000000000000000000000000000000000000000000000600052603260045260246000fd5b90600052602060002001549050919050565b6000806002600084815260200190815260200160002060009054906101000a900473ffffffffffffffffffffffffffffffffffffffff169050600073ffffffffffffffffffffffffffffffffffffffff168173ffffffffffffffffffffffffffffffffffffffff1614156109c4576040517f08c379a00000000000000000000000000000000000000000000000000000000081526004016109bb906128e7565b60405180910390fd5b80915050919050565b6109d7338561120e565b3373ffffffffffffffffffffffffffffffffffffffff16847f06d93a7a380979a926ce6a1cf70f681a3a9f85b7624a4668dd06f26209701057858585604051610a229392919061279b565b60405180910390a350505050565b60008073ffffffffffffffffffffffffffffffffffffffff168273ffffffffffffffffffffffffffffffffffffffff161415610aa1576040517f08c379a0000000000000000000000000000000000000000000000000000000008152600401610a98906128c7565b60405180910390fd5b600360008373ffffffffffffffffffffffffffffffffffffffff1673ffffffffffffffffffffffffffffffffffffffff168152602001908152602001600020549050919050565b606060018054610af790612c3d565b80601f0160208091040260200160405190810160405280929190818152602001828054610b2390612c3d565b8015610b705780601f10610b4557610100808354040283529160200191610b70565b820191906000526020600020905b815481529060010190602001808311610b5357829003601f168201915b5050505050905090565b610b8c610b85610e13565b838361122c565b5050565b610ba1610b9b610e13565b83610ed4565b610be0576040517f08c379a0000000000000000000000000000000000000000000000000000000008152600401610bd7906129a7565b60405180910390fd5b610bec84848484611399565b50505050565b6060610bfd82610da7565b610c3c576040517f08c379a0000000000000000000000000000000000000000000000000000000008152600401610c3390612967565b60405180910390fd5b6000610c466113f5565b90506000815111610c665760405180602001604052806000815250610c91565b80610c708461140c565b604051602001610c819291906126d3565b6040516020818303038152906040525b915050919050565b6000600560008473ffffffffffffffffffffffffffffffffffffffff1673ffffffffffffffffffffffffffffffffffffffff16815260200190815260200160002060008373ffffffffffffffffffffffffffffffffffffffff1673ffffffffffffffffffffffffffffffffffffffff16815260200190815260200160002060009054906101000a900460ff16905092915050565b60007f780e9d63000000000000000000000000000000000000000000000000000000007bffffffffffffffffffffffffffffffffffffffffffffffffffffffff1916827bffffffffffffffffffffffffffffffffffffffffffffffffffffffff19161480610da05750610d9f826115b9565b5b9050919050565b60008073ffffffffffffffffffffffffffffffffffffffff166002600084815260200190815260200160002060009054906101000a900473ffffffffffffffffffffffffffffffffffffffff1673ffffffffffffffffffffffffffffffffffffffff1614159050919050565b600033905090565b816004600083815260200190815260200160002060006101000a81548173ffffffffffffffffffffffffffffffffffffffff021916908373ffffffffffffffffffffffffffffffffffffffff160217905550808273ffffffffffffffffffffffffffffffffffffffff16610e8e8361091b565b73ffffffffffffffffffffffffffffffffffffffff167f8c5be1e5ebec7d5bd14f71427d1e84f3dd0314c0f7b2291e5b200ac8c7c3b92560405160405180910390a45050565b6000610edf82610da7565b610f1e576040517f08c379a0000000000000000000000000000000000000000000000000000000008152600401610f1590612887565b60405180910390fd5b6000610f298361091b565b90508073ffffffffffffffffffffffffffffffffffffffff168473ffffffffffffffffffffffffffffffffffffffff161480610f9857508373ffffffffffffffffffffffffffffffffffffffff16610f808461052d565b73ffffffffffffffffffffffffffffffffffffffff16145b80610fa95750610fa88185610c99565b5b91505092915050565b8273ffffffffffffffffffffffffffffffffffffffff16610fd28261091b565b73ffffffffffffffffffffffffffffffffffffffff1614611028576040517f08c379a000000000000000000000000000000000000000000000000000000000815260040161101f90612947565b60405180910390fd5b600073ffffffffffffffffffffffffffffffffffffffff168273ffffffffffffffffffffffffffffffffffffffff161415611098576040517f08c379a000000000000000000000000000000000000000000000000000000000815260040161108f90612847565b60405180910390fd5b6110a383838361169b565b6110ae600082610e1b565b6001600360008573ffffffffffffffffffffffffffffffffffffffff1673ffffffffffffffffffffffffffffffffffffffff16815260200190815260200160002060008282546110fe9190612b53565b925050819055506001600360008473ffffffffffffffffffffffffffffffffffffffff1673ffffffffffffffffffffffffffffffffffffffff16815260200190815260200160002060008282546111559190612acc565b92505081905550816002600083815260200190815260200160002060006101000a81548173ffffffffffffffffffffffffffffffffffffffff021916908373ffffffffffffffffffffffffffffffffffffffff160217905550808273ffffffffffffffffffffffffffffffffffffffff168473ffffffffffffffffffffffffffffffffffffffff167fddf252ad1be2c89b69c2b068fc378daa952ba7f163c4a11628f55a4df523b3ef60405160405180910390a4505050565b6112288282604051806020016040528060008152506116ab565b5050565b8173ffffffffffffffffffffffffffffffffffffffff168373ffffffffffffffffffffffffffffffffffffffff16141561129b576040517f08c379a000000000000000000000000000000000000000000000000000000000815260040161129290612867565b60405180910390fd5b80600560008573ffffffffffffffffffffffffffffffffffffffff1673ffffffffffffffffffffffffffffffffffffffff16815260200190815260200160002060008473ffffffffffffffffffffffffffffffffffffffff1673ffffffffffffffffffffffffffffffffffffffff16815260200190815260200160002060006101000a81548160ff0219169083151502179055508173ffffffffffffffffffffffffffffffffffffffff168373ffffffffffffffffffffffffffffffffffffffff167f17307eab39ab6107e8899845ad3d59bd9653f200f220920489ca2b5937696c318360405161138c919061275e565b60405180910390a3505050565b6113a4848484610fb2565b6113b084848484611706565b6113ef576040517f08c379a00000000000000000000000000000000000000000000000000000000081526004016113e690612807565b60405180910390fd5b50505050565b606060405180602001604052806000815250905090565b60606000821415611454576040518060400160405280600181526020017f300000000000000000000000000000000000000000000000000000000000000081525090506115b4565b600082905060005b6000821461148657808061146f90612ca0565b915050600a8261147f9190612b22565b915061145c565b60008167ffffffffffffffff8111156114c8577f4e487b7100000000000000000000000000000000000000000000000000000000600052604160045260246000fd5b6040519080825280601f01601f1916602001820160405280156114fa5781602001600182028036833780820191505090505b5090505b600085146115ad576001826115139190612b53565b9150600a856115229190612ce9565b603061152e9190612acc565b60f81b81838151811061156a577f4e487b7100000000000000000000000000000000000000000000000000000000600052603260045260246000fd5b60200101907effffffffffffffffffffffffffffffffffffffffffffffffffffffffffffff1916908160001a905350600a856115a69190612b22565b94506114fe565b8093505050505b919050565b60007f80ac58cd000000000000000000000000000000000000000000000000000000007bffffffffffffffffffffffffffffffffffffffffffffffffffffffff1916827bffffffffffffffffffffffffffffffffffffffffffffffffffffffff1916148061168457507f5b5e139f000000000000000000000000000000000000000000000000000000007bffffffffffffffffffffffffffffffffffffffffffffffffffffffff1916827bffffffffffffffffffffffffffffffffffffffffffffffffffffffff1916145b8061169457506116938261189d565b5b9050919050565b6116a6838383611907565b505050565b6116b58383611a1b565b6116c26000848484611706565b611701576040517f08c379a00000000000000000000000000000000000000000000000000000000081526004016116f890612807565b60405180910390fd5b505050565b60006117278473ffffffffffffffffffffffffffffffffffffffff16611be9565b15611890578373ffffffffffffffffffffffffffffffffffffffff1663150b7a02611750610e13565b8786866040518563ffffffff1660e01b81526004016117729493929190612712565b602060405180830381600087803b15801561178c57600080fd5b505af19250505080156117bd57506040513d601f19601f820116820180604052508101906117ba9190612282565b60015b611840573d80600081146117ed576040519150601f19603f3d011682016040523d82523d6000602084013e6117f2565b606091505b50600081511415611838576040517f08c379a000000000000000000000000000000000000000000000000000000000815260040161182f90612807565b60405180910390fd5b805181602001fd5b63150b7a0260e01b7bffffffffffffffffffffffffffffffffffffffffffffffffffffffff1916817bffffffffffffffffffffffffffffffffffffffffffffffffffffffff191614915050611895565b600190505b949350505050565b60007f01ffc9a7000000000000000000000000000000000000000000000000000000007bffffffffffffffffffffffffffffffffffffffffffffffffffffffff1916827bffffffffffffffffffffffffffffffffffffffffffffffffffffffff1916149050919050565b611912838383611bfc565b600073ffffffffffffffffffffffffffffffffffffffff168373ffffffffffffffffffffffffffffffffffffffff1614156119555761195081611c01565b611994565b8173ffffffffffffffffffffffffffffffffffffffff168373ffffffffffffffffffffffffffffffffffffffff1614611993576119928382611c4a565b5b5b600073ffffffffffffffffffffffffffffffffffffffff168273ffffffffffffffffffffffffffffffffffffffff1614156119d7576119d281611db7565b611a16565b8273ffffffffffffffffffffffffffffffffffffffff168273ffffffffffffffffffffffffffffffffffffffff1614611a1557611a148282611efa565b5b5b505050565b600073ffffffffffffffffffffffffffffffffffffffff168273ffffffffffffffffffffffffffffffffffffffff161415611a8b576040517f08c379a0000000000000000000000000000000000000000000000000000000008152600401611a8290612907565b60405180910390fd5b611a9481610da7565b15611ad4576040517f08c379a0000000000000000000000000000000000000000000000000000000008152600401611acb90612827565b60405180910390fd5b611ae06000838361169b565b6001600360008473ffffffffffffffffffffffffffffffffffffffff1673ffffffffffffffffffffffffffffffffffffffff1681526020019081526020016000206000828254611b309190612acc565b92505081905550816002600083815260200190815260200160002060006101000a81548173ffffffffffffffffffffffffffffffffffffffff021916908373ffffffffffffffffffffffffffffffffffffffff160217905550808273ffffffffffffffffffffffffffffffffffffffff16600073ffffffffffffffffffffffffffffffffffffffff167fddf252ad1be2c89b69c2b068fc378daa952ba7f163c4a11628f55a4df523b3ef60405160405180910390a45050565b600080823b905060008111915050919050565b505050565b6008805490506009600083815260200190815260200160002081905550600881908060018154018082558091505060019003906000526020600020016000909190919091505550565b60006001611c5784610a30565b611c619190612b53565b9050600060076000848152602001908152602001600020549050818114611d46576000600660008673ffffffffffffffffffffffffffffffffffffffff1673ffffffffffffffffffffffffffffffffffffffff168152602001908152602001600020600084815260200190815260200160002054905080600660008773ffffffffffffffffffffffffffffffffffffffff1673ffffffffffffffffffffffffffffffffffffffff168152602001908152602001600020600084815260200190815260200160002081905550816007600083815260200190815260200160002081905550505b6007600084815260200190815260200160002060009055600660008573ffffffffffffffffffffffffffffffffffffffff1673ffffffffffffffffffffffffffffffffffffffff16815260200190815260200160002060008381526020019081526020016000206000905550505050565b60006001600880549050611dcb9190612b53565b9050600060096000848152602001908152602001600020549050600060088381548110611e21577f4e487b7100000000000000000000000000000000000000000000000000000000600052603260045260246000fd5b906000526020600020015490508060088381548110611e69577f4e487b7100000000000000000000000000000000000000000000000000000000600052603260045260246000fd5b906000526020600020018190555081600960008381526020019081526020016000208190555060096000858152602001908152602001600020600090556008805480611ede577f4e487b7100000000000000000000000000000000000000000000000000000000600052603160045260246000fd5b6001900381819060005260206000200160009055905550505050565b6000611f0583610a30565b905081600660008573ffffffffffffffffffffffffffffffffffffffff1673ffffffffffffffffffffffffffffffffffffffff168152602001908152602001600020600083815260200190815260200160002081905550806007600084815260200190815260200160002081905550505050565b6000611f8c611f8784612a27565b612a02565b905082815260208101848484011115611fa457600080fd5b611faf848285612bfb565b509392505050565b6000611fca611fc584612a58565b612a02565b905082815260208101848484011115611fe257600080fd5b611fed848285612bfb565b509392505050565b60008135905061200481613265565b92915050565b6000813590506120198161327c565b92915050565b60008135905061202e81613293565b92915050565b60008151905061204381613293565b92915050565b600082601f83011261205a57600080fd5b813561206a848260208601611f79565b91505092915050565b600082601f83011261208457600080fd5b8135612094848260208601611fb7565b91505092915050565b6000813590506120ac816132aa565b92915050565b6000602082840312156120c457600080fd5b60006120d284828501611ff5565b91505092915050565b600080604083850312156120ee57600080fd5b60006120fc85828601611ff5565b925050602061210d85828601611ff5565b9150509250929050565b60008060006060848603121561212c57600080fd5b600061213a86828701611ff5565b935050602061214b86828701611ff5565b925050604061215c8682870161209d565b9150509250925092565b6000806000806080858703121561217c57600080fd5b600061218a87828801611ff5565b945050602061219b87828801611ff5565b93505060406121ac8782880161209d565b925050606085013567ffffffffffffffff8111156121c957600080fd5b6121d587828801612049565b91505092959194509250565b600080604083850312156121f457600080fd5b600061220285828601611ff5565b92505060206122138582860161200a565b9150509250929050565b6000806040838503121561223057600080fd5b600061223e85828601611ff5565b925050602061224f8582860161209d565b9150509250929050565b60006020828403121561226b57600080fd5b60006122798482850161201f565b91505092915050565b60006020828403121561229457600080fd5b60006122a284828501612034565b91505092915050565b6000602082840312156122bd57600080fd5b60006122cb8482850161209d565b91505092915050565b600080604083850312156122e757600080fd5b60006122f58582860161209d565b925050602083013567ffffffffffffffff81111561231257600080fd5b61231e85828601612073565b9150509250929050565b6000806000806080858703121561233e57600080fd5b600061234c8782880161209d565b945050602085013567ffffffffffffffff81111561236957600080fd5b61237587828801612073565b935050604085013567ffffffffffffffff81111561239257600080fd5b61239e87828801612073565b925050606085013567ffffffffffffffff8111156123bb57600080fd5b6123c787828801612073565b91505092959194509250565b6123dc81612b87565b82525050565b6123eb81612b99565b82525050565b60006123fc82612a89565b6124068185612a9f565b9350612416818560208601612c0a565b61241f81612dd6565b840191505092915050565b600061243582612a94565b61243f8185612ab0565b935061244f818560208601612c0a565b61245881612dd6565b840191505092915050565b600061246e82612a94565b6124788185612ac1565b9350612488818560208601612c0a565b80840191505092915050565b60006124a1602b83612ab0565b91506124ac82612de7565b604082019050919050565b60006124c4603283612ab0565b91506124cf82612e36565b604082019050919050565b60006124e7601c83612ab0565b91506124f282612e85565b602082019050919050565b600061250a602483612ab0565b915061251582612eae565b604082019050919050565b600061252d601983612ab0565b915061253882612efd565b602082019050919050565b6000612550602c83612ab0565b915061255b82612f26565b604082019050919050565b6000612573603883612ab0565b915061257e82612f75565b604082019050919050565b6000612596602a83612ab0565b91506125a182612fc4565b604082019050919050565b60006125b9602983612ab0565b91506125c482613013565b604082019050919050565b60006125dc602083612ab0565b91506125e782613062565b602082019050919050565b60006125ff602c83612ab0565b915061260a8261308b565b604082019050919050565b6000612622602983612ab0565b915061262d826130da565b604082019050919050565b6000612645602f83612ab0565b915061265082613129565b604082019050919050565b6000612668602183612ab0565b915061267382613178565b604082019050919050565b600061268b603183612ab0565b9150612696826131c7565b604082019050919050565b60006126ae602c83612ab0565b91506126b982613216565b604082019050919050565b6126cd81612bf1565b82525050565b60006126df8285612463565b91506126eb8284612463565b91508190509392505050565b600060208201905061270c60008301846123d3565b92915050565b600060808201905061272760008301876123d3565b61273460208301866123d3565b61274160408301856126c4565b818103606083015261275381846123f1565b905095945050505050565b600060208201905061277360008301846123e2565b92915050565b60006020820190508181036000830152612793818461242a565b905092915050565b600060608201905081810360008301526127b5818661242a565b905081810360208301526127c9818561242a565b905081810360408301526127dd818461242a565b9050949350505050565b6000602082019050818103600083015261280081612494565b9050919050565b60006020820190508181036000830152612820816124b7565b9050919050565b60006020820190508181036000830152612840816124da565b9050919050565b60006020820190508181036000830152612860816124fd565b9050919050565b6000602082019050818103600083015261288081612520565b9050919050565b600060208201905081810360008301526128a081612543565b9050919050565b600060208201905081810360008301526128c081612566565b9050919050565b600060208201905081810360008301526128e081612589565b9050919050565b60006020820190508181036000830152612900816125ac565b9050919050565b60006020820190508181036000830152612920816125cf565b9050919050565b60006020820190508181036000830152612940816125f2565b9050919050565b6000602082019050818103600083015261296081612615565b9050919050565b6000602082019050818103600083015261298081612638565b9050919050565b600060208201905081810360008301526129a08161265b565b9050919050565b600060208201905081810360008301526129c08161267e565b9050919050565b600060208201905081810360008301526129e0816126a1565b9050919050565b60006020820190506129fc60008301846126c4565b92915050565b6000612a0c612a1d565b9050612a188282612c6f565b919050565b6000604051905090565b600067ffffffffffffffff821115612a4257612a41612da7565b5b612a4b82612dd6565b9050602081019050919050565b600067ffffffffffffffff821115612a7357612a72612da7565b5b612a7c82612dd6565b9050602081019050919050565b600081519050919050565b600081519050919050565b600082825260208201905092915050565b600082825260208201905092915050565b600081905092915050565b6000612ad782612bf1565b9150612ae283612bf1565b9250827fffffffffffffffffffffffffffffffffffffffffffffffffffffffffffffffff03821115612b1757612b16612d1a565b5b828201905092915050565b6000612b2d82612bf1565b9150612b3883612bf1565b925082612b4857612b47612d49565b5b828204905092915050565b6000612b5e82612bf1565b9150612b6983612bf1565b925082821015612b7c57612b7b612d1a565b5b828203905092915050565b6000612b9282612bd1565b9050919050565b60008115159050919050565b60007fffffffff0000000000000000000000000000000000000000000000000000000082169050919050565b600073ffffffffffffffffffffffffffffffffffffffff82169050919050565b6000819050919050565b82818337600083830152505050565b60005b83811015612c28578082015181840152602081019050612c0d565b83811115612c37576000848401525b50505050565b60006002820490506001821680612c5557607f821691505b60208210811415612c6957612c68612d78565b5b50919050565b612c7882612dd6565b810181811067ffffffffffffffff82111715612c9757612c96612da7565b5b80604052505050565b6000612cab82612bf1565b91507fffffffffffffffffffffffffffffffffffffffffffffffffffffffffffffffff821415612cde57612cdd612d1a565b5b600182019050919050565b6000612cf482612bf1565b9150612cff83612bf1565b925082612d0f57612d0e612d49565b5b828206905092915050565b7f4e487b7100000000000000000000000000000000000000000000000000000000600052601160045260246000fd5b7f4e487b7100000000000000000000000000000000000000000000000000000000600052601260045260246000fd5b7f4e487b7100000000000000000000000000000000000000000000000000000000600052602260045260246000fd5b7f4e487b7100000000000000000000000000000000000000000000000000000000600052604160045260246000fd5b6000601f19601f8301169050919050565b7f455243373231456e756d657261626c653a206f776e657220696e646578206f7560008201527f74206f6620626f756e6473000000000000000000000000000000000000000000602082015250565b7f4552433732313a207472616e7366657220746f206e6f6e20455243373231526560008201527f63656976657220696d706c656d656e7465720000000000000000000000000000602082015250565b7f4552433732313a20746f6b656e20616c7265616479206d696e74656400000000600082015250565b7f4552433732313a207472616e7366657220746f20746865207a65726f2061646460008201527f7265737300000000000000000000000000000000000000000000000000000000602082015250565b7f4552433732313a20617070726f766520746f2063616c6c657200000000000000600082015250565b7f4552433732313a206f70657261746f7220717565727920666f72206e6f6e657860008201527f697374656e7420746f6b656e0000000000000000000000000000000000000000602082015250565b7f4552433732313a20617070726f76652063616c6c6572206973206e6f74206f7760008201527f6e6572206e6f7220617070726f76656420666f7220616c6c0000000000000000602082015250565b7f4552433732313a2062616c616e636520717565727920666f7220746865207a6560008201527f726f206164647265737300000000000000000000000000000000000000000000602082015250565b7f4552433732313a206f776e657220717565727920666f72206e6f6e657869737460008201527f656e7420746f6b656e0000000000000000000000000000000000000000000000602082015250565b7f4552433732313a206d696e7420746f20746865207a65726f2061646472657373600082015250565b7f4552433732313a20617070726f76656420717565727920666f72206e6f6e657860008201527f697374656e7420746f6b656e0000000000000000000000000000000000000000602082015250565b7f4552433732313a207472616e73666572206f6620746f6b656e2074686174206960008201527f73206e6f74206f776e0000000000000000000000000000000000000000000000602082015250565b7f4552433732314d657461646174613a2055524920717565727920666f72206e6f60008201527f6e6578697374656e7420746f6b656e0000000000000000000000000000000000602082015250565b7f4552433732313a20617070726f76616c20746f2063757272656e74206f776e6560008201527f7200000000000000000000000000000000000000000000000000000000000000602082015250565b7f4552433732313a207472616e736665722063616c6c6572206973206e6f74206f60008201527f776e6572206e6f7220617070726f766564000000000000000000000000000000602082015250565b7f455243373231456e756d657261626c653a20676c6f62616c20696e646578206f60008201527f7574206f6620626f756e64730000000000000000000000000000000000000000602082015250565b61326e81612b87565b811461327957600080fd5b50565b61328581612b99565b811461329057600080fd5b50565b61329c81612ba5565b81146132a757600080fd5b50565b6132b381612bf1565b81146132be57600080fd5b5056fea26469706673582212208846811df76468aef6e772aaeb50cdfdc2a2c469e1047d10a9886a610463439c64736f6c63430008030033",
  "immutableReferences": {},
  "source": "// SPDX-License-Identifier: MIT\r\npragma solidity ^0.8.0;\r\n\r\nimport \"@openzeppelin/contracts/token/ERC721/ERC721.sol\";\r\nimport \"@openzeppelin/contracts/token/ERC721/extensions/ERC721Enumerable.sol\";\r\n\r\ncontract NFTCollection is ERC721, ERC721Enumerable {\r\n\r\n  event mintNFT(uint256 indexed tokenId, address indexed owner, string uri, string name, string description);\r\n  event saleNFT(uint indexed tokenId, string price);\r\n\r\n  constructor(address _address) ERC721(\"Lowb Collection\", \"Lowb\") {\r\n\r\n  }\r\n\r\n  function _beforeTokenTransfer(address from, address to, uint tokenId) internal override(ERC721, ERC721Enumerable) {\r\n    super._beforeTokenTransfer(from, to, tokenId);\r\n  }\r\n\r\n  function supportsInterface(bytes4 interfaceId) public view override(ERC721, ERC721Enumerable) returns(bool) {\r\n    return super.supportsInterface(interfaceId);\r\n  }\r\n\r\n  function safeMint(uint256 tokenId, string memory uri, string memory name, string memory description) public {\r\n    _safeMint(msg.sender, tokenId);\r\n    emit mintNFT(tokenId, msg.sender, uri, name, description);\r\n  }\r\n\r\n  function prepareForSale(uint256 tokenId, string memory price) payable public {\r\n    require(msg.sender != address(0));\r\n    require(_exists(tokenId));\r\n    emit saleNFT(tokenId, price);\r\n  }\r\n\r\n}",
  "sourcePath": "D:\\work\\lowb\\source\\LowbMarket\\contracts\\NFTCollection\\NFTCollection.sol",
  "compiler": {
    "name": "solc",
    "version": "0.8.3+commit.8d00100c.Emscripten.clang"
  },
  "schemaVersion": "3.4.4",
  "updatedAt": "2022-02-19T03:18:36.070Z",
  "networkType": "ethereum",
  "devdoc": {
    "kind": "dev",
    "methods": {
      "approve(address,uint256)": {
        "details": "See {IERC721-approve}."
      },
      "balanceOf(address)": {
        "details": "See {IERC721-balanceOf}."
      },
      "getApproved(uint256)": {
        "details": "See {IERC721-getApproved}."
      },
      "isApprovedForAll(address,address)": {
        "details": "See {IERC721-isApprovedForAll}."
      },
      "name()": {
        "details": "See {IERC721Metadata-name}."
      },
      "ownerOf(uint256)": {
        "details": "See {IERC721-ownerOf}."
      },
      "safeTransferFrom(address,address,uint256)": {
        "details": "See {IERC721-safeTransferFrom}."
      },
      "safeTransferFrom(address,address,uint256,bytes)": {
        "details": "See {IERC721-safeTransferFrom}."
      },
      "setApprovalForAll(address,bool)": {
        "details": "See {IERC721-setApprovalForAll}."
      },
      "symbol()": {
        "details": "See {IERC721Metadata-symbol}."
      },
      "tokenByIndex(uint256)": {
        "details": "See {IERC721Enumerable-tokenByIndex}."
      },
      "tokenOfOwnerByIndex(address,uint256)": {
        "details": "See {IERC721Enumerable-tokenOfOwnerByIndex}."
      },
      "tokenURI(uint256)": {
        "details": "See {IERC721Metadata-tokenURI}."
      },
      "totalSupply()": {
        "details": "See {IERC721Enumerable-totalSupply}."
      },
      "transferFrom(address,address,uint256)": {
        "details": "See {IERC721-transferFrom}."
      }
    },
    "version": 1
  },
  "userdoc": {
    "kind": "user",
    "methods": {},
    "version": 1
  }
}