{
  "contractName": "NFTCollection",
  "abi": [
    {
      "inputs": [
        {
          "internalType": "address",
          "name": "_address",
          "type": "address"
        }
      ],
      "stateMutability": "nonpayable",
      "type": "constructor"
    },
    {
      "anonymous": false,
      "inputs": [
        {
          "indexed": true,
          "internalType": "address",
          "name": "owner",
          "type": "address"
        },
        {
          "indexed": true,
          "internalType": "address",
          "name": "approved",
          "type": "address"
        },
        {
          "indexed": true,
          "internalType": "uint256",
          "name": "tokenId",
          "type": "uint256"
        }
      ],
      "name": "Approval",
      "type": "event"
    },
    {
      "anonymous": false,
      "inputs": [
        {
          "indexed": true,
          "internalType": "address",
          "name": "owner",
          "type": "address"
        },
        {
          "indexed": true,
          "internalType": "address",
          "name": "operator",
          "type": "address"
        },
        {
          "indexed": false,
          "internalType": "bool",
          "name": "approved",
          "type": "bool"
        }
      ],
      "name": "ApprovalForAll",
      "type": "event"
    },
    {
      "anonymous": false,
      "inputs": [
        {
          "indexed": true,
          "internalType": "address",
          "name": "from",
          "type": "address"
        },
        {
          "indexed": true,
          "internalType": "address",
          "name": "to",
          "type": "address"
        },
        {
          "indexed": true,
          "internalType": "uint256",
          "name": "tokenId",
          "type": "uint256"
        }
      ],
      "name": "Transfer",
      "type": "event"
    },
    {
      "anonymous": false,
      "inputs": [
        {
          "indexed": false,
          "internalType": "uint256",
          "name": "tokenId",
          "type": "uint256"
        },
        {
          "indexed": false,
          "internalType": "address",
          "name": "owner",
          "type": "address"
        },
        {
          "indexed": false,
          "internalType": "string",
          "name": "uri",
          "type": "string"
        },
        {
          "indexed": false,
          "internalType": "string",
          "name": "name",
          "type": "string"
        },
        {
          "indexed": false,
          "internalType": "string",
          "name": "description",
          "type": "string"
        }
      ],
      "name": "mintNFT",
      "type": "event"
    },
    {
      "inputs": [
        {
          "internalType": "address",
          "name": "to",
          "type": "address"
        },
        {
          "internalType": "uint256",
          "name": "tokenId",
          "type": "uint256"
        }
      ],
      "name": "approve",
      "outputs": [],
      "stateMutability": "nonpayable",
      "type": "function"
    },
    {
      "inputs": [
        {
          "internalType": "address",
          "name": "owner",
          "type": "address"
        }
      ],
      "name": "balanceOf",
      "outputs": [
        {
          "internalType": "uint256",
          "name": "",
          "type": "uint256"
        }
      ],
      "stateMutability": "view",
      "type": "function",
      "constant": true
    },
    {
      "inputs": [
        {
          "internalType": "uint256",
          "name": "tokenId",
          "type": "uint256"
        }
      ],
      "name": "getApproved",
      "outputs": [
        {
          "internalType": "address",
          "name": "",
          "type": "address"
        }
      ],
      "stateMutability": "view",
      "type": "function",
      "constant": true
    },
    {
      "inputs": [
        {
          "internalType": "address",
          "name": "owner",
          "type": "address"
        },
        {
          "internalType": "address",
          "name": "operator",
          "type": "address"
        }
      ],
      "name": "isApprovedForAll",
      "outputs": [
        {
          "internalType": "bool",
          "name": "",
          "type": "bool"
        }
      ],
      "stateMutability": "view",
      "type": "function",
      "constant": true
    },
    {
      "inputs": [],
      "name": "name",
      "outputs": [
        {
          "internalType": "string",
          "name": "",
          "type": "string"
        }
      ],
      "stateMutability": "view",
      "type": "function",
      "constant": true
    },
    {
      "inputs": [
        {
          "internalType": "uint256",
          "name": "tokenId",
          "type": "uint256"
        }
      ],
      "name": "ownerOf",
      "outputs": [
        {
          "internalType": "address",
          "name": "",
          "type": "address"
        }
      ],
      "stateMutability": "view",
      "type": "function",
      "constant": true
    },
    {
      "inputs": [
        {
          "internalType": "address",
          "name": "from",
          "type": "address"
        },
        {
          "internalType": "address",
          "name": "to",
          "type": "address"
        },
        {
          "internalType": "uint256",
          "name": "tokenId",
          "type": "uint256"
        }
      ],
      "name": "safeTransferFrom",
      "outputs": [],
      "stateMutability": "nonpayable",
      "type": "function"
    },
    {
      "inputs": [
        {
          "internalType": "address",
          "name": "from",
          "type": "address"
        },
        {
          "internalType": "address",
          "name": "to",
          "type": "address"
        },
        {
          "internalType": "uint256",
          "name": "tokenId",
          "type": "uint256"
        },
        {
          "internalType": "bytes",
          "name": "_data",
          "type": "bytes"
        }
      ],
      "name": "safeTransferFrom",
      "outputs": [],
      "stateMutability": "nonpayable",
      "type": "function"
    },
    {
      "inputs": [
        {
          "internalType": "address",
          "name": "operator",
          "type": "address"
        },
        {
          "internalType": "bool",
          "name": "approved",
          "type": "bool"
        }
      ],
      "name": "setApprovalForAll",
      "outputs": [],
      "stateMutability": "nonpayable",
      "type": "function"
    },
    {
      "inputs": [],
      "name": "symbol",
      "outputs": [
        {
          "internalType": "string",
          "name": "",
          "type": "string"
        }
      ],
      "stateMutability": "view",
      "type": "function",
      "constant": true
    },
    {
      "inputs": [
        {
          "internalType": "uint256",
          "name": "index",
          "type": "uint256"
        }
      ],
      "name": "tokenByIndex",
      "outputs": [
        {
          "internalType": "uint256",
          "name": "",
          "type": "uint256"
        }
      ],
      "stateMutability": "view",
      "type": "function",
      "constant": true
    },
    {
      "inputs": [
        {
          "internalType": "address",
          "name": "owner",
          "type": "address"
        },
        {
          "internalType": "uint256",
          "name": "index",
          "type": "uint256"
        }
      ],
      "name": "tokenOfOwnerByIndex",
      "outputs": [
        {
          "internalType": "uint256",
          "name": "",
          "type": "uint256"
        }
      ],
      "stateMutability": "view",
      "type": "function",
      "constant": true
    },
    {
      "inputs": [
        {
          "internalType": "uint256",
          "name": "tokenId",
          "type": "uint256"
        }
      ],
      "name": "tokenURI",
      "outputs": [
        {
          "internalType": "string",
          "name": "",
          "type": "string"
        }
      ],
      "stateMutability": "view",
      "type": "function",
      "constant": true
    },
    {
      "inputs": [],
      "name": "totalSupply",
      "outputs": [
        {
          "internalType": "uint256",
          "name": "",
          "type": "uint256"
        }
      ],
      "stateMutability": "view",
      "type": "function",
      "constant": true
    },
    {
      "inputs": [
        {
          "internalType": "address",
          "name": "from",
          "type": "address"
        },
        {
          "internalType": "address",
          "name": "to",
          "type": "address"
        },
        {
          "internalType": "uint256",
          "name": "tokenId",
          "type": "uint256"
        }
      ],
      "name": "transferFrom",
      "outputs": [],
      "stateMutability": "nonpayable",
      "type": "function"
    },
    {
      "inputs": [
        {
          "internalType": "bytes4",
          "name": "interfaceId",
          "type": "bytes4"
        }
      ],
      "name": "supportsInterface",
      "outputs": [
        {
          "internalType": "bool",
          "name": "",
          "type": "bool"
        }
      ],
      "stateMutability": "view",
      "type": "function",
      "constant": true
    },
    {
      "inputs": [
        {
          "internalType": "uint256",
          "name": "tokenId",
          "type": "uint256"
        },
        {
          "internalType": "string",
          "name": "uri",
          "type": "string"
        },
        {
          "internalType": "string",
          "name": "name",
          "type": "string"
        },
        {
          "internalType": "string",
          "name": "description",
          "type": "string"
        }
      ],
      "name": "safeMint",
      "outputs": [],
      "stateMutability": "nonpayable",
      "type": "function"
    }
  ],
  "bytecode": "0x60806040523480156200001157600080fd5b50604051620033c0380380620033c08339818101604052810190620000379190620001a5565b6040518060400160405280600f81526020017f4c6f776220436f6c6c656374696f6e00000000000000000000000000000000008152506040518060400160405280600481526020017f4c6f7762000000000000000000000000000000000000000000000000000000008152508160009080519060200190620000bb929190620000de565b508060019080519060200190620000d4929190620000de565b5050505062000284565b828054620000ec9062000205565b90600052602060002090601f0160209004810192826200011057600085556200015c565b82601f106200012b57805160ff19168380011785556200015c565b828001600101855582156200015c579182015b828111156200015b5782518255916020019190600101906200013e565b5b5090506200016b91906200016f565b5090565b5b808211156200018a57600081600090555060010162000170565b5090565b6000815190506200019f816200026a565b92915050565b600060208284031215620001b857600080fd5b6000620001c8848285016200018e565b91505092915050565b6000620001de82620001e5565b9050919050565b600073ffffffffffffffffffffffffffffffffffffffff82169050919050565b600060028204905060018216806200021e57607f821691505b602082108114156200023557620002346200023b565b5b50919050565b7f4e487b7100000000000000000000000000000000000000000000000000000000600052602260045260246000fd5b6200027581620001d1565b81146200028157600080fd5b50565b61312c80620002946000396000f3fe608060405234801561001057600080fd5b506004361061010b5760003560e01c80634f6ccce7116100a257806395d89b411161007157806395d89b41146102dc578063a22cb465146102fa578063b88d4fde14610316578063c87b56dd14610332578063e985e9c5146103625761010b565b80634f6ccce7146102305780636352211e1461026057806368974aaa1461029057806370a08231146102ac5761010b565b806318160ddd116100de57806318160ddd146101aa57806323b872dd146101c85780632f745c59146101e457806342842e0e146102145761010b565b806301ffc9a71461011057806306fdde0314610140578063081812fc1461015e578063095ea7b31461018e575b600080fd5b61012a600480360381019061012591906120c6565b610392565b6040516101379190612577565b60405180910390f35b6101486103a4565b6040516101559190612592565b60405180910390f35b61017860048036038101906101739190612118565b610436565b6040516101859190612510565b60405180910390f35b6101a860048036038101906101a3919061208a565b6104bb565b005b6101b26105d3565b6040516101bf91906127b4565b60405180910390f35b6101e260048036038101906101dd9190611f84565b6105e0565b005b6101fe60048036038101906101f9919061208a565b610640565b60405161020b91906127b4565b60405180910390f35b61022e60048036038101906102299190611f84565b6106e5565b005b61024a60048036038101906102459190612118565b610705565b60405161025791906127b4565b60405180910390f35b61027a60048036038101906102759190612118565b61079c565b6040516102879190612510565b60405180910390f35b6102aa60048036038101906102a59190612141565b61084e565b005b6102c660048036038101906102c19190611f1f565b61089d565b6040516102d391906127b4565b60405180910390f35b6102e4610955565b6040516102f19190612592565b60405180910390f35b610314600480360381019061030f919061204e565b6109e7565b005b610330600480360381019061032b9190611fd3565b6109fd565b005b61034c60048036038101906103479190612118565b610a5f565b6040516103599190612592565b60405180910390f35b61037c60048036038101906103779190611f48565b610b06565b6040516103899190612577565b60405180910390f35b600061039d82610b9a565b9050919050565b6060600080546103b390612a72565b80601f01602080910402602001604051908101604052809291908181526020018280546103df90612a72565b801561042c5780601f106104015761010080835404028352916020019161042c565b820191906000526020600020905b81548152906001019060200180831161040f57829003601f168201915b5050505050905090565b600061044182610c14565b610480576040517f08c379a0000000000000000000000000000000000000000000000000000000008152600401610477906126f4565b60405180910390fd5b6004600083815260200190815260200160002060009054906101000a900473ffffffffffffffffffffffffffffffffffffffff169050919050565b60006104c68261079c565b90508073ffffffffffffffffffffffffffffffffffffffff168373ffffffffffffffffffffffffffffffffffffffff161415610537576040517f08c379a000000000000000000000000000000000000000000000000000000000815260040161052e90612754565b60405180910390fd5b8073ffffffffffffffffffffffffffffffffffffffff16610556610c80565b73ffffffffffffffffffffffffffffffffffffffff16148061058557506105848161057f610c80565b610b06565b5b6105c4576040517f08c379a00000000000000000000000000000000000000000000000000000000081526004016105bb90612674565b60405180910390fd5b6105ce8383610c88565b505050565b6000600880549050905090565b6105f16105eb610c80565b82610d41565b610630576040517f08c379a000000000000000000000000000000000000000000000000000000000815260040161062790612774565b60405180910390fd5b61063b838383610e1f565b505050565b600061064b8361089d565b821061068c576040517f08c379a0000000000000000000000000000000000000000000000000000000008152600401610683906125b4565b60405180910390fd5b600660008473ffffffffffffffffffffffffffffffffffffffff1673ffffffffffffffffffffffffffffffffffffffff168152602001908152602001600020600083815260200190815260200160002054905092915050565b610700838383604051806020016040528060008152506109fd565b505050565b600061070f6105d3565b8210610750576040517f08c379a000000000000000000000000000000000000000000000000000000000815260040161074790612794565b60405180910390fd5b6008828154811061078a577f4e487b7100000000000000000000000000000000000000000000000000000000600052603260045260246000fd5b90600052602060002001549050919050565b6000806002600084815260200190815260200160002060009054906101000a900473ffffffffffffffffffffffffffffffffffffffff169050600073ffffffffffffffffffffffffffffffffffffffff168173ffffffffffffffffffffffffffffffffffffffff161415610845576040517f08c379a000000000000000000000000000000000000000000000000000000000815260040161083c906126b4565b60405180910390fd5b80915050919050565b610858338561107b565b7f06d93a7a380979a926ce6a1cf70f681a3a9f85b7624a4668dd06f26209701057843385858560405161088f9594939291906127cf565b60405180910390a150505050565b60008073ffffffffffffffffffffffffffffffffffffffff168273ffffffffffffffffffffffffffffffffffffffff16141561090e576040517f08c379a000000000000000000000000000000000000000000000000000000000815260040161090590612694565b60405180910390fd5b600360008373ffffffffffffffffffffffffffffffffffffffff1673ffffffffffffffffffffffffffffffffffffffff168152602001908152602001600020549050919050565b60606001805461096490612a72565b80601f016020809104026020016040519081016040528092919081815260200182805461099090612a72565b80156109dd5780601f106109b2576101008083540402835291602001916109dd565b820191906000526020600020905b8154815290600101906020018083116109c057829003601f168201915b5050505050905090565b6109f96109f2610c80565b8383611099565b5050565b610a0e610a08610c80565b83610d41565b610a4d576040517f08c379a0000000000000000000000000000000000000000000000000000000008152600401610a4490612774565b60405180910390fd5b610a5984848484611206565b50505050565b6060610a6a82610c14565b610aa9576040517f08c379a0000000000000000000000000000000000000000000000000000000008152600401610aa090612734565b60405180910390fd5b6000610ab3611262565b90506000815111610ad35760405180602001604052806000815250610afe565b80610add84611279565b604051602001610aee9291906124ec565b6040516020818303038152906040525b915050919050565b6000600560008473ffffffffffffffffffffffffffffffffffffffff1673ffffffffffffffffffffffffffffffffffffffff16815260200190815260200160002060008373ffffffffffffffffffffffffffffffffffffffff1673ffffffffffffffffffffffffffffffffffffffff16815260200190815260200160002060009054906101000a900460ff16905092915050565b60007f780e9d63000000000000000000000000000000000000000000000000000000007bffffffffffffffffffffffffffffffffffffffffffffffffffffffff1916827bffffffffffffffffffffffffffffffffffffffffffffffffffffffff19161480610c0d5750610c0c82611426565b5b9050919050565b60008073ffffffffffffffffffffffffffffffffffffffff166002600084815260200190815260200160002060009054906101000a900473ffffffffffffffffffffffffffffffffffffffff1673ffffffffffffffffffffffffffffffffffffffff1614159050919050565b600033905090565b816004600083815260200190815260200160002060006101000a81548173ffffffffffffffffffffffffffffffffffffffff021916908373ffffffffffffffffffffffffffffffffffffffff160217905550808273ffffffffffffffffffffffffffffffffffffffff16610cfb8361079c565b73ffffffffffffffffffffffffffffffffffffffff167f8c5be1e5ebec7d5bd14f71427d1e84f3dd0314c0f7b2291e5b200ac8c7c3b92560405160405180910390a45050565b6000610d4c82610c14565b610d8b576040517f08c379a0000000000000000000000000000000000000000000000000000000008152600401610d8290612654565b60405180910390fd5b6000610d968361079c565b90508073ffffffffffffffffffffffffffffffffffffffff168473ffffffffffffffffffffffffffffffffffffffff161480610e0557508373ffffffffffffffffffffffffffffffffffffffff16610ded84610436565b73ffffffffffffffffffffffffffffffffffffffff16145b80610e165750610e158185610b06565b5b91505092915050565b8273ffffffffffffffffffffffffffffffffffffffff16610e3f8261079c565b73ffffffffffffffffffffffffffffffffffffffff1614610e95576040517f08c379a0000000000000000000000000000000000000000000000000000000008152600401610e8c90612714565b60405180910390fd5b600073ffffffffffffffffffffffffffffffffffffffff168273ffffffffffffffffffffffffffffffffffffffff161415610f05576040517f08c379a0000000000000000000000000000000000000000000000000000000008152600401610efc90612614565b60405180910390fd5b610f10838383611508565b610f1b600082610c88565b6001600360008573ffffffffffffffffffffffffffffffffffffffff1673ffffffffffffffffffffffffffffffffffffffff1681526020019081526020016000206000828254610f6b9190612988565b925050819055506001600360008473ffffffffffffffffffffffffffffffffffffffff1673ffffffffffffffffffffffffffffffffffffffff1681526020019081526020016000206000828254610fc29190612901565b92505081905550816002600083815260200190815260200160002060006101000a81548173ffffffffffffffffffffffffffffffffffffffff021916908373ffffffffffffffffffffffffffffffffffffffff160217905550808273ffffffffffffffffffffffffffffffffffffffff168473ffffffffffffffffffffffffffffffffffffffff167fddf252ad1be2c89b69c2b068fc378daa952ba7f163c4a11628f55a4df523b3ef60405160405180910390a4505050565b611095828260405180602001604052806000815250611518565b5050565b8173ffffffffffffffffffffffffffffffffffffffff168373ffffffffffffffffffffffffffffffffffffffff161415611108576040517f08c379a00000000000000000000000000000000000000000000000000000000081526004016110ff90612634565b60405180910390fd5b80600560008573ffffffffffffffffffffffffffffffffffffffff1673ffffffffffffffffffffffffffffffffffffffff16815260200190815260200160002060008473ffffffffffffffffffffffffffffffffffffffff1673ffffffffffffffffffffffffffffffffffffffff16815260200190815260200160002060006101000a81548160ff0219169083151502179055508173ffffffffffffffffffffffffffffffffffffffff168373ffffffffffffffffffffffffffffffffffffffff167f17307eab39ab6107e8899845ad3d59bd9653f200f220920489ca2b5937696c31836040516111f99190612577565b60405180910390a3505050565b611211848484610e1f565b61121d84848484611573565b61125c576040517f08c379a0000000000000000000000000000000000000000000000000000000008152600401611253906125d4565b60405180910390fd5b50505050565b606060405180602001604052806000815250905090565b606060008214156112c1576040518060400160405280600181526020017f30000000000000000000000000000000000000000000000000000000000000008152509050611421565b600082905060005b600082146112f35780806112dc90612ad5565b915050600a826112ec9190612957565b91506112c9565b60008167ffffffffffffffff811115611335577f4e487b7100000000000000000000000000000000000000000000000000000000600052604160045260246000fd5b6040519080825280601f01601f1916602001820160405280156113675781602001600182028036833780820191505090505b5090505b6000851461141a576001826113809190612988565b9150600a8561138f9190612b1e565b603061139b9190612901565b60f81b8183815181106113d7577f4e487b7100000000000000000000000000000000000000000000000000000000600052603260045260246000fd5b60200101907effffffffffffffffffffffffffffffffffffffffffffffffffffffffffffff1916908160001a905350600a856114139190612957565b945061136b565b8093505050505b919050565b60007f80ac58cd000000000000000000000000000000000000000000000000000000007bffffffffffffffffffffffffffffffffffffffffffffffffffffffff1916827bffffffffffffffffffffffffffffffffffffffffffffffffffffffff191614806114f157507f5b5e139f000000000000000000000000000000000000000000000000000000007bffffffffffffffffffffffffffffffffffffffffffffffffffffffff1916827bffffffffffffffffffffffffffffffffffffffffffffffffffffffff1916145b8061150157506115008261170a565b5b9050919050565b611513838383611774565b505050565b6115228383611888565b61152f6000848484611573565b61156e576040517f08c379a0000000000000000000000000000000000000000000000000000000008152600401611565906125d4565b60405180910390fd5b505050565b60006115948473ffffffffffffffffffffffffffffffffffffffff16611a56565b156116fd578373ffffffffffffffffffffffffffffffffffffffff1663150b7a026115bd610c80565b8786866040518563ffffffff1660e01b81526004016115df949392919061252b565b602060405180830381600087803b1580156115f957600080fd5b505af192505050801561162a57506040513d601f19601f8201168201806040525081019061162791906120ef565b60015b6116ad573d806000811461165a576040519150601f19603f3d011682016040523d82523d6000602084013e61165f565b606091505b506000815114156116a5576040517f08c379a000000000000000000000000000000000000000000000000000000000815260040161169c906125d4565b60405180910390fd5b805181602001fd5b63150b7a0260e01b7bffffffffffffffffffffffffffffffffffffffffffffffffffffffff1916817bffffffffffffffffffffffffffffffffffffffffffffffffffffffff191614915050611702565b600190505b949350505050565b60007f01ffc9a7000000000000000000000000000000000000000000000000000000007bffffffffffffffffffffffffffffffffffffffffffffffffffffffff1916827bffffffffffffffffffffffffffffffffffffffffffffffffffffffff1916149050919050565b61177f838383611a69565b600073ffffffffffffffffffffffffffffffffffffffff168373ffffffffffffffffffffffffffffffffffffffff1614156117c2576117bd81611a6e565b611801565b8173ffffffffffffffffffffffffffffffffffffffff168373ffffffffffffffffffffffffffffffffffffffff1614611800576117ff8382611ab7565b5b5b600073ffffffffffffffffffffffffffffffffffffffff168273ffffffffffffffffffffffffffffffffffffffff1614156118445761183f81611c24565b611883565b8273ffffffffffffffffffffffffffffffffffffffff168273ffffffffffffffffffffffffffffffffffffffff1614611882576118818282611d67565b5b5b505050565b600073ffffffffffffffffffffffffffffffffffffffff168273ffffffffffffffffffffffffffffffffffffffff1614156118f8576040517f08c379a00000000000000000000000000000000000000000000000000000000081526004016118ef906126d4565b60405180910390fd5b61190181610c14565b15611941576040517f08c379a0000000000000000000000000000000000000000000000000000000008152600401611938906125f4565b60405180910390fd5b61194d60008383611508565b6001600360008473ffffffffffffffffffffffffffffffffffffffff1673ffffffffffffffffffffffffffffffffffffffff168152602001908152602001600020600082825461199d9190612901565b92505081905550816002600083815260200190815260200160002060006101000a81548173ffffffffffffffffffffffffffffffffffffffff021916908373ffffffffffffffffffffffffffffffffffffffff160217905550808273ffffffffffffffffffffffffffffffffffffffff16600073ffffffffffffffffffffffffffffffffffffffff167fddf252ad1be2c89b69c2b068fc378daa952ba7f163c4a11628f55a4df523b3ef60405160405180910390a45050565b600080823b905060008111915050919050565b505050565b6008805490506009600083815260200190815260200160002081905550600881908060018154018082558091505060019003906000526020600020016000909190919091505550565b60006001611ac48461089d565b611ace9190612988565b9050600060076000848152602001908152602001600020549050818114611bb3576000600660008673ffffffffffffffffffffffffffffffffffffffff1673ffffffffffffffffffffffffffffffffffffffff168152602001908152602001600020600084815260200190815260200160002054905080600660008773ffffffffffffffffffffffffffffffffffffffff1673ffffffffffffffffffffffffffffffffffffffff168152602001908152602001600020600084815260200190815260200160002081905550816007600083815260200190815260200160002081905550505b6007600084815260200190815260200160002060009055600660008573ffffffffffffffffffffffffffffffffffffffff1673ffffffffffffffffffffffffffffffffffffffff16815260200190815260200160002060008381526020019081526020016000206000905550505050565b60006001600880549050611c389190612988565b9050600060096000848152602001908152602001600020549050600060088381548110611c8e577f4e487b7100000000000000000000000000000000000000000000000000000000600052603260045260246000fd5b906000526020600020015490508060088381548110611cd6577f4e487b7100000000000000000000000000000000000000000000000000000000600052603260045260246000fd5b906000526020600020018190555081600960008381526020019081526020016000208190555060096000858152602001908152602001600020600090556008805480611d4b577f4e487b7100000000000000000000000000000000000000000000000000000000600052603160045260246000fd5b6001900381819060005260206000200160009055905550505050565b6000611d728361089d565b905081600660008573ffffffffffffffffffffffffffffffffffffffff1673ffffffffffffffffffffffffffffffffffffffff168152602001908152602001600020600083815260200190815260200160002081905550806007600084815260200190815260200160002081905550505050565b6000611df9611df48461285c565b612837565b905082815260208101848484011115611e1157600080fd5b611e1c848285612a30565b509392505050565b6000611e37611e328461288d565b612837565b905082815260208101848484011115611e4f57600080fd5b611e5a848285612a30565b509392505050565b600081359050611e718161309a565b92915050565b600081359050611e86816130b1565b92915050565b600081359050611e9b816130c8565b92915050565b600081519050611eb0816130c8565b92915050565b600082601f830112611ec757600080fd5b8135611ed7848260208601611de6565b91505092915050565b600082601f830112611ef157600080fd5b8135611f01848260208601611e24565b91505092915050565b600081359050611f19816130df565b92915050565b600060208284031215611f3157600080fd5b6000611f3f84828501611e62565b91505092915050565b60008060408385031215611f5b57600080fd5b6000611f6985828601611e62565b9250506020611f7a85828601611e62565b9150509250929050565b600080600060608486031215611f9957600080fd5b6000611fa786828701611e62565b9350506020611fb886828701611e62565b9250506040611fc986828701611f0a565b9150509250925092565b60008060008060808587031215611fe957600080fd5b6000611ff787828801611e62565b945050602061200887828801611e62565b935050604061201987828801611f0a565b925050606085013567ffffffffffffffff81111561203657600080fd5b61204287828801611eb6565b91505092959194509250565b6000806040838503121561206157600080fd5b600061206f85828601611e62565b925050602061208085828601611e77565b9150509250929050565b6000806040838503121561209d57600080fd5b60006120ab85828601611e62565b92505060206120bc85828601611f0a565b9150509250929050565b6000602082840312156120d857600080fd5b60006120e684828501611e8c565b91505092915050565b60006020828403121561210157600080fd5b600061210f84828501611ea1565b91505092915050565b60006020828403121561212a57600080fd5b600061213884828501611f0a565b91505092915050565b6000806000806080858703121561215757600080fd5b600061216587828801611f0a565b945050602085013567ffffffffffffffff81111561218257600080fd5b61218e87828801611ee0565b935050604085013567ffffffffffffffff8111156121ab57600080fd5b6121b787828801611ee0565b925050606085013567ffffffffffffffff8111156121d457600080fd5b6121e087828801611ee0565b91505092959194509250565b6121f5816129bc565b82525050565b612204816129ce565b82525050565b6000612215826128be565b61221f81856128d4565b935061222f818560208601612a3f565b61223881612c0b565b840191505092915050565b600061224e826128c9565b61225881856128e5565b9350612268818560208601612a3f565b61227181612c0b565b840191505092915050565b6000612287826128c9565b61229181856128f6565b93506122a1818560208601612a3f565b80840191505092915050565b60006122ba602b836128e5565b91506122c582612c1c565b604082019050919050565b60006122dd6032836128e5565b91506122e882612c6b565b604082019050919050565b6000612300601c836128e5565b915061230b82612cba565b602082019050919050565b60006123236024836128e5565b915061232e82612ce3565b604082019050919050565b60006123466019836128e5565b915061235182612d32565b602082019050919050565b6000612369602c836128e5565b915061237482612d5b565b604082019050919050565b600061238c6038836128e5565b915061239782612daa565b604082019050919050565b60006123af602a836128e5565b91506123ba82612df9565b604082019050919050565b60006123d26029836128e5565b91506123dd82612e48565b604082019050919050565b60006123f56020836128e5565b915061240082612e97565b602082019050919050565b6000612418602c836128e5565b915061242382612ec0565b604082019050919050565b600061243b6029836128e5565b915061244682612f0f565b604082019050919050565b600061245e602f836128e5565b915061246982612f5e565b604082019050919050565b60006124816021836128e5565b915061248c82612fad565b604082019050919050565b60006124a46031836128e5565b91506124af82612ffc565b604082019050919050565b60006124c7602c836128e5565b91506124d28261304b565b604082019050919050565b6124e681612a26565b82525050565b60006124f8828561227c565b9150612504828461227c565b91508190509392505050565b600060208201905061252560008301846121ec565b92915050565b600060808201905061254060008301876121ec565b61254d60208301866121ec565b61255a60408301856124dd565b818103606083015261256c818461220a565b905095945050505050565b600060208201905061258c60008301846121fb565b92915050565b600060208201905081810360008301526125ac8184612243565b905092915050565b600060208201905081810360008301526125cd816122ad565b9050919050565b600060208201905081810360008301526125ed816122d0565b9050919050565b6000602082019050818103600083015261260d816122f3565b9050919050565b6000602082019050818103600083015261262d81612316565b9050919050565b6000602082019050818103600083015261264d81612339565b9050919050565b6000602082019050818103600083015261266d8161235c565b9050919050565b6000602082019050818103600083015261268d8161237f565b9050919050565b600060208201905081810360008301526126ad816123a2565b9050919050565b600060208201905081810360008301526126cd816123c5565b9050919050565b600060208201905081810360008301526126ed816123e8565b9050919050565b6000602082019050818103600083015261270d8161240b565b9050919050565b6000602082019050818103600083015261272d8161242e565b9050919050565b6000602082019050818103600083015261274d81612451565b9050919050565b6000602082019050818103600083015261276d81612474565b9050919050565b6000602082019050818103600083015261278d81612497565b9050919050565b600060208201905081810360008301526127ad816124ba565b9050919050565b60006020820190506127c960008301846124dd565b92915050565b600060a0820190506127e460008301886124dd565b6127f160208301876121ec565b81810360408301526128038186612243565b905081810360608301526128178185612243565b9050818103608083015261282b8184612243565b90509695505050505050565b6000612841612852565b905061284d8282612aa4565b919050565b6000604051905090565b600067ffffffffffffffff82111561287757612876612bdc565b5b61288082612c0b565b9050602081019050919050565b600067ffffffffffffffff8211156128a8576128a7612bdc565b5b6128b182612c0b565b9050602081019050919050565b600081519050919050565b600081519050919050565b600082825260208201905092915050565b600082825260208201905092915050565b600081905092915050565b600061290c82612a26565b915061291783612a26565b9250827fffffffffffffffffffffffffffffffffffffffffffffffffffffffffffffffff0382111561294c5761294b612b4f565b5b828201905092915050565b600061296282612a26565b915061296d83612a26565b92508261297d5761297c612b7e565b5b828204905092915050565b600061299382612a26565b915061299e83612a26565b9250828210156129b1576129b0612b4f565b5b828203905092915050565b60006129c782612a06565b9050919050565b60008115159050919050565b60007fffffffff0000000000000000000000000000000000000000000000000000000082169050919050565b600073ffffffffffffffffffffffffffffffffffffffff82169050919050565b6000819050919050565b82818337600083830152505050565b60005b83811015612a5d578082015181840152602081019050612a42565b83811115612a6c576000848401525b50505050565b60006002820490506001821680612a8a57607f821691505b60208210811415612a9e57612a9d612bad565b5b50919050565b612aad82612c0b565b810181811067ffffffffffffffff82111715612acc57612acb612bdc565b5b80604052505050565b6000612ae082612a26565b91507fffffffffffffffffffffffffffffffffffffffffffffffffffffffffffffffff821415612b1357612b12612b4f565b5b600182019050919050565b6000612b2982612a26565b9150612b3483612a26565b925082612b4457612b43612b7e565b5b828206905092915050565b7f4e487b7100000000000000000000000000000000000000000000000000000000600052601160045260246000fd5b7f4e487b7100000000000000000000000000000000000000000000000000000000600052601260045260246000fd5b7f4e487b7100000000000000000000000000000000000000000000000000000000600052602260045260246000fd5b7f4e487b7100000000000000000000000000000000000000000000000000000000600052604160045260246000fd5b6000601f19601f8301169050919050565b7f455243373231456e756d657261626c653a206f776e657220696e646578206f7560008201527f74206f6620626f756e6473000000000000000000000000000000000000000000602082015250565b7f4552433732313a207472616e7366657220746f206e6f6e20455243373231526560008201527f63656976657220696d706c656d656e7465720000000000000000000000000000602082015250565b7f4552433732313a20746f6b656e20616c7265616479206d696e74656400000000600082015250565b7f4552433732313a207472616e7366657220746f20746865207a65726f2061646460008201527f7265737300000000000000000000000000000000000000000000000000000000602082015250565b7f4552433732313a20617070726f766520746f2063616c6c657200000000000000600082015250565b7f4552433732313a206f70657261746f7220717565727920666f72206e6f6e657860008201527f697374656e7420746f6b656e0000000000000000000000000000000000000000602082015250565b7f4552433732313a20617070726f76652063616c6c6572206973206e6f74206f7760008201527f6e6572206e6f7220617070726f76656420666f7220616c6c0000000000000000602082015250565b7f4552433732313a2062616c616e636520717565727920666f7220746865207a6560008201527f726f206164647265737300000000000000000000000000000000000000000000602082015250565b7f4552433732313a206f776e657220717565727920666f72206e6f6e657869737460008201527f656e7420746f6b656e0000000000000000000000000000000000000000000000602082015250565b7f4552433732313a206d696e7420746f20746865207a65726f2061646472657373600082015250565b7f4552433732313a20617070726f76656420717565727920666f72206e6f6e657860008201527f697374656e7420746f6b656e0000000000000000000000000000000000000000602082015250565b7f4552433732313a207472616e73666572206f6620746f6b656e2074686174206960008201527f73206e6f74206f776e0000000000000000000000000000000000000000000000602082015250565b7f4552433732314d657461646174613a2055524920717565727920666f72206e6f60008201527f6e6578697374656e7420746f6b656e0000000000000000000000000000000000602082015250565b7f4552433732313a20617070726f76616c20746f2063757272656e74206f776e6560008201527f7200000000000000000000000000000000000000000000000000000000000000602082015250565b7f4552433732313a207472616e736665722063616c6c6572206973206e6f74206f60008201527f776e6572206e6f7220617070726f766564000000000000000000000000000000602082015250565b7f455243373231456e756d657261626c653a20676c6f62616c20696e646578206f60008201527f7574206f6620626f756e64730000000000000000000000000000000000000000602082015250565b6130a3816129bc565b81146130ae57600080fd5b50565b6130ba816129ce565b81146130c557600080fd5b50565b6130d1816129da565b81146130dc57600080fd5b50565b6130e881612a26565b81146130f357600080fd5b5056fea2646970667358221220494cedbce139a7558c346a5355e13aa4b006b03095dc927b6e7d36dee8f74c4964736f6c63430008030033",
  "immutableReferences": {},
  "source": "// SPDX-License-Identifier: MIT\r\npragma solidity ^0.8.0;\r\n\r\nimport \"@openzeppelin/contracts/token/ERC721/ERC721.sol\";\r\nimport \"@openzeppelin/contracts/token/ERC721/extensions/ERC721Enumerable.sol\";\r\n\r\ncontract NFTCollection is ERC721, ERC721Enumerable {\r\n\r\n  event mintNFT(uint256 tokenId, address owner, string uri, string name, string description);\r\n\r\n  constructor(address _address) ERC721(\"Lowb Collection\", \"Lowb\") {\r\n\r\n  }\r\n\r\n  function _beforeTokenTransfer(address from, address to, uint tokenId) internal override(ERC721, ERC721Enumerable) {\r\n    super._beforeTokenTransfer(from, to, tokenId);\r\n  }\r\n\r\n  function supportsInterface(bytes4 interfaceId) public view override(ERC721, ERC721Enumerable) returns(bool) {\r\n    return super.supportsInterface(interfaceId);\r\n  }\r\n\r\n  function safeMint(uint256 tokenId, string memory uri, string memory name, string memory description) public {\r\n    _safeMint(msg.sender, tokenId);\r\n    emit mintNFT(tokenId, msg.sender, uri, name, description);\r\n  }\r\n\r\n}",
  "sourcePath": "E:\\work\\lowb\\source\\LowbMarket\\contracts\\NFTCollection\\NFTCollection.sol",
  "compiler": {
    "name": "solc",
    "version": "0.8.3+commit.8d00100c.Emscripten.clang"
  },
  "schemaVersion": "3.4.4",
  "updatedAt": "2022-02-06T05:30:51.332Z",
  "networkType": "ethereum",
  "devdoc": {
    "kind": "dev",
    "methods": {
      "approve(address,uint256)": {
        "details": "See {IERC721-approve}."
      },
      "balanceOf(address)": {
        "details": "See {IERC721-balanceOf}."
      },
      "getApproved(uint256)": {
        "details": "See {IERC721-getApproved}."
      },
      "isApprovedForAll(address,address)": {
        "details": "See {IERC721-isApprovedForAll}."
      },
      "name()": {
        "details": "See {IERC721Metadata-name}."
      },
      "ownerOf(uint256)": {
        "details": "See {IERC721-ownerOf}."
      },
      "safeTransferFrom(address,address,uint256)": {
        "details": "See {IERC721-safeTransferFrom}."
      },
      "safeTransferFrom(address,address,uint256,bytes)": {
        "details": "See {IERC721-safeTransferFrom}."
      },
      "setApprovalForAll(address,bool)": {
        "details": "See {IERC721-setApprovalForAll}."
      },
      "symbol()": {
        "details": "See {IERC721Metadata-symbol}."
      },
      "tokenByIndex(uint256)": {
        "details": "See {IERC721Enumerable-tokenByIndex}."
      },
      "tokenOfOwnerByIndex(address,uint256)": {
        "details": "See {IERC721Enumerable-tokenOfOwnerByIndex}."
      },
      "tokenURI(uint256)": {
        "details": "See {IERC721Metadata-tokenURI}."
      },
      "totalSupply()": {
        "details": "See {IERC721Enumerable-totalSupply}."
      },
      "transferFrom(address,address,uint256)": {
        "details": "See {IERC721-transferFrom}."
      }
    },
    "version": 1
  },
  "userdoc": {
    "kind": "user",
    "methods": {},
    "version": 1
  }
}