{
  "contractName": "NFTMarketplace",
  "abi": [
    {
      "inputs": [
        {
          "internalType": "address",
          "name": "_address",
          "type": "address"
        }
      ],
      "stateMutability": "nonpayable",
      "type": "constructor"
    },
    {
      "anonymous": false,
      "inputs": [
        {
          "indexed": false,
          "internalType": "address",
          "name": "from",
          "type": "address"
        },
        {
          "indexed": false,
          "internalType": "address",
          "name": "to",
          "type": "address"
        },
        {
          "indexed": false,
          "internalType": "uint256",
          "name": "tokenId",
          "type": "uint256"
        },
        {
          "indexed": false,
          "internalType": "string",
          "name": "price",
          "type": "string"
        }
      ],
      "name": "buyNFT",
      "type": "event"
    },
    {
      "anonymous": false,
      "inputs": [
        {
          "indexed": true,
          "internalType": "uint256",
          "name": "tokenId",
          "type": "uint256"
        },
        {
          "indexed": false,
          "internalType": "string",
          "name": "price",
          "type": "string"
        }
      ],
      "name": "saleNFT",
      "type": "event"
    },
    {
      "inputs": [
        {
          "internalType": "uint256",
          "name": "tokenId",
          "type": "uint256"
        },
        {
          "internalType": "string",
          "name": "price",
          "type": "string"
        }
      ],
      "name": "prepareForSale",
      "outputs": [],
      "stateMutability": "nonpayable",
      "type": "function"
    },
    {
      "inputs": [
        {
          "internalType": "address",
          "name": "from",
          "type": "address"
        },
        {
          "internalType": "uint256",
          "name": "tokenId",
          "type": "uint256"
        },
        {
          "internalType": "string",
          "name": "price",
          "type": "string"
        }
      ],
      "name": "sellNFT",
      "outputs": [],
      "stateMutability": "nonpayable",
      "type": "function"
    }
  ],
  "bytecode": "0x608060405234801561001057600080fd5b506040516107653803806107658339818101604052810190610032919061008d565b806000806101000a81548173ffffffffffffffffffffffffffffffffffffffff021916908373ffffffffffffffffffffffffffffffffffffffff160217905550506100ff565b600081519050610087816100e8565b92915050565b60006020828403121561009f57600080fd5b60006100ad84828501610078565b91505092915050565b60006100c1826100c8565b9050919050565b600073ffffffffffffffffffffffffffffffffffffffff82169050919050565b6100f1816100b6565b81146100fc57600080fd5b50565b6106578061010e6000396000f3fe608060405234801561001057600080fd5b50600436106100365760003560e01c80634a09054d1461003b578063bc0d7b5d14610057575b600080fd5b61005560048036038101906100509190610342565b610073565b005b610071600480360381019061006c91906102db565b610178565b005b600073ffffffffffffffffffffffffffffffffffffffff163373ffffffffffffffffffffffffffffffffffffffff1614156100ad57600080fd5b60008054906101000a900473ffffffffffffffffffffffffffffffffffffffff1673ffffffffffffffffffffffffffffffffffffffff166323b872dd3330856040518463ffffffff1660e01b815260040161010a939291906103ed565b600060405180830381600087803b15801561012457600080fd5b505af1158015610138573d6000803e3d6000fd5b50505050817fbb4a8643febb0c59b513cb9b06696eab06ae94ee23c884fdf4dbeff057c5d2078260405161016c9190610470565b60405180910390a25050565b60008054906101000a900473ffffffffffffffffffffffffffffffffffffffff1673ffffffffffffffffffffffffffffffffffffffff166323b872dd3033856040518463ffffffff1660e01b81526004016101d5939291906103ed565b600060405180830381600087803b1580156101ef57600080fd5b505af1158015610203573d6000803e3d6000fd5b505050507ffe17a27e59017eea31583d686f923fa0e261ae65a28d86e760d6c9e1c91aa8c18333848460405161023c9493929190610424565b60405180910390a1505050565b600061025c610257846104b7565b610492565b90508281526020810184848401111561027457600080fd5b61027f848285610540565b509392505050565b600081359050610296816105f3565b92915050565b600082601f8301126102ad57600080fd5b81356102bd848260208601610249565b91505092915050565b6000813590506102d58161060a565b92915050565b6000806000606084860312156102f057600080fd5b60006102fe86828701610287565b935050602061030f868287016102c6565b925050604084013567ffffffffffffffff81111561032c57600080fd5b6103388682870161029c565b9150509250925092565b6000806040838503121561035557600080fd5b6000610363858286016102c6565b925050602083013567ffffffffffffffff81111561038057600080fd5b61038c8582860161029c565b9150509250929050565b61039f81610504565b82525050565b60006103b0826104e8565b6103ba81856104f3565b93506103ca81856020860161054f565b6103d3816105e2565b840191505092915050565b6103e781610536565b82525050565b60006060820190506104026000830186610396565b61040f6020830185610396565b61041c60408301846103de565b949350505050565b60006080820190506104396000830187610396565b6104466020830186610396565b61045360408301856103de565b818103606083015261046581846103a5565b905095945050505050565b6000602082019050818103600083015261048a81846103a5565b905092915050565b600061049c6104ad565b90506104a88282610582565b919050565b6000604051905090565b600067ffffffffffffffff8211156104d2576104d16105b3565b5b6104db826105e2565b9050602081019050919050565b600081519050919050565b600082825260208201905092915050565b600061050f82610516565b9050919050565b600073ffffffffffffffffffffffffffffffffffffffff82169050919050565b6000819050919050565b82818337600083830152505050565b60005b8381101561056d578082015181840152602081019050610552565b8381111561057c576000848401525b50505050565b61058b826105e2565b810181811067ffffffffffffffff821117156105aa576105a96105b3565b5b80604052505050565b7f4e487b7100000000000000000000000000000000000000000000000000000000600052604160045260246000fd5b6000601f19601f8301169050919050565b6105fc81610504565b811461060757600080fd5b50565b61061381610536565b811461061e57600080fd5b5056fea26469706673582212201f5c2a3ff7896409b942d3bf36ff22abb09127e98fc42e35495cb0391937f1ce64736f6c63430008030033",
  "immutableReferences": {},
  "source": "pragma solidity ^0.8.0;\r\n\r\nimport './NFTCollection.sol';\r\n\r\ncontract NFTMarketplace {\r\n  NFTCollection nftCollection;\r\n\r\n  event saleNFT(uint indexed tokenId, string price);\r\n  event buyNFT(address from, address to, uint256 tokenId, string price);\r\n\r\n  constructor (address _address) {\r\n    nftCollection = NFTCollection(_address);\r\n  }\r\n\r\n  function prepareForSale(uint256 tokenId, string memory price) public {\r\n    require(msg.sender != address(0));\r\n    nftCollection.transferFrom(msg.sender, address(this), tokenId);\r\n    emit saleNFT(tokenId, price);\r\n  }\r\n\r\n  function sellNFT(address from, uint256 tokenId, string memory price) public {\r\n    nftCollection.transferFrom(address(this), msg.sender, tokenId);\r\n    emit buyNFT(from, msg.sender, tokenId, price);\r\n  }\r\n}",
  "sourcePath": "D:\\work\\lowb\\source\\LowbMarket\\contracts\\NFTCollection\\NFTMarketplace.sol",
  "compiler": {
    "name": "solc",
    "version": "0.8.3+commit.8d00100c.Emscripten.clang"
  },
  "schemaVersion": "3.4.4",
  "updatedAt": "2022-02-27T12:07:53.183Z",
  "networkType": "ethereum",
  "devdoc": {
    "kind": "dev",
    "methods": {},
    "version": 1
  },
  "userdoc": {
    "kind": "user",
    "methods": {},
    "version": 1
  }
}