{
  "contractName": "NFTMarketplace",
  "abi": [
    {
      "inputs": [
        {
          "internalType": "address",
          "name": "_address",
          "type": "address"
        },
        {
          "internalType": "address",
          "name": "_lowbAddress",
          "type": "address"
        }
      ],
      "stateMutability": "nonpayable",
      "type": "constructor"
    },
    {
      "anonymous": false,
      "inputs": [
        {
          "indexed": false,
          "internalType": "address",
          "name": "from",
          "type": "address"
        },
        {
          "indexed": false,
          "internalType": "address",
          "name": "to",
          "type": "address"
        },
        {
          "indexed": false,
          "internalType": "uint256",
          "name": "tokenId",
          "type": "uint256"
        },
        {
          "indexed": false,
          "internalType": "uint256",
          "name": "price",
          "type": "uint256"
        }
      ],
      "name": "buyNFT",
      "type": "event"
    },
    {
      "anonymous": false,
      "inputs": [
        {
          "indexed": true,
          "internalType": "uint256",
          "name": "tokenId",
          "type": "uint256"
        },
        {
          "indexed": false,
          "internalType": "uint256",
          "name": "price",
          "type": "uint256"
        }
      ],
      "name": "saleNFT",
      "type": "event"
    },
    {
      "inputs": [
        {
          "internalType": "uint256",
          "name": "tokenId",
          "type": "uint256"
        },
        {
          "internalType": "uint256",
          "name": "price",
          "type": "uint256"
        }
      ],
      "name": "prepareForSale",
      "outputs": [],
      "stateMutability": "nonpayable",
      "type": "function"
    },
    {
      "inputs": [
        {
          "internalType": "address",
          "name": "from",
          "type": "address"
        },
        {
          "internalType": "uint256",
          "name": "tokenId",
          "type": "uint256"
        },
        {
          "internalType": "uint256",
          "name": "_price",
          "type": "uint256"
        }
      ],
      "name": "sellNFT",
      "outputs": [],
      "stateMutability": "nonpayable",
      "type": "function"
    }
  ],
  "bytecode": "0x608060405234801561001057600080fd5b506040516106a63803806106a6833981810160405281019061003291906100cf565b816000806101000a81548173ffffffffffffffffffffffffffffffffffffffff021916908373ffffffffffffffffffffffffffffffffffffffff16021790555080600160006101000a81548173ffffffffffffffffffffffffffffffffffffffff021916908373ffffffffffffffffffffffffffffffffffffffff1602179055505050610154565b6000815190506100c98161013d565b92915050565b600080604083850312156100e257600080fd5b60006100f0858286016100ba565b9250506020610101858286016100ba565b9150509250929050565b60006101168261011d565b9050919050565b600073ffffffffffffffffffffffffffffffffffffffff82169050919050565b6101468161010b565b811461015157600080fd5b50565b610543806101636000396000f3fe608060405234801561001057600080fd5b50600436106100365760003560e01c8063603cef0a1461003b578063f779a19314610057575b600080fd5b61005560048036038101906100509190610335565b610073565b005b610071600480360381019061006c91906102e6565b610190565b005b600073ffffffffffffffffffffffffffffffffffffffff163373ffffffffffffffffffffffffffffffffffffffff1614156100ad57600080fd5b80600260008481526020019081526020016000208190555060008054906101000a900473ffffffffffffffffffffffffffffffffffffffff1673ffffffffffffffffffffffffffffffffffffffff166323b872dd3330856040518463ffffffff1660e01b8152600401610122939291906103b2565b600060405180830381600087803b15801561013c57600080fd5b505af1158015610150573d6000803e3d6000fd5b50505050817f26d8fde2c4195ecd3a0a1b217c416fc77a2c2117e7198a174d99df6baf319eb382604051610184919061044e565b60405180910390a25050565b6000600260008481526020019081526020016000205490508181146101ea576040517f08c379a00000000000000000000000000000000000000000000000000000000081526004016101e19061042e565b60405180910390fd5b60008054906101000a900473ffffffffffffffffffffffffffffffffffffffff1673ffffffffffffffffffffffffffffffffffffffff166323b872dd3033866040518463ffffffff1660e01b8152600401610247939291906103b2565b600060405180830381600087803b15801561026157600080fd5b505af1158015610275573d6000803e3d6000fd5b505050507f03c13380276d9996793198ca83e4b57c613931da9d7fa4f26b766a0358c90eb4843385846040516102ae94939291906103e9565b60405180910390a150505050565b6000813590506102cb816104df565b92915050565b6000813590506102e0816104f6565b92915050565b6000806000606084860312156102fb57600080fd5b6000610309868287016102bc565b935050602061031a868287016102d1565b925050604061032b868287016102d1565b9150509250925092565b6000806040838503121561034857600080fd5b6000610356858286016102d1565b9250506020610367858286016102d1565b9150509250929050565b61037a8161047a565b82525050565b600061038d601683610469565b9150610398826104b6565b602082019050919050565b6103ac816104ac565b82525050565b60006060820190506103c76000830186610371565b6103d46020830185610371565b6103e160408301846103a3565b949350505050565b60006080820190506103fe6000830187610371565b61040b6020830186610371565b61041860408301856103a3565b61042560608301846103a3565b95945050505050565b6000602082019050818103600083015261044781610380565b9050919050565b600060208201905061046360008301846103a3565b92915050565b600082825260208201905092915050565b60006104858261048c565b9050919050565b600073ffffffffffffffffffffffffffffffffffffffff82169050919050565b6000819050919050565b7f54686520707269636520697320696e636f727265637400000000000000000000600082015250565b6104e88161047a565b81146104f357600080fd5b50565b6104ff816104ac565b811461050a57600080fd5b5056fea2646970667358221220a3730414c1857ee2c3af9275451a76183e4ca65c3c75f7ca375ca49989076e8064736f6c63430008030033",
  "immutableReferences": {},
  "source": "pragma solidity ^0.8.0;\r\n\r\nimport './NFTCollection.sol';\r\nimport \"@openzeppelin/contracts/token/ERC20/IERC20.sol\";\r\n\r\ncontract NFTMarketplace {\r\n  NFTCollection nftCollection;\r\n  IERC20 lowbToken;\r\n\r\n  mapping (uint256 => uint256) private listToken;\r\n\r\n  event saleNFT(uint indexed tokenId, uint256 price);\r\n  event buyNFT(address from, address to, uint256 tokenId, uint256 price);\r\n\r\n\r\n  constructor (address _address, address _lowbAddress) {\r\n    nftCollection = NFTCollection(_address);\r\n    lowbToken = IERC20(_lowbAddress);\r\n  }\r\n\r\n  function prepareForSale(uint256 tokenId, uint256 price) public {\r\n    require(msg.sender != address(0));\r\n    listToken[tokenId] = price;\r\n    nftCollection.transferFrom(msg.sender, address(this), tokenId);\r\n    emit saleNFT(tokenId, price);\r\n  }\r\n\r\n  function sellNFT(address from, uint256 tokenId, uint256 _price) public {\r\n    uint256 price = listToken[tokenId];\r\n    require(price == _price, \"The price is incorrect\");\r\n    nftCollection.transferFrom(address(this), msg.sender, tokenId);\r\n    emit buyNFT(from, msg.sender, tokenId, price);\r\n  }\r\n}",
  "sourcePath": "D:\\work\\lowb\\source\\LowbMarket\\contracts\\NFTCollection\\NFTMarketplace.sol",
  "compiler": {
    "name": "solc",
    "version": "0.8.3+commit.8d00100c.Emscripten.clang"
  },
  "schemaVersion": "3.4.4",
  "updatedAt": "2022-03-26T01:17:44.779Z",
  "networkType": "ethereum",
  "devdoc": {
    "kind": "dev",
    "methods": {},
    "version": 1
  },
  "userdoc": {
    "kind": "user",
    "methods": {},
    "version": 1
  }
}