{
  "contractName": "NFTMarketplace",
  "abi": [
    {
      "inputs": [
        {
          "internalType": "address",
          "name": "_address",
          "type": "address"
        }
      ],
      "stateMutability": "nonpayable",
      "type": "constructor"
    },
    {
      "anonymous": false,
      "inputs": [
        {
          "indexed": false,
          "internalType": "address",
          "name": "from",
          "type": "address"
        },
        {
          "indexed": false,
          "internalType": "address",
          "name": "to",
          "type": "address"
        },
        {
          "indexed": false,
          "internalType": "uint256",
          "name": "tokenId",
          "type": "uint256"
        },
        {
          "indexed": false,
          "internalType": "uint256",
          "name": "price",
          "type": "uint256"
        }
      ],
      "name": "buyNFT",
      "type": "event"
    },
    {
      "anonymous": false,
      "inputs": [
        {
          "indexed": true,
          "internalType": "uint256",
          "name": "tokenId",
          "type": "uint256"
        },
        {
          "indexed": false,
          "internalType": "uint256",
          "name": "price",
          "type": "uint256"
        }
      ],
      "name": "saleNFT",
      "type": "event"
    },
    {
      "stateMutability": "payable",
      "type": "receive",
      "payable": true
    },
    {
      "inputs": [
        {
          "internalType": "uint256",
          "name": "tokenId",
          "type": "uint256"
        },
        {
          "internalType": "uint256",
          "name": "price",
          "type": "uint256"
        }
      ],
      "name": "prepareForSale",
      "outputs": [],
      "stateMutability": "nonpayable",
      "type": "function"
    },
    {
      "inputs": [
        {
          "internalType": "uint256",
          "name": "tokenId",
          "type": "uint256"
        }
      ],
      "name": "sellNFT",
      "outputs": [],
      "stateMutability": "payable",
      "type": "function",
      "payable": true
    }
  ],
  "bytecode": "0x608060405234801561001057600080fd5b506040516107083803806107088339818101604052810190610032919061008d565b806000806101000a81548173ffffffffffffffffffffffffffffffffffffffff021916908373ffffffffffffffffffffffffffffffffffffffff160217905550506100ff565b600081519050610087816100e8565b92915050565b60006020828403121561009f57600080fd5b60006100ad84828501610078565b91505092915050565b60006100c1826100c8565b9050919050565b600073ffffffffffffffffffffffffffffffffffffffff82169050919050565b6100f1816100b6565b81146100fc57600080fd5b50565b6105fa8061010e6000396000f3fe60806040526004361061002d5760003560e01c8063603cef0a14610039578063ee9cdfb31461006257610034565b3661003457005b600080fd5b34801561004557600080fd5b50610060600480360381019061005b9190610403565b61007e565b005b61007c600480360381019061007791906103da565b6101ed565b005b600073ffffffffffffffffffffffffffffffffffffffff163373ffffffffffffffffffffffffffffffffffffffff1614156100b857600080fd5b806001600084815260200190815260200160002081905550336002600084815260200190815260200160002060006101000a81548173ffffffffffffffffffffffffffffffffffffffff021916908373ffffffffffffffffffffffffffffffffffffffff16021790555060008054906101000a900473ffffffffffffffffffffffffffffffffffffffff1673ffffffffffffffffffffffffffffffffffffffff166323b872dd3330856040518463ffffffff1660e01b815260040161017f93929190610480565b600060405180830381600087803b15801561019957600080fd5b505af11580156101ad573d6000803e3d6000fd5b50505050817f26d8fde2c4195ecd3a0a1b217c416fc77a2c2117e7198a174d99df6baf319eb3826040516101e1919061051c565b60405180910390a25050565b60006001600083815260200190815260200160002054905080341015610248576040517f08c379a000000000000000000000000000000000000000000000000000000000815260040161023f906104fc565b60405180910390fd5b60008054906101000a900473ffffffffffffffffffffffffffffffffffffffff1673ffffffffffffffffffffffffffffffffffffffff166323b872dd3033856040518463ffffffff1660e01b81526004016102a593929190610480565b600060405180830381600087803b1580156102bf57600080fd5b505af11580156102d3573d6000803e3d6000fd5b505050506002600083815260200190815260200160002060009054906101000a900473ffffffffffffffffffffffffffffffffffffffff1673ffffffffffffffffffffffffffffffffffffffff166108fc829081150290604051600060405180830381858888f19350505050158015610350573d6000803e3d6000fd5b507f03c13380276d9996793198ca83e4b57c613931da9d7fa4f26b766a0358c90eb46002600084815260200190815260200160002060009054906101000a900473ffffffffffffffffffffffffffffffffffffffff163384846040516103b994939291906104b7565b60405180910390a15050565b6000813590506103d4816105ad565b92915050565b6000602082840312156103ec57600080fd5b60006103fa848285016103c5565b91505092915050565b6000806040838503121561041657600080fd5b6000610424858286016103c5565b9250506020610435858286016103c5565b9150509250929050565b61044881610548565b82525050565b600061045b601083610537565b915061046682610584565b602082019050919050565b61047a8161057a565b82525050565b6000606082019050610495600083018661043f565b6104a2602083018561043f565b6104af6040830184610471565b949350505050565b60006080820190506104cc600083018761043f565b6104d9602083018661043f565b6104e66040830185610471565b6104f36060830184610471565b95945050505050565b600060208201905081810360008301526105158161044e565b9050919050565b60006020820190506105316000830184610471565b92915050565b600082825260208201905092915050565b60006105538261055a565b9050919050565b600073ffffffffffffffffffffffffffffffffffffffff82169050919050565b6000819050919050565b7f494e53554646494349454e5420424e4200000000000000000000000000000000600082015250565b6105b68161057a565b81146105c157600080fd5b5056fea26469706673582212207a6e7997a6922dd2f3e5ab5ca314bbd4badc9c51e45e7dcb3b41a92d1b6ec49064736f6c63430008030033",
  "immutableReferences": {},
  "source": "// SPDX-License-Identifier: MIT\r\npragma solidity ^0.8.0;\r\n\r\nimport './NFTCollection.sol';\r\nimport \"@openzeppelin/contracts/token/ERC20/IERC20.sol\";\r\n\r\ncontract NFTMarketplace {\r\n  NFTCollection nftCollection;\r\n\r\n  mapping (uint256 => uint256) private tokenPrice;\r\n  mapping (uint256 => address) private tokenSeller;\r\n\r\n  event saleNFT(uint indexed tokenId, uint256 price);\r\n  event buyNFT(address from, address to, uint256 tokenId, uint256 price);\r\n\r\n  receive() external payable {}\r\n\r\n\r\n  constructor (address _address) {\r\n    nftCollection = NFTCollection(_address);\r\n  }\r\n\r\n  function prepareForSale(uint256 tokenId, uint256 price) public {\r\n    require(msg.sender != address(0));\r\n    tokenPrice[tokenId] = price;\r\n    tokenSeller[tokenId] = msg.sender;\r\n    nftCollection.transferFrom(msg.sender, address(this), tokenId);\r\n    emit saleNFT(tokenId, price);\r\n  }\r\n\r\n  function sellNFT(uint256 tokenId) payable public {\r\n    uint256 price = tokenPrice[tokenId];\r\n    require(msg.value >= price, \"INSUFFICIENT BNB\"); \r\n    nftCollection.transferFrom(address(this), msg.sender, tokenId);\r\n    payable(tokenSeller[tokenId]).transfer(price);\r\n    emit buyNFT(tokenSeller[tokenId], msg.sender, tokenId, price);\r\n  }\r\n}\r\n",
  "sourcePath": "D:\\work\\lowb\\source\\LowbMarket\\contracts\\NFTCollection\\NFTMarketplace.sol",
  "compiler": {
    "name": "solc",
    "version": "0.8.3+commit.8d00100c.Emscripten.clang"
  },
  "schemaVersion": "3.4.4",
  "updatedAt": "2022-03-28T00:51:49.385Z",
  "networkType": "ethereum",
  "devdoc": {
    "kind": "dev",
    "methods": {},
    "version": 1
  },
  "userdoc": {
    "kind": "user",
    "methods": {},
    "version": 1
  }
}