{
  "contractName": "AirdropClaim",
  "abi": [
    {
      "inputs": [
        {
          "internalType": "address",
          "name": "airdropToken_",
          "type": "address"
        }
      ],
      "stateMutability": "nonpayable",
      "type": "constructor"
    },
    {
      "anonymous": false,
      "inputs": [
        {
          "indexed": false,
          "internalType": "uint256",
          "name": "claimId_",
          "type": "uint256"
        },
        {
          "indexed": false,
          "internalType": "address",
          "name": "add_",
          "type": "address"
        },
        {
          "indexed": false,
          "internalType": "uint256",
          "name": "amount_",
          "type": "uint256"
        }
      ],
      "name": "Claimed",
      "type": "event"
    },
    {
      "anonymous": false,
      "inputs": [
        {
          "indexed": true,
          "internalType": "address",
          "name": "previousOwner",
          "type": "address"
        },
        {
          "indexed": true,
          "internalType": "address",
          "name": "newOwner",
          "type": "address"
        }
      ],
      "name": "OwnershipTransferred",
      "type": "event"
    },
    {
      "inputs": [],
      "name": "airdropTokenAddress",
      "outputs": [
        {
          "internalType": "address",
          "name": "",
          "type": "address"
        }
      ],
      "stateMutability": "view",
      "type": "function",
      "constant": true
    },
    {
      "inputs": [],
      "name": "claimId",
      "outputs": [
        {
          "internalType": "uint256",
          "name": "",
          "type": "uint256"
        }
      ],
      "stateMutability": "view",
      "type": "function",
      "constant": true
    },
    {
      "inputs": [],
      "name": "owner",
      "outputs": [
        {
          "internalType": "address",
          "name": "",
          "type": "address"
        }
      ],
      "stateMutability": "view",
      "type": "function",
      "constant": true
    },
    {
      "inputs": [],
      "name": "renounceOwnership",
      "outputs": [],
      "stateMutability": "nonpayable",
      "type": "function"
    },
    {
      "inputs": [
        {
          "internalType": "address",
          "name": "newOwner",
          "type": "address"
        }
      ],
      "name": "transferOwnership",
      "outputs": [],
      "stateMutability": "nonpayable",
      "type": "function"
    },
    {
      "inputs": [
        {
          "internalType": "address",
          "name": "tokenAddress_",
          "type": "address"
        }
      ],
      "name": "pullFunds",
      "outputs": [],
      "stateMutability": "nonpayable",
      "type": "function"
    },
    {
      "inputs": [
        {
          "internalType": "address",
          "name": "airdropToken_",
          "type": "address"
        }
      ],
      "name": "setAirdropTokenAddress",
      "outputs": [],
      "stateMutability": "nonpayable",
      "type": "function"
    },
    {
      "inputs": [],
      "name": "claim",
      "outputs": [
        {
          "internalType": "bool",
          "name": "",
          "type": "bool"
        }
      ],
      "stateMutability": "nonpayable",
      "type": "function"
    }
  ],
  "bytecode": "0x608060405260006002553480156200001657600080fd5b50604051620011373803806200113783398181016040528101906200003c91906200018e565b60006200004e6200016f60201b60201c565b9050806000806101000a81548173ffffffffffffffffffffffffffffffffffffffff021916908373ffffffffffffffffffffffffffffffffffffffff1602179055508073ffffffffffffffffffffffffffffffffffffffff16600073ffffffffffffffffffffffffffffffffffffffff167f8be0079c531659141344cd1fd0a4f28419497f9722a3daafe3b4186f6b6457e060405160405180910390a350600073ffffffffffffffffffffffffffffffffffffffff168173ffffffffffffffffffffffffffffffffffffffff1614156200012757600080fd5b80600160006101000a81548173ffffffffffffffffffffffffffffffffffffffff021916908373ffffffffffffffffffffffffffffffffffffffff1602179055505062000208565b600033905090565b6000815190506200018881620001ee565b92915050565b600060208284031215620001a157600080fd5b6000620001b18482850162000177565b91505092915050565b6000620001c782620001ce565b9050919050565b600073ffffffffffffffffffffffffffffffffffffffff82169050919050565b620001f981620001ba565b81146200020557600080fd5b50565b610f1f80620002186000396000f3fe608060405234801561001057600080fd5b50600436106100885760003560e01c80638da5cb5b1161005b5780638da5cb5b146100ef578063b73e0e8b1461010d578063b864ba7d1461012b578063f2fde38b1461014757610088565b80634e71d92d1461008d5780635c25fd13146100ab5780635d5a92fb146100c9578063715018a6146100e5575b600080fd5b610095610163565b6040516100a29190610cb0565b60405180910390f35b6100b3610352565b6040516100c09190610d4b565b60405180910390f35b6100e360048036038101906100de9190610a66565b610358565b005b6100ed61059c565b005b6100f76106ef565b6040516101049190610c43565b60405180910390f35b610115610718565b6040516101229190610c43565b60405180910390f35b61014560048036038101906101409190610a66565b61073e565b005b610161600480360381019061015c9190610a66565b610851565b005b60008073ffffffffffffffffffffffffffffffffffffffff16600160009054906101000a900473ffffffffffffffffffffffffffffffffffffffff1673ffffffffffffffffffffffffffffffffffffffff1614156101f6576040517f08c379a00000000000000000000000000000000000000000000000000000000081526004016101ed90610d2b565b60405180910390fd5b600069021e19e0c9bab240000090506000600160009054906101000a900473ffffffffffffffffffffffffffffffffffffffff1690508073ffffffffffffffffffffffffffffffffffffffff1663a9059cbb33846040518363ffffffff1660e01b8152600401610267929190610c87565b602060405180830381600087803b15801561028157600080fd5b505af1158015610295573d6000803e3d6000fd5b505050506040513d601f19601f820116820180604052508101906102b99190610a8f565b6102f8576040517f08c379a00000000000000000000000000000000000000000000000000000000081526004016102ef90610ceb565b60405180910390fd5b7f4ec90e965519d92681267467f775ada5bd214aa92c0dc93d90a5e880ce9ed0266002600081548092919061032c90610e2c565b91905055338460405161034193929190610d66565b60405180910390a160019250505090565b60025481565b6103606108f2565b73ffffffffffffffffffffffffffffffffffffffff1660008054906101000a900473ffffffffffffffffffffffffffffffffffffffff1673ffffffffffffffffffffffffffffffffffffffff16146103ed576040517f08c379a00000000000000000000000000000000000000000000000000000000081526004016103e490610d0b565b60405180910390fd5b600073ffffffffffffffffffffffffffffffffffffffff168173ffffffffffffffffffffffffffffffffffffffff1614156104755761042a6108f2565b73ffffffffffffffffffffffffffffffffffffffff166108fc479081150290604051600060405180830381858888f1935050505015801561046f573d6000803e3d6000fd5b50610599565b60008190508073ffffffffffffffffffffffffffffffffffffffff1663a9059cbb61049e6108f2565b8373ffffffffffffffffffffffffffffffffffffffff166370a08231306040518263ffffffff1660e01b81526004016104d79190610c43565b60206040518083038186803b1580156104ef57600080fd5b505afa158015610503573d6000803e3d6000fd5b505050506040513d601f19601f820116820180604052508101906105279190610ab8565b6040518363ffffffff1660e01b8152600401610544929190610c5e565b602060405180830381600087803b15801561055e57600080fd5b505af1158015610572573d6000803e3d6000fd5b505050506040513d601f19601f820116820180604052508101906105969190610a8f565b50505b50565b6105a46108f2565b73ffffffffffffffffffffffffffffffffffffffff1660008054906101000a900473ffffffffffffffffffffffffffffffffffffffff1673ffffffffffffffffffffffffffffffffffffffff1614610631576040517f08c379a000000000000000000000000000000000000000000000000000000000815260040161062890610d0b565b60405180910390fd5b600073ffffffffffffffffffffffffffffffffffffffff1660008054906101000a900473ffffffffffffffffffffffffffffffffffffffff1673ffffffffffffffffffffffffffffffffffffffff167f8be0079c531659141344cd1fd0a4f28419497f9722a3daafe3b4186f6b6457e060405160405180910390a360008060006101000a81548173ffffffffffffffffffffffffffffffffffffffff021916908373ffffffffffffffffffffffffffffffffffffffff160217905550565b60008060009054906101000a900473ffffffffffffffffffffffffffffffffffffffff16905090565b600160009054906101000a900473ffffffffffffffffffffffffffffffffffffffff1681565b6107466108f2565b73ffffffffffffffffffffffffffffffffffffffff1660008054906101000a900473ffffffffffffffffffffffffffffffffffffffff1673ffffffffffffffffffffffffffffffffffffffff16146107d3576040517f08c379a00000000000000000000000000000000000000000000000000000000081526004016107ca90610d0b565b60405180910390fd5b600073ffffffffffffffffffffffffffffffffffffffff168173ffffffffffffffffffffffffffffffffffffffff16141561080d57600080fd5b80600160006101000a81548173ffffffffffffffffffffffffffffffffffffffff021916908373ffffffffffffffffffffffffffffffffffffffff16021790555050565b6108596108f2565b73ffffffffffffffffffffffffffffffffffffffff1660008054906101000a900473ffffffffffffffffffffffffffffffffffffffff1673ffffffffffffffffffffffffffffffffffffffff16146108e6576040517f08c379a00000000000000000000000000000000000000000000000000000000081526004016108dd90610d0b565b60405180910390fd5b6108ef816108fa565b50565b600033905090565b600073ffffffffffffffffffffffffffffffffffffffff168173ffffffffffffffffffffffffffffffffffffffff16141561096a576040517f08c379a000000000000000000000000000000000000000000000000000000000815260040161096190610ccb565b60405180910390fd5b8073ffffffffffffffffffffffffffffffffffffffff1660008054906101000a900473ffffffffffffffffffffffffffffffffffffffff1673ffffffffffffffffffffffffffffffffffffffff167f8be0079c531659141344cd1fd0a4f28419497f9722a3daafe3b4186f6b6457e060405160405180910390a3806000806101000a81548173ffffffffffffffffffffffffffffffffffffffff021916908373ffffffffffffffffffffffffffffffffffffffff16021790555050565b600081359050610a3681610ea4565b92915050565b600081519050610a4b81610ebb565b92915050565b600081519050610a6081610ed2565b92915050565b600060208284031215610a7857600080fd5b6000610a8684828501610a27565b91505092915050565b600060208284031215610aa157600080fd5b6000610aaf84828501610a3c565b91505092915050565b600060208284031215610aca57600080fd5b6000610ad884828501610a51565b91505092915050565b610aea81610df6565b82525050565b610af981610dae565b82525050565b610b0881610dc0565b82525050565b6000610b1b602683610d9d565b91507f4f776e61626c653a206e6577206f776e657220697320746865207a65726f206160008301527f64647265737300000000000000000000000000000000000000000000000000006020830152604082019050919050565b6000610b81601583610d9d565b91507f546f6b656e207472616e73666572206661696c656400000000000000000000006000830152602082019050919050565b6000610bc1602083610d9d565b91507f4f776e61626c653a2063616c6c6572206973206e6f7420746865206f776e65726000830152602082019050919050565b6000610c01601c83610d9d565b91507f54686520746f6b656e206f662061697264726f70206973206e756c6c000000006000830152602082019050919050565b610c3d81610dec565b82525050565b6000602082019050610c586000830184610af0565b92915050565b6000604082019050610c736000830185610ae1565b610c806020830184610c34565b9392505050565b6000604082019050610c9c6000830185610af0565b610ca96020830184610c34565b9392505050565b6000602082019050610cc56000830184610aff565b92915050565b60006020820190508181036000830152610ce481610b0e565b9050919050565b60006020820190508181036000830152610d0481610b74565b9050919050565b60006020820190508181036000830152610d2481610bb4565b9050919050565b60006020820190508181036000830152610d4481610bf4565b9050919050565b6000602082019050610d606000830184610c34565b92915050565b6000606082019050610d7b6000830186610c34565b610d886020830185610af0565b610d956040830184610c34565b949350505050565b600082825260208201905092915050565b6000610db982610dcc565b9050919050565b60008115159050919050565b600073ffffffffffffffffffffffffffffffffffffffff82169050919050565b6000819050919050565b6000610e0182610e08565b9050919050565b6000610e1382610e1a565b9050919050565b6000610e2582610dcc565b9050919050565b6000610e3782610dec565b91507fffffffffffffffffffffffffffffffffffffffffffffffffffffffffffffffff821415610e6a57610e69610e75565b5b600182019050919050565b7f4e487b7100000000000000000000000000000000000000000000000000000000600052601160045260246000fd5b610ead81610dae565b8114610eb857600080fd5b50565b610ec481610dc0565b8114610ecf57600080fd5b50565b610edb81610dec565b8114610ee657600080fd5b5056fea264697066735822122094f38c4f5760a7d9d9137ece3f827bc9c8143bc476a50eecfffbd4c0d2ee56b564736f6c63430008000033",
  "immutableReferences": {},
  "source": "// SPDX-License-Identifier: MIT\r\n\r\npragma solidity ^0.8.0;\r\n\r\nimport \"./Ownable.sol\";\r\nimport \"./IBEP20.sol\";\r\n\r\n\r\ncontract AirdropClaim is Ownable {\r\n\r\n    address public airdropTokenAddress;\r\n\r\n    uint public claimId = 0;\r\n    event Claimed(uint claimId_, address add_, uint amount_);\r\n\r\n    constructor(address airdropToken_) {\r\n        require(airdropToken_ != address(0));\r\n        airdropTokenAddress = airdropToken_;\r\n    }\r\n\r\n    /*\r\n     * @dev Pull out all balance of token or BNB in this contract. When tokenAddress_ is 0x0, will transfer all BNB to the admin owner.\r\n     */\r\n    function pullFunds(address tokenAddress_) onlyOwner public {\r\n        if (tokenAddress_ == address(0)) {\r\n            _msgSender().transfer(address(this).balance);\r\n        } else {\r\n            IBEP20 token = IBEP20(tokenAddress_);\r\n            token.transfer(_msgSender(), token.balanceOf(address(this)));\r\n        }\r\n    }\r\n\r\n    function setAirdropTokenAddress(address airdropToken_) onlyOwner public {\r\n        require(airdropToken_ != address(0));\r\n        airdropTokenAddress = airdropToken_;\r\n    }\r\n\r\n    function claim() public returns (bool) {\r\n        require(airdropTokenAddress != address(0), \"The token of airdrop is null\");\r\n\r\n        uint amount = 10000*10**18;\r\n\r\n        IBEP20 token = IBEP20(airdropTokenAddress);\r\n        require(token.transfer(msg.sender, amount), \"Token transfer failed\");\r\n\r\n        emit Claimed(claimId++, msg.sender, amount);\r\n\r\n        return true;\r\n    }\r\n}\r\n",
  "sourcePath": "C:/Users/Weixuan/Documents/truffle/AirdropClaim/contracts/AirdropClaim.sol",
  "compiler": {
    "name": "solc",
    "version": "0.8.0+commit.c7dfd78e.Emscripten.clang"
  },
  "schemaVersion": "3.4.0",
  "updatedAt": "2021-05-24T07:13:59.594Z",
  "networkType": "ethereum",
  "devdoc": {
    "kind": "dev",
    "methods": {
      "owner()": {
        "details": "Returns the address of the current owner."
      },
      "renounceOwnership()": {
        "details": "Leaves the contract without owner. It will not be possible to call `onlyOwner` functions anymore. Can only be called by the current owner. NOTE: Renouncing ownership will leave the contract without an owner, thereby removing any functionality that is only available to the owner."
      },
      "transferOwnership(address)": {
        "details": "Transfers ownership of the contract to a new account (`newOwner`). Can only be called by the current owner."
      }
    },
    "version": 1
  },
  "userdoc": {
    "kind": "user",
    "methods": {},
    "version": 1
  }
}