{
  "contractName": "Creature",
  "abi": [
    {
      "inputs": [
        {
          "internalType": "string",
          "name": "_name",
          "type": "string"
        },
        {
          "internalType": "string",
          "name": "_symbol",
          "type": "string"
        },
        {
          "internalType": "address",
          "name": "_proxyRegistryAddress",
          "type": "address"
        },
        {
          "internalType": "address",
          "name": "childChainManager",
          "type": "address"
        }
      ],
      "stateMutability": "nonpayable",
      "type": "constructor"
    },
    {
      "anonymous": false,
      "inputs": [
        {
          "indexed": true,
          "internalType": "address",
          "name": "owner",
          "type": "address"
        },
        {
          "indexed": true,
          "internalType": "address",
          "name": "approved",
          "type": "address"
        },
        {
          "indexed": true,
          "internalType": "uint256",
          "name": "tokenId",
          "type": "uint256"
        }
      ],
      "name": "Approval",
      "type": "event"
    },
    {
      "anonymous": false,
      "inputs": [
        {
          "indexed": true,
          "internalType": "address",
          "name": "owner",
          "type": "address"
        },
        {
          "indexed": true,
          "internalType": "address",
          "name": "operator",
          "type": "address"
        },
        {
          "indexed": false,
          "internalType": "bool",
          "name": "approved",
          "type": "bool"
        }
      ],
      "name": "ApprovalForAll",
      "type": "event"
    },
    {
      "anonymous": false,
      "inputs": [
        {
          "indexed": false,
          "internalType": "address",
          "name": "userAddress",
          "type": "address"
        },
        {
          "indexed": false,
          "internalType": "address payable",
          "name": "relayerAddress",
          "type": "address"
        },
        {
          "indexed": false,
          "internalType": "bytes",
          "name": "functionSignature",
          "type": "bytes"
        }
      ],
      "name": "MetaTransactionExecuted",
      "type": "event"
    },
    {
      "anonymous": false,
      "inputs": [
        {
          "indexed": true,
          "internalType": "address",
          "name": "previousOwner",
          "type": "address"
        },
        {
          "indexed": true,
          "internalType": "address",
          "name": "newOwner",
          "type": "address"
        }
      ],
      "name": "OwnershipTransferred",
      "type": "event"
    },
    {
      "anonymous": false,
      "inputs": [
        {
          "indexed": true,
          "internalType": "bytes32",
          "name": "role",
          "type": "bytes32"
        },
        {
          "indexed": true,
          "internalType": "bytes32",
          "name": "previousAdminRole",
          "type": "bytes32"
        },
        {
          "indexed": true,
          "internalType": "bytes32",
          "name": "newAdminRole",
          "type": "bytes32"
        }
      ],
      "name": "RoleAdminChanged",
      "type": "event"
    },
    {
      "anonymous": false,
      "inputs": [
        {
          "indexed": true,
          "internalType": "bytes32",
          "name": "role",
          "type": "bytes32"
        },
        {
          "indexed": true,
          "internalType": "address",
          "name": "account",
          "type": "address"
        },
        {
          "indexed": true,
          "internalType": "address",
          "name": "sender",
          "type": "address"
        }
      ],
      "name": "RoleGranted",
      "type": "event"
    },
    {
      "anonymous": false,
      "inputs": [
        {
          "indexed": true,
          "internalType": "bytes32",
          "name": "role",
          "type": "bytes32"
        },
        {
          "indexed": true,
          "internalType": "address",
          "name": "account",
          "type": "address"
        },
        {
          "indexed": true,
          "internalType": "address",
          "name": "sender",
          "type": "address"
        }
      ],
      "name": "RoleRevoked",
      "type": "event"
    },
    {
      "anonymous": false,
      "inputs": [
        {
          "indexed": true,
          "internalType": "address",
          "name": "from",
          "type": "address"
        },
        {
          "indexed": true,
          "internalType": "address",
          "name": "to",
          "type": "address"
        },
        {
          "indexed": true,
          "internalType": "uint256",
          "name": "tokenId",
          "type": "uint256"
        }
      ],
      "name": "Transfer",
      "type": "event"
    },
    {
      "anonymous": false,
      "inputs": [
        {
          "indexed": true,
          "internalType": "address",
          "name": "from",
          "type": "address"
        },
        {
          "indexed": true,
          "internalType": "address",
          "name": "to",
          "type": "address"
        },
        {
          "indexed": true,
          "internalType": "uint256",
          "name": "tokenId",
          "type": "uint256"
        },
        {
          "indexed": false,
          "internalType": "bytes",
          "name": "metaData",
          "type": "bytes"
        }
      ],
      "name": "TransferWithMetadata",
      "type": "event"
    },
    {
      "anonymous": false,
      "inputs": [
        {
          "indexed": true,
          "internalType": "address",
          "name": "user",
          "type": "address"
        },
        {
          "indexed": false,
          "internalType": "uint256[]",
          "name": "tokenIds",
          "type": "uint256[]"
        }
      ],
      "name": "WithdrawnBatch",
      "type": "event"
    },
    {
      "inputs": [],
      "name": "BATCH_LIMIT",
      "outputs": [
        {
          "internalType": "uint256",
          "name": "",
          "type": "uint256"
        }
      ],
      "stateMutability": "view",
      "type": "function"
    },
    {
      "inputs": [],
      "name": "DEFAULT_ADMIN_ROLE",
      "outputs": [
        {
          "internalType": "bytes32",
          "name": "",
          "type": "bytes32"
        }
      ],
      "stateMutability": "view",
      "type": "function"
    },
    {
      "inputs": [],
      "name": "DEPOSITOR_ROLE",
      "outputs": [
        {
          "internalType": "bytes32",
          "name": "",
          "type": "bytes32"
        }
      ],
      "stateMutability": "view",
      "type": "function"
    },
    {
      "inputs": [],
      "name": "ERC712_VERSION",
      "outputs": [
        {
          "internalType": "string",
          "name": "",
          "type": "string"
        }
      ],
      "stateMutability": "view",
      "type": "function"
    },
    {
      "inputs": [],
      "name": "RENT_ROLE",
      "outputs": [
        {
          "internalType": "bytes32",
          "name": "",
          "type": "bytes32"
        }
      ],
      "stateMutability": "view",
      "type": "function"
    },
    {
      "inputs": [
        {
          "internalType": "address",
          "name": "to",
          "type": "address"
        },
        {
          "internalType": "uint256",
          "name": "tokenId",
          "type": "uint256"
        }
      ],
      "name": "approve",
      "outputs": [],
      "stateMutability": "nonpayable",
      "type": "function"
    },
    {
      "inputs": [
        {
          "internalType": "address",
          "name": "owner",
          "type": "address"
        }
      ],
      "name": "balanceOf",
      "outputs": [
        {
          "internalType": "uint256",
          "name": "",
          "type": "uint256"
        }
      ],
      "stateMutability": "view",
      "type": "function"
    },
    {
      "inputs": [
        {
          "internalType": "address",
          "name": "user",
          "type": "address"
        },
        {
          "internalType": "bytes",
          "name": "depositData",
          "type": "bytes"
        }
      ],
      "name": "deposit",
      "outputs": [],
      "stateMutability": "nonpayable",
      "type": "function"
    },
    {
      "inputs": [
        {
          "internalType": "uint256",
          "name": "tokenId",
          "type": "uint256"
        }
      ],
      "name": "encodeTokenMetadata",
      "outputs": [
        {
          "internalType": "bytes",
          "name": "",
          "type": "bytes"
        }
      ],
      "stateMutability": "view",
      "type": "function"
    },
    {
      "inputs": [
        {
          "internalType": "address",
          "name": "userAddress",
          "type": "address"
        },
        {
          "internalType": "bytes",
          "name": "functionSignature",
          "type": "bytes"
        },
        {
          "internalType": "bytes32",
          "name": "sigR",
          "type": "bytes32"
        },
        {
          "internalType": "bytes32",
          "name": "sigS",
          "type": "bytes32"
        },
        {
          "internalType": "uint8",
          "name": "sigV",
          "type": "uint8"
        }
      ],
      "name": "executeMetaTransaction",
      "outputs": [
        {
          "internalType": "bytes",
          "name": "",
          "type": "bytes"
        }
      ],
      "stateMutability": "payable",
      "type": "function"
    },
    {
      "inputs": [
        {
          "internalType": "uint256",
          "name": "tokenId",
          "type": "uint256"
        }
      ],
      "name": "getApproved",
      "outputs": [
        {
          "internalType": "address",
          "name": "",
          "type": "address"
        }
      ],
      "stateMutability": "view",
      "type": "function"
    },
    {
      "inputs": [],
      "name": "getChainId",
      "outputs": [
        {
          "internalType": "uint256",
          "name": "",
          "type": "uint256"
        }
      ],
      "stateMutability": "view",
      "type": "function"
    },
    {
      "inputs": [],
      "name": "getDomainSeperator",
      "outputs": [
        {
          "internalType": "bytes32",
          "name": "",
          "type": "bytes32"
        }
      ],
      "stateMutability": "view",
      "type": "function"
    },
    {
      "inputs": [
        {
          "internalType": "address",
          "name": "user",
          "type": "address"
        }
      ],
      "name": "getNonce",
      "outputs": [
        {
          "internalType": "uint256",
          "name": "nonce",
          "type": "uint256"
        }
      ],
      "stateMutability": "view",
      "type": "function"
    },
    {
      "inputs": [
        {
          "internalType": "bytes32",
          "name": "role",
          "type": "bytes32"
        }
      ],
      "name": "getRoleAdmin",
      "outputs": [
        {
          "internalType": "bytes32",
          "name": "",
          "type": "bytes32"
        }
      ],
      "stateMutability": "view",
      "type": "function"
    },
    {
      "inputs": [
        {
          "internalType": "bytes32",
          "name": "role",
          "type": "bytes32"
        },
        {
          "internalType": "address",
          "name": "account",
          "type": "address"
        }
      ],
      "name": "grantRole",
      "outputs": [],
      "stateMutability": "nonpayable",
      "type": "function"
    },
    {
      "inputs": [
        {
          "internalType": "bytes32",
          "name": "role",
          "type": "bytes32"
        },
        {
          "internalType": "address",
          "name": "account",
          "type": "address"
        }
      ],
      "name": "hasRole",
      "outputs": [
        {
          "internalType": "bool",
          "name": "",
          "type": "bool"
        }
      ],
      "stateMutability": "view",
      "type": "function"
    },
    {
      "inputs": [
        {
          "internalType": "uint256",
          "name": "tokenId",
          "type": "uint256"
        }
      ],
      "name": "holderOf",
      "outputs": [
        {
          "internalType": "address",
          "name": "",
          "type": "address"
        }
      ],
      "stateMutability": "view",
      "type": "function"
    },
    {
      "inputs": [
        {
          "internalType": "address",
          "name": "owner",
          "type": "address"
        },
        {
          "internalType": "address",
          "name": "operator",
          "type": "address"
        }
      ],
      "name": "isApprovedForAll",
      "outputs": [
        {
          "internalType": "bool",
          "name": "",
          "type": "bool"
        }
      ],
      "stateMutability": "view",
      "type": "function"
    },
    {
      "inputs": [
        {
          "internalType": "address",
          "name": "_to",
          "type": "address"
        }
      ],
      "name": "mintTo",
      "outputs": [],
      "stateMutability": "nonpayable",
      "type": "function"
    },
    {
      "inputs": [],
      "name": "name",
      "outputs": [
        {
          "internalType": "string",
          "name": "",
          "type": "string"
        }
      ],
      "stateMutability": "view",
      "type": "function"
    },
    {
      "inputs": [],
      "name": "owner",
      "outputs": [
        {
          "internalType": "address",
          "name": "",
          "type": "address"
        }
      ],
      "stateMutability": "view",
      "type": "function"
    },
    {
      "inputs": [
        {
          "internalType": "uint256",
          "name": "tokenId",
          "type": "uint256"
        }
      ],
      "name": "ownerOf",
      "outputs": [
        {
          "internalType": "address",
          "name": "",
          "type": "address"
        }
      ],
      "stateMutability": "view",
      "type": "function"
    },
    {
      "inputs": [],
      "name": "renounceOwnership",
      "outputs": [],
      "stateMutability": "nonpayable",
      "type": "function"
    },
    {
      "inputs": [
        {
          "internalType": "bytes32",
          "name": "role",
          "type": "bytes32"
        },
        {
          "internalType": "address",
          "name": "account",
          "type": "address"
        }
      ],
      "name": "renounceRole",
      "outputs": [],
      "stateMutability": "nonpayable",
      "type": "function"
    },
    {
      "inputs": [
        {
          "internalType": "bytes32",
          "name": "role",
          "type": "bytes32"
        },
        {
          "internalType": "address",
          "name": "account",
          "type": "address"
        }
      ],
      "name": "revokeRole",
      "outputs": [],
      "stateMutability": "nonpayable",
      "type": "function"
    },
    {
      "inputs": [
        {
          "internalType": "address",
          "name": "from",
          "type": "address"
        },
        {
          "internalType": "address",
          "name": "to",
          "type": "address"
        },
        {
          "internalType": "uint256",
          "name": "tokenId",
          "type": "uint256"
        }
      ],
      "name": "safeTransferFrom",
      "outputs": [],
      "stateMutability": "nonpayable",
      "type": "function"
    },
    {
      "inputs": [
        {
          "internalType": "address",
          "name": "from",
          "type": "address"
        },
        {
          "internalType": "address",
          "name": "to",
          "type": "address"
        },
        {
          "internalType": "uint256",
          "name": "tokenId",
          "type": "uint256"
        },
        {
          "internalType": "bytes",
          "name": "_data",
          "type": "bytes"
        }
      ],
      "name": "safeTransferFrom",
      "outputs": [],
      "stateMutability": "nonpayable",
      "type": "function"
    },
    {
      "inputs": [
        {
          "internalType": "address",
          "name": "operator",
          "type": "address"
        },
        {
          "internalType": "bool",
          "name": "approved",
          "type": "bool"
        }
      ],
      "name": "setApprovalForAll",
      "outputs": [],
      "stateMutability": "nonpayable",
      "type": "function"
    },
    {
      "inputs": [
        {
          "internalType": "uint256",
          "name": "tokenId",
          "type": "uint256"
        },
        {
          "internalType": "address",
          "name": "newHolder",
          "type": "address"
        },
        {
          "internalType": "uint256",
          "name": "rentDay",
          "type": "uint256"
        }
      ],
      "name": "setHolder",
      "outputs": [],
      "stateMutability": "nonpayable",
      "type": "function"
    },
    {
      "inputs": [
        {
          "internalType": "uint256",
          "name": "tokenId",
          "type": "uint256"
        },
        {
          "internalType": "string",
          "name": "uri",
          "type": "string"
        }
      ],
      "name": "setTokenURI",
      "outputs": [],
      "stateMutability": "nonpayable",
      "type": "function"
    },
    {
      "inputs": [
        {
          "internalType": "bytes4",
          "name": "interfaceId",
          "type": "bytes4"
        }
      ],
      "name": "supportsInterface",
      "outputs": [
        {
          "internalType": "bool",
          "name": "",
          "type": "bool"
        }
      ],
      "stateMutability": "view",
      "type": "function"
    },
    {
      "inputs": [],
      "name": "symbol",
      "outputs": [
        {
          "internalType": "string",
          "name": "",
          "type": "string"
        }
      ],
      "stateMutability": "view",
      "type": "function"
    },
    {
      "inputs": [
        {
          "internalType": "uint256",
          "name": "index",
          "type": "uint256"
        }
      ],
      "name": "tokenByIndex",
      "outputs": [
        {
          "internalType": "uint256",
          "name": "",
          "type": "uint256"
        }
      ],
      "stateMutability": "view",
      "type": "function"
    },
    {
      "inputs": [
        {
          "internalType": "address",
          "name": "owner",
          "type": "address"
        },
        {
          "internalType": "uint256",
          "name": "index",
          "type": "uint256"
        }
      ],
      "name": "tokenOfOwnerByIndex",
      "outputs": [
        {
          "internalType": "uint256",
          "name": "",
          "type": "uint256"
        }
      ],
      "stateMutability": "view",
      "type": "function"
    },
    {
      "inputs": [
        {
          "internalType": "uint256",
          "name": "_tokenId",
          "type": "uint256"
        }
      ],
      "name": "tokenURI",
      "outputs": [
        {
          "internalType": "string",
          "name": "",
          "type": "string"
        }
      ],
      "stateMutability": "view",
      "type": "function"
    },
    {
      "inputs": [],
      "name": "totalSupply",
      "outputs": [
        {
          "internalType": "uint256",
          "name": "",
          "type": "uint256"
        }
      ],
      "stateMutability": "view",
      "type": "function"
    },
    {
      "inputs": [
        {
          "internalType": "address",
          "name": "from",
          "type": "address"
        },
        {
          "internalType": "address",
          "name": "to",
          "type": "address"
        },
        {
          "internalType": "uint256",
          "name": "tokenId",
          "type": "uint256"
        }
      ],
      "name": "transferFrom",
      "outputs": [],
      "stateMutability": "nonpayable",
      "type": "function"
    },
    {
      "inputs": [
        {
          "internalType": "address",
          "name": "newOwner",
          "type": "address"
        }
      ],
      "name": "transferOwnership",
      "outputs": [],
      "stateMutability": "nonpayable",
      "type": "function"
    },
    {
      "inputs": [
        {
          "internalType": "uint256",
          "name": "tokenId",
          "type": "uint256"
        }
      ],
      "name": "withdraw",
      "outputs": [],
      "stateMutability": "nonpayable",
      "type": "function"
    },
    {
      "inputs": [
        {
          "internalType": "uint256[]",
          "name": "tokenIds",
          "type": "uint256[]"
        }
      ],
      "name": "withdrawBatch",
      "outputs": [],
      "stateMutability": "nonpayable",
      "type": "function"
    },
    {
      "inputs": [
        {
          "internalType": "uint256",
          "name": "tokenId",
          "type": "uint256"
        }
      ],
      "name": "withdrawWithMetadata",
      "outputs": [],
      "stateMutability": "nonpayable",
      "type": "function"
    },
    {
      "inputs": [
        {
          "internalType": "uint256",
          "name": "",
          "type": "uint256"
        }
      ],
      "name": "withdrawnTokens",
      "outputs": [
        {
          "internalType": "bool",
          "name": "",
          "type": "bool"
        }
      ],
      "stateMutability": "view",
      "type": "function"
    },
    {
      "inputs": [],
      "name": "baseTokenURI",
      "outputs": [
        {
          "internalType": "string",
          "name": "",
          "type": "string"
        }
      ],
      "stateMutability": "pure",
      "type": "function"
    },
    {
      "inputs": [],
      "name": "contractURI",
      "outputs": [
        {
          "internalType": "string",
          "name": "",
          "type": "string"
        }
      ],
      "stateMutability": "pure",
      "type": "function"
    }
  ],
  "bytecode": "0x6080604052600c805460ff1916905560006015553480156200002057600080fd5b50604051620040c3380380620040c383398101604081905262000043916200054e565b83838383838381600290805190602001906200006192919062000402565b5080516200007790600390602084019062000402565b505050620000946200008e6200014960201b60201c565b62000166565b60408051808201909152601381527f4368696c644d696e7461626c65455243373231000000000000000000000000006020820152620000d390620001b8565b601480546001600160a01b0319166001600160a01b038416179055620001046000620000fe62000149565b620001f5565b620001307f8f4f2da22e8ac8f11e15f9fc141cddbb5deea8800186560abb6e68c5496619a982620001f5565b6200013b8462000201565b5050505050505050620006f7565b6000620001606200024b60201b6200181f1760201c565b90505b90565b600f80546001600160a01b038381166001600160a01b0319831681179093556040519116919082907f8be0079c531659141344cd1fd0a4f28419497f9722a3daafe3b4186f6b6457e090600090a35050565b80604051602001620001cb9190620005da565b60405160208183030381529060405260019080519060200190620001f192919062000402565b5050565b620001f18282620002a9565b600c5460ff1615620002305760405162461bcd60e51b8152600401620002279062000649565b60405180910390fd5b6200023b8162000333565b50600c805460ff19166001179055565b600033301415620002a457600080368080601f0160208091040260200160405190810160405280939291908181526020018383808284376000920191909152505050503601516001600160a01b03169150620001639050565b503390565b620002b58282620003d5565b620001f1576000828152602081815260408083206001600160a01b03851684529091529020805460ff19166001179055620002ef62000149565b6001600160a01b0316816001600160a01b0316837f2f8788117e7eff1d82e926ec794901d17c78024a50270940304540a733656f0d60405160405180910390a45050565b6040518060800160405280604f815260200162004074604f913980516020918201208251838301206040805180820190915260018152603160f81b930192909252907fc89efdaa54c0f20c7adf612882df0950f5a951637e0307cdcb4c672f298b8bc630620003a1620003fe565b604051620003b79594939291906020016200061d565b60408051601f198184030181529190528051602090910120600d5550565b6000918252602082815260408084206001600160a01b0393909316845291905290205460ff1690565b4690565b8280546200041090620006a4565b90600052602060002090601f0160209004810192826200043457600085556200047f565b82601f106200044f57805160ff19168380011785556200047f565b828001600101855582156200047f579182015b828111156200047f57825182559160200191906001019062000462565b506200048d92915062000491565b5090565b5b808211156200048d576000815560010162000492565b80516001600160a01b0381168114620004c057600080fd5b919050565b600082601f830112620004d6578081fd5b81516001600160401b0380821115620004f357620004f3620006e1565b604051601f8301601f1916810160200182811182821017156200051a576200051a620006e1565b60405282815284830160200186101562000532578384fd5b6200054583602083016020880162000671565b95945050505050565b6000806000806080858703121562000564578384fd5b84516001600160401b03808211156200057b578586fd5b6200058988838901620004c5565b955060208701519150808211156200059f578485fd5b50620005ae87828801620004c5565b935050620005bf60408601620004a8565b9150620005cf60608601620004a8565b905092959194509250565b60008251620005ee81846020870162000671565b7f3a20494e53554646494349454e545f5045524d495353494f4e53000000000000920191825250601a01919050565b948552602085019390935260408401919091526001600160a01b03166060830152608082015260a00190565b6020808252600e908201526d185b1c9958591e481a5b9a5d195960921b604082015260600190565b60005b838110156200068e57818101518382015260200162000674565b838111156200069e576000848401525b50505050565b600281046001821680620006b957607f821691505b60208210811415620006db57634e487b7160e01b600052602260045260246000fd5b50919050565b634e487b7160e01b600052604160045260246000fd5b61396d80620007076000396000f3fe6080604052600436106102725760003560e01c80636352211e1161014f578063a3b0b5a3116100c1578063d547741f1161007a578063d547741f14610705578063d547cfb714610725578063dbacc2371461073a578063e8a3d4851461075a578063e985e9c51461076f578063f2fde38b1461078f57610272565b8063a3b0b5a314610650578063a5e584dc14610665578063b88d4fde14610685578063c87b56dd146106a5578063cf2c52cb146106c5578063cfe0f50d146106e557610272565b806391d148541161011357806391d14854146105b15780639559c0bd146105d157806395d89b41146105e65780639c8d4156146105fb578063a217fddf1461061b578063a22cb4651461063057610272565b80636352211e1461052757806370a0823114610547578063715018a614610567578063755edd171461057c5780638da5cb5b1461059c57610272565b806320379ee5116101e85780632f2ff15d116101ac5780632f2ff15d146104725780632f745c59146104925780633408e470146104b257806336568abe146104c757806342842e0e146104e75780634f6ccce71461050757610272565b806320379ee5146103dd57806323b872dd146103f2578063248a9ca3146104125780632d0335ab146104325780632e1a7d4d1461045257610272565b80630c53c51c1161023a5780630c53c51c1461033e5780630f7e5970146103515780630ffd7d0214610366578063162094c4146103885780631653c39a146103a857806318160ddd146103c857610272565b806301ffc9a71461027757806306fdde03146102ad57806307a974fc146102cf578063081812fc146102ef578063095ea7b31461031c575b600080fd5b34801561028357600080fd5b50610297610292366004612b63565b6107af565b6040516102a49190612ef0565b60405180910390f35b3480156102b957600080fd5b506102c26107c2565b6040516102a49190612f46565b3480156102db57600080fd5b506102976102ea366004612b27565b610855565b3480156102fb57600080fd5b5061030f61030a366004612b27565b61086a565b6040516102a49190612e39565b34801561032857600080fd5b5061033c6103373660046129e6565b6108b6565b005b6102c261034c36600461296b565b61094e565b34801561035d57600080fd5b506102c2610ace565b34801561037257600080fd5b5061037b610aeb565b6040516102a49190612efb565b34801561039457600080fd5b5061033c6103a3366004612c50565b610b0f565b3480156103b457600080fd5b506102c26103c3366004612b27565b610b63565b3480156103d457600080fd5b5061037b610b94565b3480156103e957600080fd5b5061037b610b9a565b3480156103fe57600080fd5b5061033c61040d366004612810565b610ba0565b34801561041e57600080fd5b5061037b61042d366004612b27565b610bd8565b34801561043e57600080fd5b5061037b61044d3660046127bc565b610bed565b34801561045e57600080fd5b5061033c61046d366004612b27565b610c08565b34801561047e57600080fd5b5061033c61048d366004612b3f565b610cad565b34801561049e57600080fd5b5061037b6104ad3660046129e6565b610cd1565b3480156104be57600080fd5b5061037b610d26565b3480156104d357600080fd5b5061033c6104e2366004612b3f565b610d2a565b3480156104f357600080fd5b5061033c610502366004612810565b610d70565b34801561051357600080fd5b5061037b610522366004612b27565b610d8b565b34801561053357600080fd5b5061030f610542366004612b27565b610de6565b34801561055357600080fd5b5061037b6105623660046127bc565b610e1b565b34801561057357600080fd5b5061033c610e5f565b34801561058857600080fd5b5061033c6105973660046127bc565b610eaa565b3480156105a857600080fd5b5061030f610efe565b3480156105bd57600080fd5b506102976105cc366004612b3f565b610f0d565b3480156105dd57600080fd5b5061037b610f36565b3480156105f257600080fd5b506102c2610f3b565b34801561060757600080fd5b5061033c610616366004612a11565b610f4a565b34801561062757600080fd5b5061037b61108a565b34801561063c57600080fd5b5061033c61064b3660046128ba565b61108f565b34801561065c57600080fd5b5061037b61115d565b34801561067157600080fd5b5061033c610680366004612b27565b611181565b34801561069157600080fd5b5061033c6106a0366004612850565b6112ad565b3480156106b157600080fd5b506102c26106c0366004612b27565b6112e6565b3480156106d157600080fd5b5061033c6106e03660046128eb565b61146c565b3480156106f157600080fd5b5061033c610700366004612c2a565b6115b6565b34801561071157600080fd5b5061033c610720366004612b3f565b61165a565b34801561073157600080fd5b506102c2611679565b34801561074657600080fd5b5061030f610755366004612b27565b611699565b34801561076657600080fd5b506102c26116dd565b34801561077b57600080fd5b5061029761078a3660046127d8565b6116fd565b34801561079b57600080fd5b5061033c6107aa3660046127bc565b6117b1565b60006107ba8261187b565b90505b919050565b6060600280546107d1906137ce565b80601f01602080910402602001604051908101604052809291908181526020018280546107fd906137ce565b801561084a5780601f1061081f5761010080835404028352916020019161084a565b820191906000526020600020905b81548152906001019060200180831161082d57829003601f168201915b505050505090505b90565b60126020526000908152604090205460ff1681565b6000610875826118a0565b61089a5760405162461bcd60e51b815260040161089190613493565b60405180910390fd5b506000908152600660205260409020546001600160a01b031690565b60006108c182610de6565b9050806001600160a01b0316836001600160a01b031614156108f55760405162461bcd60e51b81526004016108919061359e565b806001600160a01b03166109076118bd565b6001600160a01b0316148061092357506109238161078a6118bd565b61093f5760405162461bcd60e51b8152600401610891906132de565b61094983836118cc565b505050565b60408051606081810183526001600160a01b0388166000818152600e60209081529085902054845283015291810186905261098c878287878761193a565b6109a85760405162461bcd60e51b81526004016108919061355d565b6001600160a01b0387166000908152600e60205260409020546109cc9060016119e0565b6001600160a01b0388166000908152600e60205260409081902091909155517f5845892132946850460bff5a0083f71031bc5bf9aadcd40f1de79423eac9b10b90610a1c90899033908a90612e4d565b60405180910390a1600080306001600160a01b0316888a604051602001610a44929190612cf0565b60408051601f1981840301815290829052610a5e91612cd4565b6000604051808303816000865af19150503d8060008114610a9b576040519150601f19603f3d011682016040523d82523d6000602084013e610aa0565b606091505b509150915081610ac25760405162461bcd60e51b81526004016108919061311b565b98975050505050505050565b604051806040016040528060018152602001603160f81b81525081565b7fa446fdb9034fbf9d58ea32ebd48d1067ab1a424c6dbfc7e524f12d2449c4a20b81565b6000610b1d816105cc6118bd565b600190610b3d5760405162461bcd60e51b81526004016108919190612f59565b5060008381526013602090815260409091208351610b5d928501906126c6565b50505050565b6060610b6e826112e6565b604051602001610b7e9190612f46565b6040516020818303038152906040529050919050565b600a5490565b600d5490565b610bb1610bab6118bd565b826119f3565b610bcd5760405162461bcd60e51b8152600401610891906135df565b610949838383611a70565b60009081526020819052604090206001015490565b6001600160a01b03166000908152600e602052604090205490565b610c1181610de6565b6001600160a01b0316610c226118bd565b6001600160a01b031614610c485760405162461bcd60e51b81526004016108919061333b565b610c5181611699565b6001600160a01b0316610c626118bd565b6001600160a01b031614610c885760405162461bcd60e51b815260040161089190613250565b6000818152601260205260409020805460ff19166001179055610caa81611b9d565b50565b610cb682610bd8565b610cc781610cc26118bd565b611c44565b6109498383611ca8565b6000610cdc83610e1b565b8210610cfa5760405162461bcd60e51b815260040161089190613038565b506001600160a01b03821660009081526008602090815260408083208484529091529020545b92915050565b4690565b610d326118bd565b6001600160a01b0316816001600160a01b031614610d625760405162461bcd60e51b81526004016108919061367c565b610d6c8282611d2d565b5050565b610949838383604051806020016040528060008152506112ad565b6000610d95610b94565b8210610db35760405162461bcd60e51b815260040161089190613630565b600a8281548110610dd457634e487b7160e01b600052603260045260246000fd5b90600052602060002001549050919050565b6000818152600460205260408120546001600160a01b0316806107ba5760405162461bcd60e51b8152600401610891906133cd565b60006001600160a01b038216610e435760405162461bcd60e51b815260040161089190613383565b506001600160a01b031660009081526005602052604090205490565b610e676118bd565b6001600160a01b0316610e78610efe565b6001600160a01b031614610e9e5760405162461bcd60e51b8152600401610891906134df565b610ea86000611db0565b565b610eb26118bd565b6001600160a01b0316610ec3610efe565b6001600160a01b031614610ee95760405162461bcd60e51b8152600401610891906134df565b601554610ef68282611e02565b610d6c611ee1565b600f546001600160a01b031690565b6000918252602082815260408084206001600160a01b0393909316845291905290205460ff1690565b601481565b6060600380546107d1906137ce565b806014811115610f6c5760405162461bcd60e51b815260040161089190613416565b60005b8181101561103a576000848483818110610f9957634e487b7160e01b600052603260045260246000fd5b905060200201359050610fab81610de6565b6001600160a01b0316610fbc6118bd565b6001600160a01b03161481604051602001610fd79190612d81565b604051602081830303815290604052906110045760405162461bcd60e51b81526004016108919190612f46565b506000818152601260205260409020805460ff1916600117905561102781611b9d565b508061103281613803565b915050610f6f565b506110436118bd565b6001600160a01b03167ff871896b17e9cb7a64941c62c188a4f5c621b86800e3d15452ece01ce56073df848460405161107d929190612eb6565b60405180910390a2505050565b600081565b6110976118bd565b6001600160a01b0316826001600160a01b031614156110c85760405162461bcd60e51b8152600401610891906131cd565b80600760006110d56118bd565b6001600160a01b03908116825260208083019390935260409182016000908120918716808252919093529120805460ff1916921515929092179091556111196118bd565b6001600160a01b03167f17307eab39ab6107e8899845ad3d59bd9653f200f220920489ca2b5937696c31836040516111519190612ef0565b60405180910390a35050565b7f8f4f2da22e8ac8f11e15f9fc141cddbb5deea8800186560abb6e68c5496619a981565b61118a81610de6565b6001600160a01b031661119b6118bd565b6001600160a01b0316146111c15760405162461bcd60e51b81526004016108919061333b565b6000818152601260205260408120805460ff1916600117905581906111e582610de6565b6001600160a01b03167ff94915c6d1fd521cee85359239227480c7e8776d7caf1fc3bacad5c269b66a14306001600160a01b0316631653c39a866040518263ffffffff1660e01b815260040161123b9190612efb565b60006040518083038186803b15801561125357600080fd5b505afa158015611267573d6000803e3d6000fd5b505050506040513d6000823e601f3d908101601f1916820160405261128f9190810190612b9b565b60405161129c9190612f46565b60405180910390a4610caa81611b9d565b6112be6112b86118bd565b836119f3565b6112da5760405162461bcd60e51b8152600401610891906135df565b610b5d84848484611ef8565b600081815260136020526040812080546060929190611304906137ce565b80601f0160208091040260200160405190810160405280929190818152602001828054611330906137ce565b801561137d5780601f106113525761010080835404028352916020019161137d565b820191906000526020600020905b81548152906001019060200180831161136057829003601f168201915b505050505090508051600014156113c757611396611679565b61139f84611f2b565b6040516020016113b0929190612d27565b6040516020818303038152906040529150506107bd565b600083815260136020526040902080546113e0906137ce565b80601f016020809104026020016040519081016040528092919081815260200182805461140c906137ce565b80156114595780601f1061142e57610100808354040283529160200191611459565b820191906000526020600020905b81548152906001019060200180831161143c57829003601f168201915b50505050509150506107bd565b50919050565b7f8f4f2da22e8ac8f11e15f9fc141cddbb5deea8800186560abb6e68c5496619a9611499816105cc6118bd565b6001906114b95760405162461bcd60e51b81526004016108919190612f59565b5060208214156114f95760006114d183850185612b27565b6000818152601260205260409020805460ff1916905590506114f38582611e02565b50610b5d565b600061150783850185612a80565b805190915060005b818110156115ad5760006012600085848151811061153d57634e487b7160e01b600052603260045260246000fd5b6020026020010151815260200190815260200160002060006101000a81548160ff02191690831515021790555061159b8784838151811061158e57634e487b7160e01b600052603260045260246000fd5b6020026020010151611e02565b806115a581613803565b91505061150f565b50505050505050565b7fa446fdb9034fbf9d58ea32ebd48d1067ab1a424c6dbfc7e524f12d2449c4a20b6115e3816105cc6118bd565b6001906116035760405162461bcd60e51b81526004016108919190612f59565b50600084815260116020526040902080546001600160a01b0319166001600160a01b0385161790556116388262015180613755565b6116429042613729565b60009485526010602052604090942093909355505050565b61166382610bd8565b61166f81610cc26118bd565b6109498383611d2d565b60606040518060600160405280602481526020016138a060249139905090565b6000818152601060205260408120544211156116bf576116b882610de6565b90506107bd565b506000818152601160205260409020546001600160a01b03166107bd565b606060405180606001604052806031815260200161390760319139905090565b60145460405163c455279160e01b81526000916001600160a01b039081169190841690829063c455279190611736908890600401612e39565b60206040518083038186803b15801561174e57600080fd5b505afa158015611762573d6000803e3d6000fd5b505050506040513d601f19601f820116820180604052508101906117869190612c0e565b6001600160a01b0316141561179f576001915050610d20565b6117a98484612046565b949350505050565b6117b96118bd565b6001600160a01b03166117ca610efe565b6001600160a01b0316146117f05760405162461bcd60e51b8152600401610891906134df565b6001600160a01b0381166118165760405162461bcd60e51b8152600401610891906130d5565b610caa81611db0565b60003330141561187657600080368080601f0160208091040260200160405190810160405280939291908181526020018383808284376000920191909152505050503601516001600160a01b031691506108529050565b503390565b60006001600160e01b0319821663780e9d6360e01b14806107ba57506107ba82612074565b6000908152600460205260409020546001600160a01b0316151590565b60006118c761181f565b905090565b600081815260066020526040902080546001600160a01b0319166001600160a01b038416908117909155819061190182610de6565b6001600160a01b03167f8c5be1e5ebec7d5bd14f71427d1e84f3dd0314c0f7b2291e5b200ac8c7c3b92560405160405180910390a45050565b60006001600160a01b0386166119625760405162461bcd60e51b815260040161089190613299565b6001611975611970876120b4565b612112565b838686604051600081526020016040526040516119959493929190612f28565b6020604051602081039080840390855afa1580156119b7573d6000803e3d6000fd5b505050602060405103516001600160a01b0316866001600160a01b031614905095945050505050565b60006119ec8284613729565b9392505050565b60006119fe826118a0565b611a1a5760405162461bcd60e51b815260040161089190613204565b6000611a2583610de6565b9050806001600160a01b0316846001600160a01b03161480611a605750836001600160a01b0316611a558461086a565b6001600160a01b0316145b806117a957506117a981856116fd565b826001600160a01b0316611a8382610de6565b6001600160a01b031614611aa95760405162461bcd60e51b815260040161089190613514565b6001600160a01b038216611acf5760405162461bcd60e51b815260040161089190613189565b611ada83838361212e565b611ae56000826118cc565b6001600160a01b0383166000908152600560205260408120805460019290611b0e908490613774565b90915550506001600160a01b0382166000908152600560205260408120805460019290611b3c908490613729565b909155505060008181526004602052604080822080546001600160a01b0319166001600160a01b0386811691821790925591518493918716917fddf252ad1be2c89b69c2b068fc378daa952ba7f163c4a11628f55a4df523b3ef91a4505050565b6000611ba882610de6565b9050611bb68160008461212e565b611bc16000836118cc565b6001600160a01b0381166000908152600560205260408120805460019290611bea908490613774565b909155505060008281526004602052604080822080546001600160a01b0319169055518391906001600160a01b038416907fddf252ad1be2c89b69c2b068fc378daa952ba7f163c4a11628f55a4df523b3ef908390a45050565b611c4e8282610f0d565b610d6c57611c66816001600160a01b031660146121b7565b611c718360206121b7565b604051602001611c82929190612dc4565b60408051601f198184030181529082905262461bcd60e51b825261089191600401612f46565b611cb28282610f0d565b610d6c576000828152602081815260408083206001600160a01b03851684529091529020805460ff19166001179055611ce96118bd565b6001600160a01b0316816001600160a01b0316837f2f8788117e7eff1d82e926ec794901d17c78024a50270940304540a733656f0d60405160405180910390a45050565b611d378282610f0d565b15610d6c576000828152602081815260408083206001600160a01b03851684529091529020805460ff19169055611d6c6118bd565b6001600160a01b0316816001600160a01b0316837ff6391f5c32d9c69d2a47ea670b442974b53935d1edc7fd64eb21e047a839171b60405160405180910390a45050565b600f80546001600160a01b038381166001600160a01b0319831681179093556040519116919082907f8be0079c531659141344cd1fd0a4f28419497f9722a3daafe3b4186f6b6457e090600090a35050565b6001600160a01b038216611e285760405162461bcd60e51b81526004016108919061345e565b611e31816118a0565b15611e4e5760405162461bcd60e51b815260040161089190613152565b611e5a6000838361212e565b6001600160a01b0382166000908152600560205260408120805460019290611e83908490613729565b909155505060008181526004602052604080822080546001600160a01b0319166001600160a01b03861690811790915590518392907fddf252ad1be2c89b69c2b068fc378daa952ba7f163c4a11628f55a4df523b3ef908290a45050565b60158054906000611ef183613803565b9190505550565b611f03848484611a70565b611f0f84848484612369565b610b5d5760405162461bcd60e51b815260040161089190613083565b606081611f5057506040805180820190915260018152600360fc1b60208201526107bd565b8160005b8115611f7a5780611f6481613803565b9150611f739050600a83613741565b9150611f54565b60008167ffffffffffffffff811115611fa357634e487b7160e01b600052604160045260246000fd5b6040519080825280601f01601f191660200182016040528015611fcd576020820181803683370190505b5090505b84156117a957611fe2600183613774565b9150611fef600a8661381e565b611ffa906030613729565b60f81b81838151811061201d57634e487b7160e01b600052603260045260246000fd5b60200101906001600160f81b031916908160001a90535061203f600a86613741565b9450611fd1565b6001600160a01b03918216600090815260076020908152604080832093909416825291909152205460ff1690565b60006001600160e01b031982166380ac58cd60e01b14806120a557506001600160e01b03198216635b5e139f60e01b145b806107ba57506107ba82612484565b60006040518060800160405280604381526020016138c460439139805160209182012083518483015160408087015180519086012090516120f59501612f04565b604051602081830303815290604052805190602001209050919050565b600061211c610b9a565b826040516020016120f5929190612d66565b612139838383610949565b6001600160a01b03831661215557612150816124a9565b612178565b816001600160a01b0316836001600160a01b0316146121785761217883826124ed565b6001600160a01b0382166121945761218f8161258a565b610949565b826001600160a01b0316826001600160a01b031614610949576109498282612663565b606060006121c6836002613755565b6121d1906002613729565b67ffffffffffffffff8111156121f757634e487b7160e01b600052604160045260246000fd5b6040519080825280601f01601f191660200182016040528015612221576020820181803683370190505b509050600360fc1b8160008151811061224a57634e487b7160e01b600052603260045260246000fd5b60200101906001600160f81b031916908160001a905350600f60fb1b8160018151811061228757634e487b7160e01b600052603260045260246000fd5b60200101906001600160f81b031916908160001a90535060006122ab846002613755565b6122b6906001613729565b90505b600181111561234a576f181899199a1a9b1b9c1cb0b131b232b360811b85600f16601081106122f857634e487b7160e01b600052603260045260246000fd5b1a60f81b82828151811061231c57634e487b7160e01b600052603260045260246000fd5b60200101906001600160f81b031916908160001a90535060049490941c93612343816137b7565b90506122b9565b5083156119ec5760405162461bcd60e51b815260040161089190613003565b600061237d846001600160a01b03166126a7565b1561247957836001600160a01b031663150b7a026123996118bd565b8786866040518563ffffffff1660e01b81526004016123bb9493929190612e79565b602060405180830381600087803b1580156123d557600080fd5b505af1925050508015612405575060408051601f3d908101601f1916820190925261240291810190612b7f565b60015b61245f573d808015612433576040519150601f19603f3d011682016040523d82523d6000602084013e612438565b606091505b5080516124575760405162461bcd60e51b815260040161089190613083565b805181602001fd5b6001600160e01b031916630a85bd0160e11b1490506117a9565b506001949350505050565b60006001600160e01b03198216637965db0b60e01b14806107ba57506107ba826126ad565b600a80546000838152600b60205260408120829055600182018355919091527fc65a7bb8d6351c1cf70c95a316cc6a92839c986682d98bc35f958f4883f9d2a80155565b600060016124fa84610e1b565b6125049190613774565b600083815260096020526040902054909150808214612557576001600160a01b03841660009081526008602090815260408083208584528252808320548484528184208190558352600990915290208190555b5060009182526009602090815260408084208490556001600160a01b039094168352600881528383209183525290812055565b600a5460009061259c90600190613774565b6000838152600b6020526040812054600a80549394509092849081106125d257634e487b7160e01b600052603260045260246000fd5b9060005260206000200154905080600a838154811061260157634e487b7160e01b600052603260045260246000fd5b6000918252602080832090910192909255828152600b9091526040808220849055858252812055600a80548061264757634e487b7160e01b600052603160045260246000fd5b6001900381819060005260206000200160009055905550505050565b600061266e83610e1b565b6001600160a01b039093166000908152600860209081526040808320868452825280832085905593825260099052919091209190915550565b3b151590565b6001600160e01b031981166301ffc9a760e01b14919050565b8280546126d2906137ce565b90600052602060002090601f0160209004810192826126f4576000855561273a565b82601f1061270d57805160ff191683800117855561273a565b8280016001018555821561273a579182015b8281111561273a57825182559160200191906001019061271f565b5061274692915061274a565b5090565b5b80821115612746576000815560010161274b565b600061277261276d846136f5565b6136cb565b905082815283838301111561278657600080fd5b828260208301376000602084830101529392505050565b600082601f8301126127ad578081fd5b6119ec8383356020850161275f565b6000602082840312156127cd578081fd5b81356119ec81613874565b600080604083850312156127ea578081fd5b82356127f581613874565b9150602083013561280581613874565b809150509250929050565b600080600060608486031215612824578081fd5b833561282f81613874565b9250602084013561283f81613874565b929592945050506040919091013590565b60008060008060808587031215612865578081fd5b843561287081613874565b9350602085013561288081613874565b925060408501359150606085013567ffffffffffffffff8111156128a2578182fd5b6128ae8782880161279d565b91505092959194509250565b600080604083850312156128cc578182fd5b82356128d781613874565b915060208301358015158114612805578182fd5b6000806000604084860312156128ff578283fd5b833561290a81613874565b9250602084013567ffffffffffffffff80821115612926578384fd5b818601915086601f830112612939578384fd5b813581811115612947578485fd5b876020828501011115612958578485fd5b6020830194508093505050509250925092565b600080600080600060a08688031215612982578283fd5b853561298d81613874565b9450602086013567ffffffffffffffff8111156129a8578384fd5b6129b48882890161279d565b9450506040860135925060608601359150608086013560ff811681146129d8578182fd5b809150509295509295909350565b600080604083850312156129f8578182fd5b8235612a0381613874565b946020939093013593505050565b60008060208385031215612a23578182fd5b823567ffffffffffffffff80821115612a3a578384fd5b818501915085601f830112612a4d578384fd5b813581811115612a5b578485fd5b8660208083028501011115612a6e578485fd5b60209290920196919550909350505050565b60006020808385031215612a92578182fd5b823567ffffffffffffffff80821115612aa9578384fd5b818501915085601f830112612abc578384fd5b813581811115612ace57612ace61385e565b8381029150612ade8483016136cb565b8181528481019084860184860187018a1015612af8578788fd5b8795505b83861015612b1a578035835260019590950194918601918601612afc565b5098975050505050505050565b600060208284031215612b38578081fd5b5035919050565b60008060408385031215612b51578182fd5b82359150602083013561280581613874565b600060208284031215612b74578081fd5b81356119ec81613889565b600060208284031215612b90578081fd5b81516119ec81613889565b600060208284031215612bac578081fd5b815167ffffffffffffffff811115612bc2578182fd5b8201601f81018413612bd2578182fd5b8051612be061276d826136f5565b818152856020838501011115612bf4578384fd5b612c0582602083016020860161378b565b95945050505050565b600060208284031215612c1f578081fd5b81516119ec81613874565b600080600060608486031215612c3e578081fd5b83359250602084013561283f81613874565b60008060408385031215612c62578182fd5b82359150602083013567ffffffffffffffff811115612c7f578182fd5b8301601f81018513612c8f578182fd5b612c9e8582356020840161275f565b9150509250929050565b60008151808452612cc081602086016020860161378b565b601f01601f19169290920160200192915050565b60008251612ce681846020870161378b565b9190910192915050565b60008351612d0281846020880161378b565b60609390931b6bffffffffffffffffffffffff19169190920190815260140192915050565b60008351612d3981846020880161378b565b835190830190612d4d81836020880161378b565b64173539b7b760d91b9101908152600501949350505050565b61190160f01b81526002810192909252602282015260420190565b7f4368696c644d696e7461626c654552433732313a20494e56414c49445f544f4b815268022a72fa7aba722a9160bd1b6020820152602981019190915260490190565b60007f416363657373436f6e74726f6c3a206163636f756e742000000000000000000082528351612dfc81601785016020880161378b565b7001034b99036b4b9b9b4b733903937b6329607d1b6017918401918201528351612e2d81602884016020880161378b565b01602801949350505050565b6001600160a01b0391909116815260200190565b6001600160a01b03848116825283166020820152606060408201819052600090612c0590830184612ca8565b6001600160a01b0385811682528416602082015260408101839052608060608201819052600090612eac90830184612ca8565b9695505050505050565b6020808252810182905260006001600160fb1b03831115612ed5578081fd5b60208302808560408501379190910160400190815292915050565b901515815260200190565b90815260200190565b93845260208401929092526001600160a01b03166040830152606082015260800190565b93845260ff9290921660208401526040830152606082015260800190565b6000602082526119ec6020830184612ca8565b6000602080835281845483600282049050600180831680612f7b57607f831692505b858310811415612f9957634e487b7160e01b87526022600452602487fd5b612fa583878a01612efb565b818015612fb95760018114612fca57612ff4565b60ff19861682528782019650612ff4565b612fd38b61371d565b895b86811015612fee57815484820152908501908901612fd5565b83019750505b50949998505050505050505050565b6020808252818101527f537472696e67733a20686578206c656e67746820696e73756666696369656e74604082015260600190565b6020808252602b908201527f455243373231456e756d657261626c653a206f776e657220696e646578206f7560408201526a74206f6620626f756e647360a81b606082015260800190565b60208082526032908201527f4552433732313a207472616e7366657220746f206e6f6e20455243373231526560408201527131b2b4bb32b91034b6b83632b6b2b73a32b960711b606082015260800190565b60208082526026908201527f4f776e61626c653a206e6577206f776e657220697320746865207a65726f206160408201526564647265737360d01b606082015260800190565b6020808252601c908201527f46756e6374696f6e2063616c6c206e6f74207375636365737366756c00000000604082015260600190565b6020808252601c908201527f4552433732313a20746f6b656e20616c7265616479206d696e74656400000000604082015260600190565b60208082526024908201527f4552433732313a207472616e7366657220746f20746865207a65726f206164646040820152637265737360e01b606082015260800190565b60208082526019908201527f4552433732313a20617070726f766520746f2063616c6c657200000000000000604082015260600190565b6020808252602c908201527f4552433732313a206f70657261746f7220717565727920666f72206e6f6e657860408201526b34b9ba32b73a103a37b5b2b760a11b606082015260800190565b60208082526029908201527f4368696c644d696e7461626c654552433732313a20494e56414c49445f544f4b60408201526822a72fa427a62222a960b91b606082015260800190565b60208082526025908201527f4e61746976654d6574615472616e73616374696f6e3a20494e56414c49445f5360408201526424a3a722a960d91b606082015260800190565b60208082526038908201527f4552433732313a20617070726f76652063616c6c6572206973206e6f74206f7760408201527f6e6572206e6f7220617070726f76656420666f7220616c6c0000000000000000606082015260800190565b60208082526028908201527f4368696c644d696e7461626c654552433732313a20494e56414c49445f544f4b60408201526722a72fa7aba722a960c11b606082015260800190565b6020808252602a908201527f4552433732313a2062616c616e636520717565727920666f7220746865207a65604082015269726f206164647265737360b01b606082015260800190565b60208082526029908201527f4552433732313a206f776e657220717565727920666f72206e6f6e657869737460408201526832b73a103a37b5b2b760b91b606082015260800190565b60208082526028908201527f4368696c644d696e7461626c654552433732313a20455843454544535f42415460408201526710d217d31253525560c21b606082015260800190565b6020808252818101527f4552433732313a206d696e7420746f20746865207a65726f2061646472657373604082015260600190565b6020808252602c908201527f4552433732313a20617070726f76656420717565727920666f72206e6f6e657860408201526b34b9ba32b73a103a37b5b2b760a11b606082015260800190565b6020808252818101527f4f776e61626c653a2063616c6c6572206973206e6f7420746865206f776e6572604082015260600190565b60208082526029908201527f4552433732313a207472616e73666572206f6620746f6b656e2074686174206960408201526839903737ba1037bbb760b91b606082015260800190565b60208082526021908201527f5369676e657220616e64207369676e617475726520646f206e6f74206d6174636040820152600d60fb1b606082015260800190565b60208082526021908201527f4552433732313a20617070726f76616c20746f2063757272656e74206f776e656040820152603960f91b606082015260800190565b60208082526031908201527f4552433732313a207472616e736665722063616c6c6572206973206e6f74206f6040820152701ddb995c881b9bdc88185c1c1c9bdd9959607a1b606082015260800190565b6020808252602c908201527f455243373231456e756d657261626c653a20676c6f62616c20696e646578206f60408201526b7574206f6620626f756e647360a01b606082015260800190565b6020808252602f908201527f416363657373436f6e74726f6c3a2063616e206f6e6c792072656e6f756e636560408201526e103937b632b9903337b91039b2b63360891b606082015260800190565b60405181810167ffffffffffffffff811182821017156136ed576136ed61385e565b604052919050565b600067ffffffffffffffff82111561370f5761370f61385e565b50601f01601f191660200190565b60009081526020902090565b6000821982111561373c5761373c613832565b500190565b60008261375057613750613848565b500490565b600081600019048311821515161561376f5761376f613832565b500290565b60008282101561378657613786613832565b500390565b60005b838110156137a657818101518382015260200161378e565b83811115610b5d5750506000910152565b6000816137c6576137c6613832565b506000190190565b6002810460018216806137e257607f821691505b6020821081141561146657634e487b7160e01b600052602260045260246000fd5b600060001982141561381757613817613832565b5060010190565b60008261382d5761382d613848565b500690565b634e487b7160e01b600052601160045260246000fd5b634e487b7160e01b600052601260045260246000fd5b634e487b7160e01b600052604160045260246000fd5b6001600160a01b0381168114610caa57600080fd5b6001600160e01b031981168114610caa57600080fdfe68747470733a2f2f7777772e6c6f7365726e66742e6f72672f6c6f73657270756e6b732f4d6574615472616e73616374696f6e2875696e74323536206e6f6e63652c616464726573732066726f6d2c62797465732066756e6374696f6e5369676e61747572652968747470733a2f2f7777772e6c6f7365726e66742e6f72672f6c6f73657270756e6b732f636f6e74726163742e6a736f6ea26469706673582212206e6a07fac6034e0f46f6e9ece6ce592f877eddcf674c46b5c2a5c0478132274664736f6c63430008000033454950373132446f6d61696e28737472696e67206e616d652c737472696e672076657273696f6e2c6164647265737320766572696679696e67436f6e74726163742c627974657333322073616c7429",
  "immutableReferences": {},
  "source": "// SPDX-License-Identifier: MIT\n\npragma solidity ^0.8.0;\n\nimport \"./ERC721Tradable.sol\";\n\n/**\n * @title Creature\n * Creature - a contract for my non-fungible creatures.\n */\ncontract Creature is ERC721Tradable {\n    constructor(string memory _name, string memory _symbol, address _proxyRegistryAddress, address childChainManager)\n        ERC721Tradable(_name, _symbol, _proxyRegistryAddress, childChainManager)\n    {}\n\n    function baseTokenURI() override public pure returns (string memory) {\n        return \"https://www.losernft.org/loserpunks/\";\n    }\n\n    function contractURI() public pure returns (string memory) {\n        return \"https://www.losernft.org/loserpunks/contract.json\";\n    }\n}\n",
  "sourcePath": "/home/mozzie/Documents/github/ChildMintableERC721/contracts/Creature.sol",
  "compiler": {
    "name": "solc",
    "version": "0.8.0+commit.c7dfd78e.Emscripten.clang"
  },
  "schemaVersion": "3.4.2",
  "updatedAt": "2021-07-27T07:33:54.787Z",
  "devdoc": {
    "kind": "dev",
    "methods": {
      "approve(address,uint256)": {
        "details": "See {IERC721-approve}."
      },
      "balanceOf(address)": {
        "details": "See {IERC721-balanceOf}."
      },
      "deposit(address,bytes)": {
        "details": "Should be callable only by ChildChainManager Should handle deposit by minting the required tokenId(s) for user Should set `withdrawnTokens` mapping to `false` for the tokenId being deposited Minting can also be done by other functions",
        "params": {
          "depositData": "abi encoded tokenIds. Batch deposit also supported.",
          "user": "user address for whom deposit is being done"
        }
      },
      "encodeTokenMetadata(uint256)": {
        "params": {
          "tokenId": "Token for which URI to be fetched"
        }
      },
      "getApproved(uint256)": {
        "details": "See {IERC721-getApproved}."
      },
      "getRoleAdmin(bytes32)": {
        "details": "Returns the admin role that controls `role`. See {grantRole} and {revokeRole}. To change a role's admin, use {_setRoleAdmin}."
      },
      "grantRole(bytes32,address)": {
        "details": "Grants `role` to `account`. If `account` had not been already granted `role`, emits a {RoleGranted} event. Requirements: - the caller must have ``role``'s admin role."
      },
      "hasRole(bytes32,address)": {
        "details": "Returns `true` if `account` has been granted `role`."
      },
      "mintTo(address)": {
        "details": "Mints a token to an address with a tokenURI.",
        "params": {
          "_to": "address of the future owner of the token"
        }
      },
      "name()": {
        "details": "See {IERC721Metadata-name}."
      },
      "owner()": {
        "details": "Returns the address of the current owner."
      },
      "ownerOf(uint256)": {
        "details": "See {IERC721-ownerOf}."
      },
      "renounceOwnership()": {
        "details": "Leaves the contract without owner. It will not be possible to call `onlyOwner` functions anymore. Can only be called by the current owner. NOTE: Renouncing ownership will leave the contract without an owner, thereby removing any functionality that is only available to the owner."
      },
      "renounceRole(bytes32,address)": {
        "details": "Revokes `role` from the calling account. Roles are often managed via {grantRole} and {revokeRole}: this function's purpose is to provide a mechanism for accounts to lose their privileges if they are compromised (such as when a trusted device is misplaced). If the calling account had been granted `role`, emits a {RoleRevoked} event. Requirements: - the caller must be `account`."
      },
      "revokeRole(bytes32,address)": {
        "details": "Revokes `role` from `account`. If `account` had been granted `role`, emits a {RoleRevoked} event. Requirements: - the caller must have ``role``'s admin role."
      },
      "safeTransferFrom(address,address,uint256)": {
        "details": "See {IERC721-safeTransferFrom}."
      },
      "safeTransferFrom(address,address,uint256,bytes)": {
        "details": "See {IERC721-safeTransferFrom}."
      },
      "setApprovalForAll(address,bool)": {
        "details": "See {IERC721-setApprovalForAll}."
      },
      "symbol()": {
        "details": "See {IERC721Metadata-symbol}."
      },
      "tokenByIndex(uint256)": {
        "details": "See {IERC721Enumerable-tokenByIndex}."
      },
      "tokenOfOwnerByIndex(address,uint256)": {
        "details": "See {IERC721Enumerable-tokenOfOwnerByIndex}."
      },
      "totalSupply()": {
        "details": "See {IERC721Enumerable-totalSupply}."
      },
      "transferFrom(address,address,uint256)": {
        "details": "See {IERC721-transferFrom}."
      },
      "transferOwnership(address)": {
        "details": "Transfers ownership of the contract to a new account (`newOwner`). Can only be called by the current owner."
      },
      "withdraw(uint256)": {
        "details": "Should handle withraw by burning user's token. Should set `withdrawnTokens` mapping to `true` for the tokenId being withdrawn This transaction will be verified when exiting on root chain",
        "params": {
          "tokenId": "tokenId to withdraw"
        }
      },
      "withdrawBatch(uint256[])": {
        "details": "Should burn user's tokens. This transaction will be verified when exiting on root chain",
        "params": {
          "tokenIds": "tokenId list to withdraw"
        }
      },
      "withdrawWithMetadata(uint256)": {
        "details": "Should handle withraw by burning user's token. Should set `withdrawnTokens` mapping to `true` for the tokenId being withdrawn This transaction will be verified when exiting on root chain",
        "params": {
          "tokenId": "tokenId to withdraw"
        }
      }
    },
    "title": "Creature Creature - a contract for my non-fungible creatures.",
    "version": 1
  },
  "userdoc": {
    "kind": "user",
    "methods": {
      "deposit(address,bytes)": {
        "notice": "called when token is deposited on root chain"
      },
      "encodeTokenMetadata(uint256)": {
        "notice": "This method is supposed to be called by client when withdrawing token with metadata and pass return value of this function as second paramter of `withdrawWithMetadata` method It can be overridden by clients to encode data in a different form, which needs to be decoded back by them correctly during exiting"
      },
      "isApprovedForAll(address,address)": {
        "notice": "Override isApprovedForAll to whitelist user's OpenSea proxy accounts to enable gas-less listings."
      },
      "withdraw(uint256)": {
        "notice": "called when user wants to withdraw token back to root chain"
      },
      "withdrawBatch(uint256[])": {
        "notice": "called when user wants to withdraw multiple tokens back to root chain"
      },
      "withdrawWithMetadata(uint256)": {
        "notice": "called when user wants to withdraw token back to root chain with token URI"
      }
    },
    "version": 1
  }
}