{
  "contractName": "LowbMarket",
  "abi": [
    {
      "inputs": [
        {
          "internalType": "address",
          "name": "lowbToken_",
          "type": "address"
        },
        {
          "internalType": "address",
          "name": "nonFungibleToken_",
          "type": "address"
        }
      ],
      "stateMutability": "nonpayable",
      "type": "constructor"
    },
    {
      "anonymous": false,
      "inputs": [
        {
          "indexed": true,
          "internalType": "uint256",
          "name": "itemId",
          "type": "uint256"
        },
        {
          "indexed": false,
          "internalType": "uint256",
          "name": "value",
          "type": "uint256"
        },
        {
          "indexed": true,
          "internalType": "address",
          "name": "fromAddress",
          "type": "address"
        }
      ],
      "name": "BidWithdrawn",
      "type": "event"
    },
    {
      "anonymous": false,
      "inputs": [
        {
          "indexed": true,
          "internalType": "uint256",
          "name": "itemId",
          "type": "uint256"
        },
        {
          "indexed": false,
          "internalType": "uint256",
          "name": "value",
          "type": "uint256"
        },
        {
          "indexed": true,
          "internalType": "address",
          "name": "fromAddress",
          "type": "address"
        },
        {
          "indexed": true,
          "internalType": "address",
          "name": "toAddress",
          "type": "address"
        }
      ],
      "name": "ItemBought",
      "type": "event"
    },
    {
      "anonymous": false,
      "inputs": [
        {
          "indexed": true,
          "internalType": "uint256",
          "name": "itemId",
          "type": "uint256"
        },
        {
          "indexed": false,
          "internalType": "uint256",
          "name": "value",
          "type": "uint256"
        },
        {
          "indexed": true,
          "internalType": "address",
          "name": "toAddress",
          "type": "address"
        }
      ],
      "name": "ItemMint",
      "type": "event"
    },
    {
      "anonymous": false,
      "inputs": [
        {
          "indexed": true,
          "internalType": "uint256",
          "name": "itemId",
          "type": "uint256"
        }
      ],
      "name": "ItemNoLongerForSale",
      "type": "event"
    },
    {
      "anonymous": false,
      "inputs": [
        {
          "indexed": true,
          "internalType": "uint256",
          "name": "itemId",
          "type": "uint256"
        },
        {
          "indexed": false,
          "internalType": "uint256",
          "name": "minValue",
          "type": "uint256"
        },
        {
          "indexed": true,
          "internalType": "address",
          "name": "toAddress",
          "type": "address"
        }
      ],
      "name": "ItemOffered",
      "type": "event"
    },
    {
      "anonymous": false,
      "inputs": [
        {
          "indexed": true,
          "internalType": "uint256",
          "name": "groupId",
          "type": "uint256"
        },
        {
          "indexed": false,
          "internalType": "uint256",
          "name": "value",
          "type": "uint256"
        },
        {
          "indexed": true,
          "internalType": "address",
          "name": "fromAddress",
          "type": "address"
        }
      ],
      "name": "NewBidEntered",
      "type": "event"
    },
    {
      "anonymous": false,
      "inputs": [
        {
          "indexed": true,
          "internalType": "uint256",
          "name": "groupId",
          "type": "uint256"
        },
        {
          "indexed": false,
          "internalType": "uint256",
          "name": "minValue",
          "type": "uint256"
        }
      ],
      "name": "NewItemsOffered",
      "type": "event"
    },
    {
      "inputs": [],
      "name": "INVERSE_BASIS_POINT",
      "outputs": [
        {
          "internalType": "uint256",
          "name": "",
          "type": "uint256"
        }
      ],
      "stateMutability": "view",
      "type": "function",
      "constant": true
    },
    {
      "inputs": [],
      "name": "fee",
      "outputs": [
        {
          "internalType": "uint256",
          "name": "",
          "type": "uint256"
        }
      ],
      "stateMutability": "view",
      "type": "function",
      "constant": true
    },
    {
      "inputs": [
        {
          "internalType": "uint256",
          "name": "",
          "type": "uint256"
        },
        {
          "internalType": "address",
          "name": "",
          "type": "address"
        }
      ],
      "name": "itemBids",
      "outputs": [
        {
          "internalType": "address",
          "name": "prevBidder",
          "type": "address"
        },
        {
          "internalType": "address",
          "name": "nextBidder",
          "type": "address"
        },
        {
          "internalType": "uint256",
          "name": "value",
          "type": "uint256"
        }
      ],
      "stateMutability": "view",
      "type": "function",
      "constant": true
    },
    {
      "inputs": [
        {
          "internalType": "uint256",
          "name": "",
          "type": "uint256"
        }
      ],
      "name": "itemsOfferedForSale",
      "outputs": [
        {
          "internalType": "bool",
          "name": "isForSale",
          "type": "bool"
        },
        {
          "internalType": "uint256",
          "name": "itemId",
          "type": "uint256"
        },
        {
          "internalType": "address",
          "name": "seller",
          "type": "address"
        },
        {
          "internalType": "uint256",
          "name": "minValue",
          "type": "uint256"
        },
        {
          "internalType": "address",
          "name": "onlySellTo",
          "type": "address"
        }
      ],
      "stateMutability": "view",
      "type": "function",
      "constant": true
    },
    {
      "inputs": [],
      "name": "lowbTokenAddress",
      "outputs": [
        {
          "internalType": "address",
          "name": "",
          "type": "address"
        }
      ],
      "stateMutability": "view",
      "type": "function",
      "constant": true
    },
    {
      "inputs": [
        {
          "internalType": "uint256",
          "name": "",
          "type": "uint256"
        }
      ],
      "name": "newTokenOffer",
      "outputs": [
        {
          "internalType": "uint256",
          "name": "",
          "type": "uint256"
        }
      ],
      "stateMutability": "view",
      "type": "function",
      "constant": true
    },
    {
      "inputs": [],
      "name": "nonFungibleTokenAddress",
      "outputs": [
        {
          "internalType": "address",
          "name": "",
          "type": "address"
        }
      ],
      "stateMutability": "view",
      "type": "function",
      "constant": true
    },
    {
      "inputs": [],
      "name": "owner",
      "outputs": [
        {
          "internalType": "address",
          "name": "",
          "type": "address"
        }
      ],
      "stateMutability": "view",
      "type": "function",
      "constant": true
    },
    {
      "inputs": [
        {
          "internalType": "address",
          "name": "",
          "type": "address"
        }
      ],
      "name": "pendingWithdrawals",
      "outputs": [
        {
          "internalType": "uint256",
          "name": "",
          "type": "uint256"
        }
      ],
      "stateMutability": "view",
      "type": "function",
      "constant": true
    },
    {
      "inputs": [
        {
          "internalType": "uint256",
          "name": "itemId",
          "type": "uint256"
        }
      ],
      "name": "itemNoLongerForSale",
      "outputs": [],
      "stateMutability": "nonpayable",
      "type": "function"
    },
    {
      "inputs": [
        {
          "internalType": "uint256",
          "name": "itemId",
          "type": "uint256"
        },
        {
          "internalType": "uint256",
          "name": "minSalePriceInWei",
          "type": "uint256"
        }
      ],
      "name": "offerItemForSale",
      "outputs": [],
      "stateMutability": "nonpayable",
      "type": "function"
    },
    {
      "inputs": [
        {
          "internalType": "uint256",
          "name": "itemId",
          "type": "uint256"
        },
        {
          "internalType": "uint256",
          "name": "minSalePriceInWei",
          "type": "uint256"
        },
        {
          "internalType": "address",
          "name": "toAddress",
          "type": "address"
        }
      ],
      "name": "offerItemForSaleToAddress",
      "outputs": [],
      "stateMutability": "nonpayable",
      "type": "function"
    },
    {
      "inputs": [
        {
          "internalType": "uint256",
          "name": "amount",
          "type": "uint256"
        }
      ],
      "name": "deposit",
      "outputs": [],
      "stateMutability": "nonpayable",
      "type": "function"
    },
    {
      "inputs": [
        {
          "internalType": "uint256",
          "name": "amount",
          "type": "uint256"
        }
      ],
      "name": "withdraw",
      "outputs": [],
      "stateMutability": "nonpayable",
      "type": "function"
    },
    {
      "inputs": [
        {
          "internalType": "uint256",
          "name": "itemId",
          "type": "uint256"
        },
        {
          "internalType": "uint256",
          "name": "amount",
          "type": "uint256"
        }
      ],
      "name": "make_deal",
      "outputs": [
        {
          "internalType": "uint256",
          "name": "",
          "type": "uint256"
        }
      ],
      "stateMutability": "nonpayable",
      "type": "function"
    },
    {
      "inputs": [
        {
          "internalType": "uint256",
          "name": "itemId",
          "type": "uint256"
        },
        {
          "internalType": "uint256",
          "name": "amount",
          "type": "uint256"
        }
      ],
      "name": "buyItem",
      "outputs": [],
      "stateMutability": "nonpayable",
      "type": "function"
    },
    {
      "inputs": [
        {
          "internalType": "uint256",
          "name": "groupId",
          "type": "uint256"
        },
        {
          "internalType": "uint256",
          "name": "amount",
          "type": "uint256"
        }
      ],
      "name": "enterBid",
      "outputs": [],
      "stateMutability": "nonpayable",
      "type": "function"
    },
    {
      "inputs": [
        {
          "internalType": "uint256",
          "name": "itemId",
          "type": "uint256"
        },
        {
          "internalType": "address",
          "name": "bidder",
          "type": "address"
        }
      ],
      "name": "acceptBid",
      "outputs": [],
      "stateMutability": "nonpayable",
      "type": "function"
    },
    {
      "inputs": [
        {
          "internalType": "uint256",
          "name": "groupId",
          "type": "uint256"
        }
      ],
      "name": "withdrawBid",
      "outputs": [],
      "stateMutability": "nonpayable",
      "type": "function"
    },
    {
      "inputs": [
        {
          "internalType": "uint256",
          "name": "groupId",
          "type": "uint256"
        },
        {
          "internalType": "address",
          "name": "bidder",
          "type": "address"
        }
      ],
      "name": "approveBid",
      "outputs": [],
      "stateMutability": "nonpayable",
      "type": "function"
    },
    {
      "inputs": [
        {
          "internalType": "uint256",
          "name": "groupId",
          "type": "uint256"
        },
        {
          "internalType": "uint256",
          "name": "minSalePriceInWei",
          "type": "uint256"
        }
      ],
      "name": "offerItemsForPublicSale",
      "outputs": [],
      "stateMutability": "nonpayable",
      "type": "function"
    },
    {
      "inputs": [
        {
          "internalType": "uint256",
          "name": "groupId",
          "type": "uint256"
        },
        {
          "internalType": "uint256",
          "name": "amount",
          "type": "uint256"
        }
      ],
      "name": "buyNewItem",
      "outputs": [],
      "stateMutability": "nonpayable",
      "type": "function"
    },
    {
      "inputs": [],
      "name": "pullFunds",
      "outputs": [],
      "stateMutability": "nonpayable",
      "type": "function"
    }
  ],
  "bytecode": "0x60806040523480156200001157600080fd5b50604051620050933803806200509383398181016040528101906200003791906200015b565b600073ffffffffffffffffffffffffffffffffffffffff168173ffffffffffffffffffffffffffffffffffffffff1614156200007257600080fd5b806000806101000a81548173ffffffffffffffffffffffffffffffffffffffff021916908373ffffffffffffffffffffffffffffffffffffffff16021790555081600160006101000a81548173ffffffffffffffffffffffffffffffffffffffff021916908373ffffffffffffffffffffffffffffffffffffffff16021790555033600260006101000a81548173ffffffffffffffffffffffffffffffffffffffff021916908373ffffffffffffffffffffffffffffffffffffffff16021790555060fa6003819055505050620001ea565b6000815190506200015581620001d0565b92915050565b600080604083850312156200016f57600080fd5b60006200017f8582860162000144565b9250506020620001928582860162000144565b9150509250929050565b6000620001a982620001b0565b9050919050565b600073ffffffffffffffffffffffffffffffffffffffff82169050919050565b620001db816200019c565b8114620001e757600080fd5b50565b614e9980620001fa6000396000f3fe608060405234801561001057600080fd5b506004361061014d5760003560e01c80634b4ddfa6116100c3578063b6b55f251161007c578063b6b55f2514610376578063bd11a01114610392578063cae6047f146103c2578063ddca3f43146103e0578063e43a0bb2146103fe578063f3f43703146104085761014d565b80634b4ddfa6146102b257806360e9280b146102e6578063661137381461030257806368249dcb1461031e5780638da5cb5b1461033c5780639979c0091461035a5761014d565b80631ef4d920116101155780631ef4d920146101f45780632e1a7d4d14610212578063310e1b261461022e5780633538a50e1461025e5780633c847b5e1461027a5780633d570cc0146102965761014d565b8063020686641461015257806304fa906b1461016e5780630eaaf4c81461018a5780630f6f3e06146101a65780631a6c0940146101c2575b600080fd5b61016c600480360381019061016791906140df565b610438565b005b6101886004803603810190610183919061408d565b610c58565b005b6101a4600480360381019061019f919061408d565b610ed5565b005b6101c060048036038101906101bb919061411b565b611288565b005b6101dc60048036038101906101d791906140df565b611909565b6040516101eb939291906148c4565b60405180910390f35b6101fc611980565b60405161020991906148a9565b60405180910390f35b61022c6004803603810190610227919061408d565b6119a4565b005b6102486004803603810190610243919061408d565b611b73565b6040516102559190614c37565b60405180910390f35b61027860048036038101906102739190614157565b611b8b565b005b610294600480360381019061028f91906140df565b611f20565b005b6102b060048036038101906102ab919061411b565b6126a4565b005b6102cc60048036038101906102c7919061408d565b612a3a565b6040516102dd959493929190614924565b60405180910390f35b61030060048036038101906102fb919061411b565b612abd565b005b61031c6004803603810190610317919061411b565b612fe2565b005b61032661331a565b60405161033391906148a9565b60405180910390f35b610344613340565b60405161035191906148a9565b60405180910390f35b610374600480360381019061036f919061411b565b613366565b005b610390600480360381019061038b919061408d565b613904565b005b6103ac60048036038101906103a7919061411b565b613a96565b6040516103b99190614c37565b60405180910390f35b6103ca613db9565b6040516103d79190614c37565b60405180910390f35b6103e8613dbf565b6040516103f59190614c37565b60405180910390f35b610406613dc5565b005b610422600480360381019061041d9190614012565b613f91565b60405161042f9190614c37565b60405180910390f35b60008060009054906101000a900473ffffffffffffffffffffffffffffffffffffffff1690503373ffffffffffffffffffffffffffffffffffffffff168173ffffffffffffffffffffffffffffffffffffffff16636352211e856040518263ffffffff1660e01b81526004016104ae9190614c37565b60206040518083038186803b1580156104c657600080fd5b505afa1580156104da573d6000803e3d6000fd5b505050506040513d601f19601f820116820180604052508101906104fe919061403b565b73ffffffffffffffffffffffffffffffffffffffff1614610554576040517f08c379a000000000000000000000000000000000000000000000000000000000815260040161054b90614b97565b60405180910390fd5b3073ffffffffffffffffffffffffffffffffffffffff168173ffffffffffffffffffffffffffffffffffffffff1663081812fc856040518263ffffffff1660e01b81526004016105a49190614c37565b60206040518083038186803b1580156105bc57600080fd5b505afa1580156105d0573d6000803e3d6000fd5b505050506040513d601f19601f820116820180604052508101906105f4919061403b565b73ffffffffffffffffffffffffffffffffffffffff161461064a576040517f08c379a000000000000000000000000000000000000000000000000000000000815260040161064190614b77565b60405180910390fd5b600033905060008273ffffffffffffffffffffffffffffffffffffffff1663503ae187866040518263ffffffff1660e01b815260040161068a9190614c37565b60206040518083038186803b1580156106a257600080fd5b505afa1580156106b6573d6000803e3d6000fd5b505050506040513d601f19601f820116820180604052508101906106da91906140b6565b905060006005600083815260200190815260200160002060008673ffffffffffffffffffffffffffffffffffffffff1673ffffffffffffffffffffffffffffffffffffffff16815260200190815260200160002060020154905060008111610777576040517f08c379a000000000000000000000000000000000000000000000000000000000815260040161076e906149d7565b60405180910390fd5b8373ffffffffffffffffffffffffffffffffffffffff166342842e0e8487896040518463ffffffff1660e01b81526004016107b4939291906148c4565b600060405180830381600087803b1580156107ce57600080fd5b505af11580156107e2573d6000803e3d6000fd5b505050506040518060a001604052806000151581526020018781526020018673ffffffffffffffffffffffffffffffffffffffff16815260200160008152602001600073ffffffffffffffffffffffffffffffffffffffff168152506004600088815260200190815260200160002060008201518160000160006101000a81548160ff0219169083151502179055506020820151816001015560408201518160020160006101000a81548173ffffffffffffffffffffffffffffffffffffffff021916908373ffffffffffffffffffffffffffffffffffffffff1602179055506060820151816003015560808201518160040160006101000a81548173ffffffffffffffffffffffffffffffffffffffff021916908373ffffffffffffffffffffffffffffffffffffffff16021790555090505060006005600084815260200190815260200160002060008773ffffffffffffffffffffffffffffffffffffffff1673ffffffffffffffffffffffffffffffffffffffff1681526020019081526020016000206002018190555060006005600084815260200190815260200160002060008773ffffffffffffffffffffffffffffffffffffffff1673ffffffffffffffffffffffffffffffffffffffff16815260200190815260200160002060010160009054906101000a900473ffffffffffffffffffffffffffffffffffffffff16905060006005600085815260200190815260200160002060008873ffffffffffffffffffffffffffffffffffffffff1673ffffffffffffffffffffffffffffffffffffffff16815260200190815260200160002060000160009054906101000a900473ffffffffffffffffffffffffffffffffffffffff169050816005600086815260200190815260200160002060008373ffffffffffffffffffffffffffffffffffffffff1673ffffffffffffffffffffffffffffffffffffffff16815260200190815260200160002060010160006101000a81548173ffffffffffffffffffffffffffffffffffffffff021916908373ffffffffffffffffffffffffffffffffffffffff160217905550806005600086815260200190815260200160002060008473ffffffffffffffffffffffffffffffffffffffff1673ffffffffffffffffffffffffffffffffffffffff16815260200190815260200160002060000160006101000a81548173ffffffffffffffffffffffffffffffffffffffff021916908373ffffffffffffffffffffffffffffffffffffffff1602179055506000610b8f8985613a96565b905080600660008873ffffffffffffffffffffffffffffffffffffffff1673ffffffffffffffffffffffffffffffffffffffff1681526020019081526020016000206000828254610be09190614c63565b925050819055508773ffffffffffffffffffffffffffffffffffffffff168673ffffffffffffffffffffffffffffffffffffffff168a7f7dabc6512298d15f481bd3755e8e2e4387bdd4497983824ce33f9c315005e89687604051610c459190614c37565b60405180910390a4505050505050505050565b60008060009054906101000a900473ffffffffffffffffffffffffffffffffffffffff1690503373ffffffffffffffffffffffffffffffffffffffff168173ffffffffffffffffffffffffffffffffffffffff16636352211e846040518263ffffffff1660e01b8152600401610cce9190614c37565b60206040518083038186803b158015610ce657600080fd5b505afa158015610cfa573d6000803e3d6000fd5b505050506040513d601f19601f82011682018060405250810190610d1e919061403b565b73ffffffffffffffffffffffffffffffffffffffff1614610d74576040517f08c379a0000000000000000000000000000000000000000000000000000000008152600401610d6b90614b97565b60405180910390fd5b6040518060a001604052806000151581526020018381526020013373ffffffffffffffffffffffffffffffffffffffff16815260200160008152602001600073ffffffffffffffffffffffffffffffffffffffff168152506004600084815260200190815260200160002060008201518160000160006101000a81548160ff0219169083151502179055506020820151816001015560408201518160020160006101000a81548173ffffffffffffffffffffffffffffffffffffffff021916908373ffffffffffffffffffffffffffffffffffffffff1602179055506060820151816003015560808201518160040160006101000a81548173ffffffffffffffffffffffffffffffffffffffff021916908373ffffffffffffffffffffffffffffffffffffffff160217905550905050817f4d3fddd7140a18aabb43157d457a8bd1f6aee4360f2637a58720dd2d621268de60405160405180910390a25050565b60006005600083815260200190815260200160002060003373ffffffffffffffffffffffffffffffffffffffff1673ffffffffffffffffffffffffffffffffffffffff16815260200190815260200160002060020154905060008111610f70576040517f08c379a0000000000000000000000000000000000000000000000000000000008152600401610f6790614bb7565b60405180910390fd5b3373ffffffffffffffffffffffffffffffffffffffff16827fb41c9b05054be45850ccc1da7d90c7b819cff855cfe0d14f16427398b286c9b683604051610fb79190614c37565b60405180910390a360006005600084815260200190815260200160002060003373ffffffffffffffffffffffffffffffffffffffff1673ffffffffffffffffffffffffffffffffffffffff1681526020019081526020016000206002018190555060006005600084815260200190815260200160002060003373ffffffffffffffffffffffffffffffffffffffff1673ffffffffffffffffffffffffffffffffffffffff16815260200190815260200160002060010160009054906101000a900473ffffffffffffffffffffffffffffffffffffffff16905060006005600085815260200190815260200160002060003373ffffffffffffffffffffffffffffffffffffffff1673ffffffffffffffffffffffffffffffffffffffff16815260200190815260200160002060000160009054906101000a900473ffffffffffffffffffffffffffffffffffffffff169050816005600086815260200190815260200160002060008373ffffffffffffffffffffffffffffffffffffffff1673ffffffffffffffffffffffffffffffffffffffff16815260200190815260200160002060010160006101000a81548173ffffffffffffffffffffffffffffffffffffffff021916908373ffffffffffffffffffffffffffffffffffffffff160217905550806005600086815260200190815260200160002060008473ffffffffffffffffffffffffffffffffffffffff1673ffffffffffffffffffffffffffffffffffffffff16815260200190815260200160002060000160006101000a81548173ffffffffffffffffffffffffffffffffffffffff021916908373ffffffffffffffffffffffffffffffffffffffff16021790555082600660003373ffffffffffffffffffffffffffffffffffffffff1673ffffffffffffffffffffffffffffffffffffffff168152602001908152602001600020600082825461127b9190614c63565b9250508190555050505050565b80600660003373ffffffffffffffffffffffffffffffffffffffff1673ffffffffffffffffffffffffffffffffffffffff16815260200190815260200160002054101561130a576040517f08c379a000000000000000000000000000000000000000000000000000000000815260040161130190614af7565b60405180910390fd5b6000811161134d576040517f08c379a000000000000000000000000000000000000000000000000000000000815260040161134490614a97565b60405180910390fd5b60008060009054906101000a900473ffffffffffffffffffffffffffffffffffffffff16905060008173ffffffffffffffffffffffffffffffffffffffff16636d780e6b856040518263ffffffff1660e01b81526004016113ae9190614c37565b60206040518083038186803b1580156113c657600080fd5b505afa1580156113da573d6000803e3d6000fd5b505050506040513d601f19601f820116820180604052508101906113fe91906140b6565b9050600073ffffffffffffffffffffffffffffffffffffffff168273ffffffffffffffffffffffffffffffffffffffff16636352211e836040518263ffffffff1660e01b81526004016114519190614c37565b60206040518083038186803b15801561146957600080fd5b505afa15801561147d573d6000803e3d6000fd5b505050506040513d601f19601f820116820180604052508101906114a1919061403b565b73ffffffffffffffffffffffffffffffffffffffff1614156114f8576040517f08c379a00000000000000000000000000000000000000000000000000000000081526004016114ef90614a17565b60405180910390fd5b60006005600086815260200190815260200160002060003373ffffffffffffffffffffffffffffffffffffffff1673ffffffffffffffffffffffffffffffffffffffff168152602001908152602001600020600201541461158e576040517f08c379a0000000000000000000000000000000000000000000000000000000008152600401611585906149b7565b60405180910390fd5b82600660003373ffffffffffffffffffffffffffffffffffffffff1673ffffffffffffffffffffffffffffffffffffffff16815260200190815260200160002060008282546115dd9190614d44565b9250508190555060006005600086815260200190815260200160002060008073ffffffffffffffffffffffffffffffffffffffff1673ffffffffffffffffffffffffffffffffffffffff16815260200190815260200160002060010160009054906101000a900473ffffffffffffffffffffffffffffffffffffffff169050336005600087815260200190815260200160002060008373ffffffffffffffffffffffffffffffffffffffff1673ffffffffffffffffffffffffffffffffffffffff16815260200190815260200160002060000160006101000a81548173ffffffffffffffffffffffffffffffffffffffff021916908373ffffffffffffffffffffffffffffffffffffffff1602179055506040518060600160405280600073ffffffffffffffffffffffffffffffffffffffff1681526020018273ffffffffffffffffffffffffffffffffffffffff168152602001858152506005600087815260200190815260200160002060003373ffffffffffffffffffffffffffffffffffffffff1673ffffffffffffffffffffffffffffffffffffffff16815260200190815260200160002060008201518160000160006101000a81548173ffffffffffffffffffffffffffffffffffffffff021916908373ffffffffffffffffffffffffffffffffffffffff16021790555060208201518160010160006101000a81548173ffffffffffffffffffffffffffffffffffffffff021916908373ffffffffffffffffffffffffffffffffffffffff16021790555060408201518160020155905050336005600087815260200190815260200160002060008073ffffffffffffffffffffffffffffffffffffffff1673ffffffffffffffffffffffffffffffffffffffff16815260200190815260200160002060010160006101000a81548173ffffffffffffffffffffffffffffffffffffffff021916908373ffffffffffffffffffffffffffffffffffffffff1602179055503373ffffffffffffffffffffffffffffffffffffffff16857f791109902b518b29273af9ccef104f0591f49a4b10d6542afbe3eb8a87a2a5a4866040516118fa9190614c37565b60405180910390a35050505050565b6005602052816000526040600020602052806000526040600020600091509150508060000160009054906101000a900473ffffffffffffffffffffffffffffffffffffffff16908060010160009054906101000a900473ffffffffffffffffffffffffffffffffffffffff16908060020154905083565b60008054906101000a900473ffffffffffffffffffffffffffffffffffffffff1681565b600660003373ffffffffffffffffffffffffffffffffffffffff1673ffffffffffffffffffffffffffffffffffffffff16815260200190815260200160002054811115611a26576040517f08c379a0000000000000000000000000000000000000000000000000000000008152600401611a1d90614a57565b60405180910390fd5b80600660003373ffffffffffffffffffffffffffffffffffffffff1673ffffffffffffffffffffffffffffffffffffffff1681526020019081526020016000206000828254611a759190614d44565b925050819055506000600160009054906101000a900473ffffffffffffffffffffffffffffffffffffffff1690508073ffffffffffffffffffffffffffffffffffffffff1663a9059cbb33846040518363ffffffff1660e01b8152600401611ade9291906148fb565b602060405180830381600087803b158015611af857600080fd5b505af1158015611b0c573d6000803e3d6000fd5b505050506040513d601f19601f82011682018060405250810190611b309190614064565b611b6f576040517f08c379a0000000000000000000000000000000000000000000000000000000008152600401611b6690614ab7565b60405180910390fd5b5050565b60076020528060005260406000206000915090505481565b60008060009054906101000a900473ffffffffffffffffffffffffffffffffffffffff1690503373ffffffffffffffffffffffffffffffffffffffff168173ffffffffffffffffffffffffffffffffffffffff16636352211e866040518263ffffffff1660e01b8152600401611c019190614c37565b60206040518083038186803b158015611c1957600080fd5b505afa158015611c2d573d6000803e3d6000fd5b505050506040513d601f19601f82011682018060405250810190611c51919061403b565b73ffffffffffffffffffffffffffffffffffffffff1614611ca7576040517f08c379a0000000000000000000000000000000000000000000000000000000008152600401611c9e90614b97565b60405180910390fd5b3073ffffffffffffffffffffffffffffffffffffffff168173ffffffffffffffffffffffffffffffffffffffff1663081812fc866040518263ffffffff1660e01b8152600401611cf79190614c37565b60206040518083038186803b158015611d0f57600080fd5b505afa158015611d23573d6000803e3d6000fd5b505050506040513d601f19601f82011682018060405250810190611d47919061403b565b73ffffffffffffffffffffffffffffffffffffffff1614611d9d576040517f08c379a0000000000000000000000000000000000000000000000000000000008152600401611d9490614b77565b60405180910390fd5b6040518060a001604052806001151581526020018581526020013373ffffffffffffffffffffffffffffffffffffffff1681526020018481526020018373ffffffffffffffffffffffffffffffffffffffff168152506004600086815260200190815260200160002060008201518160000160006101000a81548160ff0219169083151502179055506020820151816001015560408201518160020160006101000a81548173ffffffffffffffffffffffffffffffffffffffff021916908373ffffffffffffffffffffffffffffffffffffffff1602179055506060820151816003015560808201518160040160006101000a81548173ffffffffffffffffffffffffffffffffffffffff021916908373ffffffffffffffffffffffffffffffffffffffff1602179055509050508173ffffffffffffffffffffffffffffffffffffffff16847fd404299d246c4005586dcbb400b48be82e12aed7cdc85f1055f9c1fcec8c8fc085604051611f129190614c37565b60405180910390a350505050565b60008060009054906101000a900473ffffffffffffffffffffffffffffffffffffffff16905060008173ffffffffffffffffffffffffffffffffffffffff16636d780e6b856040518263ffffffff1660e01b8152600401611f819190614c37565b60206040518083038186803b158015611f9957600080fd5b505afa158015611fad573d6000803e3d6000fd5b505050506040513d601f19601f82011682018060405250810190611fd191906140b6565b90503373ffffffffffffffffffffffffffffffffffffffff168273ffffffffffffffffffffffffffffffffffffffff16636352211e836040518263ffffffff1660e01b81526004016120239190614c37565b60206040518083038186803b15801561203b57600080fd5b505afa15801561204f573d6000803e3d6000fd5b505050506040513d601f19601f82011682018060405250810190612073919061403b565b73ffffffffffffffffffffffffffffffffffffffff16146120c9576040517f08c379a00000000000000000000000000000000000000000000000000000000081526004016120c090614977565b60405180910390fd5b3073ffffffffffffffffffffffffffffffffffffffff168273ffffffffffffffffffffffffffffffffffffffff1663081812fc836040518263ffffffff1660e01b81526004016121199190614c37565b60206040518083038186803b15801561213157600080fd5b505afa158015612145573d6000803e3d6000fd5b505050506040513d601f19601f82011682018060405250810190612169919061403b565b73ffffffffffffffffffffffffffffffffffffffff16146121bf576040517f08c379a00000000000000000000000000000000000000000000000000000000081526004016121b690614a77565b60405180910390fd5b60006005600086815260200190815260200160002060008573ffffffffffffffffffffffffffffffffffffffff1673ffffffffffffffffffffffffffffffffffffffff1681526020019081526020016000206002015490506000811161225a576040517f08c379a0000000000000000000000000000000000000000000000000000000008152600401612251906149d7565b60405180910390fd5b60008373ffffffffffffffffffffffffffffffffffffffff1663aad3ec9686886040518363ffffffff1660e01b81526004016122979291906148fb565b602060405180830381600087803b1580156122b157600080fd5b505af11580156122c5573d6000803e3d6000fd5b505050506040513d601f19601f820116820180604052508101906122e991906140b6565b905060006005600088815260200190815260200160002060008773ffffffffffffffffffffffffffffffffffffffff1673ffffffffffffffffffffffffffffffffffffffff1681526020019081526020016000206002018190555060006005600088815260200190815260200160002060008773ffffffffffffffffffffffffffffffffffffffff1673ffffffffffffffffffffffffffffffffffffffff16815260200190815260200160002060010160009054906101000a900473ffffffffffffffffffffffffffffffffffffffff16905060006005600089815260200190815260200160002060008873ffffffffffffffffffffffffffffffffffffffff1673ffffffffffffffffffffffffffffffffffffffff16815260200190815260200160002060000160009054906101000a900473ffffffffffffffffffffffffffffffffffffffff16905081600560008a815260200190815260200160002060008373ffffffffffffffffffffffffffffffffffffffff1673ffffffffffffffffffffffffffffffffffffffff16815260200190815260200160002060010160006101000a81548173ffffffffffffffffffffffffffffffffffffffff021916908373ffffffffffffffffffffffffffffffffffffffff16021790555080600560008a815260200190815260200160002060008473ffffffffffffffffffffffffffffffffffffffff1673ffffffffffffffffffffffffffffffffffffffff16815260200190815260200160002060000160006101000a81548173ffffffffffffffffffffffffffffffffffffffff021916908373ffffffffffffffffffffffffffffffffffffffff16021790555060006125648686613a96565b905060008773ffffffffffffffffffffffffffffffffffffffff1663589a17438b6040518263ffffffff1660e01b81526004016125a19190614c37565b60206040518083038186803b1580156125b957600080fd5b505afa1580156125cd573d6000803e3d6000fd5b505050506040513d601f19601f820116820180604052508101906125f1919061403b565b905081600660008373ffffffffffffffffffffffffffffffffffffffff1673ffffffffffffffffffffffffffffffffffffffff16815260200190815260200160002060008282546126429190614c63565b925050819055508873ffffffffffffffffffffffffffffffffffffffff16857f17e30385b93a3f258fa9383ee3a05c2d88f6fb7d2fb482a488f3874af22a64ed886040516126909190614c37565b60405180910390a350505050505050505050565b60008060009054906101000a900473ffffffffffffffffffffffffffffffffffffffff1690503373ffffffffffffffffffffffffffffffffffffffff168173ffffffffffffffffffffffffffffffffffffffff16636352211e856040518263ffffffff1660e01b815260040161271a9190614c37565b60206040518083038186803b15801561273257600080fd5b505afa158015612746573d6000803e3d6000fd5b505050506040513d601f19601f8201168201806040525081019061276a919061403b565b73ffffffffffffffffffffffffffffffffffffffff16146127c0576040517f08c379a00000000000000000000000000000000000000000000000000000000081526004016127b790614b97565b60405180910390fd5b3073ffffffffffffffffffffffffffffffffffffffff168173ffffffffffffffffffffffffffffffffffffffff1663081812fc856040518263ffffffff1660e01b81526004016128109190614c37565b60206040518083038186803b15801561282857600080fd5b505afa15801561283c573d6000803e3d6000fd5b505050506040513d601f19601f82011682018060405250810190612860919061403b565b73ffffffffffffffffffffffffffffffffffffffff16146128b6576040517f08c379a00000000000000000000000000000000000000000000000000000000081526004016128ad90614b77565b60405180910390fd5b6040518060a001604052806001151581526020018481526020013373ffffffffffffffffffffffffffffffffffffffff168152602001838152602001600073ffffffffffffffffffffffffffffffffffffffff168152506004600085815260200190815260200160002060008201518160000160006101000a81548160ff0219169083151502179055506020820151816001015560408201518160020160006101000a81548173ffffffffffffffffffffffffffffffffffffffff021916908373ffffffffffffffffffffffffffffffffffffffff1602179055506060820151816003015560808201518160040160006101000a81548173ffffffffffffffffffffffffffffffffffffffff021916908373ffffffffffffffffffffffffffffffffffffffff160217905550905050600073ffffffffffffffffffffffffffffffffffffffff16837fd404299d246c4005586dcbb400b48be82e12aed7cdc85f1055f9c1fcec8c8fc084604051612a2d9190614c37565b60405180910390a3505050565b60046020528060005260406000206000915090508060000160009054906101000a900460ff16908060010154908060020160009054906101000a900473ffffffffffffffffffffffffffffffffffffffff16908060030154908060040160009054906101000a900473ffffffffffffffffffffffffffffffffffffffff16905085565b6000600760008481526020019081526020016000205411612b13576040517f08c379a0000000000000000000000000000000000000000000000000000000008152600401612b0a90614b57565b60405180910390fd5b6007600083815260200190815260200160002054811015612b69576040517f08c379a0000000000000000000000000000000000000000000000000000000008152600401612b60906149f7565b60405180910390fd5b60008060009054906101000a900473ffffffffffffffffffffffffffffffffffffffff16905060008173ffffffffffffffffffffffffffffffffffffffff16636d780e6b856040518263ffffffff1660e01b8152600401612bca9190614c37565b60206040518083038186803b158015612be257600080fd5b505afa158015612bf6573d6000803e3d6000fd5b505050506040513d601f19601f82011682018060405250810190612c1a91906140b6565b90503073ffffffffffffffffffffffffffffffffffffffff168273ffffffffffffffffffffffffffffffffffffffff1663081812fc836040518263ffffffff1660e01b8152600401612c6c9190614c37565b60206040518083038186803b158015612c8457600080fd5b505afa158015612c98573d6000803e3d6000fd5b505050506040513d601f19601f82011682018060405250810190612cbc919061403b565b73ffffffffffffffffffffffffffffffffffffffff1614612d12576040517f08c379a0000000000000000000000000000000000000000000000000000000008152600401612d0990614ad7565b60405180910390fd5b6000600160009054906101000a900473ffffffffffffffffffffffffffffffffffffffff1690508073ffffffffffffffffffffffffffffffffffffffff166323b872dd3330876040518463ffffffff1660e01b8152600401612d76939291906148c4565b602060405180830381600087803b158015612d9057600080fd5b505af1158015612da4573d6000803e3d6000fd5b505050506040513d601f19601f82011682018060405250810190612dc89190614064565b612e07576040517f08c379a0000000000000000000000000000000000000000000000000000000008152600401612dfe90614ab7565b60405180910390fd5b60008373ffffffffffffffffffffffffffffffffffffffff1663aad3ec9633886040518363ffffffff1660e01b8152600401612e449291906148fb565b602060405180830381600087803b158015612e5e57600080fd5b505af1158015612e72573d6000803e3d6000fd5b505050506040513d601f19601f82011682018060405250810190612e9691906140b6565b90506000612ea48487613a96565b905060008573ffffffffffffffffffffffffffffffffffffffff1663589a1743896040518263ffffffff1660e01b8152600401612ee19190614c37565b60206040518083038186803b158015612ef957600080fd5b505afa158015612f0d573d6000803e3d6000fd5b505050506040513d601f19601f82011682018060405250810190612f31919061403b565b905081600660008373ffffffffffffffffffffffffffffffffffffffff1673ffffffffffffffffffffffffffffffffffffffff1681526020019081526020016000206000828254612f829190614c63565b925050819055503373ffffffffffffffffffffffffffffffffffffffff16837f17e30385b93a3f258fa9383ee3a05c2d88f6fb7d2fb482a488f3874af22a64ed89604051612fd09190614c37565b60405180910390a35050505050505050565b60008060009054906101000a900473ffffffffffffffffffffffffffffffffffffffff16905060008173ffffffffffffffffffffffffffffffffffffffff16636d780e6b856040518263ffffffff1660e01b81526004016130439190614c37565b60206040518083038186803b15801561305b57600080fd5b505afa15801561306f573d6000803e3d6000fd5b505050506040513d601f19601f8201168201806040525081019061309391906140b6565b90503373ffffffffffffffffffffffffffffffffffffffff168273ffffffffffffffffffffffffffffffffffffffff16636352211e836040518263ffffffff1660e01b81526004016130e59190614c37565b60206040518083038186803b1580156130fd57600080fd5b505afa158015613111573d6000803e3d6000fd5b505050506040513d601f19601f82011682018060405250810190613135919061403b565b73ffffffffffffffffffffffffffffffffffffffff161461318b576040517f08c379a000000000000000000000000000000000000000000000000000000000815260040161318290614977565b60405180910390fd5b3073ffffffffffffffffffffffffffffffffffffffff168273ffffffffffffffffffffffffffffffffffffffff1663081812fc836040518263ffffffff1660e01b81526004016131db9190614c37565b60206040518083038186803b1580156131f357600080fd5b505afa158015613207573d6000803e3d6000fd5b505050506040513d601f19601f8201168201806040525081019061322b919061403b565b73ffffffffffffffffffffffffffffffffffffffff1614613281576040517f08c379a000000000000000000000000000000000000000000000000000000000815260040161327890614a77565b60405180910390fd5b600083116132c4576040517f08c379a00000000000000000000000000000000000000000000000000000000081526004016132bb90614b37565b60405180910390fd5b826007600086815260200190815260200160002081905550837f6e43a44e935111ad2e5fc6b5c1753c415d428125be44ec19cbebb5969a138e218460405161330c9190614c37565b60405180910390a250505050565b600160009054906101000a900473ffffffffffffffffffffffffffffffffffffffff1681565b600260009054906101000a900473ffffffffffffffffffffffffffffffffffffffff1681565b6000600460008481526020019081526020016000206040518060a00160405290816000820160009054906101000a900460ff16151515158152602001600182015481526020016002820160009054906101000a900473ffffffffffffffffffffffffffffffffffffffff1673ffffffffffffffffffffffffffffffffffffffff1673ffffffffffffffffffffffffffffffffffffffff168152602001600382015481526020016004820160009054906101000a900473ffffffffffffffffffffffffffffffffffffffff1673ffffffffffffffffffffffffffffffffffffffff1673ffffffffffffffffffffffffffffffffffffffff1681525050905080600001516134a7576040517f08c379a000000000000000000000000000000000000000000000000000000000815260040161349e90614bf7565b60405180910390fd5b600073ffffffffffffffffffffffffffffffffffffffff16816080015173ffffffffffffffffffffffffffffffffffffffff16148061351557503373ffffffffffffffffffffffffffffffffffffffff16816080015173ffffffffffffffffffffffffffffffffffffffff16145b613554576040517f08c379a000000000000000000000000000000000000000000000000000000000815260040161354b90614997565b60405180910390fd5b806060015182101561359b576040517f08c379a0000000000000000000000000000000000000000000000000000000008152600401613592906149f7565b60405180910390fd5b60008060009054906101000a900473ffffffffffffffffffffffffffffffffffffffff1690508073ffffffffffffffffffffffffffffffffffffffff16636352211e856040518263ffffffff1660e01b81526004016135fa9190614c37565b60206040518083038186803b15801561361257600080fd5b505afa158015613626573d6000803e3d6000fd5b505050506040513d601f19601f8201168201806040525081019061364a919061403b565b73ffffffffffffffffffffffffffffffffffffffff16826040015173ffffffffffffffffffffffffffffffffffffffff16146136bb576040517f08c379a00000000000000000000000000000000000000000000000000000000081526004016136b290614a37565b60405180910390fd5b6000600160009054906101000a900473ffffffffffffffffffffffffffffffffffffffff1690508073ffffffffffffffffffffffffffffffffffffffff166323b872dd3330876040518463ffffffff1660e01b815260040161371f939291906148c4565b602060405180830381600087803b15801561373957600080fd5b505af115801561374d573d6000803e3d6000fd5b505050506040513d601f19601f820116820180604052508101906137719190614064565b6137b0576040517f08c379a00000000000000000000000000000000000000000000000000000000081526004016137a790614ab7565b60405180910390fd5b6000836040015190508273ffffffffffffffffffffffffffffffffffffffff166342842e0e8233896040518463ffffffff1660e01b81526004016137f6939291906148c4565b600060405180830381600087803b15801561381057600080fd5b505af1158015613824573d6000803e3d6000fd5b5050505061383186610c58565b600061383d8787613a96565b905080600660008473ffffffffffffffffffffffffffffffffffffffff1673ffffffffffffffffffffffffffffffffffffffff168152602001908152602001600020600082825461388e9190614c63565b925050819055503373ffffffffffffffffffffffffffffffffffffffff168273ffffffffffffffffffffffffffffffffffffffff16887f7dabc6512298d15f481bd3755e8e2e4387bdd4497983824ce33f9c315005e896896040516138f39190614c37565b60405180910390a450505050505050565b60008111613947576040517f08c379a000000000000000000000000000000000000000000000000000000000815260040161393e90614bd7565b60405180910390fd5b6000600160009054906101000a900473ffffffffffffffffffffffffffffffffffffffff1690508073ffffffffffffffffffffffffffffffffffffffff166323b872dd3330856040518463ffffffff1660e01b81526004016139ab939291906148c4565b602060405180830381600087803b1580156139c557600080fd5b505af11580156139d9573d6000803e3d6000fd5b505050506040513d601f19601f820116820180604052508101906139fd9190614064565b613a3c576040517f08c379a0000000000000000000000000000000000000000000000000000000008152600401613a3390614ab7565b60405180910390fd5b81600660003373ffffffffffffffffffffffffffffffffffffffff1673ffffffffffffffffffffffffffffffffffffffff1681526020019081526020016000206000828254613a8b9190614c63565b925050819055505050565b60008060008054906101000a900473ffffffffffffffffffffffffffffffffffffffff16905060008173ffffffffffffffffffffffffffffffffffffffff1663503ae187866040518263ffffffff1660e01b8152600401613af79190614c37565b60206040518083038186803b158015613b0f57600080fd5b505afa158015613b23573d6000803e3d6000fd5b505050506040513d601f19601f82011682018060405250810190613b4791906140b6565b905060008273ffffffffffffffffffffffffffffffffffffffff1663d26509b1836040518263ffffffff1660e01b8152600401613b849190614c37565b60206040518083038186803b158015613b9c57600080fd5b505afa158015613bb0573d6000803e3d6000fd5b505050506040513d601f19601f82011682018060405250810190613bd491906140b6565b9050600060035461271087613be99190614cb9565b613bf39190614cea565b905060008261271088613c069190614cb9565b613c109190614cea565b90506000818389613c219190614d44565b613c2b9190614d44565b905060008673ffffffffffffffffffffffffffffffffffffffff1663589a1743876040518263ffffffff1660e01b8152600401613c689190614c37565b60206040518083038186803b158015613c8057600080fd5b505afa158015613c94573d6000803e3d6000fd5b505050506040513d601f19601f82011682018060405250810190613cb8919061403b565b905060008211613cfd576040517f08c379a0000000000000000000000000000000000000000000000000000000008152600401613cf490614b17565b60405180910390fd5b82600660008373ffffffffffffffffffffffffffffffffffffffff1673ffffffffffffffffffffffffffffffffffffffff1681526020019081526020016000206000828254613d4c9190614c63565b9250508190555083600660003073ffffffffffffffffffffffffffffffffffffffff1673ffffffffffffffffffffffffffffffffffffffff1681526020019081526020016000206000828254613da29190614c63565b925050819055508197505050505050505092915050565b61271081565b60035481565b600260009054906101000a900473ffffffffffffffffffffffffffffffffffffffff1673ffffffffffffffffffffffffffffffffffffffff163373ffffffffffffffffffffffffffffffffffffffff1614613e55576040517f08c379a0000000000000000000000000000000000000000000000000000000008152600401613e4c90614c17565b60405180910390fd5b6000600160009054906101000a900473ffffffffffffffffffffffffffffffffffffffff1690508073ffffffffffffffffffffffffffffffffffffffff1663a9059cbb33600660003073ffffffffffffffffffffffffffffffffffffffff1673ffffffffffffffffffffffffffffffffffffffff168152602001908152602001600020546040518363ffffffff1660e01b8152600401613ef69291906148fb565b602060405180830381600087803b158015613f1057600080fd5b505af1158015613f24573d6000803e3d6000fd5b505050506040513d601f19601f82011682018060405250810190613f489190614064565b506000600660003073ffffffffffffffffffffffffffffffffffffffff1673ffffffffffffffffffffffffffffffffffffffff1681526020019081526020016000208190555050565b60066020528060005260406000206000915090505481565b600081359050613fb881614e1e565b92915050565b600081519050613fcd81614e1e565b92915050565b600081519050613fe281614e35565b92915050565b600081359050613ff781614e4c565b92915050565b60008151905061400c81614e4c565b92915050565b60006020828403121561402457600080fd5b600061403284828501613fa9565b91505092915050565b60006020828403121561404d57600080fd5b600061405b84828501613fbe565b91505092915050565b60006020828403121561407657600080fd5b600061408484828501613fd3565b91505092915050565b60006020828403121561409f57600080fd5b60006140ad84828501613fe8565b91505092915050565b6000602082840312156140c857600080fd5b60006140d684828501613ffd565b91505092915050565b600080604083850312156140f257600080fd5b600061410085828601613fe8565b925050602061411185828601613fa9565b9150509250929050565b6000806040838503121561412e57600080fd5b600061413c85828601613fe8565b925050602061414d85828601613fe8565b9150509250929050565b60008060006060848603121561416c57600080fd5b600061417a86828701613fe8565b935050602061418b86828701613fe8565b925050604061419c86828701613fa9565b9150509250925092565b6141af81614d78565b82525050565b6141be81614d8a565b82525050565b60006141d1603c83614c52565b91507f596f7520646f6e277420686176652061636365737320746f20617070726f766560008301527f20746869732062696420666f7220746865206e657720746f6b656e2e000000006020830152604082019050919050565b6000614237602e83614c52565b91507f74686973206974656d206e6f7420737570706f73656420746f20626520736f6c60008301527f6420746f207468697320757365720000000000000000000000000000000000006020830152604082019050919050565b600061429d601d83614c52565b91507f596f7527766520616c726561647920656e7465726564206120626964210000006000830152602082019050919050565b60006142dd602b83614c52565b91507f4e6f206269642066726f6d2074686973206164647265737320666f722074686960008301527f73206974656d207965742e0000000000000000000000000000000000000000006020830152604082019050919050565b6000614343601c83614c52565b91507f596f75206469646e27742073656e6420656e6f756768204c4f57422e000000006000830152602082019050919050565b6000614383601683614c52565b91507f546f6b656e206e6f742063726561746564207965742e000000000000000000006000830152602082019050919050565b60006143c3602483614c52565b91507f53656c6c6572206e6f206c6f6e676572206f776e6572206f662074686973206960008301527f74656d2e000000000000000000000000000000000000000000000000000000006020830152604082019050919050565b6000614429602b83614c52565b91507f616d6f756e74206c6172676572207468616e20746861742070656e64696e672060008301527f746f2077697468647261770000000000000000000000000000000000000000006020830152604082019050919050565b600061448f603483614c52565b91507f417070726f7665207468697320636f6e747261637420746f20636c61696d207460008301527f6865206e657720746f6b656e732066697273742e0000000000000000000000006020830152604082019050919050565b60006144f5601a83614c52565b91507f506c6561736520626964207769746820736f6d65206c6f7762210000000000006000830152602082019050919050565b6000614535601483614c52565b91507f4c6f7762207472616e73666572206661696c65640000000000000000000000006000830152602082019050919050565b6000614575602c83614c52565b91507f5265717569726520617070726f76656d656e7420746f20636c61696d2074686560008301527f206e657720746f6b656e732e00000000000000000000000000000000000000006020830152604082019050919050565b60006145db602683614c52565b91507f506c65617365206465706f73697420656e6f756768206c6f7762206265666f7260008301527f65206269642100000000000000000000000000000000000000000000000000006020830152604082019050919050565b6000614641602c83614c52565b91507f466565732073686f756c64206c657373207468616e20746865207472616e736160008301527f6374696f6e2076616c75652e00000000000000000000000000000000000000006020830152604082019050919050565b60006146a7601f83614c52565b91507f546f6b656e2070726963652073686f756c64206e6f74206265207a65726f2e006000830152602082019050919050565b60006146e7601d83614c52565b91507f74686973206974656d206973206e6f7420666f722073616c65206e6f770000006000830152602082019050919050565b6000614727601983614c52565b91507f417070726f7665207468697320746f6b656e2066697273742e000000000000006000830152602082019050919050565b6000614767601983614c52565b91507f596f7520646f6e2774206f776e207468697320746f6b656e2e000000000000006000830152602082019050919050565b60006147a7601c83614c52565b91507f596f7520646f6e2774206861766520612062696420666f722069742e000000006000830152602082019050919050565b60006147e7601483614c52565b91507f596f75206465706f736974206e6f7468696e67210000000000000000000000006000830152602082019050919050565b6000614827602083614c52565b91507f54686973206974656d206e6f742061637475616c6c7920666f722073616c652e6000830152602082019050919050565b6000614867601e83614c52565b91507f4f6e6c79206f776e65722063616e2070756c6c207468652066756e64732100006000830152602082019050919050565b6148a381614db6565b82525050565b60006020820190506148be60008301846141a6565b92915050565b60006060820190506148d960008301866141a6565b6148e660208301856141a6565b6148f3604083018461489a565b949350505050565b600060408201905061491060008301856141a6565b61491d602083018461489a565b9392505050565b600060a08201905061493960008301886141b5565b614946602083018761489a565b61495360408301866141a6565b614960606083018561489a565b61496d60808301846141a6565b9695505050505050565b60006020820190508181036000830152614990816141c4565b9050919050565b600060208201905081810360008301526149b08161422a565b9050919050565b600060208201905081810360008301526149d081614290565b9050919050565b600060208201905081810360008301526149f0816142d0565b9050919050565b60006020820190508181036000830152614a1081614336565b9050919050565b60006020820190508181036000830152614a3081614376565b9050919050565b60006020820190508181036000830152614a50816143b6565b9050919050565b60006020820190508181036000830152614a708161441c565b9050919050565b60006020820190508181036000830152614a9081614482565b9050919050565b60006020820190508181036000830152614ab0816144e8565b9050919050565b60006020820190508181036000830152614ad081614528565b9050919050565b60006020820190508181036000830152614af081614568565b9050919050565b60006020820190508181036000830152614b10816145ce565b9050919050565b60006020820190508181036000830152614b3081614634565b9050919050565b60006020820190508181036000830152614b508161469a565b9050919050565b60006020820190508181036000830152614b70816146da565b9050919050565b60006020820190508181036000830152614b908161471a565b9050919050565b60006020820190508181036000830152614bb08161475a565b9050919050565b60006020820190508181036000830152614bd08161479a565b9050919050565b60006020820190508181036000830152614bf0816147da565b9050919050565b60006020820190508181036000830152614c108161481a565b9050919050565b60006020820190508181036000830152614c308161485a565b9050919050565b6000602082019050614c4c600083018461489a565b92915050565b600082825260208201905092915050565b6000614c6e82614db6565b9150614c7983614db6565b9250827fffffffffffffffffffffffffffffffffffffffffffffffffffffffffffffffff03821115614cae57614cad614dc0565b5b828201905092915050565b6000614cc482614db6565b9150614ccf83614db6565b925082614cdf57614cde614def565b5b828204905092915050565b6000614cf582614db6565b9150614d0083614db6565b9250817fffffffffffffffffffffffffffffffffffffffffffffffffffffffffffffffff0483118215151615614d3957614d38614dc0565b5b828202905092915050565b6000614d4f82614db6565b9150614d5a83614db6565b925082821015614d6d57614d6c614dc0565b5b828203905092915050565b6000614d8382614d96565b9050919050565b60008115159050919050565b600073ffffffffffffffffffffffffffffffffffffffff82169050919050565b6000819050919050565b7f4e487b7100000000000000000000000000000000000000000000000000000000600052601160045260246000fd5b7f4e487b7100000000000000000000000000000000000000000000000000000000600052601260045260246000fd5b614e2781614d78565b8114614e3257600080fd5b50565b614e3e81614d8a565b8114614e4957600080fd5b50565b614e5581614db6565b8114614e6057600080fd5b5056fea26469706673582212208e585e3a3b3a613dc59f639bd2ab1233becc9244ad592efc683496e47baaa3c164736f6c63430008000033",
  "immutableReferences": {},
  "source": "// contracts/LowbMarket.sol\r\n// SPDX-License-Identifier: MIT\r\npragma solidity ^0.8.0;\r\n\r\nimport \"./IERC721LOWB.sol\";\r\nimport \"@openzeppelin/contracts/token/ERC20/IERC20.sol\";\r\n\r\ncontract LowbMarket {\r\n\r\n    address public nonFungibleTokenAddress;\r\n    address public lowbTokenAddress;\r\n\r\n    address public owner;\r\n\r\n    /* Inverse basis point. */\r\n    uint public constant INVERSE_BASIS_POINT = 10000;\r\n    uint public fee;\r\n\r\n    struct Offer {\r\n        bool isForSale;\r\n        uint itemId;\r\n        address seller;\r\n        uint minValue;          // in lowb\r\n        address onlySellTo;     // specify to sell only to a specific person\r\n    }\r\n\r\n    struct Bid {\r\n        address prevBidder;\r\n        address nextBidder;\r\n        uint value;\r\n    }\r\n\r\n    // A record of items that are offered for sale at a specific minimum value, and perhaps to a specific person\r\n    mapping (uint => Offer) public itemsOfferedForSale;\r\n\r\n    // A record of the highest bid\r\n    mapping (uint => mapping (address => Bid)) public itemBids;\r\n\r\n    mapping (address => uint) public pendingWithdrawals;\r\n    mapping (uint => uint) public newTokenOffer;\r\n\r\n    event ItemNoLongerForSale(uint indexed itemId);\r\n    event ItemOffered(uint indexed itemId, uint minValue, address indexed toAddress);\r\n    event NewItemsOffered(uint indexed groupId, uint minValue);\r\n    event NewBidEntered(uint indexed groupId, uint value, address indexed fromAddress);\r\n    event BidWithdrawn(uint indexed itemId, uint value, address indexed fromAddress);\r\n    event ItemBought(uint indexed itemId, uint value, address indexed fromAddress, address indexed toAddress);\r\n    event ItemMint(uint indexed itemId, uint value, address indexed toAddress);\r\n\r\n    constructor(address lowbToken_, address nonFungibleToken_) {\r\n        require(nonFungibleToken_ != address(0));\r\n        nonFungibleTokenAddress = nonFungibleToken_;\r\n        lowbTokenAddress = lowbToken_;\r\n        owner = msg.sender;\r\n        fee = 250;\r\n    }\r\n\r\n    function itemNoLongerForSale(uint itemId) public {\r\n        IERC721 token = IERC721(nonFungibleTokenAddress);\r\n        require(token.ownerOf(itemId) == msg.sender, \"You don't own this token.\");\r\n\r\n        itemsOfferedForSale[itemId] = Offer(false, itemId, msg.sender, 0, address(0));\r\n        emit ItemNoLongerForSale(itemId);\r\n    }\r\n\r\n    function offerItemForSale(uint itemId, uint minSalePriceInWei) public {\r\n        IERC721 token = IERC721(nonFungibleTokenAddress);\r\n        require(token.ownerOf(itemId) == msg.sender, \"You don't own this token.\");\r\n        require(token.getApproved(itemId) == address(this), \"Approve this token first.\");\r\n\r\n        itemsOfferedForSale[itemId] = Offer(true, itemId, msg.sender, minSalePriceInWei, address(0));\r\n        emit ItemOffered(itemId, minSalePriceInWei, address(0));\r\n    }\r\n\r\n    function offerItemForSaleToAddress(uint itemId, uint minSalePriceInWei, address toAddress) public {\r\n        IERC721 token = IERC721(nonFungibleTokenAddress);\r\n        require(token.ownerOf(itemId) == msg.sender, \"You don't own this token.\");\r\n        require(token.getApproved(itemId) == address(this), \"Approve this token first.\");\r\n\r\n        itemsOfferedForSale[itemId] = Offer(true, itemId, msg.sender, minSalePriceInWei, toAddress);\r\n        emit ItemOffered(itemId, minSalePriceInWei, toAddress);\r\n    }\r\n\r\n    function deposit(uint amount) public {\r\n        require(amount > 0, \"You deposit nothing!\");\r\n        IERC20 token = IERC20(lowbTokenAddress);\r\n        require(token.transferFrom(msg.sender, address(this), amount), \"Lowb transfer failed\");\r\n        pendingWithdrawals[msg.sender] +=  amount;\r\n    }\r\n\r\n    function withdraw(uint amount) public {\r\n        require(amount <= pendingWithdrawals[msg.sender], \"amount larger than that pending to withdraw\");  \r\n        pendingWithdrawals[msg.sender] -= amount;\r\n        IERC20 token = IERC20(lowbTokenAddress);\r\n        require(token.transfer(msg.sender, amount), \"Lowb transfer failed\");\r\n    }\r\n\r\n    function make_deal(uint itemId, uint amount) public returns (uint) {\r\n        IERC721LOWB nft = IERC721LOWB(nonFungibleTokenAddress);\r\n        uint groupId = nft.groupOf(itemId);\r\n        uint royalty = nft.royaltyOf(groupId);\r\n        uint fee_amount = amount / INVERSE_BASIS_POINT * fee;\r\n        uint royalty_amount = amount / INVERSE_BASIS_POINT * royalty;\r\n        uint actual_amount = amount - fee_amount - royalty_amount;\r\n        address creator = nft.creatorOf(groupId);\r\n        require(actual_amount > 0, \"Fees should less than the transaction value.\");\r\n        pendingWithdrawals[creator] += royalty_amount;\r\n        pendingWithdrawals[address(this)] += fee_amount;\r\n        return actual_amount;\r\n    }\r\n\r\n    function buyItem(uint itemId, uint amount) public {\r\n        Offer memory offer = itemsOfferedForSale[itemId];\r\n        require(offer.isForSale, \"This item not actually for sale.\");\r\n        require(offer.onlySellTo == address(0) || offer.onlySellTo == msg.sender, \"this item not supposed to be sold to this user\");\r\n        require(amount >= offer.minValue, \"You didn't send enough LOWB.\");\r\n\r\n        IERC721 nft = IERC721(nonFungibleTokenAddress);\r\n        require(offer.seller == nft.ownerOf(itemId), \"Seller no longer owner of this item.\");\r\n\r\n        IERC20 lowb = IERC20(lowbTokenAddress);\r\n        require(lowb.transferFrom(msg.sender, address(this), amount), \"Lowb transfer failed\");\r\n\r\n        address seller = offer.seller;\r\n        nft.safeTransferFrom(seller, msg.sender, itemId);\r\n\r\n        itemNoLongerForSale(itemId);\r\n\r\n        uint actual_amount = make_deal(itemId, amount);\r\n        pendingWithdrawals[seller] += actual_amount;\r\n        emit ItemBought(itemId, amount, seller, msg.sender);\r\n    }\r\n\r\n    function enterBid(uint groupId, uint amount) public {\r\n        require(pendingWithdrawals[msg.sender] >= amount, \"Please deposit enough lowb before bid!\");\r\n        require(amount > 0, \"Please bid with some lowb!\");\r\n\r\n        IERC721LOWB nft = IERC721LOWB(nonFungibleTokenAddress);\r\n        uint itemId = nft.groupStart(groupId);\r\n        require(nft.ownerOf(itemId) != address(0), \"Token not created yet.\");\r\n\r\n        require(itemBids[groupId][msg.sender].value == 0, \"You've already entered a bid!\");\r\n\r\n        // Lock the current bid\r\n        pendingWithdrawals[msg.sender] -= amount;\r\n        address latestBidder = itemBids[groupId][address(0)].nextBidder;\r\n        itemBids[groupId][latestBidder].prevBidder = msg.sender;\r\n        itemBids[groupId][msg.sender] = Bid(address(0), latestBidder, amount);\r\n        itemBids[groupId][address(0)].nextBidder = msg.sender;\r\n\r\n        emit NewBidEntered(groupId, amount, msg.sender);\r\n    }\r\n\r\n    function acceptBid(uint itemId, address bidder) public {\r\n        IERC721LOWB nft = IERC721LOWB(nonFungibleTokenAddress);\r\n        require(nft.ownerOf(itemId) == msg.sender, \"You don't own this token.\");\r\n        require(nft.getApproved(itemId) == address(this), \"Approve this token first.\");\r\n        \r\n        address seller = msg.sender;\r\n        uint groupId = nft.groupOf(itemId);\r\n        uint amount = itemBids[groupId][bidder].value;\r\n        require(amount > 0, \"No bid from this address for this item yet.\");\r\n\r\n        nft.safeTransferFrom(seller, bidder, itemId);\r\n        itemsOfferedForSale[itemId] = Offer(false, itemId, bidder, 0, address(0));\r\n\r\n        itemBids[groupId][bidder].value = 0;\r\n        address nextBidder = itemBids[groupId][bidder].nextBidder;\r\n        address prevBidder = itemBids[groupId][bidder].prevBidder;\r\n        itemBids[groupId][prevBidder].nextBidder = nextBidder;\r\n        itemBids[groupId][nextBidder].prevBidder = prevBidder;\r\n        \r\n        uint actual_amount = make_deal(itemId, amount);\r\n        pendingWithdrawals[seller] += actual_amount;\r\n        emit ItemBought(itemId, amount, seller, bidder);\r\n    }\r\n\r\n    function withdrawBid(uint groupId) public {\r\n        uint amount = itemBids[groupId][msg.sender].value;\r\n        require(amount > 0, \"You don't have a bid for it.\");\r\n        emit BidWithdrawn(groupId, amount, msg.sender);\r\n        \r\n        itemBids[groupId][msg.sender].value = 0;\r\n        address nextBidder = itemBids[groupId][msg.sender].nextBidder;\r\n        address prevBidder = itemBids[groupId][msg.sender].prevBidder;\r\n        itemBids[groupId][prevBidder].nextBidder = nextBidder;\r\n        itemBids[groupId][nextBidder].prevBidder = prevBidder;\r\n        // Refund the bid money\r\n        pendingWithdrawals[msg.sender] += amount;\r\n    }\r\n\r\n    function approveBid(uint groupId, address bidder) public {\r\n        IERC721LOWB nft = IERC721LOWB(nonFungibleTokenAddress);\r\n        uint itemId = nft.groupStart(groupId);\r\n        require(nft.ownerOf(itemId) == msg.sender, \"You don't have access to approve this bid for the new token.\");\r\n        require(nft.getApproved(itemId) == address(this), \"Approve this contract to claim the new tokens first.\");\r\n\r\n        uint amount = itemBids[groupId][bidder].value;\r\n        require(amount > 0, \"No bid from this address for this item yet.\");\r\n        \r\n        uint tokenId = nft.claim(bidder, groupId);\r\n        \r\n        itemBids[groupId][bidder].value = 0;\r\n        address nextBidder = itemBids[groupId][bidder].nextBidder;\r\n        address prevBidder = itemBids[groupId][bidder].prevBidder;\r\n        itemBids[groupId][prevBidder].nextBidder = nextBidder;\r\n        itemBids[groupId][nextBidder].prevBidder = prevBidder;\r\n\r\n        uint actual_amount = make_deal(itemId, amount);\r\n        address creator = nft.creatorOf(groupId);\r\n        pendingWithdrawals[creator] += actual_amount;\r\n        emit ItemMint(tokenId, amount, bidder);\r\n    }\r\n\r\n    function offerItemsForPublicSale(uint groupId, uint minSalePriceInWei) public {\r\n        IERC721LOWB nft = IERC721LOWB(nonFungibleTokenAddress);\r\n        uint itemId = nft.groupStart(groupId);\r\n        require(nft.ownerOf(itemId) == msg.sender, \"You don't have access to approve this bid for the new token.\");\r\n        require(nft.getApproved(itemId) == address(this), \"Approve this contract to claim the new tokens first.\");\r\n        require(minSalePriceInWei > 0, \"Token price should not be zero.\");\r\n\r\n        newTokenOffer[groupId] = minSalePriceInWei;\r\n        emit NewItemsOffered(groupId, minSalePriceInWei);\r\n    }\r\n\r\n    function buyNewItem(uint groupId, uint amount) public {\r\n        require(newTokenOffer[groupId] > 0, \"this item is not for sale now\");\r\n        require(amount >= newTokenOffer[groupId], \"You didn't send enough LOWB.\");\r\n\r\n        IERC721LOWB nft = IERC721LOWB(nonFungibleTokenAddress);\r\n        uint itemId = nft.groupStart(groupId);\r\n        require(nft.getApproved(itemId) == address(this), \"Require approvement to claim the new tokens.\");\r\n\r\n        IERC20 lowb = IERC20(lowbTokenAddress);\r\n        require(lowb.transferFrom(msg.sender, address(this), amount), \"Lowb transfer failed\");\r\n\r\n        uint tokenId = nft.claim(msg.sender, groupId);\r\n\r\n        uint actual_amount = make_deal(itemId, amount);\r\n        address creator = nft.creatorOf(groupId);\r\n        pendingWithdrawals[creator] += actual_amount;\r\n        emit ItemMint(tokenId, amount, msg.sender);\r\n    }\r\n\r\n    function pullFunds() public {\r\n        require(msg.sender == owner, \"Only owner can pull the funds!\");\r\n        IERC20 lowb = IERC20(lowbTokenAddress);\r\n        lowb.transfer(msg.sender, pendingWithdrawals[address(this)]);\r\n        pendingWithdrawals[address(this)] = 0;\r\n    }\r\n\r\n}",
  "sourcePath": "C:/Users/Weixuan/Documents/github/LowbMarket/contracts/LowbMarket.sol",
  "compiler": {
    "name": "solc",
    "version": "0.8.0+commit.c7dfd78e.Emscripten.clang"
  },
  "schemaVersion": "3.4.0",
  "updatedAt": "2021-06-09T12:43:25.653Z",
  "networkType": "ethereum",
  "devdoc": {
    "kind": "dev",
    "methods": {},
    "version": 1
  },
  "userdoc": {
    "kind": "user",
    "methods": {},
    "version": 1
  }
}