{
  "contractName": "LowbLottery",
  "abi": [
    {
      "inputs": [
        {
          "internalType": "address",
          "name": "wallet_",
          "type": "address"
        },
        {
          "internalType": "address",
          "name": "nft_",
          "type": "address"
        }
      ],
      "stateMutability": "nonpayable",
      "type": "constructor"
    },
    {
      "inputs": [],
      "name": "isPause",
      "outputs": [
        {
          "internalType": "bool",
          "name": "",
          "type": "bool"
        }
      ],
      "stateMutability": "view",
      "type": "function",
      "constant": true
    },
    {
      "inputs": [
        {
          "internalType": "address",
          "name": "",
          "type": "address"
        },
        {
          "internalType": "uint256",
          "name": "",
          "type": "uint256"
        }
      ],
      "name": "luckyOf",
      "outputs": [
        {
          "internalType": "uint256",
          "name": "",
          "type": "uint256"
        }
      ],
      "stateMutability": "view",
      "type": "function",
      "constant": true
    },
    {
      "inputs": [],
      "name": "nftAddress",
      "outputs": [
        {
          "internalType": "address",
          "name": "",
          "type": "address"
        }
      ],
      "stateMutability": "view",
      "type": "function",
      "constant": true
    },
    {
      "inputs": [],
      "name": "owner",
      "outputs": [
        {
          "internalType": "address",
          "name": "",
          "type": "address"
        }
      ],
      "stateMutability": "view",
      "type": "function",
      "constant": true
    },
    {
      "inputs": [
        {
          "internalType": "uint256",
          "name": "",
          "type": "uint256"
        }
      ],
      "name": "rounds",
      "outputs": [
        {
          "internalType": "uint256",
          "name": "id",
          "type": "uint256"
        },
        {
          "internalType": "uint256",
          "name": "block",
          "type": "uint256"
        },
        {
          "internalType": "uint256",
          "name": "pool",
          "type": "uint256"
        },
        {
          "internalType": "uint256",
          "name": "cheatFee",
          "type": "uint256"
        }
      ],
      "stateMutability": "view",
      "type": "function",
      "constant": true
    },
    {
      "inputs": [],
      "name": "walletAddress",
      "outputs": [
        {
          "internalType": "address",
          "name": "",
          "type": "address"
        }
      ],
      "stateMutability": "view",
      "type": "function",
      "constant": true
    },
    {
      "inputs": [
        {
          "internalType": "address",
          "name": "",
          "type": "address"
        }
      ],
      "name": "whitelist",
      "outputs": [
        {
          "internalType": "bool",
          "name": "",
          "type": "bool"
        }
      ],
      "stateMutability": "view",
      "type": "function",
      "constant": true
    },
    {
      "inputs": [
        {
          "internalType": "bool",
          "name": "b",
          "type": "bool"
        }
      ],
      "name": "setPause",
      "outputs": [],
      "stateMutability": "nonpayable",
      "type": "function"
    },
    {
      "inputs": [
        {
          "internalType": "uint256",
          "name": "id",
          "type": "uint256"
        }
      ],
      "name": "getLuckyNumbers",
      "outputs": [
        {
          "internalType": "uint256[10]",
          "name": "",
          "type": "uint256[10]"
        }
      ],
      "stateMutability": "view",
      "type": "function",
      "constant": true
    },
    {
      "inputs": [
        {
          "internalType": "uint256",
          "name": "id",
          "type": "uint256"
        }
      ],
      "name": "getLuckyAddress",
      "outputs": [
        {
          "internalType": "address[10]",
          "name": "",
          "type": "address[10]"
        }
      ],
      "stateMutability": "view",
      "type": "function",
      "constant": true
    },
    {
      "inputs": [],
      "name": "totalRounds",
      "outputs": [
        {
          "internalType": "uint256",
          "name": "",
          "type": "uint256"
        }
      ],
      "stateMutability": "view",
      "type": "function",
      "constant": true
    },
    {
      "inputs": [],
      "name": "cheat",
      "outputs": [],
      "stateMutability": "nonpayable",
      "type": "function"
    },
    {
      "inputs": [],
      "name": "setWhitelist",
      "outputs": [],
      "stateMutability": "nonpayable",
      "type": "function"
    },
    {
      "inputs": [],
      "name": "moveToNextRound",
      "outputs": [],
      "stateMutability": "nonpayable",
      "type": "function"
    }
  ],
  "bytecode": "0x60806040523480156200001157600080fd5b506040516200285d3803806200285d83398181016040528101906200003791906200072c565b81600160006101000a81548173ffffffffffffffffffffffffffffffffffffffff021916908373ffffffffffffffffffffffffffffffffffffffff16021790555080600260006101000a81548173ffffffffffffffffffffffffffffffffffffffff021916908373ffffffffffffffffffffffffffffffffffffffff16021790555033600360006101000a81548173ffffffffffffffffffffffffffffffffffffffff021916908373ffffffffffffffffffffffffffffffffffffffff1602179055506200010462000560565b60008160000181815250504381602001818152505069d3c21bcecceda100000081604001818152505060048190806001815401808255809150506001900390600052602060002090601802016000909190919091506000820151816000015560208201518160010155604082015181600201556060820151816003015560808201518160040190600a6200019a929190620005a6565b5060a082015181600e0190600a620001b4929190620005eb565b505050620001c7620001d060201b60201c565b505050620009a6565b6000600260009054906101000a900473ffffffffffffffffffffffffffffffffffffffff16905060008173ffffffffffffffffffffffffffffffffffffffff166318160ddd6040518163ffffffff1660e01b815260040160206040518083038186803b1580156200024057600080fd5b505afa15801562000255573d6000803e3d6000fd5b505050506040513d601f19601f820116820180604052508101906200027b91906200076d565b905060005b600a8110156200055b576000824233600054604051602001620002a693929190620007d8565b6040516020818303038152906040528051906020012060001c620002cb9190620008dc565b90508060046001600480549050620002e4919062000815565b815481106200031c577f4e487b7100000000000000000000000000000000000000000000000000000000600052603260045260246000fd5b906000526020600020906018020160040183600a811062000366577f4e487b7100000000000000000000000000000000000000000000000000000000600052603260045260246000fd5b018190555060008473ffffffffffffffffffffffffffffffffffffffff1663dbacc237836040518263ffffffff1660e01b8152600401620003a89190620007bb565b60206040518083038186803b158015620003c157600080fd5b505afa158015620003d6573d6000803e3d6000fd5b505050506040513d601f19601f82011682018060405250810190620003fc919062000700565b9050600560008273ffffffffffffffffffffffffffffffffffffffff1673ffffffffffffffffffffffffffffffffffffffff16815260200190815260200160002060009054906101000a900460ff16156200052a57806004600160048054905062000468919062000815565b81548110620004a0577f4e487b7100000000000000000000000000000000000000000000000000000000600052603260045260246000fd5b9060005260206000209060180201600e0184600a8110620004ea577f4e487b7100000000000000000000000000000000000000000000000000000000600052603260045260246000fd5b0160006101000a81548173ffffffffffffffffffffffffffffffffffffffff021916908373ffffffffffffffffffffffffffffffffffffffff1602179055505b6000808154809291906200053e906200088e565b91905055505050808062000552906200088e565b91505062000280565b505050565b6040518060c0016040528060008152602001600081526020016000815260200160008152602001620005916200066d565b8152602001620005a062000690565b81525090565b82600a8101928215620005d8579160200282015b82811115620005d7578251825591602001919060010190620005ba565b5b509050620005e79190620006b3565b5090565b82600a81019282156200065a579160200282015b82811115620006595782518260006101000a81548173ffffffffffffffffffffffffffffffffffffffff021916908373ffffffffffffffffffffffffffffffffffffffff16021790555091602001919060010190620005ff565b5b509050620006699190620006b3565b5090565b604051806101400160405280600a90602082028036833780820191505090505090565b604051806101400160405280600a90602082028036833780820191505090505090565b5b80821115620006ce576000816000905550600101620006b4565b5090565b600081519050620006e38162000972565b92915050565b600081519050620006fa816200098c565b92915050565b6000602082840312156200071357600080fd5b60006200072384828501620006d2565b91505092915050565b600080604083850312156200074057600080fd5b60006200075085828601620006d2565b92505060206200076385828601620006d2565b9150509250929050565b6000602082840312156200078057600080fd5b60006200079084828501620006e9565b91505092915050565b620007a48162000850565b82525050565b620007b58162000884565b82525050565b6000602082019050620007d26000830184620007aa565b92915050565b6000606082019050620007ef6000830186620007aa565b620007fe602083018562000799565b6200080d6040830184620007aa565b949350505050565b6000620008228262000884565b91506200082f8362000884565b92508282101562000845576200084462000914565b5b828203905092915050565b60006200085d8262000864565b9050919050565b600073ffffffffffffffffffffffffffffffffffffffff82169050919050565b6000819050919050565b60006200089b8262000884565b91507fffffffffffffffffffffffffffffffffffffffffffffffffffffffffffffffff821415620008d157620008d062000914565b5b600182019050919050565b6000620008e98262000884565b9150620008f68362000884565b92508262000909576200090862000943565b5b828206905092915050565b7f4e487b7100000000000000000000000000000000000000000000000000000000600052601160045260246000fd5b7f4e487b7100000000000000000000000000000000000000000000000000000000600052601260045260246000fd5b6200097d8162000850565b81146200098957600080fd5b50565b620009978162000884565b8114620009a357600080fd5b50565b611ea780620009b66000396000f3fe608060405234801561001057600080fd5b50600436106100ea5760003560e01c80639b19251a1161008c578063b8793da911610066578063b8793da914610264578063b923b2051461026e578063bedb86fb14610278578063ff0938a714610294576100ea565b80639b19251a146101fa578063a69f269c1461022a578063aa1b510e1461025a576100ea565b80636ad5b3ea116100c85780636ad5b3ea1461016d5780638a5682991461018b5780638c65c81f146101a95780638da5cb5b146101dc576100ea565b806309497e5f146100ef578063502d21661461011f5780635bf8633a1461014f575b600080fd5b6101096004803603810190610104919061169e565b6102b2565b6040516101169190611a4a565b60405180910390f35b61013960048036038101906101349190611610565b61037e565b6040516101469190611b3d565b60405180910390f35b6101576103af565b60405161016491906119b4565b60405180910390f35b6101756103d5565b60405161018291906119b4565b60405180910390f35b6101936103fb565b6040516101a09190611b3d565b60405180910390f35b6101c360048036038101906101be919061169e565b610408565b6040516101d39493929190611b8f565b60405180910390f35b6101e4610448565b6040516101f191906119b4565b60405180910390f35b610214600480360381019061020f91906115be565b61046e565b6040516102219190611a82565b60405180910390f35b610244600480360381019061023f919061169e565b61048e565b6040516102519190611a66565b60405180910390f35b610262610524565b005b61026c610903565b005b610276610f51565b005b610292600480360381019061028d919061164c565b610fab565b005b61029c611058565b6040516102a99190611a82565b60405180910390f35b6102ba6113de565b600482815481106102f4577f4e487b7100000000000000000000000000000000000000000000000000000000600052603260045260246000fd5b9060005260206000209060180201600e01600a806020026040519081016040528092919082600a8015610372576020028201915b8160009054906101000a900473ffffffffffffffffffffffffffffffffffffffff1673ffffffffffffffffffffffffffffffffffffffff1681526020019060010190808311610328575b50505050509050919050565b6006602052816000526040600020818154811061039a57600080fd5b90600052602060002001600091509150505481565b600260009054906101000a900473ffffffffffffffffffffffffffffffffffffffff1681565b600160009054906101000a900473ffffffffffffffffffffffffffffffffffffffff1681565b6000600480549050905090565b6004818154811061041857600080fd5b90600052602060002090601802016000915090508060000154908060010154908060020154908060030154905084565b600360009054906101000a900473ffffffffffffffffffffffffffffffffffffffff1681565b60056020528060005260406000206000915054906101000a900460ff1681565b610496611401565b600482815481106104d0577f4e487b7100000000000000000000000000000000000000000000000000000000600052603260045260246000fd5b9060005260206000209060180201600401600a806020026040519081016040528092919082600a8015610518576020028201915b815481526020019060010190808311610504575b50505050509050919050565b6000683635c9adc5dea00000600460016004805490506105449190611cc6565b8154811061057b577f4e487b7100000000000000000000000000000000000000000000000000000000600052603260045260246000fd5b9060005260206000209060180201600301546105979190611c3f565b90506000600160009054906101000a900473ffffffffffffffffffffffffffffffffffffffff169050818173ffffffffffffffffffffffffffffffffffffffff166370a08231336040518263ffffffff1660e01b81526004016105fa91906119b4565b60206040518083038186803b15801561061257600080fd5b505afa158015610626573d6000803e3d6000fd5b505050506040513d601f19601f8201168201806040525081019061064a91906116c7565b101561068b576040517f08c379a000000000000000000000000000000000000000000000000000000000815260040161068290611a9d565b60405180910390fd5b8073ffffffffffffffffffffffffffffffffffffffff1663eb2b4a5533306040518363ffffffff1660e01b81526004016106c69291906119cf565b60206040518083038186803b1580156106de57600080fd5b505afa1580156106f2573d6000803e3d6000fd5b505050506040513d601f19601f820116820180604052508101906107169190611675565b610755576040517f08c379a000000000000000000000000000000000000000000000000000000000815260040161074c90611add565b60405180910390fd5b8073ffffffffffffffffffffffffffffffffffffffff166369fb2a2033846040518363ffffffff1660e01b8152600401610790929190611a21565b600060405180830381600087803b1580156107aa57600080fd5b505af11580156107be573d6000803e3d6000fd5b5050505081600460016004805490506107d79190611cc6565b8154811061080e577f4e487b7100000000000000000000000000000000000000000000000000000000600052603260045260246000fd5b9060005260206000209060180201600301819055506002826108309190611c95565b600460016004805490506108449190611cc6565b8154811061087b577f4e487b7100000000000000000000000000000000000000000000000000000000600052603260045260246000fd5b9060005260206000209060180201600201546108979190611c3f565b600460016004805490506108ab9190611cc6565b815481106108e2577f4e487b7100000000000000000000000000000000000000000000000000000000600052603260045260246000fd5b9060005260206000209060180201600201819055506108ff61106b565b5050565b60001515600360149054906101000a900460ff16151514610959576040517f08c379a000000000000000000000000000000000000000000000000000000000815260040161095090611afd565b60405180910390fd5b6000600160009054906101000a900473ffffffffffffffffffffffffffffffffffffffff169050610988611424565b60006004600160048054905061099e9190611cc6565b815481106109d5577f4e487b7100000000000000000000000000000000000000000000000000000000600052603260045260246000fd5b90600052602060002090601802016040518060c00160405290816000820154815260200160018201548152602001600282015481526020016003820154815260200160048201600a806020026040519081016040528092919082600a8015610a52576020028201915b815481526020019060010190808311610a3e575b50505050508152602001600e8201600a806020026040519081016040528092919082600a8015610acd576020028201915b8160009054906101000a900473ffffffffffffffffffffffffffffffffffffffff1673ffffffffffffffffffffffffffffffffffffffff1681526020019060010190808311610a83575b505050505081525050905060018160000151610ae99190611c3f565b826000018181525050438260200181815250506109608160200151610b0e9190611c3f565b431015610b50576040517f08c379a0000000000000000000000000000000000000000000000000000000008152600401610b4790611b1d565b60405180910390fd5b69152d02c7e14af68000008160400151610b6a9190611c3f565b8260400181815250506000600a8260400151610b869190611c95565b90506000600260009054906101000a900473ffffffffffffffffffffffffffffffffffffffff16905060005b600a811015610e455760008273ffffffffffffffffffffffffffffffffffffffff1663dbacc237866080015184600a8110610c16577f4e487b7100000000000000000000000000000000000000000000000000000000600052603260045260246000fd5b60200201516040518263ffffffff1660e01b8152600401610c379190611b3d565b60206040518083038186803b158015610c4f57600080fd5b505afa158015610c63573d6000803e3d6000fd5b505050506040513d601f19601f82011682018060405250810190610c8791906115e7565b9050600560008273ffffffffffffffffffffffffffffffffffffffff1673ffffffffffffffffffffffffffffffffffffffff16815260200190815260200160002060009054906101000a900460ff1615610e3157838660400151610ceb9190611cc6565b8660400181815250508673ffffffffffffffffffffffffffffffffffffffff16635d8a776e82866040518363ffffffff1660e01b8152600401610d2f929190611a21565b600060405180830381600087803b158015610d4957600080fd5b505af1158015610d5d573d6000803e3d6000fd5b50505050600660008273ffffffffffffffffffffffffffffffffffffffff1673ffffffffffffffffffffffffffffffffffffffff1681526020019081526020016000206001600480549050610db29190611cc6565b90806001815401808255809150506001900390600052602060002001600090919091909150556000600560008373ffffffffffffffffffffffffffffffffffffffff1673ffffffffffffffffffffffffffffffffffffffff16815260200190815260200160002060006101000a81548160ff0219169083151502179055505b508080610e3d90611d54565b915050610bb2565b5060048490806001815401808255809150506001900390600052602060002090601802016000909190919091506000820151816000015560208201518160010155604082015181600201556060820151816003015560808201518160040190600a610eb1929190611466565b5060a082015181600e0190600a610ec99291906114a6565b505050610ed461106b565b8473ffffffffffffffffffffffffffffffffffffffff16635d8a776e33683635c9adc5dea000006040518363ffffffff1660e01b8152600401610f189291906119f8565b600060405180830381600087803b158015610f3257600080fd5b505af1158015610f46573d6000803e3d6000fd5b505050505050505050565b6001600560003373ffffffffffffffffffffffffffffffffffffffff1673ffffffffffffffffffffffffffffffffffffffff16815260200190815260200160002060006101000a81548160ff021916908315150217905550565b600360009054906101000a900473ffffffffffffffffffffffffffffffffffffffff1673ffffffffffffffffffffffffffffffffffffffff163373ffffffffffffffffffffffffffffffffffffffff161461103b576040517f08c379a000000000000000000000000000000000000000000000000000000000815260040161103290611abd565b60405180910390fd5b80600360146101000a81548160ff02191690831515021790555050565b600360149054906101000a900460ff1681565b6000600260009054906101000a900473ffffffffffffffffffffffffffffffffffffffff16905060008173ffffffffffffffffffffffffffffffffffffffff166318160ddd6040518163ffffffff1660e01b815260040160206040518083038186803b1580156110da57600080fd5b505afa1580156110ee573d6000803e3d6000fd5b505050506040513d601f19601f8201168201806040525081019061111291906116c7565b905060005b600a8110156113d957600082423360005460405160200161113a93929190611b58565b6040516020818303038152906040528051906020012060001c61115d9190611d9d565b905080600460016004805490506111749190611cc6565b815481106111ab577f4e487b7100000000000000000000000000000000000000000000000000000000600052603260045260246000fd5b906000526020600020906018020160040183600a81106111f4577f4e487b7100000000000000000000000000000000000000000000000000000000600052603260045260246000fd5b018190555060008473ffffffffffffffffffffffffffffffffffffffff1663dbacc237836040518263ffffffff1660e01b81526004016112349190611b3d565b60206040518083038186803b15801561124c57600080fd5b505afa158015611260573d6000803e3d6000fd5b505050506040513d601f19601f8201168201806040525081019061128491906115e7565b9050600560008273ffffffffffffffffffffffffffffffffffffffff1673ffffffffffffffffffffffffffffffffffffffff16815260200190815260200160002060009054906101000a900460ff16156113ad5780600460016004805490506112ed9190611cc6565b81548110611324577f4e487b7100000000000000000000000000000000000000000000000000000000600052603260045260246000fd5b9060005260206000209060180201600e0184600a811061136d577f4e487b7100000000000000000000000000000000000000000000000000000000600052603260045260246000fd5b0160006101000a81548173ffffffffffffffffffffffffffffffffffffffff021916908373ffffffffffffffffffffffffffffffffffffffff1602179055505b6000808154809291906113bf90611d54565b9190505550505080806113d190611d54565b915050611117565b505050565b604051806101400160405280600a90602082028036833780820191505090505090565b604051806101400160405280600a90602082028036833780820191505090505090565b6040518060c0016040528060008152602001600081526020016000815260200160008152602001611453611401565b81526020016114606113de565b81525090565b82600a8101928215611495579160200282015b82811115611494578251825591602001919060010190611479565b5b5090506114a29190611523565b5090565b82600a8101928215611512579160200282015b828111156115115782518260006101000a81548173ffffffffffffffffffffffffffffffffffffffff021916908373ffffffffffffffffffffffffffffffffffffffff160217905550916020019190600101906114b9565b5b50905061151f9190611523565b5090565b5b8082111561153c576000816000905550600101611524565b5090565b60008135905061154f81611e2c565b92915050565b60008151905061156481611e2c565b92915050565b60008135905061157981611e43565b92915050565b60008151905061158e81611e43565b92915050565b6000813590506115a381611e5a565b92915050565b6000815190506115b881611e5a565b92915050565b6000602082840312156115d057600080fd5b60006115de84828501611540565b91505092915050565b6000602082840312156115f957600080fd5b600061160784828501611555565b91505092915050565b6000806040838503121561162357600080fd5b600061163185828601611540565b925050602061164285828601611594565b9150509250929050565b60006020828403121561165e57600080fd5b600061166c8482850161156a565b91505092915050565b60006020828403121561168757600080fd5b60006116958482850161157f565b91505092915050565b6000602082840312156116b057600080fd5b60006116be84828501611594565b91505092915050565b6000602082840312156116d957600080fd5b60006116e7848285016115a9565b91505092915050565b60006116fc8383611720565b60208301905092915050565b60006117148383611996565b60208301905092915050565b61172981611cfa565b82525050565b61173881611cfa565b82525050565b61174781611be8565b6117518184611c18565b925061175c82611bd4565b8060005b8381101561178d57815161177487826116f0565b965061177f83611bfe565b925050600181019050611760565b505050505050565b61179e81611bf3565b6117a88184611c23565b92506117b382611bde565b8060005b838110156117e45781516117cb8782611708565b96506117d683611c0b565b9250506001810190506117b7565b505050505050565b6117f581611d0c565b82525050565b61180481611d42565b82525050565b6000611817602483611c2e565b91507f506c65617365206465706f73697420656e6f756768206c6f776220746f20636860008301527f65617421000000000000000000000000000000000000000000000000000000006020830152604082019050919050565b600061187d601183611c2e565b91507f596f7520617265206e6f742061646d696e0000000000000000000000000000006000830152602082019050919050565b60006118bd603383611c2e565b91507f596f752073686f756c6420617070726f76652074686520636f6e74726163742060008301527f746f2075736520796f75722077616c6c65742e000000000000000000000000006020830152604082019050919050565b6000611923601383611c2e565b91507f546865206c6f7474657279207061757365642e000000000000000000000000006000830152602082019050919050565b6000611963601683611c2e565b91507f4f6e6520726f756e6420706572203420686f75727321000000000000000000006000830152602082019050919050565b61199f81611d38565b82525050565b6119ae81611d38565b82525050565b60006020820190506119c9600083018461172f565b92915050565b60006040820190506119e4600083018561172f565b6119f1602083018461172f565b9392505050565b6000604082019050611a0d600083018561172f565b611a1a60208301846117fb565b9392505050565b6000604082019050611a36600083018561172f565b611a4360208301846119a5565b9392505050565b600061014082019050611a60600083018461173e565b92915050565b600061014082019050611a7c6000830184611795565b92915050565b6000602082019050611a9760008301846117ec565b92915050565b60006020820190508181036000830152611ab68161180a565b9050919050565b60006020820190508181036000830152611ad681611870565b9050919050565b60006020820190508181036000830152611af6816118b0565b9050919050565b60006020820190508181036000830152611b1681611916565b9050919050565b60006020820190508181036000830152611b3681611956565b9050919050565b6000602082019050611b5260008301846119a5565b92915050565b6000606082019050611b6d60008301866119a5565b611b7a602083018561172f565b611b8760408301846119a5565b949350505050565b6000608082019050611ba460008301876119a5565b611bb160208301866119a5565b611bbe60408301856119a5565b611bcb60608301846119a5565b95945050505050565b6000819050919050565b6000819050919050565b6000600a9050919050565b6000600a9050919050565b6000602082019050919050565b6000602082019050919050565b600081905092915050565b600081905092915050565b600082825260208201905092915050565b6000611c4a82611d38565b9150611c5583611d38565b9250827fffffffffffffffffffffffffffffffffffffffffffffffffffffffffffffffff03821115611c8a57611c89611dce565b5b828201905092915050565b6000611ca082611d38565b9150611cab83611d38565b925082611cbb57611cba611dfd565b5b828204905092915050565b6000611cd182611d38565b9150611cdc83611d38565b925082821015611cef57611cee611dce565b5b828203905092915050565b6000611d0582611d18565b9050919050565b60008115159050919050565b600073ffffffffffffffffffffffffffffffffffffffff82169050919050565b6000819050919050565b6000611d4d82611d38565b9050919050565b6000611d5f82611d38565b91507fffffffffffffffffffffffffffffffffffffffffffffffffffffffffffffffff821415611d9257611d91611dce565b5b600182019050919050565b6000611da882611d38565b9150611db383611d38565b925082611dc357611dc2611dfd565b5b828206905092915050565b7f4e487b7100000000000000000000000000000000000000000000000000000000600052601160045260246000fd5b7f4e487b7100000000000000000000000000000000000000000000000000000000600052601260045260246000fd5b611e3581611cfa565b8114611e4057600080fd5b50565b611e4c81611d0c565b8114611e5757600080fd5b50565b611e6381611d38565b8114611e6e57600080fd5b5056fea2646970667358221220cea07fae2e9f553f275a1c73f82ee609a3b5be90c3c9c39765df0fd70d06b0a464736f6c63430008000033",
  "immutableReferences": {},
  "source": "// SPDX-License-Identifier: MIT\npragma solidity ^0.8.0;\n\nimport \"./IERC721LOWB.sol\";\nimport \"./IWallet.sol\";\n\ncontract LowbLottery {\n\n  struct Round {\n    uint id;\n    uint block;\n    uint pool;\n    uint cheatFee;\n    uint[10] luckyNumbers;\n    address[10] luckyAddress;\n  }\n  \n  uint private randNonce;\n  address public walletAddress;\n  address public nftAddress;\n  address public owner;\n  bool public isPause;\n  Round[] public rounds;\n  mapping (address => bool) public whitelist;\n  mapping (address => uint[]) public luckyOf;\n  \n  constructor(address wallet_, address nft_) {\n    walletAddress = wallet_;\n    nftAddress = nft_;\n    owner = msg.sender;\n    Round memory round;\n    round.id = 0;\n    round.block = block.number;\n    round.pool = 1000000e18;\n    rounds.push(round);\n    _setLuckyNumber();\n  }\n  \n  function setPause(bool b) public {\n    require(msg.sender == owner, \"You are not admin\");\n    isPause = b;\n  }\n  \n  function getLuckyNumbers(uint id) public view returns (uint[10] memory) {\n    return rounds[id].luckyNumbers;\n  }\n  \n  function getLuckyAddress(uint id) public view returns (address[10] memory) {\n    return rounds[id].luckyAddress;\n  }\n  \n  function totalRounds() public view returns (uint) {\n    return rounds.length;\n  }\n  \n  function cheat() public {\n    uint _cheatFee = rounds[rounds.length-1].cheatFee + 1000e18;\n    IWallet wallet = IWallet(walletAddress);\n    require(wallet.balanceOf(msg.sender) >= _cheatFee, \"Please deposit enough lowb to cheat!\");\n    require(wallet.isApprovededAddress(msg.sender, address(this)), \"You should approve the contract to use your wallet.\");\n    wallet.use(msg.sender, _cheatFee);\n    rounds[rounds.length-1].cheatFee = _cheatFee;\n    rounds[rounds.length-1].pool = rounds[rounds.length-1].pool + _cheatFee/2;\n    _setLuckyNumber();\n  }\n  \n  function setWhitelist() public {\n    whitelist[msg.sender] = true;\n  }\n  \n  function _setLuckyNumber() private {\n    IERC721LOWB token = IERC721LOWB(nftAddress);\n    uint n = token.totalSupply();\n    for (uint i=0; i<10; i++) {\n      uint num = uint(keccak256(abi.encode(block.timestamp, msg.sender, randNonce))) % n;\n      rounds[rounds.length-1].luckyNumbers[i] = num;\n      address holder = token.holderOf(num);\n      if (whitelist[holder]) {\n        rounds[rounds.length-1].luckyAddress[i] = holder;\n      }\n      randNonce ++;\n    }\n  }\n\n  function moveToNextRound() public {\n    require(isPause == false, \"The lottery paused.\");\n    IWallet wallet = IWallet(walletAddress);\n    \n    Round memory nextRound;\n    Round memory currentRound = rounds[rounds.length - 1];\n    nextRound.id = currentRound.id + 1;\n    nextRound.block = block.number;\n    require(block.number >= currentRound.block + 2400, \"One round per 4 hours!\");\n    nextRound.pool = currentRound.pool + 100000e18;\n    uint rewards = currentRound.pool / 10;\n    IERC721LOWB token = IERC721LOWB(nftAddress);\n    for (uint i=0; i<10; i++) {\n      address holder = token.holderOf(currentRound.luckyNumbers[i]);\n      if (whitelist[holder]) {\n        nextRound.pool = nextRound.pool - rewards;\n        wallet.award(holder, rewards);\n        luckyOf[holder].push(rounds.length-1);\n        whitelist[holder] = false;\n      }\n    }\n    rounds.push(nextRound);\n    _setLuckyNumber();\n    \n    wallet.award(msg.sender, 1000e18);\n  }\n  \n  \n  \n}\n",
  "sourcePath": "/home/mozzie/Downloads/LowbMaticWallet/contracts/LowbLottery.sol",
  "compiler": {
    "name": "solc",
    "version": "0.8.0+commit.c7dfd78e.Emscripten.clang"
  },
  "schemaVersion": "3.4.2",
  "updatedAt": "2021-08-05T14:33:05.448Z",
  "networkType": "ethereum",
  "devdoc": {
    "kind": "dev",
    "methods": {},
    "version": 1
  },
  "userdoc": {
    "kind": "user",
    "methods": {},
    "version": 1
  }
}