{
  "contractName": "LowbMarket",
  "abi": [
    {
      "inputs": [
        {
          "internalType": "address",
          "name": "wallet_",
          "type": "address"
        }
      ],
      "stateMutability": "nonpayable",
      "type": "constructor"
    },
    {
      "anonymous": false,
      "inputs": [
        {
          "indexed": true,
          "internalType": "address",
          "name": "nftAddress",
          "type": "address"
        },
        {
          "indexed": true,
          "internalType": "uint256",
          "name": "itemId",
          "type": "uint256"
        },
        {
          "indexed": false,
          "internalType": "uint256",
          "name": "value",
          "type": "uint256"
        },
        {
          "indexed": true,
          "internalType": "address",
          "name": "fromAddress",
          "type": "address"
        }
      ],
      "name": "BidWithdrawn",
      "type": "event"
    },
    {
      "anonymous": false,
      "inputs": [
        {
          "indexed": true,
          "internalType": "address",
          "name": "nftAddress",
          "type": "address"
        },
        {
          "indexed": true,
          "internalType": "uint256",
          "name": "itemId",
          "type": "uint256"
        },
        {
          "indexed": false,
          "internalType": "uint256",
          "name": "value",
          "type": "uint256"
        },
        {
          "indexed": false,
          "internalType": "address",
          "name": "fromAddress",
          "type": "address"
        },
        {
          "indexed": false,
          "internalType": "address",
          "name": "toAddress",
          "type": "address"
        }
      ],
      "name": "ItemBought",
      "type": "event"
    },
    {
      "anonymous": false,
      "inputs": [
        {
          "indexed": true,
          "internalType": "address",
          "name": "nftAddress",
          "type": "address"
        },
        {
          "indexed": true,
          "internalType": "uint256",
          "name": "itemId",
          "type": "uint256"
        }
      ],
      "name": "ItemNoLongerForSale",
      "type": "event"
    },
    {
      "anonymous": false,
      "inputs": [
        {
          "indexed": true,
          "internalType": "address",
          "name": "nftAddress",
          "type": "address"
        },
        {
          "indexed": true,
          "internalType": "uint256",
          "name": "itemId",
          "type": "uint256"
        },
        {
          "indexed": false,
          "internalType": "uint256",
          "name": "minValue",
          "type": "uint256"
        }
      ],
      "name": "ItemOffered",
      "type": "event"
    },
    {
      "anonymous": false,
      "inputs": [
        {
          "indexed": true,
          "internalType": "address",
          "name": "nftAddress",
          "type": "address"
        },
        {
          "indexed": true,
          "internalType": "uint256",
          "name": "itemId",
          "type": "uint256"
        },
        {
          "indexed": false,
          "internalType": "uint256",
          "name": "value",
          "type": "uint256"
        },
        {
          "indexed": true,
          "internalType": "address",
          "name": "fromAddress",
          "type": "address"
        }
      ],
      "name": "NewBidEntered",
      "type": "event"
    },
    {
      "inputs": [],
      "name": "INVERSE_BASIS_POINT",
      "outputs": [
        {
          "internalType": "uint256",
          "name": "",
          "type": "uint256"
        }
      ],
      "stateMutability": "view",
      "type": "function"
    },
    {
      "inputs": [],
      "name": "fee",
      "outputs": [
        {
          "internalType": "uint256",
          "name": "",
          "type": "uint256"
        }
      ],
      "stateMutability": "view",
      "type": "function"
    },
    {
      "inputs": [
        {
          "internalType": "address",
          "name": "",
          "type": "address"
        },
        {
          "internalType": "uint256",
          "name": "",
          "type": "uint256"
        },
        {
          "internalType": "address",
          "name": "",
          "type": "address"
        }
      ],
      "name": "itemBids",
      "outputs": [
        {
          "internalType": "address",
          "name": "prevBidder",
          "type": "address"
        },
        {
          "internalType": "address",
          "name": "nextBidder",
          "type": "address"
        },
        {
          "internalType": "uint256",
          "name": "value",
          "type": "uint256"
        }
      ],
      "stateMutability": "view",
      "type": "function"
    },
    {
      "inputs": [
        {
          "internalType": "address",
          "name": "",
          "type": "address"
        },
        {
          "internalType": "uint256",
          "name": "",
          "type": "uint256"
        }
      ],
      "name": "itemsOfferedForSale",
      "outputs": [
        {
          "internalType": "bool",
          "name": "isForSale",
          "type": "bool"
        },
        {
          "internalType": "uint256",
          "name": "itemId",
          "type": "uint256"
        },
        {
          "internalType": "address",
          "name": "seller",
          "type": "address"
        },
        {
          "internalType": "uint256",
          "name": "minValue",
          "type": "uint256"
        },
        {
          "internalType": "address",
          "name": "onlySellTo",
          "type": "address"
        }
      ],
      "stateMutability": "view",
      "type": "function"
    },
    {
      "inputs": [],
      "name": "owner",
      "outputs": [
        {
          "internalType": "address",
          "name": "",
          "type": "address"
        }
      ],
      "stateMutability": "view",
      "type": "function"
    },
    {
      "inputs": [
        {
          "internalType": "address",
          "name": "",
          "type": "address"
        }
      ],
      "name": "royaltyOf",
      "outputs": [
        {
          "internalType": "uint256",
          "name": "",
          "type": "uint256"
        }
      ],
      "stateMutability": "view",
      "type": "function"
    },
    {
      "inputs": [],
      "name": "walletAddress",
      "outputs": [
        {
          "internalType": "address",
          "name": "",
          "type": "address"
        }
      ],
      "stateMutability": "view",
      "type": "function"
    },
    {
      "inputs": [
        {
          "internalType": "address",
          "name": "nftAddress",
          "type": "address"
        },
        {
          "internalType": "uint256",
          "name": "itemId",
          "type": "uint256"
        },
        {
          "internalType": "uint256",
          "name": "minSalePriceInWei",
          "type": "uint256"
        }
      ],
      "name": "offerItemForSale",
      "outputs": [],
      "stateMutability": "nonpayable",
      "type": "function"
    },
    {
      "inputs": [
        {
          "internalType": "address",
          "name": "nftAddress",
          "type": "address"
        },
        {
          "internalType": "uint256",
          "name": "itemId",
          "type": "uint256"
        }
      ],
      "name": "itemNoLongerForSale",
      "outputs": [],
      "stateMutability": "nonpayable",
      "type": "function"
    },
    {
      "inputs": [
        {
          "internalType": "address",
          "name": "nftAddress",
          "type": "address"
        },
        {
          "internalType": "uint256",
          "name": "itemId",
          "type": "uint256"
        },
        {
          "internalType": "uint256",
          "name": "amount",
          "type": "uint256"
        }
      ],
      "name": "buyItem",
      "outputs": [],
      "stateMutability": "nonpayable",
      "type": "function"
    },
    {
      "inputs": [
        {
          "internalType": "address",
          "name": "nftAddress",
          "type": "address"
        },
        {
          "internalType": "uint256",
          "name": "itemId",
          "type": "uint256"
        },
        {
          "internalType": "uint256",
          "name": "amount",
          "type": "uint256"
        }
      ],
      "name": "enterBid",
      "outputs": [],
      "stateMutability": "nonpayable",
      "type": "function"
    },
    {
      "inputs": [
        {
          "internalType": "address",
          "name": "nftAddress",
          "type": "address"
        },
        {
          "internalType": "uint256",
          "name": "itemId",
          "type": "uint256"
        },
        {
          "internalType": "address",
          "name": "bidder",
          "type": "address"
        }
      ],
      "name": "acceptBid",
      "outputs": [],
      "stateMutability": "nonpayable",
      "type": "function"
    },
    {
      "inputs": [
        {
          "internalType": "address",
          "name": "nftAddress",
          "type": "address"
        },
        {
          "internalType": "uint256",
          "name": "itemId",
          "type": "uint256"
        }
      ],
      "name": "withdrawBid",
      "outputs": [],
      "stateMutability": "nonpayable",
      "type": "function"
    },
    {
      "inputs": [
        {
          "internalType": "address",
          "name": "nftAddress",
          "type": "address"
        },
        {
          "internalType": "uint256",
          "name": "royalty",
          "type": "uint256"
        }
      ],
      "name": "setRoyalty",
      "outputs": [],
      "stateMutability": "nonpayable",
      "type": "function"
    },
    {
      "inputs": [
        {
          "internalType": "address",
          "name": "nftAddress",
          "type": "address"
        },
        {
          "internalType": "uint256",
          "name": "from",
          "type": "uint256"
        },
        {
          "internalType": "uint256",
          "name": "to",
          "type": "uint256"
        }
      ],
      "name": "getOffers",
      "outputs": [
        {
          "components": [
            {
              "internalType": "bool",
              "name": "isForSale",
              "type": "bool"
            },
            {
              "internalType": "uint256",
              "name": "itemId",
              "type": "uint256"
            },
            {
              "internalType": "address",
              "name": "seller",
              "type": "address"
            },
            {
              "internalType": "uint256",
              "name": "minValue",
              "type": "uint256"
            },
            {
              "internalType": "address",
              "name": "onlySellTo",
              "type": "address"
            }
          ],
          "internalType": "struct LowbMarket.Offer[]",
          "name": "",
          "type": "tuple[]"
        }
      ],
      "stateMutability": "view",
      "type": "function"
    },
    {
      "inputs": [
        {
          "internalType": "address",
          "name": "nftAddress",
          "type": "address"
        },
        {
          "internalType": "address",
          "name": "user",
          "type": "address"
        },
        {
          "internalType": "uint256",
          "name": "from",
          "type": "uint256"
        },
        {
          "internalType": "uint256",
          "name": "to",
          "type": "uint256"
        }
      ],
      "name": "getBidsOf",
      "outputs": [
        {
          "components": [
            {
              "internalType": "address",
              "name": "prevBidder",
              "type": "address"
            },
            {
              "internalType": "address",
              "name": "nextBidder",
              "type": "address"
            },
            {
              "internalType": "uint256",
              "name": "value",
              "type": "uint256"
            }
          ],
          "internalType": "struct LowbMarket.Bid[]",
          "name": "",
          "type": "tuple[]"
        }
      ],
      "stateMutability": "view",
      "type": "function"
    },
    {
      "inputs": [
        {
          "internalType": "address",
          "name": "nftAddress",
          "type": "address"
        },
        {
          "internalType": "uint256",
          "name": "from",
          "type": "uint256"
        },
        {
          "internalType": "uint256",
          "name": "to",
          "type": "uint256"
        }
      ],
      "name": "getHighestBids",
      "outputs": [
        {
          "components": [
            {
              "internalType": "address",
              "name": "prevBidder",
              "type": "address"
            },
            {
              "internalType": "address",
              "name": "nextBidder",
              "type": "address"
            },
            {
              "internalType": "uint256",
              "name": "value",
              "type": "uint256"
            }
          ],
          "internalType": "struct LowbMarket.Bid[]",
          "name": "",
          "type": "tuple[]"
        }
      ],
      "stateMutability": "view",
      "type": "function"
    }
  ],
  "bytecode": "0x60806040523480156200001157600080fd5b5060405162004a8438038062004a848339818101604052810190620000379190620000de565b806000806101000a81548173ffffffffffffffffffffffffffffffffffffffff021916908373ffffffffffffffffffffffffffffffffffffffff16021790555033600160006101000a81548173ffffffffffffffffffffffffffffffffffffffff021916908373ffffffffffffffffffffffffffffffffffffffff16021790555060fa6002819055505062000158565b600081519050620000d8816200013e565b92915050565b600060208284031215620000f157600080fd5b60006200010184828501620000c7565b91505092915050565b600062000117826200011e565b9050919050565b600073ffffffffffffffffffffffffffffffffffffffff82169050919050565b62000149816200010a565b81146200015557600080fd5b50565b61491c80620001686000396000f3fe608060405234801561001057600080fd5b506004361061010b5760003560e01c80638da5cb5b116100a2578063bb30d4ce11610071578063bb30d4ce146102ce578063c9a924ba146102fe578063cae6047f1461031a578063ddca3f4314610338578063f6b45c46146103565761010b565b80638da5cb5b14610248578063a17a0cbf14610266578063a580262014610282578063af34bda81461029e5761010b565b80635e710faa116100de5780635e710faa146101aa5780636ad5b3ea146101de5780637031019e146101fc5780638201570d146102185761010b565b806310fd332b14610110578063149570f41461012c5780631bba4ab81461015e5780634cb8ef5b1461018e575b600080fd5b61012a60048036038101906101259190613a2d565b610372565b005b61014660048036038101906101419190613a69565b6104f0565b604051610155939291906142b1565b60405180910390f35b61017860048036038101906101739190613ab8565b610574565b6040516101859190614311565b60405180910390f35b6101a860048036038101906101a39190613a2d565b610a1c565b005b6101c460048036038101906101bf9190613a2d565b610f93565b6040516101d5959493929190614355565b60405180910390f35b6101e6611023565b6040516101f3919061426d565b60405180910390f35b61021660048036038101906102119190613ab8565b611047565b005b610232600480360381019061022d9190613ab8565b6118b3565b60405161023f9190614333565b60405180910390f35b610250611b4a565b60405161025d919061426d565b60405180910390f35b610280600480360381019061027b9190613a2d565b611b70565b005b61029c60048036038101906102979190613a69565b611e21565b005b6102b860048036038101906102b391906139ca565b612790565b6040516102c59190614311565b60405180910390f35b6102e860048036038101906102e39190613978565b612a40565b6040516102f591906145c8565b60405180910390f35b61031860048036038101906103139190613ab8565b612a58565b005b610322612ec9565b60405161032f91906145c8565b60405180910390f35b610340612ecf565b60405161034d91906145c8565b60405180910390f35b610370600480360381019061036b9190613ab8565b612ed5565b005b60008290508073ffffffffffffffffffffffffffffffffffffffff16638da5cb5b6040518163ffffffff1660e01b815260040160206040518083038186803b1580156103bd57600080fd5b505afa1580156103d1573d6000803e3d6000fd5b505050506040513d601f19601f820116820180604052508101906103f591906139a1565b73ffffffffffffffffffffffffffffffffffffffff163373ffffffffffffffffffffffffffffffffffffffff1614610462576040517f08c379a000000000000000000000000000000000000000000000000000000000815260040161045990614588565b60405180910390fd5b6103e88211156104a7576040517f08c379a000000000000000000000000000000000000000000000000000000000815260040161049e906143e8565b60405180910390fd5b81600360008573ffffffffffffffffffffffffffffffffffffffff1673ffffffffffffffffffffffffffffffffffffffff16815260200190815260200160002081905550505050565b600560205282600052604060002060205281600052604060002060205280600052604060002060009250925050508060000160009054906101000a900473ffffffffffffffffffffffffffffffffffffffff16908060010160009054906101000a900473ffffffffffffffffffffffffffffffffffffffff16908060020154905083565b60606000831180156105865750828210155b6105c5576040517f08c379a00000000000000000000000000000000000000000000000000000000081526004016105bc90614468565b60405180910390fd5b6000600184846105d5919061477e565b6105df919061469d565b67ffffffffffffffff81111561061e577f4e487b7100000000000000000000000000000000000000000000000000000000600052604160045260246000fd5b60405190808252806020026020018201604052801561065757816020015b610644613865565b81526020019060019003908161063c5790505b509050610662613865565b60008590505b848111610a0f57600560008873ffffffffffffffffffffffffffffffffffffffff1673ffffffffffffffffffffffffffffffffffffffff168152602001908152602001600020600082815260200190815260200160002060008073ffffffffffffffffffffffffffffffffffffffff1673ffffffffffffffffffffffffffffffffffffffff1681526020019081526020016000206040518060600160405290816000820160009054906101000a900473ffffffffffffffffffffffffffffffffffffffff1673ffffffffffffffffffffffffffffffffffffffff1673ffffffffffffffffffffffffffffffffffffffff1681526020016001820160009054906101000a900473ffffffffffffffffffffffffffffffffffffffff1673ffffffffffffffffffffffffffffffffffffffff1673ffffffffffffffffffffffffffffffffffffffff16815260200160028201548152505091505b600073ffffffffffffffffffffffffffffffffffffffff16826020015173ffffffffffffffffffffffffffffffffffffffff16146109fc57600560008873ffffffffffffffffffffffffffffffffffffffff1673ffffffffffffffffffffffffffffffffffffffff16815260200190815260200160002060008281526020019081526020016000206000836020015173ffffffffffffffffffffffffffffffffffffffff1673ffffffffffffffffffffffffffffffffffffffff1681526020019081526020016000206040518060600160405290816000820160009054906101000a900473ffffffffffffffffffffffffffffffffffffffff1673ffffffffffffffffffffffffffffffffffffffff1673ffffffffffffffffffffffffffffffffffffffff1681526020016001820160009054906101000a900473ffffffffffffffffffffffffffffffffffffffff1673ffffffffffffffffffffffffffffffffffffffff1673ffffffffffffffffffffffffffffffffffffffff1681526020016002820154815250509150828682610959919061477e565b81518110610990577f4e487b7100000000000000000000000000000000000000000000000000000000600052603260045260246000fd5b6020026020010151604001518260400151106109f757818387836109b4919061477e565b815181106109eb577f4e487b7100000000000000000000000000000000000000000000000000000000600052603260045260246000fd5b60200260200101819052505b6107c0565b8080610a07906147fa565b915050610668565b5081925050509392505050565b6000600560008473ffffffffffffffffffffffffffffffffffffffff1673ffffffffffffffffffffffffffffffffffffffff168152602001908152602001600020600083815260200190815260200160002060003373ffffffffffffffffffffffffffffffffffffffff1673ffffffffffffffffffffffffffffffffffffffff16815260200190815260200160002060020154905060008111610af4576040517f08c379a0000000000000000000000000000000000000000000000000000000008152600401610aeb90614568565b60405180910390fd5b6000600560008573ffffffffffffffffffffffffffffffffffffffff1673ffffffffffffffffffffffffffffffffffffffff168152602001908152602001600020600084815260200190815260200160002060003373ffffffffffffffffffffffffffffffffffffffff1673ffffffffffffffffffffffffffffffffffffffff168152602001908152602001600020600201819055506000600560008573ffffffffffffffffffffffffffffffffffffffff1673ffffffffffffffffffffffffffffffffffffffff168152602001908152602001600020600084815260200190815260200160002060003373ffffffffffffffffffffffffffffffffffffffff1673ffffffffffffffffffffffffffffffffffffffff16815260200190815260200160002060010160009054906101000a900473ffffffffffffffffffffffffffffffffffffffff1690506000600560008673ffffffffffffffffffffffffffffffffffffffff1673ffffffffffffffffffffffffffffffffffffffff168152602001908152602001600020600085815260200190815260200160002060003373ffffffffffffffffffffffffffffffffffffffff1673ffffffffffffffffffffffffffffffffffffffff16815260200190815260200160002060000160009054906101000a900473ffffffffffffffffffffffffffffffffffffffff16905081600560008773ffffffffffffffffffffffffffffffffffffffff1673ffffffffffffffffffffffffffffffffffffffff168152602001908152602001600020600086815260200190815260200160002060008373ffffffffffffffffffffffffffffffffffffffff1673ffffffffffffffffffffffffffffffffffffffff16815260200190815260200160002060010160006101000a81548173ffffffffffffffffffffffffffffffffffffffff021916908373ffffffffffffffffffffffffffffffffffffffff16021790555080600560008773ffffffffffffffffffffffffffffffffffffffff1673ffffffffffffffffffffffffffffffffffffffff168152602001908152602001600020600086815260200190815260200160002060008473ffffffffffffffffffffffffffffffffffffffff1673ffffffffffffffffffffffffffffffffffffffff16815260200190815260200160002060000160006101000a81548173ffffffffffffffffffffffffffffffffffffffff021916908373ffffffffffffffffffffffffffffffffffffffff16021790555060008060009054906101000a900473ffffffffffffffffffffffffffffffffffffffff1690508073ffffffffffffffffffffffffffffffffffffffff16635d8a776e33866040518363ffffffff1660e01b8152600401610ef39291906142e8565b600060405180830381600087803b158015610f0d57600080fd5b505af1158015610f21573d6000803e3d6000fd5b505050503373ffffffffffffffffffffffffffffffffffffffff16858773ffffffffffffffffffffffffffffffffffffffff167f47e5afa3ce5985bbd0755ef26e20b1789a9c30cbf05a4facf5da7780082f770e87604051610f8391906145c8565b60405180910390a4505050505050565b6004602052816000526040600020602052806000526040600020600091509150508060000160009054906101000a900460ff16908060010154908060020160009054906101000a900473ffffffffffffffffffffffffffffffffffffffff16908060030154908060040160009054906101000a900473ffffffffffffffffffffffffffffffffffffffff16905085565b60008054906101000a900473ffffffffffffffffffffffffffffffffffffffff1681565b60008060009054906101000a900473ffffffffffffffffffffffffffffffffffffffff169050818173ffffffffffffffffffffffffffffffffffffffff166370a08231336040518263ffffffff1660e01b81526004016110a7919061426d565b60206040518083038186803b1580156110bf57600080fd5b505afa1580156110d3573d6000803e3d6000fd5b505050506040513d601f19601f820116820180604052508101906110f79190613b30565b1015611138576040517f08c379a000000000000000000000000000000000000000000000000000000000815260040161112f906144c8565b60405180910390fd5b6000821161117b576040517f08c379a0000000000000000000000000000000000000000000000000000000008152600401611172906144a8565b60405180910390fd5b6000849050600073ffffffffffffffffffffffffffffffffffffffff168173ffffffffffffffffffffffffffffffffffffffff16636352211e866040518263ffffffff1660e01b81526004016111d191906145c8565b60206040518083038186803b1580156111e957600080fd5b505afa1580156111fd573d6000803e3d6000fd5b505050506040513d601f19601f8201168201806040525081019061122191906139a1565b73ffffffffffffffffffffffffffffffffffffffff161415611278576040517f08c379a000000000000000000000000000000000000000000000000000000000815260040161126f90614428565b60405180910390fd5b6000600560008773ffffffffffffffffffffffffffffffffffffffff1673ffffffffffffffffffffffffffffffffffffffff168152602001908152602001600020600086815260200190815260200160002060003373ffffffffffffffffffffffffffffffffffffffff1673ffffffffffffffffffffffffffffffffffffffff168152602001908152602001600020600201541461134b576040517f08c379a0000000000000000000000000000000000000000000000000000000008152600401611342906143a8565b60405180910390fd5b8173ffffffffffffffffffffffffffffffffffffffff1663eb2b4a5533306040518363ffffffff1660e01b8152600401611386929190614288565b60206040518083038186803b15801561139e57600080fd5b505afa1580156113b2573d6000803e3d6000fd5b505050506040513d601f19601f820116820180604052508101906113d69190613b07565b611415576040517f08c379a000000000000000000000000000000000000000000000000000000000815260040161140c90614448565b60405180910390fd5b8173ffffffffffffffffffffffffffffffffffffffff166369fb2a2033856040518363ffffffff1660e01b81526004016114509291906142e8565b600060405180830381600087803b15801561146a57600080fd5b505af115801561147e573d6000803e3d6000fd5b505050506000600560008773ffffffffffffffffffffffffffffffffffffffff1673ffffffffffffffffffffffffffffffffffffffff168152602001908152602001600020600086815260200190815260200160002060008073ffffffffffffffffffffffffffffffffffffffff1673ffffffffffffffffffffffffffffffffffffffff16815260200190815260200160002060010160009054906101000a900473ffffffffffffffffffffffffffffffffffffffff16905033600560008873ffffffffffffffffffffffffffffffffffffffff1673ffffffffffffffffffffffffffffffffffffffff168152602001908152602001600020600087815260200190815260200160002060008373ffffffffffffffffffffffffffffffffffffffff1673ffffffffffffffffffffffffffffffffffffffff16815260200190815260200160002060000160006101000a81548173ffffffffffffffffffffffffffffffffffffffff021916908373ffffffffffffffffffffffffffffffffffffffff1602179055506040518060600160405280600073ffffffffffffffffffffffffffffffffffffffff1681526020018273ffffffffffffffffffffffffffffffffffffffff16815260200185815250600560008873ffffffffffffffffffffffffffffffffffffffff1673ffffffffffffffffffffffffffffffffffffffff168152602001908152602001600020600087815260200190815260200160002060003373ffffffffffffffffffffffffffffffffffffffff1673ffffffffffffffffffffffffffffffffffffffff16815260200190815260200160002060008201518160000160006101000a81548173ffffffffffffffffffffffffffffffffffffffff021916908373ffffffffffffffffffffffffffffffffffffffff16021790555060208201518160010160006101000a81548173ffffffffffffffffffffffffffffffffffffffff021916908373ffffffffffffffffffffffffffffffffffffffff1602179055506040820151816002015590505033600560008873ffffffffffffffffffffffffffffffffffffffff1673ffffffffffffffffffffffffffffffffffffffff168152602001908152602001600020600087815260200190815260200160002060008073ffffffffffffffffffffffffffffffffffffffff1673ffffffffffffffffffffffffffffffffffffffff16815260200190815260200160002060010160006101000a81548173ffffffffffffffffffffffffffffffffffffffff021916908373ffffffffffffffffffffffffffffffffffffffff1602179055503373ffffffffffffffffffffffffffffffffffffffff16858773ffffffffffffffffffffffffffffffffffffffff167fc09109ab1d2996deaf04e243b5c48cd2191a22fc44ba22f8df1e8ed515f53a0e876040516118a391906145c8565b60405180910390a4505050505050565b60606000831180156118c55750828210155b611904576040517f08c379a00000000000000000000000000000000000000000000000000000000081526004016118fb90614468565b60405180910390fd5b600060018484611914919061477e565b61191e919061469d565b67ffffffffffffffff81111561195d577f4e487b7100000000000000000000000000000000000000000000000000000000600052604160045260246000fd5b60405190808252806020026020018201604052801561199657816020015b6119836138b2565b81526020019060019003908161197b5790505b50905060008490505b838111611b3e57600460008773ffffffffffffffffffffffffffffffffffffffff1673ffffffffffffffffffffffffffffffffffffffff16815260200190815260200160002060008281526020019081526020016000206040518060a00160405290816000820160009054906101000a900460ff16151515158152602001600182015481526020016002820160009054906101000a900473ffffffffffffffffffffffffffffffffffffffff1673ffffffffffffffffffffffffffffffffffffffff1673ffffffffffffffffffffffffffffffffffffffff168152602001600382015481526020016004820160009054906101000a900473ffffffffffffffffffffffffffffffffffffffff1673ffffffffffffffffffffffffffffffffffffffff1673ffffffffffffffffffffffffffffffffffffffff1681525050828683611ae9919061477e565b81518110611b20577f4e487b7100000000000000000000000000000000000000000000000000000000600052603260045260246000fd5b60200260200101819052508080611b36906147fa565b91505061199f565b50809150509392505050565b600160009054906101000a900473ffffffffffffffffffffffffffffffffffffffff1681565b60008290503373ffffffffffffffffffffffffffffffffffffffff168173ffffffffffffffffffffffffffffffffffffffff16636352211e846040518263ffffffff1660e01b8152600401611bc591906145c8565b60206040518083038186803b158015611bdd57600080fd5b505afa158015611bf1573d6000803e3d6000fd5b505050506040513d601f19601f82011682018060405250810190611c1591906139a1565b73ffffffffffffffffffffffffffffffffffffffff1614611c6b576040517f08c379a0000000000000000000000000000000000000000000000000000000008152600401611c6290614528565b60405180910390fd5b6040518060a001604052806000151581526020018381526020013373ffffffffffffffffffffffffffffffffffffffff16815260200160008152602001600073ffffffffffffffffffffffffffffffffffffffff16815250600460008573ffffffffffffffffffffffffffffffffffffffff1673ffffffffffffffffffffffffffffffffffffffff168152602001908152602001600020600084815260200190815260200160002060008201518160000160006101000a81548160ff0219169083151502179055506020820151816001015560408201518160020160006101000a81548173ffffffffffffffffffffffffffffffffffffffff021916908373ffffffffffffffffffffffffffffffffffffffff1602179055506060820151816003015560808201518160040160006101000a81548173ffffffffffffffffffffffffffffffffffffffff021916908373ffffffffffffffffffffffffffffffffffffffff160217905550905050818373ffffffffffffffffffffffffffffffffffffffff167f3286a28c39441e19cff3f2d051aee304e1d0a27d64d1337f2d770921d2fda73e60405160405180910390a3505050565b60008390503373ffffffffffffffffffffffffffffffffffffffff168173ffffffffffffffffffffffffffffffffffffffff16636352211e856040518263ffffffff1660e01b8152600401611e7691906145c8565b60206040518083038186803b158015611e8e57600080fd5b505afa158015611ea2573d6000803e3d6000fd5b505050506040513d601f19601f82011682018060405250810190611ec691906139a1565b73ffffffffffffffffffffffffffffffffffffffff16148015611f9c57503373ffffffffffffffffffffffffffffffffffffffff168173ffffffffffffffffffffffffffffffffffffffff1663dbacc237856040518263ffffffff1660e01b8152600401611f3491906145c8565b60206040518083038186803b158015611f4c57600080fd5b505afa158015611f60573d6000803e3d6000fd5b505050506040513d601f19601f82011682018060405250810190611f8491906139a1565b73ffffffffffffffffffffffffffffffffffffffff16145b611fdb576040517f08c379a0000000000000000000000000000000000000000000000000000000008152600401611fd290614528565b60405180910390fd5b3073ffffffffffffffffffffffffffffffffffffffff168173ffffffffffffffffffffffffffffffffffffffff1663081812fc856040518263ffffffff1660e01b815260040161202b91906145c8565b60206040518083038186803b15801561204357600080fd5b505afa158015612057573d6000803e3d6000fd5b505050506040513d601f19601f8201168201806040525081019061207b91906139a1565b73ffffffffffffffffffffffffffffffffffffffff16146120d1576040517f08c379a00000000000000000000000000000000000000000000000000000000081526004016120c890614508565b60405180910390fd5b60003390506000600560008773ffffffffffffffffffffffffffffffffffffffff1673ffffffffffffffffffffffffffffffffffffffff168152602001908152602001600020600086815260200190815260200160002060008573ffffffffffffffffffffffffffffffffffffffff1673ffffffffffffffffffffffffffffffffffffffff168152602001908152602001600020600201549050600081116121ae576040517f08c379a00000000000000000000000000000000000000000000000000000000081526004016121a5906143c8565b60405180910390fd5b8273ffffffffffffffffffffffffffffffffffffffff166342842e0e8386886040518463ffffffff1660e01b81526004016121eb939291906142b1565b600060405180830381600087803b15801561220557600080fd5b505af1158015612219573d6000803e3d6000fd5b505050506040518060a001604052806000151581526020018681526020018573ffffffffffffffffffffffffffffffffffffffff16815260200160008152602001600073ffffffffffffffffffffffffffffffffffffffff16815250600460008873ffffffffffffffffffffffffffffffffffffffff1673ffffffffffffffffffffffffffffffffffffffff168152602001908152602001600020600087815260200190815260200160002060008201518160000160006101000a81548160ff0219169083151502179055506020820151816001015560408201518160020160006101000a81548173ffffffffffffffffffffffffffffffffffffffff021916908373ffffffffffffffffffffffffffffffffffffffff1602179055506060820151816003015560808201518160040160006101000a81548173ffffffffffffffffffffffffffffffffffffffff021916908373ffffffffffffffffffffffffffffffffffffffff1602179055509050506000600560008873ffffffffffffffffffffffffffffffffffffffff1673ffffffffffffffffffffffffffffffffffffffff168152602001908152602001600020600087815260200190815260200160002060008673ffffffffffffffffffffffffffffffffffffffff1673ffffffffffffffffffffffffffffffffffffffff168152602001908152602001600020600201819055506000600560008873ffffffffffffffffffffffffffffffffffffffff1673ffffffffffffffffffffffffffffffffffffffff168152602001908152602001600020600087815260200190815260200160002060008673ffffffffffffffffffffffffffffffffffffffff1673ffffffffffffffffffffffffffffffffffffffff16815260200190815260200160002060010160009054906101000a900473ffffffffffffffffffffffffffffffffffffffff1690506000600560008973ffffffffffffffffffffffffffffffffffffffff1673ffffffffffffffffffffffffffffffffffffffff168152602001908152602001600020600088815260200190815260200160002060008773ffffffffffffffffffffffffffffffffffffffff1673ffffffffffffffffffffffffffffffffffffffff16815260200190815260200160002060000160009054906101000a900473ffffffffffffffffffffffffffffffffffffffff16905081600560008a73ffffffffffffffffffffffffffffffffffffffff1673ffffffffffffffffffffffffffffffffffffffff168152602001908152602001600020600089815260200190815260200160002060008373ffffffffffffffffffffffffffffffffffffffff1673ffffffffffffffffffffffffffffffffffffffff16815260200190815260200160002060010160006101000a81548173ffffffffffffffffffffffffffffffffffffffff021916908373ffffffffffffffffffffffffffffffffffffffff16021790555080600560008a73ffffffffffffffffffffffffffffffffffffffff1673ffffffffffffffffffffffffffffffffffffffff168152602001908152602001600020600089815260200190815260200160002060008473ffffffffffffffffffffffffffffffffffffffff1673ffffffffffffffffffffffffffffffffffffffff16815260200190815260200160002060000160006101000a81548173ffffffffffffffffffffffffffffffffffffffff021916908373ffffffffffffffffffffffffffffffffffffffff16021790555061273384848a613565565b868873ffffffffffffffffffffffffffffffffffffffff167fe8cc0a2d1fbbbe19cdf5d0b9230fbb208087789334bcd5161e45afc3feb0546585878a60405161277e939291906145e3565b60405180910390a35050505050505050565b60606000831180156127a25750828210155b6127e1576040517f08c379a00000000000000000000000000000000000000000000000000000000081526004016127d890614468565b60405180910390fd5b6000600184846127f1919061477e565b6127fb919061469d565b67ffffffffffffffff81111561283a577f4e487b7100000000000000000000000000000000000000000000000000000000600052604160045260246000fd5b60405190808252806020026020018201604052801561287357816020015b612860613865565b8152602001906001900390816128585790505b50905060008490505b838111612a3357600560008873ffffffffffffffffffffffffffffffffffffffff1673ffffffffffffffffffffffffffffffffffffffff168152602001908152602001600020600082815260200190815260200160002060008773ffffffffffffffffffffffffffffffffffffffff1673ffffffffffffffffffffffffffffffffffffffff1681526020019081526020016000206040518060600160405290816000820160009054906101000a900473ffffffffffffffffffffffffffffffffffffffff1673ffffffffffffffffffffffffffffffffffffffff1673ffffffffffffffffffffffffffffffffffffffff1681526020016001820160009054906101000a900473ffffffffffffffffffffffffffffffffffffffff1673ffffffffffffffffffffffffffffffffffffffff1673ffffffffffffffffffffffffffffffffffffffff1681526020016002820154815250508286836129de919061477e565b81518110612a15577f4e487b7100000000000000000000000000000000000000000000000000000000600052603260045260246000fd5b60200260200101819052508080612a2b906147fa565b91505061287c565b5080915050949350505050565b60036020528060005260406000206000915090505481565b60008390503373ffffffffffffffffffffffffffffffffffffffff168173ffffffffffffffffffffffffffffffffffffffff16636352211e856040518263ffffffff1660e01b8152600401612aad91906145c8565b60206040518083038186803b158015612ac557600080fd5b505afa158015612ad9573d6000803e3d6000fd5b505050506040513d601f19601f82011682018060405250810190612afd91906139a1565b73ffffffffffffffffffffffffffffffffffffffff16148015612bd357503373ffffffffffffffffffffffffffffffffffffffff168173ffffffffffffffffffffffffffffffffffffffff1663dbacc237856040518263ffffffff1660e01b8152600401612b6b91906145c8565b60206040518083038186803b158015612b8357600080fd5b505afa158015612b97573d6000803e3d6000fd5b505050506040513d601f19601f82011682018060405250810190612bbb91906139a1565b73ffffffffffffffffffffffffffffffffffffffff16145b612c12576040517f08c379a0000000000000000000000000000000000000000000000000000000008152600401612c0990614528565b60405180910390fd5b3073ffffffffffffffffffffffffffffffffffffffff168173ffffffffffffffffffffffffffffffffffffffff1663081812fc856040518263ffffffff1660e01b8152600401612c6291906145c8565b60206040518083038186803b158015612c7a57600080fd5b505afa158015612c8e573d6000803e3d6000fd5b505050506040513d601f19601f82011682018060405250810190612cb291906139a1565b73ffffffffffffffffffffffffffffffffffffffff1614612d08576040517f08c379a0000000000000000000000000000000000000000000000000000000008152600401612cff90614508565b60405180910390fd5b6040518060a001604052806001151581526020018481526020013373ffffffffffffffffffffffffffffffffffffffff168152602001838152602001600073ffffffffffffffffffffffffffffffffffffffff16815250600460008673ffffffffffffffffffffffffffffffffffffffff1673ffffffffffffffffffffffffffffffffffffffff168152602001908152602001600020600085815260200190815260200160002060008201518160000160006101000a81548160ff0219169083151502179055506020820151816001015560408201518160020160006101000a81548173ffffffffffffffffffffffffffffffffffffffff021916908373ffffffffffffffffffffffffffffffffffffffff1602179055506060820151816003015560808201518160040160006101000a81548173ffffffffffffffffffffffffffffffffffffffff021916908373ffffffffffffffffffffffffffffffffffffffff160217905550905050828473ffffffffffffffffffffffffffffffffffffffff167ff74ca6517584f4ceb46d24715402a58d21f0a11f6d6a15597f5f3c49a919a56a84604051612ebb91906145c8565b60405180910390a350505050565b61271081565b60025481565b6000600460008573ffffffffffffffffffffffffffffffffffffffff1673ffffffffffffffffffffffffffffffffffffffff16815260200190815260200160002060008481526020019081526020016000206040518060a00160405290816000820160009054906101000a900460ff16151515158152602001600182015481526020016002820160009054906101000a900473ffffffffffffffffffffffffffffffffffffffff1673ffffffffffffffffffffffffffffffffffffffff1673ffffffffffffffffffffffffffffffffffffffff168152602001600382015481526020016004820160009054906101000a900473ffffffffffffffffffffffffffffffffffffffff1673ffffffffffffffffffffffffffffffffffffffff1673ffffffffffffffffffffffffffffffffffffffff168152505090508060000151613053576040517f08c379a000000000000000000000000000000000000000000000000000000000815260040161304a906145a8565b60405180910390fd5b806060015182101561309a576040517f08c379a000000000000000000000000000000000000000000000000000000000815260040161309190614408565b60405180910390fd5b60008060009054906101000a900473ffffffffffffffffffffffffffffffffffffffff169050828173ffffffffffffffffffffffffffffffffffffffff166370a08231336040518263ffffffff1660e01b81526004016130fa919061426d565b60206040518083038186803b15801561311257600080fd5b505afa158015613126573d6000803e3d6000fd5b505050506040513d601f19601f8201168201806040525081019061314a9190613b30565b101561318b576040517f08c379a000000000000000000000000000000000000000000000000000000000815260040161318290614548565b60405180910390fd5b60008590503373ffffffffffffffffffffffffffffffffffffffff168173ffffffffffffffffffffffffffffffffffffffff16636352211e876040518263ffffffff1660e01b81526004016131e091906145c8565b60206040518083038186803b1580156131f857600080fd5b505afa15801561320c573d6000803e3d6000fd5b505050506040513d601f19601f8201168201806040525081019061323091906139a1565b73ffffffffffffffffffffffffffffffffffffffff1614801561330657503373ffffffffffffffffffffffffffffffffffffffff168173ffffffffffffffffffffffffffffffffffffffff1663dbacc237876040518263ffffffff1660e01b815260040161329e91906145c8565b60206040518083038186803b1580156132b657600080fd5b505afa1580156132ca573d6000803e3d6000fd5b505050506040513d601f19601f820116820180604052508101906132ee91906139a1565b73ffffffffffffffffffffffffffffffffffffffff16145b613345576040517f08c379a000000000000000000000000000000000000000000000000000000000815260040161333c90614488565b60405180910390fd5b8173ffffffffffffffffffffffffffffffffffffffff1663eb2b4a5533306040518363ffffffff1660e01b8152600401613380929190614288565b60206040518083038186803b15801561339857600080fd5b505afa1580156133ac573d6000803e3d6000fd5b505050506040513d601f19601f820116820180604052508101906133d09190613b07565b61340f576040517f08c379a000000000000000000000000000000000000000000000000000000000815260040161340690614448565b60405180910390fd5b8173ffffffffffffffffffffffffffffffffffffffff166369fb2a2033866040518363ffffffff1660e01b815260040161344a9291906142e8565b600060405180830381600087803b15801561346457600080fd5b505af1158015613478573d6000803e3d6000fd5b505050506000836040015190508173ffffffffffffffffffffffffffffffffffffffff166342842e0e8233896040518463ffffffff1660e01b81526004016134c2939291906142b1565b600060405180830381600087803b1580156134dc57600080fd5b505af11580156134f0573d6000803e3d6000fd5b505050506134fe8787611b70565b613509818689613565565b858773ffffffffffffffffffffffffffffffffffffffff167fe8cc0a2d1fbbbe19cdf5d0b9230fbb208087789334bcd5161e45afc3feb05465878433604051613554939291906145e3565b60405180910390a350505050505050565b60008190506000600360008473ffffffffffffffffffffffffffffffffffffffff1673ffffffffffffffffffffffffffffffffffffffff1681526020019081526020016000205490506000600254612710866135c191906146f3565b6135cb9190614724565b9050600082612710876135de91906146f3565b6135e89190614724565b905060008183886135f9919061477e565b613603919061477e565b905060008573ffffffffffffffffffffffffffffffffffffffff16638da5cb5b6040518163ffffffff1660e01b815260040160206040518083038186803b15801561364d57600080fd5b505afa158015613661573d6000803e3d6000fd5b505050506040513d601f19601f8201168201806040525081019061368591906139a1565b9050600082116136ca576040517f08c379a00000000000000000000000000000000000000000000000000000000081526004016136c1906144e8565b60405180910390fd5b60008060009054906101000a900473ffffffffffffffffffffffffffffffffffffffff1690508073ffffffffffffffffffffffffffffffffffffffff16635d8a776e83866040518363ffffffff1660e01b815260040161372b9291906142e8565b600060405180830381600087803b15801561374557600080fd5b505af1158015613759573d6000803e3d6000fd5b505050508073ffffffffffffffffffffffffffffffffffffffff16635d8a776e600160009054906101000a900473ffffffffffffffffffffffffffffffffffffffff16876040518363ffffffff1660e01b81526004016137ba9291906142e8565b600060405180830381600087803b1580156137d457600080fd5b505af11580156137e8573d6000803e3d6000fd5b505050508073ffffffffffffffffffffffffffffffffffffffff16635d8a776e8b856040518363ffffffff1660e01b81526004016138279291906142e8565b600060405180830381600087803b15801561384157600080fd5b505af1158015613855573d6000803e3d6000fd5b5050505050505050505050505050565b6040518060600160405280600073ffffffffffffffffffffffffffffffffffffffff168152602001600073ffffffffffffffffffffffffffffffffffffffff168152602001600081525090565b6040518060a0016040528060001515815260200160008152602001600073ffffffffffffffffffffffffffffffffffffffff16815260200160008152602001600073ffffffffffffffffffffffffffffffffffffffff1681525090565b60008135905061391e816148a1565b92915050565b600081519050613933816148a1565b92915050565b600081519050613948816148b8565b92915050565b60008135905061395d816148cf565b92915050565b600081519050613972816148cf565b92915050565b60006020828403121561398a57600080fd5b60006139988482850161390f565b91505092915050565b6000602082840312156139b357600080fd5b60006139c184828501613924565b91505092915050565b600080600080608085870312156139e057600080fd5b60006139ee8782880161390f565b94505060206139ff8782880161390f565b9350506040613a108782880161394e565b9250506060613a218782880161394e565b91505092959194509250565b60008060408385031215613a4057600080fd5b6000613a4e8582860161390f565b9250506020613a5f8582860161394e565b9150509250929050565b600080600060608486031215613a7e57600080fd5b6000613a8c8682870161390f565b9350506020613a9d8682870161394e565b9250506040613aae8682870161390f565b9150509250925092565b600080600060608486031215613acd57600080fd5b6000613adb8682870161390f565b9350506020613aec8682870161394e565b9250506040613afd8682870161394e565b9150509250925092565b600060208284031215613b1957600080fd5b6000613b2784828501613939565b91505092915050565b600060208284031215613b4257600080fd5b6000613b5084828501613963565b91505092915050565b6000613b6583836141a5565b60608301905092915050565b6000613b7d83836141e7565b60a08301905092915050565b613b92816147b2565b82525050565b613ba1816147b2565b82525050565b6000613bb28261463a565b613bbc818561466a565b9350613bc78361461a565b8060005b83811015613bf8578151613bdf8882613b59565b9750613bea83614650565b925050600181019050613bcb565b5085935050505092915050565b6000613c1082614645565b613c1a818561467b565b9350613c258361462a565b8060005b83811015613c56578151613c3d8882613b71565b9750613c488361465d565b925050600181019050613c29565b5085935050505092915050565b613c6c816147c4565b82525050565b613c7b816147c4565b82525050565b6000613c8e601d8361468c565b91507f596f7527766520616c726561647920656e7465726564206120626964210000006000830152602082019050919050565b6000613cce602b8361468c565b91507f4e6f206269642066726f6d2074686973206164647265737320666f722074686960008301527f73206974656d207965742e0000000000000000000000000000000000000000006020830152604082019050919050565b6000613d3460118361468c565b91507f526f79616c747920746f6f2068696768210000000000000000000000000000006000830152602082019050919050565b6000613d74601c8361468c565b91507f596f75206469646e27742073656e6420656e6f756768204c4f57422e000000006000830152602082019050919050565b6000613db460168361468c565b91507f546f6b656e206e6f742063726561746564207965742e000000000000000000006000830152602082019050919050565b6000613df460318361468c565b91507f596f752073686f756c6420617070726f766520746865206d61726b657420746f60008301527f2075736520796f75722077616c6c65742e0000000000000000000000000000006020830152604082019050919050565b6000613e5a600d8361468c565b91507f496e76616c696420696e646578000000000000000000000000000000000000006000830152602082019050919050565b6000613e9a60248361468c565b91507f53656c6c6572206e6f206c6f6e676572206f776e6572206f662074686973206960008301527f74656d2e000000000000000000000000000000000000000000000000000000006020830152604082019050919050565b6000613f00601a8361468c565b91507f506c6561736520626964207769746820736f6d65206c6f7762210000000000006000830152602082019050919050565b6000613f4060268361468c565b91507f506c65617365206465706f73697420656e6f756768206c6f7762206265666f7260008301527f65206269642100000000000000000000000000000000000000000000000000006020830152604082019050919050565b6000613fa6602c8361468c565b91507f466565732073686f756c64206c657373207468616e20746865207472616e736160008301527f6374696f6e2076616c75652e00000000000000000000000000000000000000006020830152604082019050919050565b600061400c60198361468c565b91507f417070726f7665207468697320746f6b656e2066697273742e000000000000006000830152602082019050919050565b600061404c60198361468c565b91507f596f7520646f6e2774206f776e207468697320746f6b656e2e000000000000006000830152602082019050919050565b600061408c602c8361468c565b91507f506c65617365206465706f73697420656e6f756768206c6f776220746f20627560008301527f792074686973206974656d2100000000000000000000000000000000000000006020830152604082019050919050565b60006140f2601c8361468c565b91507f596f7520646f6e2774206861766520612062696420666f722069742e000000006000830152602082019050919050565b6000614132601f8361468c565b91507f4f6e6c79206f776e65722063616e207365742074686520726f79616c747921006000830152602082019050919050565b600061417260208361468c565b91507f54686973206974656d206e6f742061637475616c6c7920666f722073616c652e6000830152602082019050919050565b6060820160008201516141bb6000850182613b89565b5060208201516141ce6020850182613b89565b5060408201516141e1604085018261424f565b50505050565b60a0820160008201516141fd6000850182613c63565b506020820151614210602085018261424f565b5060408201516142236040850182613b89565b506060820151614236606085018261424f565b5060808201516142496080850182613b89565b50505050565b614258816147f0565b82525050565b614267816147f0565b82525050565b60006020820190506142826000830184613b98565b92915050565b600060408201905061429d6000830185613b98565b6142aa6020830184613b98565b9392505050565b60006060820190506142c66000830186613b98565b6142d36020830185613b98565b6142e0604083018461425e565b949350505050565b60006040820190506142fd6000830185613b98565b61430a602083018461425e565b9392505050565b6000602082019050818103600083015261432b8184613ba7565b905092915050565b6000602082019050818103600083015261434d8184613c05565b905092915050565b600060a08201905061436a6000830188613c72565b614377602083018761425e565b6143846040830186613b98565b614391606083018561425e565b61439e6080830184613b98565b9695505050505050565b600060208201905081810360008301526143c181613c81565b9050919050565b600060208201905081810360008301526143e181613cc1565b9050919050565b6000602082019050818103600083015261440181613d27565b9050919050565b6000602082019050818103600083015261442181613d67565b9050919050565b6000602082019050818103600083015261444181613da7565b9050919050565b6000602082019050818103600083015261446181613de7565b9050919050565b6000602082019050818103600083015261448181613e4d565b9050919050565b600060208201905081810360008301526144a181613e8d565b9050919050565b600060208201905081810360008301526144c181613ef3565b9050919050565b600060208201905081810360008301526144e181613f33565b9050919050565b6000602082019050818103600083015261450181613f99565b9050919050565b6000602082019050818103600083015261452181613fff565b9050919050565b600060208201905081810360008301526145418161403f565b9050919050565b600060208201905081810360008301526145618161407f565b9050919050565b60006020820190508181036000830152614581816140e5565b9050919050565b600060208201905081810360008301526145a181614125565b9050919050565b600060208201905081810360008301526145c181614165565b9050919050565b60006020820190506145dd600083018461425e565b92915050565b60006060820190506145f8600083018661425e565b6146056020830185613b98565b6146126040830184613b98565b949350505050565b6000819050602082019050919050565b6000819050602082019050919050565b600081519050919050565b600081519050919050565b6000602082019050919050565b6000602082019050919050565b600082825260208201905092915050565b600082825260208201905092915050565b600082825260208201905092915050565b60006146a8826147f0565b91506146b3836147f0565b9250827fffffffffffffffffffffffffffffffffffffffffffffffffffffffffffffffff038211156146e8576146e7614843565b5b828201905092915050565b60006146fe826147f0565b9150614709836147f0565b92508261471957614718614872565b5b828204905092915050565b600061472f826147f0565b915061473a836147f0565b9250817fffffffffffffffffffffffffffffffffffffffffffffffffffffffffffffffff048311821515161561477357614772614843565b5b828202905092915050565b6000614789826147f0565b9150614794836147f0565b9250828210156147a7576147a6614843565b5b828203905092915050565b60006147bd826147d0565b9050919050565b60008115159050919050565b600073ffffffffffffffffffffffffffffffffffffffff82169050919050565b6000819050919050565b6000614805826147f0565b91507fffffffffffffffffffffffffffffffffffffffffffffffffffffffffffffffff82141561483857614837614843565b5b600182019050919050565b7f4e487b7100000000000000000000000000000000000000000000000000000000600052601160045260246000fd5b7f4e487b7100000000000000000000000000000000000000000000000000000000600052601260045260246000fd5b6148aa816147b2565b81146148b557600080fd5b50565b6148c1816147c4565b81146148cc57600080fd5b50565b6148d8816147f0565b81146148e357600080fd5b5056fea2646970667358221220aebf439e29f95ad498b64976c357d85e6d3065957786d45e547d3baf9952b12564736f6c63430008000033",
  "immutableReferences": {},
  "source": "// contracts/LowbMarket.sol\n// SPDX-License-Identifier: MIT\npragma solidity ^0.8.0;\n\nimport \"./IERC721LOWB.sol\";\nimport \"./IWallet.sol\";\n\ncontract LowbMarket {\n\n    address public walletAddress;\n    //address public lowbTokenAddress;\n\n    address public owner;\n\n    /* Inverse basis point. */\n    uint public constant INVERSE_BASIS_POINT = 10000;\n    uint public fee;\n    \n    struct Offer {\n        bool isForSale;\n        uint itemId;\n        address seller;\n        uint minValue;          // in lowb\n        address onlySellTo;     // specify to sell only to a specific person\n    }\n    \n    struct Bid {\n        address prevBidder;\n        address nextBidder;\n        uint value;\n    }\n    \n    //mapping (address => uint) public pendingWithdrawals;\n    mapping (address => uint) public royaltyOf;\n    mapping (address => mapping (uint => Offer)) public itemsOfferedForSale;\n    mapping (address => mapping (uint => mapping (address => Bid))) public itemBids;\n    \n    event ItemNoLongerForSale(address indexed nftAddress, uint indexed itemId);\n    event ItemOffered(address indexed nftAddress, uint indexed itemId, uint minValue);\n    event ItemBought(address indexed nftAddress, uint indexed itemId, uint value, address fromAddress, address toAddress);\n    event NewBidEntered(address indexed nftAddress, uint indexed itemId, uint value, address indexed fromAddress);\n    event BidWithdrawn(address indexed nftAddress, uint indexed itemId, uint value, address indexed fromAddress);\n\n\n    constructor(address wallet_) {\n        walletAddress = wallet_;\n        owner = msg.sender;\n        fee = 250;\n    }\n    \n    function offerItemForSale(address nftAddress, uint itemId, uint minSalePriceInWei) public {\n        IERC721LOWB token = IERC721LOWB(nftAddress);\n        require(token.ownerOf(itemId) == msg.sender && token.holderOf(itemId) == msg.sender, \"You don't own this token.\");\n        require(token.getApproved(itemId) == address(this), \"Approve this token first.\");\n\n        itemsOfferedForSale[nftAddress][itemId] = Offer(true, itemId, msg.sender, minSalePriceInWei, address(0));\n        emit ItemOffered(nftAddress, itemId, minSalePriceInWei);\n    }\n    \n    function itemNoLongerForSale(address nftAddress, uint itemId) public {\n        IERC721LOWB token = IERC721LOWB(nftAddress);\n        require(token.ownerOf(itemId) == msg.sender, \"You don't own this token.\");\n\n        itemsOfferedForSale[nftAddress][itemId] = Offer(false, itemId, msg.sender, 0, address(0));\n        emit ItemNoLongerForSale(nftAddress, itemId);\n    }\n    \n    function _makeDeal(address seller, uint amount, address nftAddress) private {\n        IERC721LOWB nft = IERC721LOWB(nftAddress);\n        uint royalty = royaltyOf[nftAddress];\n        uint fee_amount = amount / INVERSE_BASIS_POINT * fee;\n        uint royalty_amount = amount / INVERSE_BASIS_POINT * royalty;\n        uint actual_amount = amount - fee_amount - royalty_amount;\n        address creator = nft.owner();\n        require(actual_amount > 0, \"Fees should less than the transaction value.\");\n        \n        IWallet wallet = IWallet(walletAddress);\n        wallet.award(creator, royalty_amount);\n        wallet.award(owner, fee_amount);\n        wallet.award(seller, actual_amount);\n    }\n    \n    function buyItem(address nftAddress, uint itemId, uint amount) public {\n        Offer memory offer = itemsOfferedForSale[nftAddress][itemId];\n        require(offer.isForSale, \"This item not actually for sale.\");\n        require(amount >= offer.minValue, \"You didn't send enough LOWB.\");\n        \n        IWallet wallet = IWallet(walletAddress);\n        require(wallet.balanceOf(msg.sender) >= amount, \"Please deposit enough lowb to buy this item!\");\n\n        IERC721LOWB nft = IERC721LOWB(nftAddress);\n        require(nft.ownerOf(itemId) == msg.sender && nft.holderOf(itemId) == msg.sender, \"Seller no longer owner of this item.\");\n\n        require(wallet.isApprovededAddress(msg.sender, address(this)), \"You should approve the market to use your wallet.\");\n        wallet.use(msg.sender, amount);\n\n        address seller = offer.seller;\n        nft.safeTransferFrom(seller, msg.sender, itemId);\n\n        itemNoLongerForSale(nftAddress, itemId);\n\n        _makeDeal(seller, amount, nftAddress);\n        emit ItemBought(nftAddress, itemId, amount, seller, msg.sender);\n    }\n    \n    function enterBid(address nftAddress, uint itemId, uint amount) public {\n        IWallet wallet = IWallet(walletAddress);\n        require(wallet.balanceOf(msg.sender) >= amount, \"Please deposit enough lowb before bid!\");\n        require(amount > 0, \"Please bid with some lowb!\");\n\n        IERC721LOWB nft = IERC721LOWB(nftAddress);\n        require(nft.ownerOf(itemId) != address(0), \"Token not created yet.\");\n\n        require(itemBids[nftAddress][itemId][msg.sender].value == 0, \"You've already entered a bid!\");\n        \n        require(wallet.isApprovededAddress(msg.sender, address(this)), \"You should approve the market to use your wallet.\");\n\n        // Lock the current bid\n        wallet.use(msg.sender, amount);\n        address latestBidder = itemBids[nftAddress][itemId][address(0)].nextBidder;\n        itemBids[nftAddress][itemId][latestBidder].prevBidder = msg.sender;\n        itemBids[nftAddress][itemId][msg.sender] = Bid(address(0), latestBidder, amount);\n        itemBids[nftAddress][itemId][address(0)].nextBidder = msg.sender;\n\n        emit NewBidEntered(nftAddress, itemId, amount, msg.sender);\n    }\n    \n    function acceptBid(address nftAddress, uint itemId, address bidder) public {\n        IERC721LOWB token = IERC721LOWB(nftAddress);\n        require(token.ownerOf(itemId) == msg.sender && token.holderOf(itemId) == msg.sender, \"You don't own this token.\");\n        require(token.getApproved(itemId) == address(this), \"Approve this token first.\");\n        \n        address seller = msg.sender;\n        uint amount = itemBids[nftAddress][itemId][bidder].value;\n        require(amount > 0, \"No bid from this address for this item yet.\");\n\n        token.safeTransferFrom(seller, bidder, itemId);\n        itemsOfferedForSale[nftAddress][itemId] = Offer(false, itemId, bidder, 0, address(0));\n\n        itemBids[nftAddress][itemId][bidder].value = 0;\n        address nextBidder = itemBids[nftAddress][itemId][bidder].nextBidder;\n        address prevBidder = itemBids[nftAddress][itemId][bidder].prevBidder;\n        itemBids[nftAddress][itemId][prevBidder].nextBidder = nextBidder;\n        itemBids[nftAddress][itemId][nextBidder].prevBidder = prevBidder;\n        \n        _makeDeal(seller, amount, nftAddress);\n        \n        emit ItemBought(nftAddress, itemId, amount, seller, bidder);\n    }\n    \n    function withdrawBid(address nftAddress, uint itemId) public {\n        uint amount = itemBids[nftAddress][itemId][msg.sender].value;\n        require(amount > 0, \"You don't have a bid for it.\");\n        \n        itemBids[nftAddress][itemId][msg.sender].value = 0;\n        address nextBidder = itemBids[nftAddress][itemId][msg.sender].nextBidder;\n        address prevBidder = itemBids[nftAddress][itemId][msg.sender].prevBidder;\n        itemBids[nftAddress][itemId][prevBidder].nextBidder = nextBidder;\n        itemBids[nftAddress][itemId][nextBidder].prevBidder = prevBidder;\n        // Refund the bid money\n        IWallet wallet = IWallet(walletAddress);\n        wallet.award(msg.sender, amount);\n        \n        emit BidWithdrawn(nftAddress, itemId, amount, msg.sender);\n    }\n\n    \n    function setRoyalty(address nftAddress, uint royalty) public {\n        IERC721LOWB nft = IERC721LOWB(nftAddress);\n        require(msg.sender == nft.owner(), \"Only owner can set the royalty!\");\n        require(royalty <= 1000, \"Royalty too high!\");\n        royaltyOf[nftAddress] = royalty;\n    }\n    \n    function getOffers(address nftAddress, uint from, uint to) public view returns (Offer[] memory) {\n        require(from > 0 && to >= from, \"Invalid index\");\n        Offer[] memory offers = new Offer[](to-from+1);\n        for (uint i=from; i<=to; i++) {\n            offers[i-from] = itemsOfferedForSale[nftAddress][i];\n        }\n        return offers;\n    }\n    \n    function getBidsOf(address nftAddress, address user, uint from, uint to) public view returns (Bid[] memory) {\n        require(from > 0 && to >= from, \"Invalid index\");\n        Bid[] memory bids = new Bid[](to-from+1);\n        for (uint i=from; i<=to; i++) {\n            bids[i-from] = itemBids[nftAddress][i][user];\n        }\n        return bids;\n    }\n    \n    function getHighestBids(address nftAddress, uint from, uint to) public view returns (Bid[] memory) {\n        require(from > 0 && to >= from, \"Invalid index\");\n\n        Bid[] memory bids = new Bid[](to-from+1);\n        LowbMarket.Bid memory bid;\n        for (uint i=from; i<=to; i++) {\n            bid = itemBids[nftAddress][i][address(0)];\n            while (bid.nextBidder != address(0)) {\n                bid = itemBids[nftAddress][i][bid.nextBidder];\n                if (bid.value >= bids[i-from].value) {\n                    bids[i-from] = bid;\n                }\n            }\n        }\n        return bids;\n    }\n\n}\n",
  "sourcePath": "/home/mozzie/Documents/github/LowbMarket/contracts/LowbMarket.sol",
  "compiler": {
    "name": "solc",
    "version": "0.8.0+commit.c7dfd78e.Emscripten.clang"
  },
  "schemaVersion": "3.4.2",
  "updatedAt": "2021-08-04T09:55:01.366Z",
  "devdoc": {
    "kind": "dev",
    "methods": {},
    "version": 1
  },
  "userdoc": {
    "kind": "user",
    "methods": {},
    "version": 1
  }
}