{
  "contractName": "LowbMarket",
  "abi": [
    {
      "inputs": [
        {
          "internalType": "address",
          "name": "lowbToken_",
          "type": "address"
        },
        {
          "internalType": "address",
          "name": "nonFungibleToken_",
          "type": "address"
        }
      ],
      "stateMutability": "nonpayable",
      "type": "constructor"
    },
    {
      "anonymous": false,
      "inputs": [
        {
          "indexed": true,
          "internalType": "uint256",
          "name": "itemId",
          "type": "uint256"
        },
        {
          "indexed": false,
          "internalType": "uint256",
          "name": "value",
          "type": "uint256"
        },
        {
          "indexed": true,
          "internalType": "address",
          "name": "fromAddress",
          "type": "address"
        }
      ],
      "name": "BidWithdrawn",
      "type": "event"
    },
    {
      "anonymous": false,
      "inputs": [
        {
          "indexed": true,
          "internalType": "uint256",
          "name": "itemId",
          "type": "uint256"
        },
        {
          "indexed": false,
          "internalType": "uint256",
          "name": "value",
          "type": "uint256"
        },
        {
          "indexed": true,
          "internalType": "address",
          "name": "fromAddress",
          "type": "address"
        },
        {
          "indexed": true,
          "internalType": "address",
          "name": "toAddress",
          "type": "address"
        }
      ],
      "name": "ItemBought",
      "type": "event"
    },
    {
      "anonymous": false,
      "inputs": [
        {
          "indexed": true,
          "internalType": "uint256",
          "name": "itemId",
          "type": "uint256"
        },
        {
          "indexed": false,
          "internalType": "uint256",
          "name": "value",
          "type": "uint256"
        },
        {
          "indexed": true,
          "internalType": "address",
          "name": "toAddress",
          "type": "address"
        }
      ],
      "name": "ItemMint",
      "type": "event"
    },
    {
      "anonymous": false,
      "inputs": [
        {
          "indexed": true,
          "internalType": "uint256",
          "name": "itemId",
          "type": "uint256"
        }
      ],
      "name": "ItemNoLongerForSale",
      "type": "event"
    },
    {
      "anonymous": false,
      "inputs": [
        {
          "indexed": true,
          "internalType": "uint256",
          "name": "itemId",
          "type": "uint256"
        },
        {
          "indexed": false,
          "internalType": "uint256",
          "name": "minValue",
          "type": "uint256"
        },
        {
          "indexed": true,
          "internalType": "address",
          "name": "toAddress",
          "type": "address"
        }
      ],
      "name": "ItemOffered",
      "type": "event"
    },
    {
      "anonymous": false,
      "inputs": [
        {
          "indexed": true,
          "internalType": "uint256",
          "name": "groupId",
          "type": "uint256"
        },
        {
          "indexed": false,
          "internalType": "uint256",
          "name": "value",
          "type": "uint256"
        },
        {
          "indexed": true,
          "internalType": "address",
          "name": "fromAddress",
          "type": "address"
        }
      ],
      "name": "NewBidEntered",
      "type": "event"
    },
    {
      "anonymous": false,
      "inputs": [
        {
          "indexed": true,
          "internalType": "uint256",
          "name": "groupId",
          "type": "uint256"
        },
        {
          "indexed": false,
          "internalType": "uint256",
          "name": "minValue",
          "type": "uint256"
        }
      ],
      "name": "NewItemsOffered",
      "type": "event"
    },
    {
      "inputs": [
        {
          "internalType": "uint256",
          "name": "",
          "type": "uint256"
        },
        {
          "internalType": "address",
          "name": "",
          "type": "address"
        }
      ],
      "name": "itemBids",
      "outputs": [
        {
          "internalType": "address",
          "name": "prevBidder",
          "type": "address"
        },
        {
          "internalType": "address",
          "name": "nextBidder",
          "type": "address"
        },
        {
          "internalType": "uint256",
          "name": "value",
          "type": "uint256"
        }
      ],
      "stateMutability": "view",
      "type": "function",
      "constant": true
    },
    {
      "inputs": [
        {
          "internalType": "uint256",
          "name": "",
          "type": "uint256"
        }
      ],
      "name": "itemsOfferedForSale",
      "outputs": [
        {
          "internalType": "bool",
          "name": "isForSale",
          "type": "bool"
        },
        {
          "internalType": "uint256",
          "name": "itemId",
          "type": "uint256"
        },
        {
          "internalType": "address",
          "name": "seller",
          "type": "address"
        },
        {
          "internalType": "uint256",
          "name": "minValue",
          "type": "uint256"
        },
        {
          "internalType": "address",
          "name": "onlySellTo",
          "type": "address"
        }
      ],
      "stateMutability": "view",
      "type": "function",
      "constant": true
    },
    {
      "inputs": [],
      "name": "lowbTokenAddress",
      "outputs": [
        {
          "internalType": "address",
          "name": "",
          "type": "address"
        }
      ],
      "stateMutability": "view",
      "type": "function",
      "constant": true
    },
    {
      "inputs": [
        {
          "internalType": "uint256",
          "name": "",
          "type": "uint256"
        }
      ],
      "name": "newTokenOffer",
      "outputs": [
        {
          "internalType": "uint256",
          "name": "",
          "type": "uint256"
        }
      ],
      "stateMutability": "view",
      "type": "function",
      "constant": true
    },
    {
      "inputs": [],
      "name": "nonFungibleTokenAddress",
      "outputs": [
        {
          "internalType": "address",
          "name": "",
          "type": "address"
        }
      ],
      "stateMutability": "view",
      "type": "function",
      "constant": true
    },
    {
      "inputs": [],
      "name": "owner",
      "outputs": [
        {
          "internalType": "address",
          "name": "",
          "type": "address"
        }
      ],
      "stateMutability": "view",
      "type": "function",
      "constant": true
    },
    {
      "inputs": [
        {
          "internalType": "address",
          "name": "",
          "type": "address"
        }
      ],
      "name": "pendingWithdrawals",
      "outputs": [
        {
          "internalType": "uint256",
          "name": "",
          "type": "uint256"
        }
      ],
      "stateMutability": "view",
      "type": "function",
      "constant": true
    },
    {
      "inputs": [
        {
          "internalType": "uint256",
          "name": "itemId",
          "type": "uint256"
        }
      ],
      "name": "itemNoLongerForSale",
      "outputs": [],
      "stateMutability": "nonpayable",
      "type": "function"
    },
    {
      "inputs": [
        {
          "internalType": "uint256",
          "name": "itemId",
          "type": "uint256"
        },
        {
          "internalType": "uint256",
          "name": "minSalePriceInWei",
          "type": "uint256"
        }
      ],
      "name": "offerItemForSale",
      "outputs": [],
      "stateMutability": "nonpayable",
      "type": "function"
    },
    {
      "inputs": [
        {
          "internalType": "uint256",
          "name": "itemId",
          "type": "uint256"
        },
        {
          "internalType": "uint256",
          "name": "minSalePriceInWei",
          "type": "uint256"
        },
        {
          "internalType": "address",
          "name": "toAddress",
          "type": "address"
        }
      ],
      "name": "offerItemForSaleToAddress",
      "outputs": [],
      "stateMutability": "nonpayable",
      "type": "function"
    },
    {
      "inputs": [
        {
          "internalType": "uint256",
          "name": "amount",
          "type": "uint256"
        }
      ],
      "name": "deposit",
      "outputs": [],
      "stateMutability": "nonpayable",
      "type": "function"
    },
    {
      "inputs": [
        {
          "internalType": "uint256",
          "name": "amount",
          "type": "uint256"
        }
      ],
      "name": "withdraw",
      "outputs": [],
      "stateMutability": "nonpayable",
      "type": "function"
    },
    {
      "inputs": [
        {
          "internalType": "uint256",
          "name": "itemId",
          "type": "uint256"
        },
        {
          "internalType": "uint256",
          "name": "amount",
          "type": "uint256"
        }
      ],
      "name": "buyItem",
      "outputs": [],
      "stateMutability": "nonpayable",
      "type": "function"
    },
    {
      "inputs": [
        {
          "internalType": "uint256",
          "name": "groupId",
          "type": "uint256"
        },
        {
          "internalType": "uint256",
          "name": "amount",
          "type": "uint256"
        }
      ],
      "name": "enterBid",
      "outputs": [],
      "stateMutability": "nonpayable",
      "type": "function"
    },
    {
      "inputs": [
        {
          "internalType": "uint256",
          "name": "itemId",
          "type": "uint256"
        },
        {
          "internalType": "address",
          "name": "bidder",
          "type": "address"
        }
      ],
      "name": "acceptBid",
      "outputs": [],
      "stateMutability": "nonpayable",
      "type": "function"
    },
    {
      "inputs": [
        {
          "internalType": "uint256",
          "name": "groupId",
          "type": "uint256"
        }
      ],
      "name": "withdrawBid",
      "outputs": [],
      "stateMutability": "nonpayable",
      "type": "function"
    },
    {
      "inputs": [
        {
          "internalType": "uint256",
          "name": "groupId",
          "type": "uint256"
        },
        {
          "internalType": "address",
          "name": "bidder",
          "type": "address"
        }
      ],
      "name": "approveBid",
      "outputs": [],
      "stateMutability": "nonpayable",
      "type": "function"
    },
    {
      "inputs": [
        {
          "internalType": "uint256",
          "name": "groupId",
          "type": "uint256"
        },
        {
          "internalType": "uint256",
          "name": "minSalePriceInWei",
          "type": "uint256"
        }
      ],
      "name": "offerItemsForPublicSale",
      "outputs": [],
      "stateMutability": "nonpayable",
      "type": "function"
    },
    {
      "inputs": [
        {
          "internalType": "uint256",
          "name": "groupId",
          "type": "uint256"
        },
        {
          "internalType": "uint256",
          "name": "amount",
          "type": "uint256"
        }
      ],
      "name": "buyNewItem",
      "outputs": [],
      "stateMutability": "nonpayable",
      "type": "function"
    },
    {
      "inputs": [],
      "name": "pullFunds",
      "outputs": [],
      "stateMutability": "nonpayable",
      "type": "function"
    }
  ],
  "bytecode": "0x60806040523480156200001157600080fd5b50604051620049e1380380620049e1833981810160405281019062000037919062000153565b600073ffffffffffffffffffffffffffffffffffffffff168173ffffffffffffffffffffffffffffffffffffffff1614156200007257600080fd5b806000806101000a81548173ffffffffffffffffffffffffffffffffffffffff021916908373ffffffffffffffffffffffffffffffffffffffff16021790555081600160006101000a81548173ffffffffffffffffffffffffffffffffffffffff021916908373ffffffffffffffffffffffffffffffffffffffff16021790555033600260006101000a81548173ffffffffffffffffffffffffffffffffffffffff021916908373ffffffffffffffffffffffffffffffffffffffff1602179055505050620001e2565b6000815190506200014d81620001c8565b92915050565b600080604083850312156200016757600080fd5b600062000177858286016200013c565b92505060206200018a858286016200013c565b9150509250929050565b6000620001a182620001a8565b9050919050565b600073ffffffffffffffffffffffffffffffffffffffff82169050919050565b620001d38162000194565b8114620001df57600080fd5b50565b6147ef80620001f26000396000f3fe608060405234801561001057600080fd5b506004361061012c5760003560e01c80633d570cc0116100ad5780638da5cb5b116100715780638da5cb5b1461031b5780639979c00914610339578063b6b55f2514610355578063e43a0bb214610371578063f3f437031461037b5761012c565b80633d570cc0146102755780634b4ddfa61461029157806360e9280b146102c557806366113738146102e157806368249dcb146102fd5761012c565b80631ef4d920116100f45780631ef4d920146101d35780632e1a7d4d146101f1578063310e1b261461020d5780633538a50e1461023d5780633c847b5e146102595761012c565b8063020686641461013157806304fa906b1461014d5780630eaaf4c8146101695780630f6f3e06146101855780631a6c0940146101a1575b600080fd5b61014b60048036038101906101469190613b75565b6103ab565b005b61016760048036038101906101629190613b23565b610bbc565b005b610183600480360381019061017e9190613b23565b610e39565b005b61019f600480360381019061019a9190613bb1565b6111ec565b005b6101bb60048036038101906101b69190613b75565b61186d565b6040516101ca939291906142f4565b60405180910390f35b6101db6118e4565b6040516101e891906142d9565b60405180910390f35b61020b60048036038101906102069190613b23565b611908565b005b61022760048036038101906102229190613b23565b611ad7565b6040516102349190614647565b60405180910390f35b61025760048036038101906102529190613bed565b611aef565b005b610273600480360381019061026e9190613b75565b611e84565b005b61028f600480360381019061028a9190613bb1565b612515565b005b6102ab60048036038101906102a69190613b23565b6128ab565b6040516102bc959493929190614354565b60405180910390f35b6102df60048036038101906102da9190613bb1565b61292e565b005b6102fb60048036038101906102f69190613bb1565b612db6565b005b6103056130ee565b60405161031291906142d9565b60405180910390f35b610323613114565b60405161033091906142d9565b60405180910390f35b610353600480360381019061034e9190613bb1565b61313a565b005b61036f600480360381019061036a9190613b23565b6136c9565b005b61037961385b565b005b61039560048036038101906103909190613aa8565b613a27565b6040516103a29190614647565b60405180910390f35b60008060009054906101000a900473ffffffffffffffffffffffffffffffffffffffff1690503373ffffffffffffffffffffffffffffffffffffffff168173ffffffffffffffffffffffffffffffffffffffff16636352211e856040518263ffffffff1660e01b81526004016104219190614647565b60206040518083038186803b15801561043957600080fd5b505afa15801561044d573d6000803e3d6000fd5b505050506040513d601f19601f820116820180604052508101906104719190613ad1565b73ffffffffffffffffffffffffffffffffffffffff16146104c7576040517f08c379a00000000000000000000000000000000000000000000000000000000081526004016104be906145a7565b60405180910390fd5b3073ffffffffffffffffffffffffffffffffffffffff168173ffffffffffffffffffffffffffffffffffffffff1663081812fc856040518263ffffffff1660e01b81526004016105179190614647565b60206040518083038186803b15801561052f57600080fd5b505afa158015610543573d6000803e3d6000fd5b505050506040513d601f19601f820116820180604052508101906105679190613ad1565b73ffffffffffffffffffffffffffffffffffffffff16146105bd576040517f08c379a00000000000000000000000000000000000000000000000000000000081526004016105b490614587565b60405180910390fd5b600033905060008273ffffffffffffffffffffffffffffffffffffffff1663503ae187866040518263ffffffff1660e01b81526004016105fd9190614647565b60206040518083038186803b15801561061557600080fd5b505afa158015610629573d6000803e3d6000fd5b505050506040513d601f19601f8201168201806040525081019061064d9190613b4c565b905060006004600083815260200190815260200160002060008673ffffffffffffffffffffffffffffffffffffffff1673ffffffffffffffffffffffffffffffffffffffff168152602001908152602001600020600201549050600081116106ea576040517f08c379a00000000000000000000000000000000000000000000000000000000081526004016106e190614407565b60405180910390fd5b8373ffffffffffffffffffffffffffffffffffffffff166342842e0e8487896040518463ffffffff1660e01b8152600401610727939291906142f4565b600060405180830381600087803b15801561074157600080fd5b505af1158015610755573d6000803e3d6000fd5b505050506040518060a001604052806000151581526020018781526020018673ffffffffffffffffffffffffffffffffffffffff16815260200160008152602001600073ffffffffffffffffffffffffffffffffffffffff168152506003600088815260200190815260200160002060008201518160000160006101000a81548160ff0219169083151502179055506020820151816001015560408201518160020160006101000a81548173ffffffffffffffffffffffffffffffffffffffff021916908373ffffffffffffffffffffffffffffffffffffffff1602179055506060820151816003015560808201518160040160006101000a81548173ffffffffffffffffffffffffffffffffffffffff021916908373ffffffffffffffffffffffffffffffffffffffff16021790555090505060006004600084815260200190815260200160002060008773ffffffffffffffffffffffffffffffffffffffff1673ffffffffffffffffffffffffffffffffffffffff1681526020019081526020016000206002018190555060006004600084815260200190815260200160002060008773ffffffffffffffffffffffffffffffffffffffff1673ffffffffffffffffffffffffffffffffffffffff16815260200190815260200160002060010160009054906101000a900473ffffffffffffffffffffffffffffffffffffffff16905060006004600085815260200190815260200160002060008873ffffffffffffffffffffffffffffffffffffffff1673ffffffffffffffffffffffffffffffffffffffff16815260200190815260200160002060000160009054906101000a900473ffffffffffffffffffffffffffffffffffffffff169050816004600086815260200190815260200160002060008373ffffffffffffffffffffffffffffffffffffffff1673ffffffffffffffffffffffffffffffffffffffff16815260200190815260200160002060010160006101000a81548173ffffffffffffffffffffffffffffffffffffffff021916908373ffffffffffffffffffffffffffffffffffffffff160217905550806004600086815260200190815260200160002060008473ffffffffffffffffffffffffffffffffffffffff1673ffffffffffffffffffffffffffffffffffffffff16815260200190815260200160002060000160006101000a81548173ffffffffffffffffffffffffffffffffffffffff021916908373ffffffffffffffffffffffffffffffffffffffff16021790555082600560008773ffffffffffffffffffffffffffffffffffffffff1673ffffffffffffffffffffffffffffffffffffffff1681526020019081526020016000206000828254610b459190614673565b925050819055508673ffffffffffffffffffffffffffffffffffffffff168573ffffffffffffffffffffffffffffffffffffffff16897f7dabc6512298d15f481bd3755e8e2e4387bdd4497983824ce33f9c315005e89686604051610baa9190614647565b60405180910390a45050505050505050565b60008060009054906101000a900473ffffffffffffffffffffffffffffffffffffffff1690503373ffffffffffffffffffffffffffffffffffffffff168173ffffffffffffffffffffffffffffffffffffffff16636352211e846040518263ffffffff1660e01b8152600401610c329190614647565b60206040518083038186803b158015610c4a57600080fd5b505afa158015610c5e573d6000803e3d6000fd5b505050506040513d601f19601f82011682018060405250810190610c829190613ad1565b73ffffffffffffffffffffffffffffffffffffffff1614610cd8576040517f08c379a0000000000000000000000000000000000000000000000000000000008152600401610ccf906145a7565b60405180910390fd5b6040518060a001604052806000151581526020018381526020013373ffffffffffffffffffffffffffffffffffffffff16815260200160008152602001600073ffffffffffffffffffffffffffffffffffffffff168152506003600084815260200190815260200160002060008201518160000160006101000a81548160ff0219169083151502179055506020820151816001015560408201518160020160006101000a81548173ffffffffffffffffffffffffffffffffffffffff021916908373ffffffffffffffffffffffffffffffffffffffff1602179055506060820151816003015560808201518160040160006101000a81548173ffffffffffffffffffffffffffffffffffffffff021916908373ffffffffffffffffffffffffffffffffffffffff160217905550905050817f4d3fddd7140a18aabb43157d457a8bd1f6aee4360f2637a58720dd2d621268de60405160405180910390a25050565b60006004600083815260200190815260200160002060003373ffffffffffffffffffffffffffffffffffffffff1673ffffffffffffffffffffffffffffffffffffffff16815260200190815260200160002060020154905060008111610ed4576040517f08c379a0000000000000000000000000000000000000000000000000000000008152600401610ecb906145c7565b60405180910390fd5b3373ffffffffffffffffffffffffffffffffffffffff16827fb41c9b05054be45850ccc1da7d90c7b819cff855cfe0d14f16427398b286c9b683604051610f1b9190614647565b60405180910390a360006004600084815260200190815260200160002060003373ffffffffffffffffffffffffffffffffffffffff1673ffffffffffffffffffffffffffffffffffffffff1681526020019081526020016000206002018190555060006004600084815260200190815260200160002060003373ffffffffffffffffffffffffffffffffffffffff1673ffffffffffffffffffffffffffffffffffffffff16815260200190815260200160002060010160009054906101000a900473ffffffffffffffffffffffffffffffffffffffff16905060006004600085815260200190815260200160002060003373ffffffffffffffffffffffffffffffffffffffff1673ffffffffffffffffffffffffffffffffffffffff16815260200190815260200160002060000160009054906101000a900473ffffffffffffffffffffffffffffffffffffffff169050816004600086815260200190815260200160002060008373ffffffffffffffffffffffffffffffffffffffff1673ffffffffffffffffffffffffffffffffffffffff16815260200190815260200160002060010160006101000a81548173ffffffffffffffffffffffffffffffffffffffff021916908373ffffffffffffffffffffffffffffffffffffffff160217905550806004600086815260200190815260200160002060008473ffffffffffffffffffffffffffffffffffffffff1673ffffffffffffffffffffffffffffffffffffffff16815260200190815260200160002060000160006101000a81548173ffffffffffffffffffffffffffffffffffffffff021916908373ffffffffffffffffffffffffffffffffffffffff16021790555082600560003373ffffffffffffffffffffffffffffffffffffffff1673ffffffffffffffffffffffffffffffffffffffff16815260200190815260200160002060008282546111df9190614673565b9250508190555050505050565b80600560003373ffffffffffffffffffffffffffffffffffffffff1673ffffffffffffffffffffffffffffffffffffffff16815260200190815260200160002054101561126e576040517f08c379a000000000000000000000000000000000000000000000000000000000815260040161126590614527565b60405180910390fd5b600081116112b1576040517f08c379a00000000000000000000000000000000000000000000000000000000081526004016112a8906144c7565b60405180910390fd5b60008060009054906101000a900473ffffffffffffffffffffffffffffffffffffffff16905060008173ffffffffffffffffffffffffffffffffffffffff16636d780e6b856040518263ffffffff1660e01b81526004016113129190614647565b60206040518083038186803b15801561132a57600080fd5b505afa15801561133e573d6000803e3d6000fd5b505050506040513d601f19601f820116820180604052508101906113629190613b4c565b9050600073ffffffffffffffffffffffffffffffffffffffff168273ffffffffffffffffffffffffffffffffffffffff16636352211e836040518263ffffffff1660e01b81526004016113b59190614647565b60206040518083038186803b1580156113cd57600080fd5b505afa1580156113e1573d6000803e3d6000fd5b505050506040513d601f19601f820116820180604052508101906114059190613ad1565b73ffffffffffffffffffffffffffffffffffffffff16141561145c576040517f08c379a000000000000000000000000000000000000000000000000000000000815260040161145390614447565b60405180910390fd5b60006004600086815260200190815260200160002060003373ffffffffffffffffffffffffffffffffffffffff1673ffffffffffffffffffffffffffffffffffffffff16815260200190815260200160002060020154146114f2576040517f08c379a00000000000000000000000000000000000000000000000000000000081526004016114e9906143e7565b60405180910390fd5b82600560003373ffffffffffffffffffffffffffffffffffffffff1673ffffffffffffffffffffffffffffffffffffffff168152602001908152602001600020600082825461154191906146c9565b9250508190555060006004600086815260200190815260200160002060008073ffffffffffffffffffffffffffffffffffffffff1673ffffffffffffffffffffffffffffffffffffffff16815260200190815260200160002060010160009054906101000a900473ffffffffffffffffffffffffffffffffffffffff169050336004600087815260200190815260200160002060008373ffffffffffffffffffffffffffffffffffffffff1673ffffffffffffffffffffffffffffffffffffffff16815260200190815260200160002060000160006101000a81548173ffffffffffffffffffffffffffffffffffffffff021916908373ffffffffffffffffffffffffffffffffffffffff1602179055506040518060600160405280600073ffffffffffffffffffffffffffffffffffffffff1681526020018273ffffffffffffffffffffffffffffffffffffffff168152602001858152506004600087815260200190815260200160002060003373ffffffffffffffffffffffffffffffffffffffff1673ffffffffffffffffffffffffffffffffffffffff16815260200190815260200160002060008201518160000160006101000a81548173ffffffffffffffffffffffffffffffffffffffff021916908373ffffffffffffffffffffffffffffffffffffffff16021790555060208201518160010160006101000a81548173ffffffffffffffffffffffffffffffffffffffff021916908373ffffffffffffffffffffffffffffffffffffffff16021790555060408201518160020155905050336004600087815260200190815260200160002060008073ffffffffffffffffffffffffffffffffffffffff1673ffffffffffffffffffffffffffffffffffffffff16815260200190815260200160002060010160006101000a81548173ffffffffffffffffffffffffffffffffffffffff021916908373ffffffffffffffffffffffffffffffffffffffff1602179055503373ffffffffffffffffffffffffffffffffffffffff16857f791109902b518b29273af9ccef104f0591f49a4b10d6542afbe3eb8a87a2a5a48660405161185e9190614647565b60405180910390a35050505050565b6004602052816000526040600020602052806000526040600020600091509150508060000160009054906101000a900473ffffffffffffffffffffffffffffffffffffffff16908060010160009054906101000a900473ffffffffffffffffffffffffffffffffffffffff16908060020154905083565b60008054906101000a900473ffffffffffffffffffffffffffffffffffffffff1681565b600560003373ffffffffffffffffffffffffffffffffffffffff1673ffffffffffffffffffffffffffffffffffffffff1681526020019081526020016000205481111561198a576040517f08c379a000000000000000000000000000000000000000000000000000000000815260040161198190614487565b60405180910390fd5b80600560003373ffffffffffffffffffffffffffffffffffffffff1673ffffffffffffffffffffffffffffffffffffffff16815260200190815260200160002060008282546119d991906146c9565b925050819055506000600160009054906101000a900473ffffffffffffffffffffffffffffffffffffffff1690508073ffffffffffffffffffffffffffffffffffffffff1663a9059cbb33846040518363ffffffff1660e01b8152600401611a4292919061432b565b602060405180830381600087803b158015611a5c57600080fd5b505af1158015611a70573d6000803e3d6000fd5b505050506040513d601f19601f82011682018060405250810190611a949190613afa565b611ad3576040517f08c379a0000000000000000000000000000000000000000000000000000000008152600401611aca906144e7565b60405180910390fd5b5050565b60066020528060005260406000206000915090505481565b60008060009054906101000a900473ffffffffffffffffffffffffffffffffffffffff1690503373ffffffffffffffffffffffffffffffffffffffff168173ffffffffffffffffffffffffffffffffffffffff16636352211e866040518263ffffffff1660e01b8152600401611b659190614647565b60206040518083038186803b158015611b7d57600080fd5b505afa158015611b91573d6000803e3d6000fd5b505050506040513d601f19601f82011682018060405250810190611bb59190613ad1565b73ffffffffffffffffffffffffffffffffffffffff1614611c0b576040517f08c379a0000000000000000000000000000000000000000000000000000000008152600401611c02906145a7565b60405180910390fd5b3073ffffffffffffffffffffffffffffffffffffffff168173ffffffffffffffffffffffffffffffffffffffff1663081812fc866040518263ffffffff1660e01b8152600401611c5b9190614647565b60206040518083038186803b158015611c7357600080fd5b505afa158015611c87573d6000803e3d6000fd5b505050506040513d601f19601f82011682018060405250810190611cab9190613ad1565b73ffffffffffffffffffffffffffffffffffffffff1614611d01576040517f08c379a0000000000000000000000000000000000000000000000000000000008152600401611cf890614587565b60405180910390fd5b6040518060a001604052806001151581526020018581526020013373ffffffffffffffffffffffffffffffffffffffff1681526020018481526020018373ffffffffffffffffffffffffffffffffffffffff168152506003600086815260200190815260200160002060008201518160000160006101000a81548160ff0219169083151502179055506020820151816001015560408201518160020160006101000a81548173ffffffffffffffffffffffffffffffffffffffff021916908373ffffffffffffffffffffffffffffffffffffffff1602179055506060820151816003015560808201518160040160006101000a81548173ffffffffffffffffffffffffffffffffffffffff021916908373ffffffffffffffffffffffffffffffffffffffff1602179055509050508173ffffffffffffffffffffffffffffffffffffffff16847fd404299d246c4005586dcbb400b48be82e12aed7cdc85f1055f9c1fcec8c8fc085604051611e769190614647565b60405180910390a350505050565b60008060009054906101000a900473ffffffffffffffffffffffffffffffffffffffff16905060008173ffffffffffffffffffffffffffffffffffffffff16636d780e6b856040518263ffffffff1660e01b8152600401611ee59190614647565b60206040518083038186803b158015611efd57600080fd5b505afa158015611f11573d6000803e3d6000fd5b505050506040513d601f19601f82011682018060405250810190611f359190613b4c565b90503373ffffffffffffffffffffffffffffffffffffffff168273ffffffffffffffffffffffffffffffffffffffff16636352211e836040518263ffffffff1660e01b8152600401611f879190614647565b60206040518083038186803b158015611f9f57600080fd5b505afa158015611fb3573d6000803e3d6000fd5b505050506040513d601f19601f82011682018060405250810190611fd79190613ad1565b73ffffffffffffffffffffffffffffffffffffffff161461202d576040517f08c379a0000000000000000000000000000000000000000000000000000000008152600401612024906143a7565b60405180910390fd5b3073ffffffffffffffffffffffffffffffffffffffff168273ffffffffffffffffffffffffffffffffffffffff1663081812fc836040518263ffffffff1660e01b815260040161207d9190614647565b60206040518083038186803b15801561209557600080fd5b505afa1580156120a9573d6000803e3d6000fd5b505050506040513d601f19601f820116820180604052508101906120cd9190613ad1565b73ffffffffffffffffffffffffffffffffffffffff1614612123576040517f08c379a000000000000000000000000000000000000000000000000000000000815260040161211a906144a7565b60405180910390fd5b60006004600086815260200190815260200160002060008573ffffffffffffffffffffffffffffffffffffffff1673ffffffffffffffffffffffffffffffffffffffff168152602001908152602001600020600201549050600081116121be576040517f08c379a00000000000000000000000000000000000000000000000000000000081526004016121b590614407565b60405180910390fd5b60008373ffffffffffffffffffffffffffffffffffffffff1663aad3ec9686886040518363ffffffff1660e01b81526004016121fb92919061432b565b602060405180830381600087803b15801561221557600080fd5b505af1158015612229573d6000803e3d6000fd5b505050506040513d601f19601f8201168201806040525081019061224d9190613b4c565b905060006004600088815260200190815260200160002060008773ffffffffffffffffffffffffffffffffffffffff1673ffffffffffffffffffffffffffffffffffffffff1681526020019081526020016000206002018190555060006004600088815260200190815260200160002060008773ffffffffffffffffffffffffffffffffffffffff1673ffffffffffffffffffffffffffffffffffffffff16815260200190815260200160002060010160009054906101000a900473ffffffffffffffffffffffffffffffffffffffff16905060006004600089815260200190815260200160002060008873ffffffffffffffffffffffffffffffffffffffff1673ffffffffffffffffffffffffffffffffffffffff16815260200190815260200160002060000160009054906101000a900473ffffffffffffffffffffffffffffffffffffffff16905081600460008a815260200190815260200160002060008373ffffffffffffffffffffffffffffffffffffffff1673ffffffffffffffffffffffffffffffffffffffff16815260200190815260200160002060010160006101000a81548173ffffffffffffffffffffffffffffffffffffffff021916908373ffffffffffffffffffffffffffffffffffffffff16021790555080600460008a815260200190815260200160002060008473ffffffffffffffffffffffffffffffffffffffff1673ffffffffffffffffffffffffffffffffffffffff16815260200190815260200160002060000160006101000a81548173ffffffffffffffffffffffffffffffffffffffff021916908373ffffffffffffffffffffffffffffffffffffffff1602179055508673ffffffffffffffffffffffffffffffffffffffff16837f17e30385b93a3f258fa9383ee3a05c2d88f6fb7d2fb482a488f3874af22a64ed866040516125039190614647565b60405180910390a35050505050505050565b60008060009054906101000a900473ffffffffffffffffffffffffffffffffffffffff1690503373ffffffffffffffffffffffffffffffffffffffff168173ffffffffffffffffffffffffffffffffffffffff16636352211e856040518263ffffffff1660e01b815260040161258b9190614647565b60206040518083038186803b1580156125a357600080fd5b505afa1580156125b7573d6000803e3d6000fd5b505050506040513d601f19601f820116820180604052508101906125db9190613ad1565b73ffffffffffffffffffffffffffffffffffffffff1614612631576040517f08c379a0000000000000000000000000000000000000000000000000000000008152600401612628906145a7565b60405180910390fd5b3073ffffffffffffffffffffffffffffffffffffffff168173ffffffffffffffffffffffffffffffffffffffff1663081812fc856040518263ffffffff1660e01b81526004016126819190614647565b60206040518083038186803b15801561269957600080fd5b505afa1580156126ad573d6000803e3d6000fd5b505050506040513d601f19601f820116820180604052508101906126d19190613ad1565b73ffffffffffffffffffffffffffffffffffffffff1614612727576040517f08c379a000000000000000000000000000000000000000000000000000000000815260040161271e90614587565b60405180910390fd5b6040518060a001604052806001151581526020018481526020013373ffffffffffffffffffffffffffffffffffffffff168152602001838152602001600073ffffffffffffffffffffffffffffffffffffffff168152506003600085815260200190815260200160002060008201518160000160006101000a81548160ff0219169083151502179055506020820151816001015560408201518160020160006101000a81548173ffffffffffffffffffffffffffffffffffffffff021916908373ffffffffffffffffffffffffffffffffffffffff1602179055506060820151816003015560808201518160040160006101000a81548173ffffffffffffffffffffffffffffffffffffffff021916908373ffffffffffffffffffffffffffffffffffffffff160217905550905050600073ffffffffffffffffffffffffffffffffffffffff16837fd404299d246c4005586dcbb400b48be82e12aed7cdc85f1055f9c1fcec8c8fc08460405161289e9190614647565b60405180910390a3505050565b60036020528060005260406000206000915090508060000160009054906101000a900460ff16908060010154908060020160009054906101000a900473ffffffffffffffffffffffffffffffffffffffff16908060030154908060040160009054906101000a900473ffffffffffffffffffffffffffffffffffffffff16905085565b6000600660008481526020019081526020016000205411612984576040517f08c379a000000000000000000000000000000000000000000000000000000000815260040161297b90614567565b60405180910390fd5b60066000838152602001908152602001600020548110156129da576040517f08c379a00000000000000000000000000000000000000000000000000000000081526004016129d190614427565b60405180910390fd5b60008060009054906101000a900473ffffffffffffffffffffffffffffffffffffffff16905060008173ffffffffffffffffffffffffffffffffffffffff16636d780e6b856040518263ffffffff1660e01b8152600401612a3b9190614647565b60206040518083038186803b158015612a5357600080fd5b505afa158015612a67573d6000803e3d6000fd5b505050506040513d601f19601f82011682018060405250810190612a8b9190613b4c565b90503073ffffffffffffffffffffffffffffffffffffffff168273ffffffffffffffffffffffffffffffffffffffff1663081812fc836040518263ffffffff1660e01b8152600401612add9190614647565b60206040518083038186803b158015612af557600080fd5b505afa158015612b09573d6000803e3d6000fd5b505050506040513d601f19601f82011682018060405250810190612b2d9190613ad1565b73ffffffffffffffffffffffffffffffffffffffff1614612b83576040517f08c379a0000000000000000000000000000000000000000000000000000000008152600401612b7a90614507565b60405180910390fd5b6000600160009054906101000a900473ffffffffffffffffffffffffffffffffffffffff1690508073ffffffffffffffffffffffffffffffffffffffff166323b872dd3330876040518463ffffffff1660e01b8152600401612be7939291906142f4565b602060405180830381600087803b158015612c0157600080fd5b505af1158015612c15573d6000803e3d6000fd5b505050506040513d601f19601f82011682018060405250810190612c399190613afa565b612c78576040517f08c379a0000000000000000000000000000000000000000000000000000000008152600401612c6f906144e7565b60405180910390fd5b60008373ffffffffffffffffffffffffffffffffffffffff1663aad3ec9633886040518363ffffffff1660e01b8152600401612cb592919061432b565b602060405180830381600087803b158015612ccf57600080fd5b505af1158015612ce3573d6000803e3d6000fd5b505050506040513d601f19601f82011682018060405250810190612d079190613b4c565b905084600560003073ffffffffffffffffffffffffffffffffffffffff1673ffffffffffffffffffffffffffffffffffffffff1681526020019081526020016000206000828254612d589190614673565b925050819055503373ffffffffffffffffffffffffffffffffffffffff16817f17e30385b93a3f258fa9383ee3a05c2d88f6fb7d2fb482a488f3874af22a64ed87604051612da69190614647565b60405180910390a3505050505050565b60008060009054906101000a900473ffffffffffffffffffffffffffffffffffffffff16905060008173ffffffffffffffffffffffffffffffffffffffff16636d780e6b856040518263ffffffff1660e01b8152600401612e179190614647565b60206040518083038186803b158015612e2f57600080fd5b505afa158015612e43573d6000803e3d6000fd5b505050506040513d601f19601f82011682018060405250810190612e679190613b4c565b90503373ffffffffffffffffffffffffffffffffffffffff168273ffffffffffffffffffffffffffffffffffffffff16636352211e836040518263ffffffff1660e01b8152600401612eb99190614647565b60206040518083038186803b158015612ed157600080fd5b505afa158015612ee5573d6000803e3d6000fd5b505050506040513d601f19601f82011682018060405250810190612f099190613ad1565b73ffffffffffffffffffffffffffffffffffffffff1614612f5f576040517f08c379a0000000000000000000000000000000000000000000000000000000008152600401612f56906143a7565b60405180910390fd5b3073ffffffffffffffffffffffffffffffffffffffff168273ffffffffffffffffffffffffffffffffffffffff1663081812fc836040518263ffffffff1660e01b8152600401612faf9190614647565b60206040518083038186803b158015612fc757600080fd5b505afa158015612fdb573d6000803e3d6000fd5b505050506040513d601f19601f82011682018060405250810190612fff9190613ad1565b73ffffffffffffffffffffffffffffffffffffffff1614613055576040517f08c379a000000000000000000000000000000000000000000000000000000000815260040161304c906144a7565b60405180910390fd5b60008311613098576040517f08c379a000000000000000000000000000000000000000000000000000000000815260040161308f90614547565b60405180910390fd5b826006600086815260200190815260200160002081905550837f6e43a44e935111ad2e5fc6b5c1753c415d428125be44ec19cbebb5969a138e21846040516130e09190614647565b60405180910390a250505050565b600160009054906101000a900473ffffffffffffffffffffffffffffffffffffffff1681565b600260009054906101000a900473ffffffffffffffffffffffffffffffffffffffff1681565b6000600360008481526020019081526020016000206040518060a00160405290816000820160009054906101000a900460ff16151515158152602001600182015481526020016002820160009054906101000a900473ffffffffffffffffffffffffffffffffffffffff1673ffffffffffffffffffffffffffffffffffffffff1673ffffffffffffffffffffffffffffffffffffffff168152602001600382015481526020016004820160009054906101000a900473ffffffffffffffffffffffffffffffffffffffff1673ffffffffffffffffffffffffffffffffffffffff1673ffffffffffffffffffffffffffffffffffffffff16815250509050806000015161327b576040517f08c379a000000000000000000000000000000000000000000000000000000000815260040161327290614607565b60405180910390fd5b600073ffffffffffffffffffffffffffffffffffffffff16816080015173ffffffffffffffffffffffffffffffffffffffff1614806132e957503373ffffffffffffffffffffffffffffffffffffffff16816080015173ffffffffffffffffffffffffffffffffffffffff16145b613328576040517f08c379a000000000000000000000000000000000000000000000000000000000815260040161331f906143c7565b60405180910390fd5b806060015182101561336f576040517f08c379a000000000000000000000000000000000000000000000000000000000815260040161336690614427565b60405180910390fd5b60008060009054906101000a900473ffffffffffffffffffffffffffffffffffffffff1690508073ffffffffffffffffffffffffffffffffffffffff16636352211e856040518263ffffffff1660e01b81526004016133ce9190614647565b60206040518083038186803b1580156133e657600080fd5b505afa1580156133fa573d6000803e3d6000fd5b505050506040513d601f19601f8201168201806040525081019061341e9190613ad1565b73ffffffffffffffffffffffffffffffffffffffff16826040015173ffffffffffffffffffffffffffffffffffffffff161461348f576040517f08c379a000000000000000000000000000000000000000000000000000000000815260040161348690614467565b60405180910390fd5b6000600160009054906101000a900473ffffffffffffffffffffffffffffffffffffffff1690508073ffffffffffffffffffffffffffffffffffffffff166323b872dd3330876040518463ffffffff1660e01b81526004016134f3939291906142f4565b602060405180830381600087803b15801561350d57600080fd5b505af1158015613521573d6000803e3d6000fd5b505050506040513d601f19601f820116820180604052508101906135459190613afa565b613584576040517f08c379a000000000000000000000000000000000000000000000000000000000815260040161357b906144e7565b60405180910390fd5b6000836040015190508273ffffffffffffffffffffffffffffffffffffffff166342842e0e8233896040518463ffffffff1660e01b81526004016135ca939291906142f4565b600060405180830381600087803b1580156135e457600080fd5b505af11580156135f8573d6000803e3d6000fd5b5050505061360586610bbc565b84600560008373ffffffffffffffffffffffffffffffffffffffff1673ffffffffffffffffffffffffffffffffffffffff16815260200190815260200160002060008282546136549190614673565b925050819055503373ffffffffffffffffffffffffffffffffffffffff168173ffffffffffffffffffffffffffffffffffffffff16877f7dabc6512298d15f481bd3755e8e2e4387bdd4497983824ce33f9c315005e896886040516136b99190614647565b60405180910390a4505050505050565b6000811161370c576040517f08c379a0000000000000000000000000000000000000000000000000000000008152600401613703906145e7565b60405180910390fd5b6000600160009054906101000a900473ffffffffffffffffffffffffffffffffffffffff1690508073ffffffffffffffffffffffffffffffffffffffff166323b872dd3330856040518463ffffffff1660e01b8152600401613770939291906142f4565b602060405180830381600087803b15801561378a57600080fd5b505af115801561379e573d6000803e3d6000fd5b505050506040513d601f19601f820116820180604052508101906137c29190613afa565b613801576040517f08c379a00000000000000000000000000000000000000000000000000000000081526004016137f8906144e7565b60405180910390fd5b81600560003373ffffffffffffffffffffffffffffffffffffffff1673ffffffffffffffffffffffffffffffffffffffff16815260200190815260200160002060008282546138509190614673565b925050819055505050565b600260009054906101000a900473ffffffffffffffffffffffffffffffffffffffff1673ffffffffffffffffffffffffffffffffffffffff163373ffffffffffffffffffffffffffffffffffffffff16146138eb576040517f08c379a00000000000000000000000000000000000000000000000000000000081526004016138e290614627565b60405180910390fd5b6000600160009054906101000a900473ffffffffffffffffffffffffffffffffffffffff1690508073ffffffffffffffffffffffffffffffffffffffff1663a9059cbb33600560003073ffffffffffffffffffffffffffffffffffffffff1673ffffffffffffffffffffffffffffffffffffffff168152602001908152602001600020546040518363ffffffff1660e01b815260040161398c92919061432b565b602060405180830381600087803b1580156139a657600080fd5b505af11580156139ba573d6000803e3d6000fd5b505050506040513d601f19601f820116820180604052508101906139de9190613afa565b506000600560003073ffffffffffffffffffffffffffffffffffffffff1673ffffffffffffffffffffffffffffffffffffffff1681526020019081526020016000208190555050565b60056020528060005260406000206000915090505481565b600081359050613a4e81614774565b92915050565b600081519050613a6381614774565b92915050565b600081519050613a788161478b565b92915050565b600081359050613a8d816147a2565b92915050565b600081519050613aa2816147a2565b92915050565b600060208284031215613aba57600080fd5b6000613ac884828501613a3f565b91505092915050565b600060208284031215613ae357600080fd5b6000613af184828501613a54565b91505092915050565b600060208284031215613b0c57600080fd5b6000613b1a84828501613a69565b91505092915050565b600060208284031215613b3557600080fd5b6000613b4384828501613a7e565b91505092915050565b600060208284031215613b5e57600080fd5b6000613b6c84828501613a93565b91505092915050565b60008060408385031215613b8857600080fd5b6000613b9685828601613a7e565b9250506020613ba785828601613a3f565b9150509250929050565b60008060408385031215613bc457600080fd5b6000613bd285828601613a7e565b9250506020613be385828601613a7e565b9150509250929050565b600080600060608486031215613c0257600080fd5b6000613c1086828701613a7e565b9350506020613c2186828701613a7e565b9250506040613c3286828701613a3f565b9150509250925092565b613c45816146fd565b82525050565b613c548161470f565b82525050565b6000613c67603c83614662565b91507f596f7520646f6e277420686176652061636365737320746f20617070726f766560008301527f20746869732062696420666f7220746865206e657720746f6b656e2e000000006020830152604082019050919050565b6000613ccd602e83614662565b91507f74686973206974656d206e6f7420737570706f73656420746f20626520736f6c60008301527f6420746f207468697320757365720000000000000000000000000000000000006020830152604082019050919050565b6000613d33601d83614662565b91507f596f7527766520616c726561647920656e7465726564206120626964210000006000830152602082019050919050565b6000613d73602b83614662565b91507f4e6f206269642066726f6d2074686973206164647265737320666f722074686960008301527f73206974656d207965742e0000000000000000000000000000000000000000006020830152604082019050919050565b6000613dd9601c83614662565b91507f596f75206469646e27742073656e6420656e6f756768204c4f57422e000000006000830152602082019050919050565b6000613e19601683614662565b91507f546f6b656e206e6f742063726561746564207965742e000000000000000000006000830152602082019050919050565b6000613e59602483614662565b91507f53656c6c6572206e6f206c6f6e676572206f776e6572206f662074686973206960008301527f74656d2e000000000000000000000000000000000000000000000000000000006020830152604082019050919050565b6000613ebf602b83614662565b91507f616d6f756e74206c6172676572207468616e20746861742070656e64696e672060008301527f746f2077697468647261770000000000000000000000000000000000000000006020830152604082019050919050565b6000613f25603483614662565b91507f417070726f7665207468697320636f6e747261637420746f20636c61696d207460008301527f6865206e657720746f6b656e732066697273742e0000000000000000000000006020830152604082019050919050565b6000613f8b601a83614662565b91507f506c6561736520626964207769746820736f6d65206c6f7762210000000000006000830152602082019050919050565b6000613fcb601483614662565b91507f4c6f7762207472616e73666572206661696c65640000000000000000000000006000830152602082019050919050565b600061400b602c83614662565b91507f5265717569726520617070726f76656d656e7420746f20636c61696d2074686560008301527f206e657720746f6b656e732e00000000000000000000000000000000000000006020830152604082019050919050565b6000614071602683614662565b91507f506c65617365206465706f73697420656e6f756768206c6f7762206265666f7260008301527f65206269642100000000000000000000000000000000000000000000000000006020830152604082019050919050565b60006140d7601f83614662565b91507f546f6b656e2070726963652073686f756c64206e6f74206265207a65726f2e006000830152602082019050919050565b6000614117601d83614662565b91507f74686973206974656d206973206e6f7420666f722073616c65206e6f770000006000830152602082019050919050565b6000614157601983614662565b91507f417070726f7665207468697320746f6b656e2066697273742e000000000000006000830152602082019050919050565b6000614197601983614662565b91507f596f7520646f6e2774206f776e207468697320746f6b656e2e000000000000006000830152602082019050919050565b60006141d7601c83614662565b91507f596f7520646f6e2774206861766520612062696420666f722069742e000000006000830152602082019050919050565b6000614217601483614662565b91507f596f75206465706f736974206e6f7468696e67210000000000000000000000006000830152602082019050919050565b6000614257602083614662565b91507f54686973206974656d206e6f742061637475616c6c7920666f722073616c652e6000830152602082019050919050565b6000614297601e83614662565b91507f4f6e6c79206f776e65722063616e2070756c6c207468652066756e64732100006000830152602082019050919050565b6142d38161473b565b82525050565b60006020820190506142ee6000830184613c3c565b92915050565b60006060820190506143096000830186613c3c565b6143166020830185613c3c565b61432360408301846142ca565b949350505050565b60006040820190506143406000830185613c3c565b61434d60208301846142ca565b9392505050565b600060a0820190506143696000830188613c4b565b61437660208301876142ca565b6143836040830186613c3c565b61439060608301856142ca565b61439d6080830184613c3c565b9695505050505050565b600060208201905081810360008301526143c081613c5a565b9050919050565b600060208201905081810360008301526143e081613cc0565b9050919050565b6000602082019050818103600083015261440081613d26565b9050919050565b6000602082019050818103600083015261442081613d66565b9050919050565b6000602082019050818103600083015261444081613dcc565b9050919050565b6000602082019050818103600083015261446081613e0c565b9050919050565b6000602082019050818103600083015261448081613e4c565b9050919050565b600060208201905081810360008301526144a081613eb2565b9050919050565b600060208201905081810360008301526144c081613f18565b9050919050565b600060208201905081810360008301526144e081613f7e565b9050919050565b6000602082019050818103600083015261450081613fbe565b9050919050565b6000602082019050818103600083015261452081613ffe565b9050919050565b6000602082019050818103600083015261454081614064565b9050919050565b60006020820190508181036000830152614560816140ca565b9050919050565b600060208201905081810360008301526145808161410a565b9050919050565b600060208201905081810360008301526145a08161414a565b9050919050565b600060208201905081810360008301526145c08161418a565b9050919050565b600060208201905081810360008301526145e0816141ca565b9050919050565b600060208201905081810360008301526146008161420a565b9050919050565b600060208201905081810360008301526146208161424a565b9050919050565b600060208201905081810360008301526146408161428a565b9050919050565b600060208201905061465c60008301846142ca565b92915050565b600082825260208201905092915050565b600061467e8261473b565b91506146898361473b565b9250827fffffffffffffffffffffffffffffffffffffffffffffffffffffffffffffffff038211156146be576146bd614745565b5b828201905092915050565b60006146d48261473b565b91506146df8361473b565b9250828210156146f2576146f1614745565b5b828203905092915050565b60006147088261471b565b9050919050565b60008115159050919050565b600073ffffffffffffffffffffffffffffffffffffffff82169050919050565b6000819050919050565b7f4e487b7100000000000000000000000000000000000000000000000000000000600052601160045260246000fd5b61477d816146fd565b811461478857600080fd5b50565b6147948161470f565b811461479f57600080fd5b50565b6147ab8161473b565b81146147b657600080fd5b5056fea2646970667358221220eb285b5ea6541c05d77c6cbe24fc7e38162c462117b1be6552b729e9a4dc642864736f6c63430008000033",
  "immutableReferences": {},
  "source": "// contracts/LowbMarket.sol\r\n// SPDX-License-Identifier: MIT\r\npragma solidity ^0.8.0;\r\n\r\nimport \"./IERC721LOWB.sol\";\r\nimport \"@openzeppelin/contracts/token/ERC20/IERC20.sol\";\r\n\r\ncontract LowbMarket {\r\n\r\n    address public nonFungibleTokenAddress;\r\n    address public lowbTokenAddress;\r\n\r\n    address public owner;\r\n\r\n    struct Offer {\r\n        bool isForSale;\r\n        uint itemId;\r\n        address seller;\r\n        uint minValue;          // in lowb\r\n        address onlySellTo;     // specify to sell only to a specific person\r\n    }\r\n\r\n    struct Bid {\r\n        address prevBidder;\r\n        address nextBidder;\r\n        uint value;\r\n    }\r\n\r\n    // A record of items that are offered for sale at a specific minimum value, and perhaps to a specific person\r\n    mapping (uint => Offer) public itemsOfferedForSale;\r\n\r\n    // A record of the highest bid\r\n    mapping (uint => mapping (address => Bid)) public itemBids;\r\n\r\n    mapping (address => uint) public pendingWithdrawals;\r\n    mapping (uint => uint) public newTokenOffer;\r\n\r\n    event ItemNoLongerForSale(uint indexed itemId);\r\n    event ItemOffered(uint indexed itemId, uint minValue, address indexed toAddress);\r\n    event NewItemsOffered(uint indexed groupId, uint minValue);\r\n    event NewBidEntered(uint indexed groupId, uint value, address indexed fromAddress);\r\n    event BidWithdrawn(uint indexed itemId, uint value, address indexed fromAddress);\r\n    event ItemBought(uint indexed itemId, uint value, address indexed fromAddress, address indexed toAddress);\r\n    event ItemMint(uint indexed itemId, uint value, address indexed toAddress);\r\n\r\n    constructor(address lowbToken_, address nonFungibleToken_) {\r\n        require(nonFungibleToken_ != address(0));\r\n        nonFungibleTokenAddress = nonFungibleToken_;\r\n        lowbTokenAddress = lowbToken_;\r\n        owner = msg.sender;\r\n    }\r\n\r\n    function itemNoLongerForSale(uint itemId) public {\r\n        IERC721 token = IERC721(nonFungibleTokenAddress);\r\n        require(token.ownerOf(itemId) == msg.sender, \"You don't own this token.\");\r\n\r\n        itemsOfferedForSale[itemId] = Offer(false, itemId, msg.sender, 0, address(0));\r\n        emit ItemNoLongerForSale(itemId);\r\n    }\r\n\r\n    function offerItemForSale(uint itemId, uint minSalePriceInWei) public {\r\n        IERC721 token = IERC721(nonFungibleTokenAddress);\r\n        require(token.ownerOf(itemId) == msg.sender, \"You don't own this token.\");\r\n        require(token.getApproved(itemId) == address(this), \"Approve this token first.\");\r\n\r\n        itemsOfferedForSale[itemId] = Offer(true, itemId, msg.sender, minSalePriceInWei, address(0));\r\n        emit ItemOffered(itemId, minSalePriceInWei, address(0));\r\n    }\r\n\r\n    function offerItemForSaleToAddress(uint itemId, uint minSalePriceInWei, address toAddress) public {\r\n        IERC721 token = IERC721(nonFungibleTokenAddress);\r\n        require(token.ownerOf(itemId) == msg.sender, \"You don't own this token.\");\r\n        require(token.getApproved(itemId) == address(this), \"Approve this token first.\");\r\n\r\n        itemsOfferedForSale[itemId] = Offer(true, itemId, msg.sender, minSalePriceInWei, toAddress);\r\n        emit ItemOffered(itemId, minSalePriceInWei, toAddress);\r\n    }\r\n\r\n    function deposit(uint amount) public {\r\n        require(amount > 0, \"You deposit nothing!\");\r\n        IERC20 token = IERC20(lowbTokenAddress);\r\n        require(token.transferFrom(msg.sender, address(this), amount), \"Lowb transfer failed\");\r\n        pendingWithdrawals[msg.sender] +=  amount;\r\n    }\r\n\r\n    function withdraw(uint amount) public {\r\n        require(amount <= pendingWithdrawals[msg.sender], \"amount larger than that pending to withdraw\");  \r\n        pendingWithdrawals[msg.sender] -= amount;\r\n        IERC20 token = IERC20(lowbTokenAddress);\r\n        require(token.transfer(msg.sender, amount), \"Lowb transfer failed\");\r\n    }\r\n\r\n    function buyItem(uint itemId, uint amount) public {\r\n        Offer memory offer = itemsOfferedForSale[itemId];\r\n        require(offer.isForSale, \"This item not actually for sale.\");\r\n        require(offer.onlySellTo == address(0) || offer.onlySellTo == msg.sender, \"this item not supposed to be sold to this user\");\r\n        require(amount >= offer.minValue, \"You didn't send enough LOWB.\");\r\n\r\n        IERC721 nft = IERC721(nonFungibleTokenAddress);\r\n        require(offer.seller == nft.ownerOf(itemId), \"Seller no longer owner of this item.\");\r\n\r\n        IERC20 lowb = IERC20(lowbTokenAddress);\r\n        require(lowb.transferFrom(msg.sender, address(this), amount), \"Lowb transfer failed\");\r\n\r\n        address seller = offer.seller;\r\n        nft.safeTransferFrom(seller, msg.sender, itemId);\r\n\r\n        itemNoLongerForSale(itemId);\r\n        pendingWithdrawals[seller] += amount;\r\n        emit ItemBought(itemId, amount, seller, msg.sender);\r\n    }\r\n\r\n    function enterBid(uint groupId, uint amount) public {\r\n        require(pendingWithdrawals[msg.sender] >= amount, \"Please deposit enough lowb before bid!\");\r\n        require(amount > 0, \"Please bid with some lowb!\");\r\n\r\n        IERC721LOWB nft = IERC721LOWB(nonFungibleTokenAddress);\r\n        uint itemId = nft.groupStart(groupId);\r\n        require(nft.ownerOf(itemId) != address(0), \"Token not created yet.\");\r\n\r\n        require(itemBids[groupId][msg.sender].value == 0, \"You've already entered a bid!\");\r\n\r\n        // Lock the current bid\r\n        pendingWithdrawals[msg.sender] -= amount;\r\n        address latestBidder = itemBids[groupId][address(0)].nextBidder;\r\n        itemBids[groupId][latestBidder].prevBidder = msg.sender;\r\n        itemBids[groupId][msg.sender] = Bid(address(0), latestBidder, amount);\r\n        itemBids[groupId][address(0)].nextBidder = msg.sender;\r\n\r\n        emit NewBidEntered(groupId, amount, msg.sender);\r\n    }\r\n\r\n    function acceptBid(uint itemId, address bidder) public {\r\n        IERC721LOWB nft = IERC721LOWB(nonFungibleTokenAddress);\r\n        require(nft.ownerOf(itemId) == msg.sender, \"You don't own this token.\");\r\n        require(nft.getApproved(itemId) == address(this), \"Approve this token first.\");\r\n        \r\n        address seller = msg.sender;\r\n        uint groupId = nft.groupOf(itemId);\r\n        uint amount = itemBids[groupId][bidder].value;\r\n        require(amount > 0, \"No bid from this address for this item yet.\");\r\n\r\n        nft.safeTransferFrom(seller, bidder, itemId);\r\n        itemsOfferedForSale[itemId] = Offer(false, itemId, bidder, 0, address(0));\r\n\r\n        itemBids[groupId][bidder].value = 0;\r\n        address nextBidder = itemBids[groupId][bidder].nextBidder;\r\n        address prevBidder = itemBids[groupId][bidder].prevBidder;\r\n        itemBids[groupId][prevBidder].nextBidder = nextBidder;\r\n        itemBids[groupId][nextBidder].prevBidder = prevBidder;\r\n        \r\n        pendingWithdrawals[seller] += amount;\r\n        emit ItemBought(itemId, amount, seller, bidder);\r\n    }\r\n\r\n    function withdrawBid(uint groupId) public {\r\n        uint amount = itemBids[groupId][msg.sender].value;\r\n        require(amount > 0, \"You don't have a bid for it.\");\r\n        emit BidWithdrawn(groupId, amount, msg.sender);\r\n        \r\n        itemBids[groupId][msg.sender].value = 0;\r\n        address nextBidder = itemBids[groupId][msg.sender].nextBidder;\r\n        address prevBidder = itemBids[groupId][msg.sender].prevBidder;\r\n        itemBids[groupId][prevBidder].nextBidder = nextBidder;\r\n        itemBids[groupId][nextBidder].prevBidder = prevBidder;\r\n        // Refund the bid money\r\n        pendingWithdrawals[msg.sender] += amount;\r\n    }\r\n\r\n    function approveBid(uint groupId, address bidder) public {\r\n        IERC721LOWB nft = IERC721LOWB(nonFungibleTokenAddress);\r\n        uint itemId = nft.groupStart(groupId);\r\n        require(nft.ownerOf(itemId) == msg.sender, \"You don't have access to approve this bid for the new token.\");\r\n        require(nft.getApproved(itemId) == address(this), \"Approve this contract to claim the new tokens first.\");\r\n\r\n        uint amount = itemBids[groupId][bidder].value;\r\n        require(amount > 0, \"No bid from this address for this item yet.\");\r\n        \r\n        uint tokenId = nft.claim(bidder, groupId);\r\n        \r\n        itemBids[groupId][bidder].value = 0;\r\n        address nextBidder = itemBids[groupId][bidder].nextBidder;\r\n        address prevBidder = itemBids[groupId][bidder].prevBidder;\r\n        itemBids[groupId][prevBidder].nextBidder = nextBidder;\r\n        itemBids[groupId][nextBidder].prevBidder = prevBidder;\r\n\r\n        emit ItemMint(tokenId, amount, bidder);\r\n    }\r\n\r\n    function offerItemsForPublicSale(uint groupId, uint minSalePriceInWei) public {\r\n        IERC721LOWB nft = IERC721LOWB(nonFungibleTokenAddress);\r\n        uint itemId = nft.groupStart(groupId);\r\n        require(nft.ownerOf(itemId) == msg.sender, \"You don't have access to approve this bid for the new token.\");\r\n        require(nft.getApproved(itemId) == address(this), \"Approve this contract to claim the new tokens first.\");\r\n        require(minSalePriceInWei > 0, \"Token price should not be zero.\");\r\n\r\n        newTokenOffer[groupId] = minSalePriceInWei;\r\n        emit NewItemsOffered(groupId, minSalePriceInWei);\r\n    }\r\n\r\n    function buyNewItem(uint groupId, uint amount) public {\r\n        require(newTokenOffer[groupId] > 0, \"this item is not for sale now\");\r\n        require(amount >= newTokenOffer[groupId], \"You didn't send enough LOWB.\");\r\n\r\n        IERC721LOWB nft = IERC721LOWB(nonFungibleTokenAddress);\r\n        uint itemId = nft.groupStart(groupId);\r\n        require(nft.getApproved(itemId) == address(this), \"Require approvement to claim the new tokens.\");\r\n\r\n        IERC20 lowb = IERC20(lowbTokenAddress);\r\n        require(lowb.transferFrom(msg.sender, address(this), amount), \"Lowb transfer failed\");\r\n\r\n        uint tokenId = nft.claim(msg.sender, groupId);\r\n\r\n        pendingWithdrawals[address(this)] += amount;\r\n        emit ItemMint(tokenId, amount, msg.sender);\r\n    }\r\n\r\n    function pullFunds() public {\r\n        require(msg.sender == owner, \"Only owner can pull the funds!\");\r\n        IERC20 lowb = IERC20(lowbTokenAddress);\r\n        lowb.transfer(msg.sender, pendingWithdrawals[address(this)]);\r\n        pendingWithdrawals[address(this)] = 0;\r\n    }\r\n\r\n}",
  "sourcePath": "C:/Users/Weixuan/Documents/github/LowbMarket/contracts/LowbMarket.sol",
  "compiler": {
    "name": "solc",
    "version": "0.8.0+commit.c7dfd78e.Emscripten.clang"
  },
  "schemaVersion": "3.4.0",
  "updatedAt": "2021-06-02T01:23:28.410Z",
  "networkType": "ethereum",
  "devdoc": {
    "kind": "dev",
    "methods": {},
    "version": 1
  },
  "userdoc": {
    "kind": "user",
    "methods": {},
    "version": 1
  }
}