{
  "contractName": "LowbMaticWallet",
  "abi": [
    {
      "inputs": [
        {
          "internalType": "address",
          "name": "lowbToken_",
          "type": "address"
        }
      ],
      "stateMutability": "nonpayable",
      "type": "constructor"
    },
    {
      "anonymous": false,
      "inputs": [
        {
          "indexed": true,
          "internalType": "address",
          "name": "contractAddress",
          "type": "address"
        },
        {
          "indexed": true,
          "internalType": "address",
          "name": "user",
          "type": "address"
        },
        {
          "indexed": false,
          "internalType": "uint256",
          "name": "amount",
          "type": "uint256"
        }
      ],
      "name": "Award",
      "type": "event"
    },
    {
      "anonymous": false,
      "inputs": [
        {
          "indexed": true,
          "internalType": "address",
          "name": "user",
          "type": "address"
        },
        {
          "indexed": false,
          "internalType": "uint256",
          "name": "amount",
          "type": "uint256"
        }
      ],
      "name": "Deposit",
      "type": "event"
    },
    {
      "anonymous": false,
      "inputs": [
        {
          "indexed": true,
          "internalType": "address",
          "name": "contractAddress",
          "type": "address"
        },
        {
          "indexed": true,
          "internalType": "uint256",
          "name": "tokenId",
          "type": "uint256"
        },
        {
          "indexed": true,
          "internalType": "address",
          "name": "user",
          "type": "address"
        }
      ],
      "name": "NFTLocked",
      "type": "event"
    },
    {
      "anonymous": false,
      "inputs": [
        {
          "indexed": true,
          "internalType": "address",
          "name": "contractAddress",
          "type": "address"
        },
        {
          "indexed": true,
          "internalType": "uint256",
          "name": "tokenId",
          "type": "uint256"
        },
        {
          "indexed": true,
          "internalType": "address",
          "name": "user",
          "type": "address"
        }
      ],
      "name": "NFTUnlocked",
      "type": "event"
    },
    {
      "anonymous": false,
      "inputs": [
        {
          "indexed": true,
          "internalType": "address",
          "name": "contractAddress",
          "type": "address"
        },
        {
          "indexed": true,
          "internalType": "address",
          "name": "user",
          "type": "address"
        },
        {
          "indexed": false,
          "internalType": "uint256",
          "name": "amount",
          "type": "uint256"
        }
      ],
      "name": "Use",
      "type": "event"
    },
    {
      "anonymous": false,
      "inputs": [
        {
          "indexed": true,
          "internalType": "address",
          "name": "user",
          "type": "address"
        },
        {
          "indexed": false,
          "internalType": "uint256",
          "name": "amount",
          "type": "uint256"
        }
      ],
      "name": "Withdraw",
      "type": "event"
    },
    {
      "inputs": [
        {
          "internalType": "address",
          "name": "",
          "type": "address"
        }
      ],
      "name": "balanceOf",
      "outputs": [
        {
          "internalType": "uint256",
          "name": "",
          "type": "uint256"
        }
      ],
      "stateMutability": "view",
      "type": "function"
    },
    {
      "inputs": [],
      "name": "fee",
      "outputs": [
        {
          "internalType": "uint256",
          "name": "",
          "type": "uint256"
        }
      ],
      "stateMutability": "view",
      "type": "function"
    },
    {
      "inputs": [
        {
          "internalType": "address",
          "name": "",
          "type": "address"
        },
        {
          "internalType": "address",
          "name": "",
          "type": "address"
        }
      ],
      "name": "isApprovededAddress",
      "outputs": [
        {
          "internalType": "bool",
          "name": "",
          "type": "bool"
        }
      ],
      "stateMutability": "view",
      "type": "function"
    },
    {
      "inputs": [
        {
          "internalType": "address",
          "name": "",
          "type": "address"
        }
      ],
      "name": "isAwardAddress",
      "outputs": [
        {
          "internalType": "bool",
          "name": "",
          "type": "bool"
        }
      ],
      "stateMutability": "view",
      "type": "function"
    },
    {
      "inputs": [],
      "name": "lowbTokenAddress",
      "outputs": [
        {
          "internalType": "address",
          "name": "",
          "type": "address"
        }
      ],
      "stateMutability": "view",
      "type": "function"
    },
    {
      "inputs": [],
      "name": "owner",
      "outputs": [
        {
          "internalType": "address",
          "name": "",
          "type": "address"
        }
      ],
      "stateMutability": "view",
      "type": "function"
    },
    {
      "inputs": [
        {
          "internalType": "uint256",
          "name": "amount",
          "type": "uint256"
        }
      ],
      "name": "deposit",
      "outputs": [],
      "stateMutability": "nonpayable",
      "type": "function"
    },
    {
      "inputs": [
        {
          "internalType": "uint256",
          "name": "amount",
          "type": "uint256"
        }
      ],
      "name": "withdraw",
      "outputs": [],
      "stateMutability": "nonpayable",
      "type": "function"
    },
    {
      "inputs": [
        {
          "internalType": "address",
          "name": "addr",
          "type": "address"
        },
        {
          "internalType": "bool",
          "name": "b",
          "type": "bool"
        }
      ],
      "name": "approve",
      "outputs": [],
      "stateMutability": "nonpayable",
      "type": "function"
    },
    {
      "inputs": [
        {
          "internalType": "address",
          "name": "addr",
          "type": "address"
        },
        {
          "internalType": "bool",
          "name": "b",
          "type": "bool"
        }
      ],
      "name": "approveAward",
      "outputs": [],
      "stateMutability": "nonpayable",
      "type": "function"
    },
    {
      "inputs": [
        {
          "internalType": "uint256",
          "name": "fee_",
          "type": "uint256"
        }
      ],
      "name": "setFee",
      "outputs": [],
      "stateMutability": "nonpayable",
      "type": "function"
    },
    {
      "inputs": [
        {
          "internalType": "address",
          "name": "user",
          "type": "address"
        },
        {
          "internalType": "uint256",
          "name": "amount",
          "type": "uint256"
        }
      ],
      "name": "use",
      "outputs": [],
      "stateMutability": "nonpayable",
      "type": "function"
    },
    {
      "inputs": [
        {
          "internalType": "address",
          "name": "user",
          "type": "address"
        },
        {
          "internalType": "uint256",
          "name": "amount",
          "type": "uint256"
        }
      ],
      "name": "award",
      "outputs": [],
      "stateMutability": "nonpayable",
      "type": "function"
    },
    {
      "inputs": [
        {
          "internalType": "address",
          "name": "nftAddress",
          "type": "address"
        },
        {
          "internalType": "uint256",
          "name": "tokenId",
          "type": "uint256"
        }
      ],
      "name": "lockNFT",
      "outputs": [],
      "stateMutability": "nonpayable",
      "type": "function"
    },
    {
      "inputs": [
        {
          "internalType": "address",
          "name": "nftAddress",
          "type": "address"
        },
        {
          "internalType": "uint256",
          "name": "tokenId",
          "type": "uint256"
        },
        {
          "internalType": "address",
          "name": "user",
          "type": "address"
        }
      ],
      "name": "unlockNFT",
      "outputs": [],
      "stateMutability": "nonpayable",
      "type": "function"
    }
  ],
  "bytecode": "0x60806040523480156200001157600080fd5b5060405162001c9738038062001c978339818101604052810190620000379190620000d6565b806000806101000a81548173ffffffffffffffffffffffffffffffffffffffff021916908373ffffffffffffffffffffffffffffffffffffffff16021790555033600160006101000a81548173ffffffffffffffffffffffffffffffffffffffff021916908373ffffffffffffffffffffffffffffffffffffffff1602179055505062000150565b600081519050620000d08162000136565b92915050565b600060208284031215620000e957600080fd5b6000620000f984828501620000bf565b91505092915050565b60006200010f8262000116565b9050919050565b600073ffffffffffffffffffffffffffffffffffffffff82169050919050565b620001418162000102565b81146200014d57600080fd5b50565b611b3780620001606000396000f3fe608060405234801561001057600080fd5b50600436106100f55760003560e01c806370a0823111610097578063b6b5f29111610066578063b6b5f29114610246578063ddca3f4314610276578063eb2b4a5514610294578063f015498e146102c4576100f5565b806370a08231146101c05780638da5cb5b146101f0578063974733971461020e578063b6b55f251461022a576100f5565b80635d8a776e116100d35780635d8a776e1461014e57806368249dcb1461016a57806369fb2a201461018857806369fe0e2d146101a4576100f5565b80632e1a7d4d146100fa5780633a404917146101165780633d140d2114610132575b600080fd5b610114600480360381019061010f91906114ab565b6102e0565b005b610130600480360381019061012b91906113f7565b6104fc565b005b61014c600480360381019061014791906113bb565b610861565b005b610168600480360381019061016391906113f7565b6108f9565b005b610172610a44565b60405161017f91906117d9565b60405180910390f35b6101a2600480360381019061019d91906113f7565b610a68565b005b6101be60048036038101906101b991906114ab565b610c72565b005b6101da60048036038101906101d5919061132d565b610d0c565b6040516101e7919061198f565b60405180910390f35b6101f8610d24565b60405161020591906117d9565b60405180910390f35b610228600480360381019061022391906113bb565b610d4a565b005b610244600480360381019061023f91906114ab565b610e35565b005b610260600480360381019061025b919061132d565b611014565b60405161026d9190611854565b60405180910390f35b61027e611034565b60405161028b919061198f565b60405180910390f35b6102ae60048036038101906102a9919061137f565b61103a565b6040516102bb9190611854565b60405180910390f35b6102de60048036038101906102d99190611433565b611069565b005b600360003373ffffffffffffffffffffffffffffffffffffffff1673ffffffffffffffffffffffffffffffffffffffff16815260200190815260200160002054811115610362576040517f08c379a0000000000000000000000000000000000000000000000000000000008152600401610359906118af565b60405180910390fd5b80600360003373ffffffffffffffffffffffffffffffffffffffff1673ffffffffffffffffffffffffffffffffffffffff16815260200190815260200160002060008282546103b19190611a11565b9250508190555060008060009054906101000a900473ffffffffffffffffffffffffffffffffffffffff1690508073ffffffffffffffffffffffffffffffffffffffff1663a9059cbb33846040518363ffffffff1660e01b815260040161041992919061182b565b602060405180830381600087803b15801561043357600080fd5b505af1158015610447573d6000803e3d6000fd5b505050506040513d601f19601f8201168201806040525081019061046b9190611482565b6104aa576040517f08c379a00000000000000000000000000000000000000000000000000000000081526004016104a1906118ef565b60405180910390fd5b3373ffffffffffffffffffffffffffffffffffffffff167f884edad9ce6fa2440d8a54cc123490eb96d2768479d49ff9c7366125a9424364836040516104f0919061198f565b60405180910390a25050565b60008290503373ffffffffffffffffffffffffffffffffffffffff168173ffffffffffffffffffffffffffffffffffffffff16636352211e846040518263ffffffff1660e01b8152600401610551919061198f565b60206040518083038186803b15801561056957600080fd5b505afa15801561057d573d6000803e3d6000fd5b505050506040513d601f19601f820116820180604052508101906105a19190611356565b73ffffffffffffffffffffffffffffffffffffffff1614801561067757503373ffffffffffffffffffffffffffffffffffffffff168173ffffffffffffffffffffffffffffffffffffffff1663dbacc237846040518263ffffffff1660e01b815260040161060f919061198f565b60206040518083038186803b15801561062757600080fd5b505afa15801561063b573d6000803e3d6000fd5b505050506040513d601f19601f8201168201806040525081019061065f9190611356565b73ffffffffffffffffffffffffffffffffffffffff16145b6106b6576040517f08c379a00000000000000000000000000000000000000000000000000000000081526004016106ad9061188f565b60405180910390fd5b600360003373ffffffffffffffffffffffffffffffffffffffff1673ffffffffffffffffffffffffffffffffffffffff16815260200190815260200160002054600254111561073a576040517f08c379a0000000000000000000000000000000000000000000000000000000008152600401610731906118cf565b60405180910390fd5b600254600360003373ffffffffffffffffffffffffffffffffffffffff1673ffffffffffffffffffffffffffffffffffffffff168152602001908152602001600020600082825461078b9190611a11565b925050819055508073ffffffffffffffffffffffffffffffffffffffff166323b872dd3330856040518463ffffffff1660e01b81526004016107cf939291906117f4565b600060405180830381600087803b1580156107e957600080fd5b505af11580156107fd573d6000803e3d6000fd5b505050503373ffffffffffffffffffffffffffffffffffffffff16828473ffffffffffffffffffffffffffffffffffffffff167f752b2c9518fc8eb87040bfee66a1505abc19b0e25705097035ac1490021631ad60405160405180910390a4505050565b80600560003373ffffffffffffffffffffffffffffffffffffffff1673ffffffffffffffffffffffffffffffffffffffff16815260200190815260200160002060008473ffffffffffffffffffffffffffffffffffffffff1673ffffffffffffffffffffffffffffffffffffffff16815260200190815260200160002060006101000a81548160ff0219169083151502179055505050565b600460003373ffffffffffffffffffffffffffffffffffffffff1673ffffffffffffffffffffffffffffffffffffffff16815260200190815260200160002060009054906101000a900460ff16610985576040517f08c379a000000000000000000000000000000000000000000000000000000000815260040161097c9061190f565b60405180910390fd5b80600360008473ffffffffffffffffffffffffffffffffffffffff1673ffffffffffffffffffffffffffffffffffffffff16815260200190815260200160002060008282546109d491906119bb565b925050819055508173ffffffffffffffffffffffffffffffffffffffff163373ffffffffffffffffffffffffffffffffffffffff167f1c48783162e8dc31e485a7341a8d79d64dff9e4b10fcf17eaa06464048157a7b83604051610a38919061198f565b60405180910390a35050565b60008054906101000a900473ffffffffffffffffffffffffffffffffffffffff1681565b600560008373ffffffffffffffffffffffffffffffffffffffff1673ffffffffffffffffffffffffffffffffffffffff16815260200190815260200160002060003373ffffffffffffffffffffffffffffffffffffffff1673ffffffffffffffffffffffffffffffffffffffff16815260200190815260200160002060009054906101000a900460ff16610b31576040517f08c379a0000000000000000000000000000000000000000000000000000000008152600401610b289061194f565b60405180910390fd5b600360003373ffffffffffffffffffffffffffffffffffffffff1673ffffffffffffffffffffffffffffffffffffffff16815260200190815260200160002054811115610bb3576040517f08c379a0000000000000000000000000000000000000000000000000000000008152600401610baa906118af565b60405180910390fd5b80600360008473ffffffffffffffffffffffffffffffffffffffff1673ffffffffffffffffffffffffffffffffffffffff1681526020019081526020016000206000828254610c029190611a11565b925050819055508173ffffffffffffffffffffffffffffffffffffffff163373ffffffffffffffffffffffffffffffffffffffff167ff7323cc8651e605a3101ab9f324d55d253525b18b53d28377cfe9a481764ebf983604051610c66919061198f565b60405180910390a35050565b600160009054906101000a900473ffffffffffffffffffffffffffffffffffffffff1673ffffffffffffffffffffffffffffffffffffffff163373ffffffffffffffffffffffffffffffffffffffff1614610d02576040517f08c379a0000000000000000000000000000000000000000000000000000000008152600401610cf99061186f565b60405180910390fd5b8060028190555050565b60036020528060005260406000206000915090505481565b600160009054906101000a900473ffffffffffffffffffffffffffffffffffffffff1681565b600160009054906101000a900473ffffffffffffffffffffffffffffffffffffffff1673ffffffffffffffffffffffffffffffffffffffff163373ffffffffffffffffffffffffffffffffffffffff1614610dda576040517f08c379a0000000000000000000000000000000000000000000000000000000008152600401610dd19061186f565b60405180910390fd5b80600460008473ffffffffffffffffffffffffffffffffffffffff1673ffffffffffffffffffffffffffffffffffffffff16815260200190815260200160002060006101000a81548160ff0219169083151502179055505050565b60008111610e78576040517f08c379a0000000000000000000000000000000000000000000000000000000008152600401610e6f9061192f565b60405180910390fd5b60008060009054906101000a900473ffffffffffffffffffffffffffffffffffffffff1690508073ffffffffffffffffffffffffffffffffffffffff166323b872dd3330856040518463ffffffff1660e01b8152600401610edb939291906117f4565b602060405180830381600087803b158015610ef557600080fd5b505af1158015610f09573d6000803e3d6000fd5b505050506040513d601f19601f82011682018060405250810190610f2d9190611482565b610f6c576040517f08c379a0000000000000000000000000000000000000000000000000000000008152600401610f63906118ef565b60405180910390fd5b81600360003373ffffffffffffffffffffffffffffffffffffffff1673ffffffffffffffffffffffffffffffffffffffff1681526020019081526020016000206000828254610fbb91906119bb565b925050819055503373ffffffffffffffffffffffffffffffffffffffff167fe1fffcc4923d04b559f4d29a8bfc6cda04eb5b0d3c460751c2402c5c5cc9109c83604051611008919061198f565b60405180910390a25050565b60046020528060005260406000206000915054906101000a900460ff1681565b60025481565b60056020528160005260406000206020528060005260406000206000915091509054906101000a900460ff1681565b600160009054906101000a900473ffffffffffffffffffffffffffffffffffffffff1673ffffffffffffffffffffffffffffffffffffffff163373ffffffffffffffffffffffffffffffffffffffff16146110f9576040517f08c379a00000000000000000000000000000000000000000000000000000000081526004016110f09061186f565b60405180910390fd5b60008390503073ffffffffffffffffffffffffffffffffffffffff168173ffffffffffffffffffffffffffffffffffffffff16636352211e856040518263ffffffff1660e01b815260040161114e919061198f565b60206040518083038186803b15801561116657600080fd5b505afa15801561117a573d6000803e3d6000fd5b505050506040513d601f19601f8201168201806040525081019061119e9190611356565b73ffffffffffffffffffffffffffffffffffffffff16146111f4576040517f08c379a00000000000000000000000000000000000000000000000000000000081526004016111eb9061196f565b60405180910390fd5b8073ffffffffffffffffffffffffffffffffffffffff166323b872dd3084866040518463ffffffff1660e01b8152600401611231939291906117f4565b600060405180830381600087803b15801561124b57600080fd5b505af115801561125f573d6000803e3d6000fd5b505050508173ffffffffffffffffffffffffffffffffffffffff16838573ffffffffffffffffffffffffffffffffffffffff167fc82027111cdc25a13287e45aaad5b7c1b91e77bb72aa2a8cc6eb098f2982248760405160405180910390a450505050565b6000813590506112d381611abc565b92915050565b6000815190506112e881611abc565b92915050565b6000813590506112fd81611ad3565b92915050565b60008151905061131281611ad3565b92915050565b60008135905061132781611aea565b92915050565b60006020828403121561133f57600080fd5b600061134d848285016112c4565b91505092915050565b60006020828403121561136857600080fd5b6000611376848285016112d9565b91505092915050565b6000806040838503121561139257600080fd5b60006113a0858286016112c4565b92505060206113b1858286016112c4565b9150509250929050565b600080604083850312156113ce57600080fd5b60006113dc858286016112c4565b92505060206113ed858286016112ee565b9150509250929050565b6000806040838503121561140a57600080fd5b6000611418858286016112c4565b925050602061142985828601611318565b9150509250929050565b60008060006060848603121561144857600080fd5b6000611456868287016112c4565b935050602061146786828701611318565b9250506040611478868287016112c4565b9150509250925092565b60006020828403121561149457600080fd5b60006114a284828501611303565b91505092915050565b6000602082840312156114bd57600080fd5b60006114cb84828501611318565b91505092915050565b6114dd81611a45565b82525050565b6114ec81611a57565b82525050565b60006114ff6011836119aa565b91507f596f7520617265206e6f742061646d696e0000000000000000000000000000006000830152602082019050919050565b600061153f6027836119aa565b91507f596f7520646f6e277420686176652061636365737320746f206c6f636b20746860008301527f6973206e66742e000000000000000000000000000000000000000000000000006020830152604082019050919050565b60006115a5601e836119aa565b91507f616d6f756e74206c6172676572207468616e207468652062616c616e636500006000830152602082019050919050565b60006115e5601b836119aa565b91507f666565206c6172676572207468616e207468652062616c616e636500000000006000830152602082019050919050565b60006116256014836119aa565b91507f4c6f7762207472616e73666572206661696c65640000000000000000000000006000830152602082019050919050565b6000611665602c836119aa565b91507f796f7520617265206e6f7420617070726f76656420746f206177617264206c6f60008301527f776220746f206f746865727300000000000000000000000000000000000000006020830152604082019050919050565b60006116cb6014836119aa565b91507f596f75206465706f736974206e6f7468696e67210000000000000000000000006000830152602082019050919050565b600061170b602c836119aa565b91507f796f7520617265206e6f7420617070726f76656420746f20757365207468697360008301527f20757365722773206c6f776200000000000000000000000000000000000000006020830152604082019050919050565b60006117716025836119aa565b91507f74686973206e6674206973206e6f74206c6f63656420696e2074686520636f6e60008301527f74726163740000000000000000000000000000000000000000000000000000006020830152604082019050919050565b6117d381611a83565b82525050565b60006020820190506117ee60008301846114d4565b92915050565b600060608201905061180960008301866114d4565b61181660208301856114d4565b61182360408301846117ca565b949350505050565b600060408201905061184060008301856114d4565b61184d60208301846117ca565b9392505050565b600060208201905061186960008301846114e3565b92915050565b60006020820190508181036000830152611888816114f2565b9050919050565b600060208201905081810360008301526118a881611532565b9050919050565b600060208201905081810360008301526118c881611598565b9050919050565b600060208201905081810360008301526118e8816115d8565b9050919050565b6000602082019050818103600083015261190881611618565b9050919050565b6000602082019050818103600083015261192881611658565b9050919050565b60006020820190508181036000830152611948816116be565b9050919050565b60006020820190508181036000830152611968816116fe565b9050919050565b6000602082019050818103600083015261198881611764565b9050919050565b60006020820190506119a460008301846117ca565b92915050565b600082825260208201905092915050565b60006119c682611a83565b91506119d183611a83565b9250827fffffffffffffffffffffffffffffffffffffffffffffffffffffffffffffffff03821115611a0657611a05611a8d565b5b828201905092915050565b6000611a1c82611a83565b9150611a2783611a83565b925082821015611a3a57611a39611a8d565b5b828203905092915050565b6000611a5082611a63565b9050919050565b60008115159050919050565b600073ffffffffffffffffffffffffffffffffffffffff82169050919050565b6000819050919050565b7f4e487b7100000000000000000000000000000000000000000000000000000000600052601160045260246000fd5b611ac581611a45565b8114611ad057600080fd5b50565b611adc81611a57565b8114611ae757600080fd5b50565b611af381611a83565b8114611afe57600080fd5b5056fea26469706673582212208a0a4912b35645d9040ac00727dbce3a7715232d7dcec58b96763e285ba3778f64736f6c63430008000033",
  "immutableReferences": {},
  "source": "// SPDX-License-Identifier: MIT\npragma solidity ^0.8.0;\n\nimport \"./IERC721LOWB.sol\";\nimport \"@openzeppelin/contracts/token/ERC20/IERC20.sol\";\n\ncontract LowbMaticWallet {\n  \n  \n  \n  address public lowbTokenAddress;\n  address public owner;\n  uint public fee;\n  \n  mapping (address => uint) public balanceOf;\n  mapping (address => bool) public isAwardAddress;\n  mapping (address => mapping (address => bool)) public isApprovededAddress;\n  \n  event Deposit(address indexed user, uint amount);\n  event Withdraw(address indexed user, uint amount);\n  event Award(address indexed contractAddress, address indexed user, uint amount);\n  event Use(address indexed contractAddress, address indexed user, uint amount);\n  event NFTLocked(address indexed contractAddress, uint indexed tokenId, address indexed user);\n  event NFTUnlocked(address indexed contractAddress, uint indexed tokenId, address indexed user);\n  \n  constructor(address lowbToken_) {\n    lowbTokenAddress = lowbToken_;\n    owner = msg.sender;\n  }\n  \n  function deposit(uint amount) public {\n    require(amount > 0, \"You deposit nothing!\");\n    IERC20 token = IERC20(lowbTokenAddress);\n    require(token.transferFrom(msg.sender, address(this), amount), \"Lowb transfer failed\");\n    balanceOf[msg.sender] +=  amount;\n    \n    emit Deposit(msg.sender, amount);\n  }\n\n  function withdraw(uint amount) public {\n    require(amount <= balanceOf[msg.sender], \"amount larger than the balance\");  \n    balanceOf[msg.sender] -= amount;\n    IERC20 token = IERC20(lowbTokenAddress);\n    require(token.transfer(msg.sender, amount), \"Lowb transfer failed\");\n    \n    emit Withdraw(msg.sender, amount);\n  }\n  \n  function approve(address addr, bool b) public {\n    isApprovededAddress[msg.sender][addr] = b;\n  }\n  \n  function approveAward(address addr, bool b) public {\n    require(msg.sender == owner, \"You are not admin\");\n    isAwardAddress[addr] = b;\n  }\n  \n  function setFee(uint fee_) public {\n    require(msg.sender == owner, \"You are not admin\");\n    fee = fee_;\n  }\n  \n  function use(address user, uint amount) public {\n    require(isApprovededAddress[user][msg.sender], \"you are not approved to use this user's lowb\");  \n    require(amount <= balanceOf[msg.sender], \"amount larger than the balance\");  \n    balanceOf[user] -= amount;\n    \n    emit Use(msg.sender, user, amount);\n  }\n  \n  function award(address user, uint amount) public {\n    require(isAwardAddress[msg.sender], \"you are not approved to award lowb to others\");  \n    balanceOf[user] += amount;\n    \n    emit Award(msg.sender, user, amount);\n  }\n  \n  function lockNFT(address nftAddress, uint tokenId) public {\n    IERC721LOWB nft = IERC721LOWB(nftAddress);\n    require(nft.ownerOf(tokenId) == msg.sender && nft.holderOf(tokenId) == msg.sender, \"You don't have access to lock this nft.\");\n    \n    require(fee <= balanceOf[msg.sender], \"fee larger than the balance\");\n    balanceOf[msg.sender] -= fee;\n    \n    nft.transferFrom(msg.sender, address(this), tokenId);\n    \n    emit NFTLocked(nftAddress, tokenId, msg.sender);\n  }\n  \n  function unlockNFT(address nftAddress, uint tokenId, address user) public {\n    require(msg.sender == owner, \"You are not admin\");\n  \n    IERC721LOWB nft = IERC721LOWB(nftAddress);\n    require(nft.ownerOf(tokenId) == address(this), \"this nft is not loced in the contract\");\n    \n    nft.transferFrom(address(this), user, tokenId);\n    \n    emit NFTUnlocked(nftAddress, tokenId, user);\n  }\n  \n  \n}\n",
  "sourcePath": "/home/mozzie/Documents/github/LowbMaticWallet/contracts/LowbMaticWallet.sol",
  "compiler": {
    "name": "solc",
    "version": "0.8.0+commit.c7dfd78e.Emscripten.clang"
  },
  "schemaVersion": "3.4.2",
  "updatedAt": "2021-07-31T07:04:33.329Z",
  "devdoc": {
    "kind": "dev",
    "methods": {},
    "version": 1
  },
  "userdoc": {
    "kind": "user",
    "methods": {},
    "version": 1
  }
}