{
  "contractName": "LowbMarket",
  "abi": [
    {
      "inputs": [
        {
          "internalType": "address",
          "name": "lowbToken_",
          "type": "address"
        },
        {
          "internalType": "address",
          "name": "nonFungibleToken_",
          "type": "address"
        }
      ],
      "stateMutability": "nonpayable",
      "type": "constructor"
    },
    {
      "anonymous": false,
      "inputs": [
        {
          "indexed": false,
          "internalType": "uint256",
          "name": "itemId",
          "type": "uint256"
        },
        {
          "indexed": false,
          "internalType": "uint256",
          "name": "value",
          "type": "uint256"
        },
        {
          "indexed": false,
          "internalType": "address",
          "name": "fromAddress",
          "type": "address"
        }
      ],
      "name": "BidWithdrawn",
      "type": "event"
    },
    {
      "anonymous": false,
      "inputs": [
        {
          "indexed": false,
          "internalType": "uint256",
          "name": "itemId",
          "type": "uint256"
        },
        {
          "indexed": false,
          "internalType": "uint256",
          "name": "value",
          "type": "uint256"
        },
        {
          "indexed": false,
          "internalType": "address",
          "name": "fromAddress",
          "type": "address"
        },
        {
          "indexed": false,
          "internalType": "address",
          "name": "toAddress",
          "type": "address"
        }
      ],
      "name": "ItemBought",
      "type": "event"
    },
    {
      "anonymous": false,
      "inputs": [
        {
          "indexed": false,
          "internalType": "uint256",
          "name": "itemId",
          "type": "uint256"
        },
        {
          "indexed": false,
          "internalType": "uint256",
          "name": "value",
          "type": "uint256"
        },
        {
          "indexed": false,
          "internalType": "address",
          "name": "toAddress",
          "type": "address"
        }
      ],
      "name": "ItemMint",
      "type": "event"
    },
    {
      "anonymous": false,
      "inputs": [
        {
          "indexed": false,
          "internalType": "uint256",
          "name": "itemId",
          "type": "uint256"
        }
      ],
      "name": "ItemNoLongerForSale",
      "type": "event"
    },
    {
      "anonymous": false,
      "inputs": [
        {
          "indexed": false,
          "internalType": "uint256",
          "name": "itemId",
          "type": "uint256"
        },
        {
          "indexed": false,
          "internalType": "uint256",
          "name": "minValue",
          "type": "uint256"
        },
        {
          "indexed": false,
          "internalType": "address",
          "name": "toAddress",
          "type": "address"
        }
      ],
      "name": "ItemOffered",
      "type": "event"
    },
    {
      "anonymous": false,
      "inputs": [
        {
          "indexed": false,
          "internalType": "uint256",
          "name": "groupId",
          "type": "uint256"
        },
        {
          "indexed": false,
          "internalType": "uint256",
          "name": "value",
          "type": "uint256"
        },
        {
          "indexed": false,
          "internalType": "address",
          "name": "fromAddress",
          "type": "address"
        }
      ],
      "name": "NewBidEntered",
      "type": "event"
    },
    {
      "anonymous": false,
      "inputs": [
        {
          "indexed": false,
          "internalType": "uint256",
          "name": "groupId",
          "type": "uint256"
        },
        {
          "indexed": false,
          "internalType": "uint256",
          "name": "minValue",
          "type": "uint256"
        }
      ],
      "name": "NewItemsOffered",
      "type": "event"
    },
    {
      "inputs": [
        {
          "internalType": "uint256",
          "name": "",
          "type": "uint256"
        },
        {
          "internalType": "address",
          "name": "",
          "type": "address"
        }
      ],
      "name": "itemBids",
      "outputs": [
        {
          "internalType": "address",
          "name": "prevBidder",
          "type": "address"
        },
        {
          "internalType": "address",
          "name": "nextBidder",
          "type": "address"
        },
        {
          "internalType": "uint256",
          "name": "value",
          "type": "uint256"
        }
      ],
      "stateMutability": "view",
      "type": "function",
      "constant": true
    },
    {
      "inputs": [
        {
          "internalType": "uint256",
          "name": "",
          "type": "uint256"
        }
      ],
      "name": "itemsOfferedForSale",
      "outputs": [
        {
          "internalType": "bool",
          "name": "isForSale",
          "type": "bool"
        },
        {
          "internalType": "uint256",
          "name": "itemId",
          "type": "uint256"
        },
        {
          "internalType": "address",
          "name": "seller",
          "type": "address"
        },
        {
          "internalType": "uint256",
          "name": "minValue",
          "type": "uint256"
        },
        {
          "internalType": "address",
          "name": "onlySellTo",
          "type": "address"
        }
      ],
      "stateMutability": "view",
      "type": "function",
      "constant": true
    },
    {
      "inputs": [],
      "name": "lowbTokenAddress",
      "outputs": [
        {
          "internalType": "address",
          "name": "",
          "type": "address"
        }
      ],
      "stateMutability": "view",
      "type": "function",
      "constant": true
    },
    {
      "inputs": [
        {
          "internalType": "uint256",
          "name": "",
          "type": "uint256"
        }
      ],
      "name": "newTokenOffer",
      "outputs": [
        {
          "internalType": "uint256",
          "name": "",
          "type": "uint256"
        }
      ],
      "stateMutability": "view",
      "type": "function",
      "constant": true
    },
    {
      "inputs": [],
      "name": "nonFungibleTokenAddress",
      "outputs": [
        {
          "internalType": "address",
          "name": "",
          "type": "address"
        }
      ],
      "stateMutability": "view",
      "type": "function",
      "constant": true
    },
    {
      "inputs": [],
      "name": "owner",
      "outputs": [
        {
          "internalType": "address",
          "name": "",
          "type": "address"
        }
      ],
      "stateMutability": "view",
      "type": "function",
      "constant": true
    },
    {
      "inputs": [
        {
          "internalType": "address",
          "name": "",
          "type": "address"
        }
      ],
      "name": "pendingWithdrawals",
      "outputs": [
        {
          "internalType": "uint256",
          "name": "",
          "type": "uint256"
        }
      ],
      "stateMutability": "view",
      "type": "function",
      "constant": true
    },
    {
      "inputs": [
        {
          "internalType": "uint256",
          "name": "itemId",
          "type": "uint256"
        }
      ],
      "name": "itemNoLongerForSale",
      "outputs": [],
      "stateMutability": "nonpayable",
      "type": "function"
    },
    {
      "inputs": [
        {
          "internalType": "uint256",
          "name": "itemId",
          "type": "uint256"
        },
        {
          "internalType": "uint256",
          "name": "minSalePriceInWei",
          "type": "uint256"
        }
      ],
      "name": "offerItemForSale",
      "outputs": [],
      "stateMutability": "nonpayable",
      "type": "function"
    },
    {
      "inputs": [
        {
          "internalType": "uint256",
          "name": "itemId",
          "type": "uint256"
        },
        {
          "internalType": "uint256",
          "name": "minSalePriceInWei",
          "type": "uint256"
        },
        {
          "internalType": "address",
          "name": "toAddress",
          "type": "address"
        }
      ],
      "name": "offerItemForSaleToAddress",
      "outputs": [],
      "stateMutability": "nonpayable",
      "type": "function"
    },
    {
      "inputs": [
        {
          "internalType": "uint256",
          "name": "amount",
          "type": "uint256"
        }
      ],
      "name": "deposit",
      "outputs": [],
      "stateMutability": "nonpayable",
      "type": "function"
    },
    {
      "inputs": [
        {
          "internalType": "uint256",
          "name": "amount",
          "type": "uint256"
        }
      ],
      "name": "withdraw",
      "outputs": [],
      "stateMutability": "nonpayable",
      "type": "function"
    },
    {
      "inputs": [
        {
          "internalType": "uint256",
          "name": "itemId",
          "type": "uint256"
        },
        {
          "internalType": "uint256",
          "name": "amount",
          "type": "uint256"
        }
      ],
      "name": "buyItem",
      "outputs": [],
      "stateMutability": "nonpayable",
      "type": "function"
    },
    {
      "inputs": [
        {
          "internalType": "uint256",
          "name": "groupId",
          "type": "uint256"
        },
        {
          "internalType": "uint256",
          "name": "amount",
          "type": "uint256"
        }
      ],
      "name": "enterBid",
      "outputs": [],
      "stateMutability": "nonpayable",
      "type": "function"
    },
    {
      "inputs": [
        {
          "internalType": "uint256",
          "name": "itemId",
          "type": "uint256"
        },
        {
          "internalType": "address",
          "name": "bidder",
          "type": "address"
        }
      ],
      "name": "acceptBid",
      "outputs": [],
      "stateMutability": "nonpayable",
      "type": "function"
    },
    {
      "inputs": [
        {
          "internalType": "uint256",
          "name": "groupId",
          "type": "uint256"
        }
      ],
      "name": "withdrawBid",
      "outputs": [],
      "stateMutability": "nonpayable",
      "type": "function"
    },
    {
      "inputs": [
        {
          "internalType": "uint256",
          "name": "groupId",
          "type": "uint256"
        },
        {
          "internalType": "address",
          "name": "bidder",
          "type": "address"
        }
      ],
      "name": "approveBid",
      "outputs": [],
      "stateMutability": "nonpayable",
      "type": "function"
    },
    {
      "inputs": [
        {
          "internalType": "uint256",
          "name": "groupId",
          "type": "uint256"
        },
        {
          "internalType": "uint256",
          "name": "minSalePriceInWei",
          "type": "uint256"
        }
      ],
      "name": "offerItemsForPublicSale",
      "outputs": [],
      "stateMutability": "nonpayable",
      "type": "function"
    },
    {
      "inputs": [
        {
          "internalType": "uint256",
          "name": "groupId",
          "type": "uint256"
        },
        {
          "internalType": "uint256",
          "name": "amount",
          "type": "uint256"
        }
      ],
      "name": "buyNewItem",
      "outputs": [],
      "stateMutability": "nonpayable",
      "type": "function"
    },
    {
      "inputs": [],
      "name": "pullFunds",
      "outputs": [],
      "stateMutability": "nonpayable",
      "type": "function"
    }
  ],
  "bytecode": "0x60806040523480156200001157600080fd5b50604051620048d1380380620048d1833981810160405281019062000037919062000153565b600073ffffffffffffffffffffffffffffffffffffffff168173ffffffffffffffffffffffffffffffffffffffff1614156200007257600080fd5b806000806101000a81548173ffffffffffffffffffffffffffffffffffffffff021916908373ffffffffffffffffffffffffffffffffffffffff16021790555081600160006101000a81548173ffffffffffffffffffffffffffffffffffffffff021916908373ffffffffffffffffffffffffffffffffffffffff16021790555033600260006101000a81548173ffffffffffffffffffffffffffffffffffffffff021916908373ffffffffffffffffffffffffffffffffffffffff1602179055505050620001e2565b6000815190506200014d81620001c8565b92915050565b600080604083850312156200016757600080fd5b600062000177858286016200013c565b92505060206200018a858286016200013c565b9150509250929050565b6000620001a182620001a8565b9050919050565b600073ffffffffffffffffffffffffffffffffffffffff82169050919050565b620001d38162000194565b8114620001df57600080fd5b50565b6146df80620001f26000396000f3fe608060405234801561001057600080fd5b506004361061012c5760003560e01c80633d570cc0116100ad5780638da5cb5b116100715780638da5cb5b1461031b5780639979c00914610339578063b6b55f2514610355578063e43a0bb214610371578063f3f437031461037b5761012c565b80633d570cc0146102755780634b4ddfa61461029157806360e9280b146102c557806366113738146102e157806368249dcb146102fd5761012c565b80631ef4d920116100f45780631ef4d920146101d35780632e1a7d4d146101f1578063310e1b261461020d5780633538a50e1461023d5780633c847b5e146102595761012c565b8063020686641461013157806304fa906b1461014d5780630eaaf4c8146101695780630f6f3e06146101855780631a6c0940146101a1575b600080fd5b61014b60048036038101906101469190613a20565b6103ab565b005b610167600480360381019061016291906139ce565b610b93565b005b610183600480360381019061017e91906139ce565b610e1a565b005b61019f600480360381019061019a9190613a5c565b6111b9565b005b6101bb60048036038101906101b69190613a20565b611790565b6040516101ca9392919061415f565b60405180910390f35b6101db611807565b6040516101e89190614144565b60405180910390f35b61020b600480360381019061020691906139ce565b61182b565b005b610227600480360381019061022291906139ce565b6119fa565b6040516102349190614492565b60405180910390f35b61025760048036038101906102529190613a98565b611a12565b005b610273600480360381019061026e9190613a20565b611d93565b005b61028f600480360381019061028a9190613a5c565b612410565b005b6102ab60048036038101906102a691906139ce565b612792565b6040516102bc9594939291906141bf565b60405180910390f35b6102df60048036038101906102da9190613a5c565b612815565b005b6102fb60048036038101906102f69190613a5c565b612c89565b005b610305612fc2565b6040516103129190614144565b60405180910390f35b610323612fe8565b6040516103309190614144565b60405180910390f35b610353600480360381019061034e9190613a5c565b61300e565b005b61036f600480360381019061036a91906139ce565b613574565b005b610379613706565b005b61039560048036038101906103909190613953565b6138d2565b6040516103a29190614492565b60405180910390f35b60008060009054906101000a900473ffffffffffffffffffffffffffffffffffffffff1690503373ffffffffffffffffffffffffffffffffffffffff168173ffffffffffffffffffffffffffffffffffffffff16636352211e856040518263ffffffff1660e01b81526004016104219190614492565b60206040518083038186803b15801561043957600080fd5b505afa15801561044d573d6000803e3d6000fd5b505050506040513d601f19601f82011682018060405250810190610471919061397c565b73ffffffffffffffffffffffffffffffffffffffff16146104c7576040517f08c379a00000000000000000000000000000000000000000000000000000000081526004016104be906143f2565b60405180910390fd5b3073ffffffffffffffffffffffffffffffffffffffff168173ffffffffffffffffffffffffffffffffffffffff1663081812fc856040518263ffffffff1660e01b81526004016105179190614492565b60206040518083038186803b15801561052f57600080fd5b505afa158015610543573d6000803e3d6000fd5b505050506040513d601f19601f82011682018060405250810190610567919061397c565b73ffffffffffffffffffffffffffffffffffffffff16146105bd576040517f08c379a00000000000000000000000000000000000000000000000000000000081526004016105b4906143d2565b60405180910390fd5b600033905060008273ffffffffffffffffffffffffffffffffffffffff1663503ae187866040518263ffffffff1660e01b81526004016105fd9190614492565b60206040518083038186803b15801561061557600080fd5b505afa158015610629573d6000803e3d6000fd5b505050506040513d601f19601f8201168201806040525081019061064d91906139f7565b905060006004600083815260200190815260200160002060008673ffffffffffffffffffffffffffffffffffffffff1673ffffffffffffffffffffffffffffffffffffffff168152602001908152602001600020600201549050600081116106ea576040517f08c379a00000000000000000000000000000000000000000000000000000000081526004016106e190614252565b60405180910390fd5b8373ffffffffffffffffffffffffffffffffffffffff166342842e0e8487896040518463ffffffff1660e01b81526004016107279392919061415f565b600060405180830381600087803b15801561074157600080fd5b505af1158015610755573d6000803e3d6000fd5b505050506040518060a001604052806000151581526020018781526020018673ffffffffffffffffffffffffffffffffffffffff16815260200160008152602001600073ffffffffffffffffffffffffffffffffffffffff168152506003600088815260200190815260200160002060008201518160000160006101000a81548160ff0219169083151502179055506020820151816001015560408201518160020160006101000a81548173ffffffffffffffffffffffffffffffffffffffff021916908373ffffffffffffffffffffffffffffffffffffffff1602179055506060820151816003015560808201518160040160006101000a81548173ffffffffffffffffffffffffffffffffffffffff021916908373ffffffffffffffffffffffffffffffffffffffff16021790555090505060006004600084815260200190815260200160002060008773ffffffffffffffffffffffffffffffffffffffff1673ffffffffffffffffffffffffffffffffffffffff1681526020019081526020016000206002018190555060006004600084815260200190815260200160002060008773ffffffffffffffffffffffffffffffffffffffff1673ffffffffffffffffffffffffffffffffffffffff16815260200190815260200160002060010160009054906101000a900473ffffffffffffffffffffffffffffffffffffffff16905060006004600085815260200190815260200160002060008873ffffffffffffffffffffffffffffffffffffffff1673ffffffffffffffffffffffffffffffffffffffff16815260200190815260200160002060000160009054906101000a900473ffffffffffffffffffffffffffffffffffffffff169050816004600086815260200190815260200160002060008373ffffffffffffffffffffffffffffffffffffffff1673ffffffffffffffffffffffffffffffffffffffff16815260200190815260200160002060010160006101000a81548173ffffffffffffffffffffffffffffffffffffffff021916908373ffffffffffffffffffffffffffffffffffffffff160217905550806004600086815260200190815260200160002060008473ffffffffffffffffffffffffffffffffffffffff1673ffffffffffffffffffffffffffffffffffffffff16815260200190815260200160002060000160006101000a81548173ffffffffffffffffffffffffffffffffffffffff021916908373ffffffffffffffffffffffffffffffffffffffff16021790555082600560008773ffffffffffffffffffffffffffffffffffffffff1673ffffffffffffffffffffffffffffffffffffffff1681526020019081526020016000206000828254610b459190614563565b925050819055507f7dabc6512298d15f481bd3755e8e2e4387bdd4497983824ce33f9c315005e8968884878a604051610b81949392919061450d565b60405180910390a15050505050505050565b60008060009054906101000a900473ffffffffffffffffffffffffffffffffffffffff1690503373ffffffffffffffffffffffffffffffffffffffff168173ffffffffffffffffffffffffffffffffffffffff16636352211e846040518263ffffffff1660e01b8152600401610c099190614492565b60206040518083038186803b158015610c2157600080fd5b505afa158015610c35573d6000803e3d6000fd5b505050506040513d601f19601f82011682018060405250810190610c59919061397c565b73ffffffffffffffffffffffffffffffffffffffff1614610caf576040517f08c379a0000000000000000000000000000000000000000000000000000000008152600401610ca6906143f2565b60405180910390fd5b6040518060a001604052806000151581526020018381526020013373ffffffffffffffffffffffffffffffffffffffff16815260200160008152602001600073ffffffffffffffffffffffffffffffffffffffff168152506003600084815260200190815260200160002060008201518160000160006101000a81548160ff0219169083151502179055506020820151816001015560408201518160020160006101000a81548173ffffffffffffffffffffffffffffffffffffffff021916908373ffffffffffffffffffffffffffffffffffffffff1602179055506060820151816003015560808201518160040160006101000a81548173ffffffffffffffffffffffffffffffffffffffff021916908373ffffffffffffffffffffffffffffffffffffffff1602179055509050507f4d3fddd7140a18aabb43157d457a8bd1f6aee4360f2637a58720dd2d621268de82604051610e0e9190614492565b60405180910390a15050565b60006004600083815260200190815260200160002060003373ffffffffffffffffffffffffffffffffffffffff1673ffffffffffffffffffffffffffffffffffffffff16815260200190815260200160002060020154905060008111610eb5576040517f08c379a0000000000000000000000000000000000000000000000000000000008152600401610eac90614412565b60405180910390fd5b7fb41c9b05054be45850ccc1da7d90c7b819cff855cfe0d14f16427398b286c9b6828233604051610ee8939291906144d6565b60405180910390a160006004600084815260200190815260200160002060003373ffffffffffffffffffffffffffffffffffffffff1673ffffffffffffffffffffffffffffffffffffffff1681526020019081526020016000206002018190555060006004600084815260200190815260200160002060003373ffffffffffffffffffffffffffffffffffffffff1673ffffffffffffffffffffffffffffffffffffffff16815260200190815260200160002060010160009054906101000a900473ffffffffffffffffffffffffffffffffffffffff16905060006004600085815260200190815260200160002060003373ffffffffffffffffffffffffffffffffffffffff1673ffffffffffffffffffffffffffffffffffffffff16815260200190815260200160002060000160009054906101000a900473ffffffffffffffffffffffffffffffffffffffff169050816004600086815260200190815260200160002060008373ffffffffffffffffffffffffffffffffffffffff1673ffffffffffffffffffffffffffffffffffffffff16815260200190815260200160002060010160006101000a81548173ffffffffffffffffffffffffffffffffffffffff021916908373ffffffffffffffffffffffffffffffffffffffff160217905550806004600086815260200190815260200160002060008473ffffffffffffffffffffffffffffffffffffffff1673ffffffffffffffffffffffffffffffffffffffff16815260200190815260200160002060000160006101000a81548173ffffffffffffffffffffffffffffffffffffffff021916908373ffffffffffffffffffffffffffffffffffffffff16021790555082600560003373ffffffffffffffffffffffffffffffffffffffff1673ffffffffffffffffffffffffffffffffffffffff16815260200190815260200160002060008282546111ac9190614563565b9250508190555050505050565b80600560003373ffffffffffffffffffffffffffffffffffffffff1673ffffffffffffffffffffffffffffffffffffffff16815260200190815260200160002054101561123b576040517f08c379a000000000000000000000000000000000000000000000000000000000815260040161123290614372565b60405180910390fd5b6000811161127e576040517f08c379a000000000000000000000000000000000000000000000000000000000815260040161127590614312565b60405180910390fd5b60008060009054906101000a900473ffffffffffffffffffffffffffffffffffffffff16905060008173ffffffffffffffffffffffffffffffffffffffff16636d780e6b856040518263ffffffff1660e01b81526004016112df9190614492565b60206040518083038186803b1580156112f757600080fd5b505afa15801561130b573d6000803e3d6000fd5b505050506040513d601f19601f8201168201806040525081019061132f91906139f7565b9050600073ffffffffffffffffffffffffffffffffffffffff168273ffffffffffffffffffffffffffffffffffffffff16636352211e836040518263ffffffff1660e01b81526004016113829190614492565b60206040518083038186803b15801561139a57600080fd5b505afa1580156113ae573d6000803e3d6000fd5b505050506040513d601f19601f820116820180604052508101906113d2919061397c565b73ffffffffffffffffffffffffffffffffffffffff161415611429576040517f08c379a000000000000000000000000000000000000000000000000000000000815260040161142090614292565b60405180910390fd5b82600560003373ffffffffffffffffffffffffffffffffffffffff1673ffffffffffffffffffffffffffffffffffffffff168152602001908152602001600020600082825461147891906145b9565b9250508190555060006004600086815260200190815260200160002060008073ffffffffffffffffffffffffffffffffffffffff1673ffffffffffffffffffffffffffffffffffffffff16815260200190815260200160002060010160009054906101000a900473ffffffffffffffffffffffffffffffffffffffff169050336004600087815260200190815260200160002060008373ffffffffffffffffffffffffffffffffffffffff1673ffffffffffffffffffffffffffffffffffffffff16815260200190815260200160002060000160006101000a81548173ffffffffffffffffffffffffffffffffffffffff021916908373ffffffffffffffffffffffffffffffffffffffff1602179055506040518060600160405280600073ffffffffffffffffffffffffffffffffffffffff1681526020018273ffffffffffffffffffffffffffffffffffffffff168152602001858152506004600087815260200190815260200160002060003373ffffffffffffffffffffffffffffffffffffffff1673ffffffffffffffffffffffffffffffffffffffff16815260200190815260200160002060008201518160000160006101000a81548173ffffffffffffffffffffffffffffffffffffffff021916908373ffffffffffffffffffffffffffffffffffffffff16021790555060208201518160010160006101000a81548173ffffffffffffffffffffffffffffffffffffffff021916908373ffffffffffffffffffffffffffffffffffffffff16021790555060408201518160020155905050336004600087815260200190815260200160002060008073ffffffffffffffffffffffffffffffffffffffff1673ffffffffffffffffffffffffffffffffffffffff16815260200190815260200160002060010160006101000a81548173ffffffffffffffffffffffffffffffffffffffff021916908373ffffffffffffffffffffffffffffffffffffffff1602179055507f791109902b518b29273af9ccef104f0591f49a4b10d6542afbe3eb8a87a2a5a4858533604051611781939291906144d6565b60405180910390a15050505050565b6004602052816000526040600020602052806000526040600020600091509150508060000160009054906101000a900473ffffffffffffffffffffffffffffffffffffffff16908060010160009054906101000a900473ffffffffffffffffffffffffffffffffffffffff16908060020154905083565b60008054906101000a900473ffffffffffffffffffffffffffffffffffffffff1681565b600560003373ffffffffffffffffffffffffffffffffffffffff1673ffffffffffffffffffffffffffffffffffffffff168152602001908152602001600020548111156118ad576040517f08c379a00000000000000000000000000000000000000000000000000000000081526004016118a4906142d2565b60405180910390fd5b80600560003373ffffffffffffffffffffffffffffffffffffffff1673ffffffffffffffffffffffffffffffffffffffff16815260200190815260200160002060008282546118fc91906145b9565b925050819055506000600160009054906101000a900473ffffffffffffffffffffffffffffffffffffffff1690508073ffffffffffffffffffffffffffffffffffffffff1663a9059cbb33846040518363ffffffff1660e01b8152600401611965929190614196565b602060405180830381600087803b15801561197f57600080fd5b505af1158015611993573d6000803e3d6000fd5b505050506040513d601f19601f820116820180604052508101906119b791906139a5565b6119f6576040517f08c379a00000000000000000000000000000000000000000000000000000000081526004016119ed90614332565b60405180910390fd5b5050565b60066020528060005260406000206000915090505481565b60008060009054906101000a900473ffffffffffffffffffffffffffffffffffffffff1690503373ffffffffffffffffffffffffffffffffffffffff168173ffffffffffffffffffffffffffffffffffffffff16636352211e866040518263ffffffff1660e01b8152600401611a889190614492565b60206040518083038186803b158015611aa057600080fd5b505afa158015611ab4573d6000803e3d6000fd5b505050506040513d601f19601f82011682018060405250810190611ad8919061397c565b73ffffffffffffffffffffffffffffffffffffffff1614611b2e576040517f08c379a0000000000000000000000000000000000000000000000000000000008152600401611b25906143f2565b60405180910390fd5b3073ffffffffffffffffffffffffffffffffffffffff168173ffffffffffffffffffffffffffffffffffffffff1663081812fc866040518263ffffffff1660e01b8152600401611b7e9190614492565b60206040518083038186803b158015611b9657600080fd5b505afa158015611baa573d6000803e3d6000fd5b505050506040513d601f19601f82011682018060405250810190611bce919061397c565b73ffffffffffffffffffffffffffffffffffffffff1614611c24576040517f08c379a0000000000000000000000000000000000000000000000000000000008152600401611c1b906143d2565b60405180910390fd5b6040518060a001604052806001151581526020018581526020013373ffffffffffffffffffffffffffffffffffffffff1681526020018481526020018373ffffffffffffffffffffffffffffffffffffffff168152506003600086815260200190815260200160002060008201518160000160006101000a81548160ff0219169083151502179055506020820151816001015560408201518160020160006101000a81548173ffffffffffffffffffffffffffffffffffffffff021916908373ffffffffffffffffffffffffffffffffffffffff1602179055506060820151816003015560808201518160040160006101000a81548173ffffffffffffffffffffffffffffffffffffffff021916908373ffffffffffffffffffffffffffffffffffffffff1602179055509050507fd404299d246c4005586dcbb400b48be82e12aed7cdc85f1055f9c1fcec8c8fc0848484604051611d85939291906144d6565b60405180910390a150505050565b60008060009054906101000a900473ffffffffffffffffffffffffffffffffffffffff16905060008173ffffffffffffffffffffffffffffffffffffffff16636d780e6b856040518263ffffffff1660e01b8152600401611df49190614492565b60206040518083038186803b158015611e0c57600080fd5b505afa158015611e20573d6000803e3d6000fd5b505050506040513d601f19601f82011682018060405250810190611e4491906139f7565b90503373ffffffffffffffffffffffffffffffffffffffff168273ffffffffffffffffffffffffffffffffffffffff16636352211e836040518263ffffffff1660e01b8152600401611e969190614492565b60206040518083038186803b158015611eae57600080fd5b505afa158015611ec2573d6000803e3d6000fd5b505050506040513d601f19601f82011682018060405250810190611ee6919061397c565b73ffffffffffffffffffffffffffffffffffffffff1614611f3c576040517f08c379a0000000000000000000000000000000000000000000000000000000008152600401611f3390614212565b60405180910390fd5b3073ffffffffffffffffffffffffffffffffffffffff168273ffffffffffffffffffffffffffffffffffffffff1663081812fc836040518263ffffffff1660e01b8152600401611f8c9190614492565b60206040518083038186803b158015611fa457600080fd5b505afa158015611fb8573d6000803e3d6000fd5b505050506040513d601f19601f82011682018060405250810190611fdc919061397c565b73ffffffffffffffffffffffffffffffffffffffff1614612032576040517f08c379a0000000000000000000000000000000000000000000000000000000008152600401612029906142f2565b60405180910390fd5b60006004600086815260200190815260200160002060008573ffffffffffffffffffffffffffffffffffffffff1673ffffffffffffffffffffffffffffffffffffffff168152602001908152602001600020600201549050600081116120cd576040517f08c379a00000000000000000000000000000000000000000000000000000000081526004016120c490614252565b60405180910390fd5b60008373ffffffffffffffffffffffffffffffffffffffff1663aad3ec9686886040518363ffffffff1660e01b815260040161210a929190614196565b602060405180830381600087803b15801561212457600080fd5b505af1158015612138573d6000803e3d6000fd5b505050506040513d601f19601f8201168201806040525081019061215c91906139f7565b905060006004600088815260200190815260200160002060008773ffffffffffffffffffffffffffffffffffffffff1673ffffffffffffffffffffffffffffffffffffffff1681526020019081526020016000206002018190555060006004600088815260200190815260200160002060008773ffffffffffffffffffffffffffffffffffffffff1673ffffffffffffffffffffffffffffffffffffffff16815260200190815260200160002060010160009054906101000a900473ffffffffffffffffffffffffffffffffffffffff16905060006004600089815260200190815260200160002060008873ffffffffffffffffffffffffffffffffffffffff1673ffffffffffffffffffffffffffffffffffffffff16815260200190815260200160002060000160009054906101000a900473ffffffffffffffffffffffffffffffffffffffff16905081600460008a815260200190815260200160002060008373ffffffffffffffffffffffffffffffffffffffff1673ffffffffffffffffffffffffffffffffffffffff16815260200190815260200160002060010160006101000a81548173ffffffffffffffffffffffffffffffffffffffff021916908373ffffffffffffffffffffffffffffffffffffffff16021790555080600460008a815260200190815260200160002060008473ffffffffffffffffffffffffffffffffffffffff1673ffffffffffffffffffffffffffffffffffffffff16815260200190815260200160002060000160006101000a81548173ffffffffffffffffffffffffffffffffffffffff021916908373ffffffffffffffffffffffffffffffffffffffff1602179055507f17e30385b93a3f258fa9383ee3a05c2d88f6fb7d2fb482a488f3874af22a64ed8385896040516123fe939291906144d6565b60405180910390a15050505050505050565b60008060009054906101000a900473ffffffffffffffffffffffffffffffffffffffff1690503373ffffffffffffffffffffffffffffffffffffffff168173ffffffffffffffffffffffffffffffffffffffff16636352211e856040518263ffffffff1660e01b81526004016124869190614492565b60206040518083038186803b15801561249e57600080fd5b505afa1580156124b2573d6000803e3d6000fd5b505050506040513d601f19601f820116820180604052508101906124d6919061397c565b73ffffffffffffffffffffffffffffffffffffffff161461252c576040517f08c379a0000000000000000000000000000000000000000000000000000000008152600401612523906143f2565b60405180910390fd5b3073ffffffffffffffffffffffffffffffffffffffff168173ffffffffffffffffffffffffffffffffffffffff1663081812fc856040518263ffffffff1660e01b815260040161257c9190614492565b60206040518083038186803b15801561259457600080fd5b505afa1580156125a8573d6000803e3d6000fd5b505050506040513d601f19601f820116820180604052508101906125cc919061397c565b73ffffffffffffffffffffffffffffffffffffffff1614612622576040517f08c379a0000000000000000000000000000000000000000000000000000000008152600401612619906143d2565b60405180910390fd5b6040518060a001604052806001151581526020018481526020013373ffffffffffffffffffffffffffffffffffffffff168152602001838152602001600073ffffffffffffffffffffffffffffffffffffffff168152506003600085815260200190815260200160002060008201518160000160006101000a81548160ff0219169083151502179055506020820151816001015560408201518160020160006101000a81548173ffffffffffffffffffffffffffffffffffffffff021916908373ffffffffffffffffffffffffffffffffffffffff1602179055506060820151816003015560808201518160040160006101000a81548173ffffffffffffffffffffffffffffffffffffffff021916908373ffffffffffffffffffffffffffffffffffffffff1602179055509050507fd404299d246c4005586dcbb400b48be82e12aed7cdc85f1055f9c1fcec8c8fc083836000604051612785939291906144d6565b60405180910390a1505050565b60036020528060005260406000206000915090508060000160009054906101000a900460ff16908060010154908060020160009054906101000a900473ffffffffffffffffffffffffffffffffffffffff16908060030154908060040160009054906101000a900473ffffffffffffffffffffffffffffffffffffffff16905085565b600060066000848152602001908152602001600020541161286b576040517f08c379a0000000000000000000000000000000000000000000000000000000008152600401612862906143b2565b60405180910390fd5b60066000838152602001908152602001600020548110156128c1576040517f08c379a00000000000000000000000000000000000000000000000000000000081526004016128b890614272565b60405180910390fd5b60008060009054906101000a900473ffffffffffffffffffffffffffffffffffffffff16905060008173ffffffffffffffffffffffffffffffffffffffff16636d780e6b856040518263ffffffff1660e01b81526004016129229190614492565b60206040518083038186803b15801561293a57600080fd5b505afa15801561294e573d6000803e3d6000fd5b505050506040513d601f19601f8201168201806040525081019061297291906139f7565b90503073ffffffffffffffffffffffffffffffffffffffff168273ffffffffffffffffffffffffffffffffffffffff1663081812fc836040518263ffffffff1660e01b81526004016129c49190614492565b60206040518083038186803b1580156129dc57600080fd5b505afa1580156129f0573d6000803e3d6000fd5b505050506040513d601f19601f82011682018060405250810190612a14919061397c565b73ffffffffffffffffffffffffffffffffffffffff1614612a6a576040517f08c379a0000000000000000000000000000000000000000000000000000000008152600401612a6190614352565b60405180910390fd5b6000600160009054906101000a900473ffffffffffffffffffffffffffffffffffffffff1690508073ffffffffffffffffffffffffffffffffffffffff166323b872dd3330876040518463ffffffff1660e01b8152600401612ace9392919061415f565b602060405180830381600087803b158015612ae857600080fd5b505af1158015612afc573d6000803e3d6000fd5b505050506040513d601f19601f82011682018060405250810190612b2091906139a5565b612b5f576040517f08c379a0000000000000000000000000000000000000000000000000000000008152600401612b5690614332565b60405180910390fd5b60008373ffffffffffffffffffffffffffffffffffffffff1663aad3ec9633886040518363ffffffff1660e01b8152600401612b9c929190614196565b602060405180830381600087803b158015612bb657600080fd5b505af1158015612bca573d6000803e3d6000fd5b505050506040513d601f19601f82011682018060405250810190612bee91906139f7565b905084600560003073ffffffffffffffffffffffffffffffffffffffff1673ffffffffffffffffffffffffffffffffffffffff1681526020019081526020016000206000828254612c3f9190614563565b925050819055507f17e30385b93a3f258fa9383ee3a05c2d88f6fb7d2fb482a488f3874af22a64ed818633604051612c79939291906144d6565b60405180910390a1505050505050565b60008060009054906101000a900473ffffffffffffffffffffffffffffffffffffffff16905060008173ffffffffffffffffffffffffffffffffffffffff16636d780e6b856040518263ffffffff1660e01b8152600401612cea9190614492565b60206040518083038186803b158015612d0257600080fd5b505afa158015612d16573d6000803e3d6000fd5b505050506040513d601f19601f82011682018060405250810190612d3a91906139f7565b90503373ffffffffffffffffffffffffffffffffffffffff168273ffffffffffffffffffffffffffffffffffffffff16636352211e836040518263ffffffff1660e01b8152600401612d8c9190614492565b60206040518083038186803b158015612da457600080fd5b505afa158015612db8573d6000803e3d6000fd5b505050506040513d601f19601f82011682018060405250810190612ddc919061397c565b73ffffffffffffffffffffffffffffffffffffffff1614612e32576040517f08c379a0000000000000000000000000000000000000000000000000000000008152600401612e2990614212565b60405180910390fd5b3073ffffffffffffffffffffffffffffffffffffffff168273ffffffffffffffffffffffffffffffffffffffff1663081812fc836040518263ffffffff1660e01b8152600401612e829190614492565b60206040518083038186803b158015612e9a57600080fd5b505afa158015612eae573d6000803e3d6000fd5b505050506040513d601f19601f82011682018060405250810190612ed2919061397c565b73ffffffffffffffffffffffffffffffffffffffff1614612f28576040517f08c379a0000000000000000000000000000000000000000000000000000000008152600401612f1f906142f2565b60405180910390fd5b60008311612f6b576040517f08c379a0000000000000000000000000000000000000000000000000000000008152600401612f6290614392565b60405180910390fd5b8260066000868152602001908152602001600020819055507f6e43a44e935111ad2e5fc6b5c1753c415d428125be44ec19cbebb5969a138e218484604051612fb49291906144ad565b60405180910390a150505050565b600160009054906101000a900473ffffffffffffffffffffffffffffffffffffffff1681565b600260009054906101000a900473ffffffffffffffffffffffffffffffffffffffff1681565b6000600360008481526020019081526020016000206040518060a00160405290816000820160009054906101000a900460ff16151515158152602001600182015481526020016002820160009054906101000a900473ffffffffffffffffffffffffffffffffffffffff1673ffffffffffffffffffffffffffffffffffffffff1673ffffffffffffffffffffffffffffffffffffffff168152602001600382015481526020016004820160009054906101000a900473ffffffffffffffffffffffffffffffffffffffff1673ffffffffffffffffffffffffffffffffffffffff1673ffffffffffffffffffffffffffffffffffffffff16815250509050806000015161314f576040517f08c379a000000000000000000000000000000000000000000000000000000000815260040161314690614452565b60405180910390fd5b600073ffffffffffffffffffffffffffffffffffffffff16816080015173ffffffffffffffffffffffffffffffffffffffff1614806131bd57503373ffffffffffffffffffffffffffffffffffffffff16816080015173ffffffffffffffffffffffffffffffffffffffff16145b6131fc576040517f08c379a00000000000000000000000000000000000000000000000000000000081526004016131f390614232565b60405180910390fd5b8060600151821015613243576040517f08c379a000000000000000000000000000000000000000000000000000000000815260040161323a90614272565b60405180910390fd5b60008060009054906101000a900473ffffffffffffffffffffffffffffffffffffffff1690508073ffffffffffffffffffffffffffffffffffffffff16636352211e856040518263ffffffff1660e01b81526004016132a29190614492565b60206040518083038186803b1580156132ba57600080fd5b505afa1580156132ce573d6000803e3d6000fd5b505050506040513d601f19601f820116820180604052508101906132f2919061397c565b73ffffffffffffffffffffffffffffffffffffffff16826040015173ffffffffffffffffffffffffffffffffffffffff1614613363576040517f08c379a000000000000000000000000000000000000000000000000000000000815260040161335a906142b2565b60405180910390fd5b6000600160009054906101000a900473ffffffffffffffffffffffffffffffffffffffff1690508073ffffffffffffffffffffffffffffffffffffffff166323b872dd3330876040518463ffffffff1660e01b81526004016133c79392919061415f565b602060405180830381600087803b1580156133e157600080fd5b505af11580156133f5573d6000803e3d6000fd5b505050506040513d601f19601f8201168201806040525081019061341991906139a5565b613458576040517f08c379a000000000000000000000000000000000000000000000000000000000815260040161344f90614332565b60405180910390fd5b6000836040015190508273ffffffffffffffffffffffffffffffffffffffff166342842e0e8233896040518463ffffffff1660e01b815260040161349e9392919061415f565b600060405180830381600087803b1580156134b857600080fd5b505af11580156134cc573d6000803e3d6000fd5b505050506134d986610b93565b84600560008373ffffffffffffffffffffffffffffffffffffffff1673ffffffffffffffffffffffffffffffffffffffff16815260200190815260200160002060008282546135289190614563565b925050819055507f7dabc6512298d15f481bd3755e8e2e4387bdd4497983824ce33f9c315005e89686868333604051613564949392919061450d565b60405180910390a1505050505050565b600081116135b7576040517f08c379a00000000000000000000000000000000000000000000000000000000081526004016135ae90614432565b60405180910390fd5b6000600160009054906101000a900473ffffffffffffffffffffffffffffffffffffffff1690508073ffffffffffffffffffffffffffffffffffffffff166323b872dd3330856040518463ffffffff1660e01b815260040161361b9392919061415f565b602060405180830381600087803b15801561363557600080fd5b505af1158015613649573d6000803e3d6000fd5b505050506040513d601f19601f8201168201806040525081019061366d91906139a5565b6136ac576040517f08c379a00000000000000000000000000000000000000000000000000000000081526004016136a390614332565b60405180910390fd5b81600560003373ffffffffffffffffffffffffffffffffffffffff1673ffffffffffffffffffffffffffffffffffffffff16815260200190815260200160002060008282546136fb9190614563565b925050819055505050565b600260009054906101000a900473ffffffffffffffffffffffffffffffffffffffff1673ffffffffffffffffffffffffffffffffffffffff163373ffffffffffffffffffffffffffffffffffffffff1614613796576040517f08c379a000000000000000000000000000000000000000000000000000000000815260040161378d90614472565b60405180910390fd5b6000600160009054906101000a900473ffffffffffffffffffffffffffffffffffffffff1690508073ffffffffffffffffffffffffffffffffffffffff1663a9059cbb33600560003073ffffffffffffffffffffffffffffffffffffffff1673ffffffffffffffffffffffffffffffffffffffff168152602001908152602001600020546040518363ffffffff1660e01b8152600401613837929190614196565b602060405180830381600087803b15801561385157600080fd5b505af1158015613865573d6000803e3d6000fd5b505050506040513d601f19601f8201168201806040525081019061388991906139a5565b506000600560003073ffffffffffffffffffffffffffffffffffffffff1673ffffffffffffffffffffffffffffffffffffffff1681526020019081526020016000208190555050565b60056020528060005260406000206000915090505481565b6000813590506138f981614664565b92915050565b60008151905061390e81614664565b92915050565b6000815190506139238161467b565b92915050565b60008135905061393881614692565b92915050565b60008151905061394d81614692565b92915050565b60006020828403121561396557600080fd5b6000613973848285016138ea565b91505092915050565b60006020828403121561398e57600080fd5b600061399c848285016138ff565b91505092915050565b6000602082840312156139b757600080fd5b60006139c584828501613914565b91505092915050565b6000602082840312156139e057600080fd5b60006139ee84828501613929565b91505092915050565b600060208284031215613a0957600080fd5b6000613a178482850161393e565b91505092915050565b60008060408385031215613a3357600080fd5b6000613a4185828601613929565b9250506020613a52858286016138ea565b9150509250929050565b60008060408385031215613a6f57600080fd5b6000613a7d85828601613929565b9250506020613a8e85828601613929565b9150509250929050565b600080600060608486031215613aad57600080fd5b6000613abb86828701613929565b9350506020613acc86828701613929565b9250506040613add868287016138ea565b9150509250925092565b613af0816145ed565b82525050565b613aff816145ff565b82525050565b6000613b12603c83614552565b91507f596f7520646f6e277420686176652061636365737320746f20617070726f766560008301527f20746869732062696420666f7220746865206e657720746f6b656e2e000000006020830152604082019050919050565b6000613b78602e83614552565b91507f74686973206974656d206e6f7420737570706f73656420746f20626520736f6c60008301527f6420746f207468697320757365720000000000000000000000000000000000006020830152604082019050919050565b6000613bde602b83614552565b91507f4e6f206269642066726f6d2074686973206164647265737320666f722074686960008301527f73206974656d207965742e0000000000000000000000000000000000000000006020830152604082019050919050565b6000613c44601c83614552565b91507f596f75206469646e27742073656e6420656e6f756768204c4f57422e000000006000830152602082019050919050565b6000613c84601683614552565b91507f546f6b656e206e6f742063726561746564207965742e000000000000000000006000830152602082019050919050565b6000613cc4602483614552565b91507f53656c6c6572206e6f206c6f6e676572206f776e6572206f662074686973206960008301527f74656d2e000000000000000000000000000000000000000000000000000000006020830152604082019050919050565b6000613d2a602b83614552565b91507f616d6f756e74206c6172676572207468616e20746861742070656e64696e672060008301527f746f2077697468647261770000000000000000000000000000000000000000006020830152604082019050919050565b6000613d90603483614552565b91507f417070726f7665207468697320636f6e747261637420746f20636c61696d207460008301527f6865206e657720746f6b656e732066697273742e0000000000000000000000006020830152604082019050919050565b6000613df6601a83614552565b91507f506c6561736520626964207769746820736f6d65206c6f7762210000000000006000830152602082019050919050565b6000613e36601483614552565b91507f4c6f7762207472616e73666572206661696c65640000000000000000000000006000830152602082019050919050565b6000613e76602c83614552565b91507f5265717569726520617070726f76656d656e7420746f20636c61696d2074686560008301527f206e657720746f6b656e732e00000000000000000000000000000000000000006020830152604082019050919050565b6000613edc602683614552565b91507f506c65617365206465706f73697420656e6f756768206c6f7762206265666f7260008301527f65206269642100000000000000000000000000000000000000000000000000006020830152604082019050919050565b6000613f42601f83614552565b91507f546f6b656e2070726963652073686f756c64206e6f74206265207a65726f2e006000830152602082019050919050565b6000613f82601d83614552565b91507f74686973206974656d206973206e6f7420666f722073616c65206e6f770000006000830152602082019050919050565b6000613fc2601983614552565b91507f417070726f7665207468697320746f6b656e2066697273742e000000000000006000830152602082019050919050565b6000614002601983614552565b91507f596f7520646f6e2774206f776e207468697320746f6b656e2e000000000000006000830152602082019050919050565b6000614042601c83614552565b91507f596f7520646f6e2774206861766520612062696420666f722069742e000000006000830152602082019050919050565b6000614082601483614552565b91507f596f75206465706f736974206e6f7468696e67210000000000000000000000006000830152602082019050919050565b60006140c2602083614552565b91507f54686973206974656d206e6f742061637475616c6c7920666f722073616c652e6000830152602082019050919050565b6000614102601e83614552565b91507f4f6e6c79206f776e65722063616e2070756c6c207468652066756e64732100006000830152602082019050919050565b61413e8161462b565b82525050565b60006020820190506141596000830184613ae7565b92915050565b60006060820190506141746000830186613ae7565b6141816020830185613ae7565b61418e6040830184614135565b949350505050565b60006040820190506141ab6000830185613ae7565b6141b86020830184614135565b9392505050565b600060a0820190506141d46000830188613af6565b6141e16020830187614135565b6141ee6040830186613ae7565b6141fb6060830185614135565b6142086080830184613ae7565b9695505050505050565b6000602082019050818103600083015261422b81613b05565b9050919050565b6000602082019050818103600083015261424b81613b6b565b9050919050565b6000602082019050818103600083015261426b81613bd1565b9050919050565b6000602082019050818103600083015261428b81613c37565b9050919050565b600060208201905081810360008301526142ab81613c77565b9050919050565b600060208201905081810360008301526142cb81613cb7565b9050919050565b600060208201905081810360008301526142eb81613d1d565b9050919050565b6000602082019050818103600083015261430b81613d83565b9050919050565b6000602082019050818103600083015261432b81613de9565b9050919050565b6000602082019050818103600083015261434b81613e29565b9050919050565b6000602082019050818103600083015261436b81613e69565b9050919050565b6000602082019050818103600083015261438b81613ecf565b9050919050565b600060208201905081810360008301526143ab81613f35565b9050919050565b600060208201905081810360008301526143cb81613f75565b9050919050565b600060208201905081810360008301526143eb81613fb5565b9050919050565b6000602082019050818103600083015261440b81613ff5565b9050919050565b6000602082019050818103600083015261442b81614035565b9050919050565b6000602082019050818103600083015261444b81614075565b9050919050565b6000602082019050818103600083015261446b816140b5565b9050919050565b6000602082019050818103600083015261448b816140f5565b9050919050565b60006020820190506144a76000830184614135565b92915050565b60006040820190506144c26000830185614135565b6144cf6020830184614135565b9392505050565b60006060820190506144eb6000830186614135565b6144f86020830185614135565b6145056040830184613ae7565b949350505050565b60006080820190506145226000830187614135565b61452f6020830186614135565b61453c6040830185613ae7565b6145496060830184613ae7565b95945050505050565b600082825260208201905092915050565b600061456e8261462b565b91506145798361462b565b9250827fffffffffffffffffffffffffffffffffffffffffffffffffffffffffffffffff038211156145ae576145ad614635565b5b828201905092915050565b60006145c48261462b565b91506145cf8361462b565b9250828210156145e2576145e1614635565b5b828203905092915050565b60006145f88261460b565b9050919050565b60008115159050919050565b600073ffffffffffffffffffffffffffffffffffffffff82169050919050565b6000819050919050565b7f4e487b7100000000000000000000000000000000000000000000000000000000600052601160045260246000fd5b61466d816145ed565b811461467857600080fd5b50565b614684816145ff565b811461468f57600080fd5b50565b61469b8161462b565b81146146a657600080fd5b5056fea2646970667358221220f84c77f16b0a20038e4ad428452a25fb513c6abc359a226882c9c6175ebdc9c664736f6c63430008000033",
  "immutableReferences": {},
  "source": "// contracts/LowbMarket.sol\r\n// SPDX-License-Identifier: MIT\r\npragma solidity ^0.8.0;\r\n\r\nimport \"./IERC721LOWB.sol\";\r\nimport \"@openzeppelin/contracts/token/ERC20/IERC20.sol\";\r\n\r\ncontract LowbMarket {\r\n\r\n    address public nonFungibleTokenAddress;\r\n    address public lowbTokenAddress;\r\n\r\n    address public owner;\r\n\r\n    struct Offer {\r\n        bool isForSale;\r\n        uint itemId;\r\n        address seller;\r\n        uint minValue;          // in lowb\r\n        address onlySellTo;     // specify to sell only to a specific person\r\n    }\r\n\r\n    struct Bid {\r\n        address prevBidder;\r\n        address nextBidder;\r\n        uint value;\r\n    }\r\n\r\n    // A record of items that are offered for sale at a specific minimum value, and perhaps to a specific person\r\n    mapping (uint => Offer) public itemsOfferedForSale;\r\n\r\n    // A record of the highest bid\r\n    mapping (uint => mapping (address => Bid)) public itemBids;\r\n\r\n    mapping (address => uint) public pendingWithdrawals;\r\n    mapping (uint => uint) public newTokenOffer;\r\n\r\n    event ItemNoLongerForSale(uint itemId);\r\n    event ItemOffered(uint itemId, uint minValue, address toAddress);\r\n    event NewItemsOffered(uint groupId, uint minValue);\r\n    event NewBidEntered(uint groupId, uint value, address fromAddress);\r\n    event BidWithdrawn(uint itemId, uint value, address fromAddress);\r\n    event ItemBought(uint itemId, uint value, address fromAddress, address toAddress);\r\n    event ItemMint(uint itemId, uint value, address toAddress);\r\n\r\n    constructor(address lowbToken_, address nonFungibleToken_) {\r\n        require(nonFungibleToken_ != address(0));\r\n        nonFungibleTokenAddress = nonFungibleToken_;\r\n        lowbTokenAddress = lowbToken_;\r\n        owner = msg.sender;\r\n    }\r\n\r\n    function itemNoLongerForSale(uint itemId) public {\r\n        IERC721 token = IERC721(nonFungibleTokenAddress);\r\n        require(token.ownerOf(itemId) == msg.sender, \"You don't own this token.\");\r\n\r\n        itemsOfferedForSale[itemId] = Offer(false, itemId, msg.sender, 0, address(0));\r\n        emit ItemNoLongerForSale(itemId);\r\n    }\r\n\r\n    function offerItemForSale(uint itemId, uint minSalePriceInWei) public {\r\n        IERC721 token = IERC721(nonFungibleTokenAddress);\r\n        require(token.ownerOf(itemId) == msg.sender, \"You don't own this token.\");\r\n        require(token.getApproved(itemId) == address(this), \"Approve this token first.\");\r\n\r\n        itemsOfferedForSale[itemId] = Offer(true, itemId, msg.sender, minSalePriceInWei, address(0));\r\n        emit ItemOffered(itemId, minSalePriceInWei, address(0));\r\n    }\r\n\r\n    function offerItemForSaleToAddress(uint itemId, uint minSalePriceInWei, address toAddress) public {\r\n        IERC721 token = IERC721(nonFungibleTokenAddress);\r\n        require(token.ownerOf(itemId) == msg.sender, \"You don't own this token.\");\r\n        require(token.getApproved(itemId) == address(this), \"Approve this token first.\");\r\n\r\n        itemsOfferedForSale[itemId] = Offer(true, itemId, msg.sender, minSalePriceInWei, toAddress);\r\n        emit ItemOffered(itemId, minSalePriceInWei, toAddress);\r\n    }\r\n\r\n    function deposit(uint amount) public {\r\n        require(amount > 0, \"You deposit nothing!\");\r\n        IERC20 token = IERC20(lowbTokenAddress);\r\n        require(token.transferFrom(msg.sender, address(this), amount), \"Lowb transfer failed\");\r\n        pendingWithdrawals[msg.sender] +=  amount;\r\n    }\r\n\r\n    function withdraw(uint amount) public {\r\n        require(amount <= pendingWithdrawals[msg.sender], \"amount larger than that pending to withdraw\");  \r\n        pendingWithdrawals[msg.sender] -= amount;\r\n        IERC20 token = IERC20(lowbTokenAddress);\r\n        require(token.transfer(msg.sender, amount), \"Lowb transfer failed\");\r\n    }\r\n\r\n    function buyItem(uint itemId, uint amount) public {\r\n        Offer memory offer = itemsOfferedForSale[itemId];\r\n        require(offer.isForSale, \"This item not actually for sale.\");\r\n        require(offer.onlySellTo == address(0) || offer.onlySellTo == msg.sender, \"this item not supposed to be sold to this user\");\r\n        require(amount >= offer.minValue, \"You didn't send enough LOWB.\");\r\n\r\n        IERC721 nft = IERC721(nonFungibleTokenAddress);\r\n        require(offer.seller == nft.ownerOf(itemId), \"Seller no longer owner of this item.\");\r\n\r\n        IERC20 lowb = IERC20(lowbTokenAddress);\r\n        require(lowb.transferFrom(msg.sender, address(this), amount), \"Lowb transfer failed\");\r\n\r\n        address seller = offer.seller;\r\n        nft.safeTransferFrom(seller, msg.sender, itemId);\r\n\r\n        itemNoLongerForSale(itemId);\r\n        pendingWithdrawals[seller] += amount;\r\n        emit ItemBought(itemId, amount, seller, msg.sender);\r\n    }\r\n\r\n    function enterBid(uint groupId, uint amount) public {\r\n        require(pendingWithdrawals[msg.sender] >= amount, \"Please deposit enough lowb before bid!\");\r\n        require(amount > 0, \"Please bid with some lowb!\");\r\n\r\n        IERC721LOWB nft = IERC721LOWB(nonFungibleTokenAddress);\r\n        uint itemId = nft.groupStart(groupId);\r\n        require(nft.ownerOf(itemId) != address(0), \"Token not created yet.\");\r\n\r\n        // Lock the current bid\r\n        pendingWithdrawals[msg.sender] -= amount;\r\n        address latestBidder = itemBids[groupId][address(0)].nextBidder;\r\n        itemBids[groupId][latestBidder].prevBidder = msg.sender;\r\n        itemBids[groupId][msg.sender] = Bid(address(0), latestBidder, amount);\r\n        itemBids[groupId][address(0)].nextBidder = msg.sender;\r\n\r\n        emit NewBidEntered(groupId, amount, msg.sender);\r\n    }\r\n\r\n    function acceptBid(uint itemId, address bidder) public {\r\n        IERC721LOWB nft = IERC721LOWB(nonFungibleTokenAddress);\r\n        require(nft.ownerOf(itemId) == msg.sender, \"You don't own this token.\");\r\n        require(nft.getApproved(itemId) == address(this), \"Approve this token first.\");\r\n        \r\n        address seller = msg.sender;\r\n        uint groupId = nft.groupOf(itemId);\r\n        uint amount = itemBids[groupId][bidder].value;\r\n        require(amount > 0, \"No bid from this address for this item yet.\");\r\n\r\n        nft.safeTransferFrom(seller, bidder, itemId);\r\n        itemsOfferedForSale[itemId] = Offer(false, itemId, bidder, 0, address(0));\r\n\r\n        itemBids[groupId][bidder].value = 0;\r\n        address nextBidder = itemBids[groupId][bidder].nextBidder;\r\n        address prevBidder = itemBids[groupId][bidder].prevBidder;\r\n        itemBids[groupId][prevBidder].nextBidder = nextBidder;\r\n        itemBids[groupId][nextBidder].prevBidder = prevBidder;\r\n        \r\n        pendingWithdrawals[seller] += amount;\r\n        emit ItemBought(itemId, amount, seller, bidder);\r\n    }\r\n\r\n    function withdrawBid(uint groupId) public {\r\n        uint amount = itemBids[groupId][msg.sender].value;\r\n        require(amount > 0, \"You don't have a bid for it.\");\r\n        emit BidWithdrawn(groupId, amount, msg.sender);\r\n        \r\n        itemBids[groupId][msg.sender].value = 0;\r\n        address nextBidder = itemBids[groupId][msg.sender].nextBidder;\r\n        address prevBidder = itemBids[groupId][msg.sender].prevBidder;\r\n        itemBids[groupId][prevBidder].nextBidder = nextBidder;\r\n        itemBids[groupId][nextBidder].prevBidder = prevBidder;\r\n        // Refund the bid money\r\n        pendingWithdrawals[msg.sender] += amount;\r\n    }\r\n\r\n    function approveBid(uint groupId, address bidder) public {\r\n        IERC721LOWB nft = IERC721LOWB(nonFungibleTokenAddress);\r\n        uint itemId = nft.groupStart(groupId);\r\n        require(nft.ownerOf(itemId) == msg.sender, \"You don't have access to approve this bid for the new token.\");\r\n        require(nft.getApproved(itemId) == address(this), \"Approve this contract to claim the new tokens first.\");\r\n\r\n        uint amount = itemBids[groupId][bidder].value;\r\n        require(amount > 0, \"No bid from this address for this item yet.\");\r\n        \r\n        uint tokenId = nft.claim(bidder, groupId);\r\n        \r\n        itemBids[groupId][bidder].value = 0;\r\n        address nextBidder = itemBids[groupId][bidder].nextBidder;\r\n        address prevBidder = itemBids[groupId][bidder].prevBidder;\r\n        itemBids[groupId][prevBidder].nextBidder = nextBidder;\r\n        itemBids[groupId][nextBidder].prevBidder = prevBidder;\r\n\r\n        emit ItemMint(tokenId, amount, bidder);\r\n    }\r\n\r\n    function offerItemsForPublicSale(uint groupId, uint minSalePriceInWei) public {\r\n        IERC721LOWB nft = IERC721LOWB(nonFungibleTokenAddress);\r\n        uint itemId = nft.groupStart(groupId);\r\n        require(nft.ownerOf(itemId) == msg.sender, \"You don't have access to approve this bid for the new token.\");\r\n        require(nft.getApproved(itemId) == address(this), \"Approve this contract to claim the new tokens first.\");\r\n        require(minSalePriceInWei > 0, \"Token price should not be zero.\");\r\n\r\n        newTokenOffer[groupId] = minSalePriceInWei;\r\n        emit NewItemsOffered(groupId, minSalePriceInWei);\r\n    }\r\n\r\n    function buyNewItem(uint groupId, uint amount) public {\r\n        require(newTokenOffer[groupId] > 0, \"this item is not for sale now\");\r\n        require(amount >= newTokenOffer[groupId], \"You didn't send enough LOWB.\");\r\n\r\n        IERC721LOWB nft = IERC721LOWB(nonFungibleTokenAddress);\r\n        uint itemId = nft.groupStart(groupId);\r\n        require(nft.getApproved(itemId) == address(this), \"Require approvement to claim the new tokens.\");\r\n\r\n        IERC20 lowb = IERC20(lowbTokenAddress);\r\n        require(lowb.transferFrom(msg.sender, address(this), amount), \"Lowb transfer failed\");\r\n\r\n        uint tokenId = nft.claim(msg.sender, groupId);\r\n\r\n        pendingWithdrawals[address(this)] += amount;\r\n        emit ItemMint(tokenId, amount, msg.sender);\r\n    }\r\n\r\n    function pullFunds() public {\r\n        require(msg.sender == owner, \"Only owner can pull the funds!\");\r\n        IERC20 lowb = IERC20(lowbTokenAddress);\r\n        lowb.transfer(msg.sender, pendingWithdrawals[address(this)]);\r\n        pendingWithdrawals[address(this)] = 0;\r\n    }\r\n\r\n}",
  "sourcePath": "C:/Users/Weixuan/Documents/github/LowbMarket/contracts/LowbMarket.sol",
  "compiler": {
    "name": "solc",
    "version": "0.8.0+commit.c7dfd78e.Emscripten.clang"
  },
  "schemaVersion": "3.4.0",
  "updatedAt": "2021-05-29T13:28:41.274Z",
  "networkType": "ethereum",
  "devdoc": {
    "kind": "dev",
    "methods": {},
    "version": 1
  },
  "userdoc": {
    "kind": "user",
    "methods": {},
    "version": 1
  }
}