{
  "contractName": "MyCollectible",
  "abi": [
    {
      "anonymous": false,
      "inputs": [
        {
          "indexed": true,
          "internalType": "address",
          "name": "owner",
          "type": "address"
        },
        {
          "indexed": true,
          "internalType": "address",
          "name": "approved",
          "type": "address"
        },
        {
          "indexed": true,
          "internalType": "uint256",
          "name": "tokenId",
          "type": "uint256"
        }
      ],
      "name": "Approval",
      "type": "event"
    },
    {
      "anonymous": false,
      "inputs": [
        {
          "indexed": true,
          "internalType": "address",
          "name": "owner",
          "type": "address"
        },
        {
          "indexed": true,
          "internalType": "address",
          "name": "operator",
          "type": "address"
        },
        {
          "indexed": false,
          "internalType": "bool",
          "name": "approved",
          "type": "bool"
        }
      ],
      "name": "ApprovalForAll",
      "type": "event"
    },
    {
      "anonymous": false,
      "inputs": [
        {
          "indexed": true,
          "internalType": "address",
          "name": "previousOwner",
          "type": "address"
        },
        {
          "indexed": true,
          "internalType": "address",
          "name": "newOwner",
          "type": "address"
        }
      ],
      "name": "OwnershipTransferred",
      "type": "event"
    },
    {
      "anonymous": false,
      "inputs": [
        {
          "indexed": true,
          "internalType": "address",
          "name": "from",
          "type": "address"
        },
        {
          "indexed": true,
          "internalType": "address",
          "name": "to",
          "type": "address"
        },
        {
          "indexed": true,
          "internalType": "uint256",
          "name": "tokenId",
          "type": "uint256"
        }
      ],
      "name": "Transfer",
      "type": "event"
    },
    {
      "inputs": [],
      "name": "INVERSE_BASIS_POINT",
      "outputs": [
        {
          "internalType": "uint256",
          "name": "",
          "type": "uint256"
        }
      ],
      "stateMutability": "view",
      "type": "function",
      "constant": true
    },
    {
      "inputs": [
        {
          "internalType": "address",
          "name": "to",
          "type": "address"
        },
        {
          "internalType": "uint256",
          "name": "tokenId",
          "type": "uint256"
        }
      ],
      "name": "approve",
      "outputs": [],
      "stateMutability": "nonpayable",
      "type": "function"
    },
    {
      "inputs": [
        {
          "internalType": "address",
          "name": "owner",
          "type": "address"
        }
      ],
      "name": "balanceOf",
      "outputs": [
        {
          "internalType": "uint256",
          "name": "",
          "type": "uint256"
        }
      ],
      "stateMutability": "view",
      "type": "function",
      "constant": true
    },
    {
      "inputs": [
        {
          "internalType": "uint256",
          "name": "",
          "type": "uint256"
        }
      ],
      "name": "creatorOf",
      "outputs": [
        {
          "internalType": "address",
          "name": "",
          "type": "address"
        }
      ],
      "stateMutability": "view",
      "type": "function",
      "constant": true
    },
    {
      "inputs": [
        {
          "internalType": "uint256",
          "name": "tokenId",
          "type": "uint256"
        }
      ],
      "name": "getApproved",
      "outputs": [
        {
          "internalType": "address",
          "name": "",
          "type": "address"
        }
      ],
      "stateMutability": "view",
      "type": "function",
      "constant": true
    },
    {
      "inputs": [
        {
          "internalType": "uint256",
          "name": "",
          "type": "uint256"
        }
      ],
      "name": "groupCurrentSupply",
      "outputs": [
        {
          "internalType": "uint256",
          "name": "",
          "type": "uint256"
        }
      ],
      "stateMutability": "view",
      "type": "function",
      "constant": true
    },
    {
      "inputs": [
        {
          "internalType": "uint256",
          "name": "",
          "type": "uint256"
        }
      ],
      "name": "groupMaxSupply",
      "outputs": [
        {
          "internalType": "uint256",
          "name": "",
          "type": "uint256"
        }
      ],
      "stateMutability": "view",
      "type": "function",
      "constant": true
    },
    {
      "inputs": [
        {
          "internalType": "uint256",
          "name": "",
          "type": "uint256"
        }
      ],
      "name": "groupOf",
      "outputs": [
        {
          "internalType": "uint256",
          "name": "",
          "type": "uint256"
        }
      ],
      "stateMutability": "view",
      "type": "function",
      "constant": true
    },
    {
      "inputs": [
        {
          "internalType": "uint256",
          "name": "",
          "type": "uint256"
        }
      ],
      "name": "groupStart",
      "outputs": [
        {
          "internalType": "uint256",
          "name": "",
          "type": "uint256"
        }
      ],
      "stateMutability": "view",
      "type": "function",
      "constant": true
    },
    {
      "inputs": [
        {
          "internalType": "address",
          "name": "owner",
          "type": "address"
        },
        {
          "internalType": "address",
          "name": "operator",
          "type": "address"
        }
      ],
      "name": "isApprovedForAll",
      "outputs": [
        {
          "internalType": "bool",
          "name": "",
          "type": "bool"
        }
      ],
      "stateMutability": "view",
      "type": "function",
      "constant": true
    },
    {
      "inputs": [],
      "name": "name",
      "outputs": [
        {
          "internalType": "string",
          "name": "",
          "type": "string"
        }
      ],
      "stateMutability": "view",
      "type": "function",
      "constant": true
    },
    {
      "inputs": [],
      "name": "owner",
      "outputs": [
        {
          "internalType": "address",
          "name": "",
          "type": "address"
        }
      ],
      "stateMutability": "view",
      "type": "function",
      "constant": true
    },
    {
      "inputs": [
        {
          "internalType": "uint256",
          "name": "tokenId",
          "type": "uint256"
        }
      ],
      "name": "ownerOf",
      "outputs": [
        {
          "internalType": "address",
          "name": "",
          "type": "address"
        }
      ],
      "stateMutability": "view",
      "type": "function",
      "constant": true
    },
    {
      "inputs": [],
      "name": "renounceOwnership",
      "outputs": [],
      "stateMutability": "nonpayable",
      "type": "function"
    },
    {
      "inputs": [
        {
          "internalType": "uint256",
          "name": "",
          "type": "uint256"
        }
      ],
      "name": "royaltyOf",
      "outputs": [
        {
          "internalType": "uint256",
          "name": "",
          "type": "uint256"
        }
      ],
      "stateMutability": "view",
      "type": "function",
      "constant": true
    },
    {
      "inputs": [
        {
          "internalType": "address",
          "name": "from",
          "type": "address"
        },
        {
          "internalType": "address",
          "name": "to",
          "type": "address"
        },
        {
          "internalType": "uint256",
          "name": "tokenId",
          "type": "uint256"
        }
      ],
      "name": "safeTransferFrom",
      "outputs": [],
      "stateMutability": "nonpayable",
      "type": "function"
    },
    {
      "inputs": [
        {
          "internalType": "address",
          "name": "from",
          "type": "address"
        },
        {
          "internalType": "address",
          "name": "to",
          "type": "address"
        },
        {
          "internalType": "uint256",
          "name": "tokenId",
          "type": "uint256"
        },
        {
          "internalType": "bytes",
          "name": "_data",
          "type": "bytes"
        }
      ],
      "name": "safeTransferFrom",
      "outputs": [],
      "stateMutability": "nonpayable",
      "type": "function"
    },
    {
      "inputs": [
        {
          "internalType": "uint256",
          "name": "",
          "type": "uint256"
        }
      ],
      "name": "serialCurrentGroup",
      "outputs": [
        {
          "internalType": "uint256",
          "name": "",
          "type": "uint256"
        }
      ],
      "stateMutability": "view",
      "type": "function",
      "constant": true
    },
    {
      "inputs": [
        {
          "internalType": "uint256",
          "name": "",
          "type": "uint256"
        }
      ],
      "name": "serialCurrentSupply",
      "outputs": [
        {
          "internalType": "uint256",
          "name": "",
          "type": "uint256"
        }
      ],
      "stateMutability": "view",
      "type": "function",
      "constant": true
    },
    {
      "inputs": [
        {
          "internalType": "uint256",
          "name": "",
          "type": "uint256"
        }
      ],
      "name": "serialGroupStart",
      "outputs": [
        {
          "internalType": "uint256",
          "name": "",
          "type": "uint256"
        }
      ],
      "stateMutability": "view",
      "type": "function",
      "constant": true
    },
    {
      "inputs": [],
      "name": "serialIds",
      "outputs": [
        {
          "internalType": "uint256",
          "name": "_value",
          "type": "uint256"
        }
      ],
      "stateMutability": "view",
      "type": "function",
      "constant": true
    },
    {
      "inputs": [
        {
          "internalType": "uint256",
          "name": "",
          "type": "uint256"
        }
      ],
      "name": "serialMaxGroup",
      "outputs": [
        {
          "internalType": "uint256",
          "name": "",
          "type": "uint256"
        }
      ],
      "stateMutability": "view",
      "type": "function",
      "constant": true
    },
    {
      "inputs": [
        {
          "internalType": "uint256",
          "name": "",
          "type": "uint256"
        }
      ],
      "name": "serialMaxSupply",
      "outputs": [
        {
          "internalType": "uint256",
          "name": "",
          "type": "uint256"
        }
      ],
      "stateMutability": "view",
      "type": "function",
      "constant": true
    },
    {
      "inputs": [
        {
          "internalType": "uint256",
          "name": "",
          "type": "uint256"
        }
      ],
      "name": "serialOf",
      "outputs": [
        {
          "internalType": "uint256",
          "name": "",
          "type": "uint256"
        }
      ],
      "stateMutability": "view",
      "type": "function",
      "constant": true
    },
    {
      "inputs": [
        {
          "internalType": "uint256",
          "name": "",
          "type": "uint256"
        }
      ],
      "name": "serialTokenStart",
      "outputs": [
        {
          "internalType": "uint256",
          "name": "",
          "type": "uint256"
        }
      ],
      "stateMutability": "view",
      "type": "function",
      "constant": true
    },
    {
      "inputs": [
        {
          "internalType": "address",
          "name": "operator",
          "type": "address"
        },
        {
          "internalType": "bool",
          "name": "approved",
          "type": "bool"
        }
      ],
      "name": "setApprovalForAll",
      "outputs": [],
      "stateMutability": "nonpayable",
      "type": "function"
    },
    {
      "inputs": [
        {
          "internalType": "bytes4",
          "name": "interfaceId",
          "type": "bytes4"
        }
      ],
      "name": "supportsInterface",
      "outputs": [
        {
          "internalType": "bool",
          "name": "",
          "type": "bool"
        }
      ],
      "stateMutability": "view",
      "type": "function",
      "constant": true
    },
    {
      "inputs": [],
      "name": "symbol",
      "outputs": [
        {
          "internalType": "string",
          "name": "",
          "type": "string"
        }
      ],
      "stateMutability": "view",
      "type": "function",
      "constant": true
    },
    {
      "inputs": [
        {
          "internalType": "uint256",
          "name": "index",
          "type": "uint256"
        }
      ],
      "name": "tokenByIndex",
      "outputs": [
        {
          "internalType": "uint256",
          "name": "",
          "type": "uint256"
        }
      ],
      "stateMutability": "view",
      "type": "function",
      "constant": true
    },
    {
      "inputs": [
        {
          "internalType": "address",
          "name": "owner",
          "type": "address"
        },
        {
          "internalType": "uint256",
          "name": "index",
          "type": "uint256"
        }
      ],
      "name": "tokenOfOwnerByIndex",
      "outputs": [
        {
          "internalType": "uint256",
          "name": "",
          "type": "uint256"
        }
      ],
      "stateMutability": "view",
      "type": "function",
      "constant": true
    },
    {
      "inputs": [],
      "name": "totalSupply",
      "outputs": [
        {
          "internalType": "uint256",
          "name": "",
          "type": "uint256"
        }
      ],
      "stateMutability": "view",
      "type": "function",
      "constant": true
    },
    {
      "inputs": [
        {
          "internalType": "address",
          "name": "from",
          "type": "address"
        },
        {
          "internalType": "address",
          "name": "to",
          "type": "address"
        },
        {
          "internalType": "uint256",
          "name": "tokenId",
          "type": "uint256"
        }
      ],
      "name": "transferFrom",
      "outputs": [],
      "stateMutability": "nonpayable",
      "type": "function"
    },
    {
      "inputs": [
        {
          "internalType": "address",
          "name": "newOwner",
          "type": "address"
        }
      ],
      "name": "transferOwnership",
      "outputs": [],
      "stateMutability": "nonpayable",
      "type": "function"
    },
    {
      "inputs": [],
      "name": "initialize",
      "outputs": [],
      "stateMutability": "nonpayable",
      "type": "function"
    },
    {
      "inputs": [
        {
          "internalType": "uint256",
          "name": "maxGroup",
          "type": "uint256"
        },
        {
          "internalType": "uint256",
          "name": "maxSupply",
          "type": "uint256"
        }
      ],
      "name": "addSerial",
      "outputs": [
        {
          "internalType": "uint256",
          "name": "",
          "type": "uint256"
        }
      ],
      "stateMutability": "nonpayable",
      "type": "function"
    },
    {
      "inputs": [
        {
          "internalType": "address",
          "name": "to",
          "type": "address"
        },
        {
          "internalType": "uint256",
          "name": "serial",
          "type": "uint256"
        },
        {
          "internalType": "uint256",
          "name": "maxSupply",
          "type": "uint256"
        },
        {
          "internalType": "string",
          "name": "_tokenURI",
          "type": "string"
        },
        {
          "internalType": "uint256",
          "name": "royalty",
          "type": "uint256"
        }
      ],
      "name": "publish",
      "outputs": [
        {
          "internalType": "uint256",
          "name": "",
          "type": "uint256"
        }
      ],
      "stateMutability": "nonpayable",
      "type": "function"
    },
    {
      "inputs": [
        {
          "internalType": "address",
          "name": "to",
          "type": "address"
        },
        {
          "internalType": "uint256",
          "name": "groupId",
          "type": "uint256"
        }
      ],
      "name": "claim",
      "outputs": [
        {
          "internalType": "uint256",
          "name": "",
          "type": "uint256"
        }
      ],
      "stateMutability": "nonpayable",
      "type": "function"
    },
    {
      "inputs": [
        {
          "internalType": "uint256",
          "name": "tokenId",
          "type": "uint256"
        }
      ],
      "name": "tokenURI",
      "outputs": [
        {
          "internalType": "string",
          "name": "",
          "type": "string"
        }
      ],
      "stateMutability": "view",
      "type": "function",
      "constant": true
    }
  ],
  "bytecode": "0x608060405234801561001057600080fd5b50614874806100206000396000f3fe608060405234801561001057600080fd5b50600436106102325760003560e01c80637c1b718811610130578063b88d4fde116100b8578063e985e9c51161007c578063e985e9c51461075d578063ecc6346f1461078d578063ed8e037b146107ab578063f2fde38b146107db578063fc33ea1d146107f757610232565b8063b88d4fde14610693578063c15e6335146106af578063c87b56dd146106df578063cae6047f1461070f578063d26509b11461072d57610232565b80638da5cb5b116100ff5780638da5cb5b146105db57806395d89b41146105f9578063a22cb46514610617578063a97e51a614610633578063aad3ec961461066357610232565b80637c1b7188146105415780637ec8b110146105715780638129fc1c146105a15780638524d9fb146105ab57610232565b80632f745c59116101be578063589a174311610182578063589a1743146104775780636352211e146104a75780636d780e6b146104d757806370a0823114610507578063715018a61461053757610232565b80632f745c591461039b57806342842e0e146103cb57806343340fcf146103e75780634f6ccce714610417578063503ae1871461044757610232565b806318160ddd1161020557806318160ddd146102d157806323b872dd146102ef578063270f417b1461030b57806329a54a5c1461033b5780632d6a8da91461036b57610232565b806301ffc9a71461023757806306fdde0314610267578063081812fc14610285578063095ea7b3146102b5575b600080fd5b610251600480360381019061024c91906136d9565b610827565b60405161025e9190614168565b60405180910390f35b61026f6108a1565b60405161027c9190614183565b60405180910390f35b61029f600480360381019061029a919061372b565b610933565b6040516102ac9190614101565b60405180910390f35b6102cf60048036038101906102ca919061360e565b6109b8565b005b6102d9610ad0565b6040516102e691906144a5565b60405180910390f35b61030960048036038101906103049190613508565b610add565b005b61032560048036038101906103209190613754565b610b3d565b60405161033291906144a5565b60405180910390f35b6103556004803603810190610350919061372b565b610c8d565b60405161036291906144a5565b60405180910390f35b6103856004803603810190610380919061372b565b610ca6565b60405161039291906144a5565b60405180910390f35b6103b560048036038101906103b0919061360e565b610cbf565b6040516103c291906144a5565b60405180910390f35b6103e560048036038101906103e09190613508565b610d64565b005b61040160048036038101906103fc919061372b565b610d84565b60405161040e91906144a5565b60405180910390f35b610431600480360381019061042c919061372b565b610d9c565b60405161043e91906144a5565b60405180910390f35b610461600480360381019061045c919061372b565b610e33565b60405161046e91906144a5565b60405180910390f35b610491600480360381019061048c919061372b565b610e4c565b60405161049e9190614101565b60405180910390f35b6104c160048036038101906104bc919061372b565b610e80565b6040516104ce9190614101565b60405180910390f35b6104f160048036038101906104ec919061372b565b610f32565b6040516104fe91906144a5565b60405180910390f35b610521600480360381019061051c91906134a3565b610f4b565b60405161052e91906144a5565b60405180910390f35b61053f611003565b005b61055b6004803603810190610556919061372b565b611140565b60405161056891906144a5565b60405180910390f35b61058b6004803603810190610586919061372b565b611159565b60405161059891906144a5565b60405180910390f35b6105a9611172565b005b6105c560048036038101906105c0919061372b565b6112c7565b6040516105d291906144a5565b60405180910390f35b6105e36112e0565b6040516105f09190614101565b60405180910390f35b61060161130a565b60405161060e9190614183565b60405180910390f35b610631600480360381019061062c91906135d2565b61139c565b005b61064d6004803603810190610648919061372b565b61151d565b60405161065a91906144a5565b60405180910390f35b61067d6004803603810190610678919061360e565b611536565b60405161068a91906144a5565b60405180910390f35b6106ad60048036038101906106a89190613557565b6116ed565b005b6106c960048036038101906106c4919061364a565b61174f565b6040516106d691906144a5565b60405180910390f35b6106f960048036038101906106f4919061372b565b611b14565b6040516107069190614183565b60405180910390f35b610717611bd4565b60405161072491906144a5565b60405180910390f35b6107476004803603810190610742919061372b565b611bda565b60405161075491906144a5565b60405180910390f35b610777600480360381019061077291906134cc565b611bf3565b6040516107849190614168565b60405180910390f35b610795611c87565b6040516107a291906144a5565b60405180910390f35b6107c560048036038101906107c0919061372b565b611c93565b6040516107d291906144a5565b60405180910390f35b6107f560048036038101906107f091906134a3565b611cab565b005b610811600480360381019061080c919061372b565b611e57565b60405161081e91906144a5565b60405180910390f35b60007f780e9d63000000000000000000000000000000000000000000000000000000007bffffffffffffffffffffffffffffffffffffffffffffffffffffffff1916827bffffffffffffffffffffffffffffffffffffffffffffffffffffffff1916148061089a575061089982611e70565b5b9050919050565b6060606580546108b0906146c9565b80601f01602080910402602001604051908101604052809291908181526020018280546108dc906146c9565b80156109295780601f106108fe57610100808354040283529160200191610929565b820191906000526020600020905b81548152906001019060200180831161090c57829003601f168201915b5050505050905090565b600061093e82611f52565b61097d576040517f08c379a0000000000000000000000000000000000000000000000000000000008152600401610974906143a5565b60405180910390fd5b6069600083815260200190815260200160002060009054906101000a900473ffffffffffffffffffffffffffffffffffffffff169050919050565b60006109c382610e80565b90508073ffffffffffffffffffffffffffffffffffffffff168373ffffffffffffffffffffffffffffffffffffffff161415610a34576040517f08c379a0000000000000000000000000000000000000000000000000000000008152600401610a2b90614425565b60405180910390fd5b8073ffffffffffffffffffffffffffffffffffffffff16610a53611fbe565b73ffffffffffffffffffffffffffffffffffffffff161480610a825750610a8181610a7c611fbe565b611bf3565b5b610ac1576040517f08c379a0000000000000000000000000000000000000000000000000000000008152600401610ab890614305565b60405180910390fd5b610acb8383611fc6565b505050565b6000609980549050905090565b610aee610ae8611fbe565b8261207f565b610b2d576040517f08c379a0000000000000000000000000000000000000000000000000000000008152600401610b2490614445565b60405180910390fd5b610b3883838361215d565b505050565b6000610b47611fbe565b73ffffffffffffffffffffffffffffffffffffffff16610b656112e0565b73ffffffffffffffffffffffffffffffffffffffff1614610bbb576040517f08c379a0000000000000000000000000000000000000000000000000000000008152600401610bb2906143c5565b60405180910390fd5b610bc560fb6123b9565b6000610bd160fb6123cf565b9050600160fc54610be29190614589565b60fe600083815260200190815260200160002081905550600160fd54610c089190614589565b60ff60008381526020019081526020016000208190555082610101600083815260200190815260200160002081905550836101006000838152602001908152602001600020819055508260fc6000828254610c639190614589565b925050819055508360fd6000828254610c7c9190614589565b925050819055508091505092915050565b6101006020528060005260406000206000915090505481565b6101036020528060005260406000206000915090505481565b6000610cca83610f4b565b8210610d0b576040517f08c379a0000000000000000000000000000000000000000000000000000000008152600401610d02906141a5565b60405180910390fd5b609760008473ffffffffffffffffffffffffffffffffffffffff1673ffffffffffffffffffffffffffffffffffffffff168152602001908152602001600020600083815260200190815260200160002054905092915050565b610d7f838383604051806020016040528060008152506116ed565b505050565b60fe6020528060005260406000206000915090505481565b6000610da6610ad0565b8210610de7576040517f08c379a0000000000000000000000000000000000000000000000000000000008152600401610dde90614465565b60405180910390fd5b60998281548110610e21577f4e487b7100000000000000000000000000000000000000000000000000000000600052603260045260246000fd5b90600052602060002001549050919050565b61010b6020528060005260406000206000915090505481565b6101046020528060005260406000206000915054906101000a900473ffffffffffffffffffffffffffffffffffffffff1681565b6000806067600084815260200190815260200160002060009054906101000a900473ffffffffffffffffffffffffffffffffffffffff169050600073ffffffffffffffffffffffffffffffffffffffff168173ffffffffffffffffffffffffffffffffffffffff161415610f29576040517f08c379a0000000000000000000000000000000000000000000000000000000008152600401610f2090614345565b60405180910390fd5b80915050919050565b6101086020528060005260406000206000915090505481565b60008073ffffffffffffffffffffffffffffffffffffffff168273ffffffffffffffffffffffffffffffffffffffff161415610fbc576040517f08c379a0000000000000000000000000000000000000000000000000000000008152600401610fb390614325565b60405180910390fd5b606860008373ffffffffffffffffffffffffffffffffffffffff1673ffffffffffffffffffffffffffffffffffffffff168152602001908152602001600020549050919050565b61100b611fbe565b73ffffffffffffffffffffffffffffffffffffffff166110296112e0565b73ffffffffffffffffffffffffffffffffffffffff161461107f576040517f08c379a0000000000000000000000000000000000000000000000000000000008152600401611076906143c5565b60405180910390fd5b600073ffffffffffffffffffffffffffffffffffffffff1660c960009054906101000a900473ffffffffffffffffffffffffffffffffffffffff1673ffffffffffffffffffffffffffffffffffffffff167f8be0079c531659141344cd1fd0a4f28419497f9722a3daafe3b4186f6b6457e060405160405180910390a3600060c960006101000a81548173ffffffffffffffffffffffffffffffffffffffff021916908373ffffffffffffffffffffffffffffffffffffffff160217905550565b61010a6020528060005260406000206000915090505481565b6101026020528060005260406000206000915090505481565b600060019054906101000a900460ff1680611198575060008054906101000a900460ff16155b6111d7576040517f08c379a00000000000000000000000000000000000000000000000000000000081526004016111ce90614365565b60405180910390fd5b60008060019054906101000a900460ff161590508015611227576001600060016101000a81548160ff02191690831515021790555060016000806101000a81548160ff0219169083151502179055505b61129b6040518060400160405280600981526020017f4c6f736572204e465400000000000000000000000000000000000000000000008152506040518060400160405280600481526020017f4c4f5758000000000000000000000000000000000000000000000000000000008152506123dd565b6112a36124d2565b80156112c45760008060016101000a81548160ff0219169083151502179055505b50565b6101096020528060005260406000206000915090505481565b600060c960009054906101000a900473ffffffffffffffffffffffffffffffffffffffff16905090565b606060668054611319906146c9565b80601f0160208091040260200160405190810160405280929190818152602001828054611345906146c9565b80156113925780601f1061136757610100808354040283529160200191611392565b820191906000526020600020905b81548152906001019060200180831161137557829003601f168201915b5050505050905090565b6113a4611fbe565b73ffffffffffffffffffffffffffffffffffffffff168273ffffffffffffffffffffffffffffffffffffffff161415611412576040517f08c379a0000000000000000000000000000000000000000000000000000000008152600401611409906142a5565b60405180910390fd5b80606a600061141f611fbe565b73ffffffffffffffffffffffffffffffffffffffff1673ffffffffffffffffffffffffffffffffffffffff16815260200190815260200160002060008473ffffffffffffffffffffffffffffffffffffffff1673ffffffffffffffffffffffffffffffffffffffff16815260200190815260200160002060006101000a81548160ff0219169083151502179055508173ffffffffffffffffffffffffffffffffffffffff166114cc611fbe565b73ffffffffffffffffffffffffffffffffffffffff167f17307eab39ab6107e8899845ad3d59bd9653f200f220920489ca2b5937696c31836040516115119190614168565b60405180910390a35050565b6101066020528060005260406000206000915090505481565b600061010a600083815260200190815260200160002054610109600084815260200190815260200160002054106115a2576040517f08c379a000000000000000000000000000000000000000000000000000000000815260040161159990614405565b60405180910390fd5b600061010860008481526020019081526020016000205490503373ffffffffffffffffffffffffffffffffffffffff166115db82610e80565b73ffffffffffffffffffffffffffffffffffffffff16148061163057503373ffffffffffffffffffffffffffffffffffffffff1661161882610933565b73ffffffffffffffffffffffffffffffffffffffff16145b61166f576040517f08c379a000000000000000000000000000000000000000000000000000000000815260040161166690614245565b60405180910390fd5b6000610109600085815260200190815260200160002054826116919190614589565b905061169d85826125bb565b8361010b6000838152602001908152602001600020819055506001610109600086815260200190815260200160002060008282546116db9190614589565b92505081905550809250505092915050565b6116fe6116f8611fbe565b8361207f565b61173d576040517f08c379a000000000000000000000000000000000000000000000000000000000815260040161173490614445565b60405180910390fd5b61174984848484612789565b50505050565b6000611759611fbe565b73ffffffffffffffffffffffffffffffffffffffff166117776112e0565b73ffffffffffffffffffffffffffffffffffffffff16146117cd576040517f08c379a00000000000000000000000000000000000000000000000000000000081526004016117c4906143c5565b60405180910390fd5b6117d760fb6123cf565b851115611819576040517f08c379a000000000000000000000000000000000000000000000000000000000815260040161181090614205565b60405180910390fd5b6000821015801561182c57506127108211155b61186b576040517f08c379a000000000000000000000000000000000000000000000000000000000815260040161186290614285565b60405180910390fd5b610100600086815260200190815260200160002054610102600087815260200190815260200160002054106118d5576040517f08c379a00000000000000000000000000000000000000000000000000000000081526004016118cc906142c5565b60405180910390fd5b6101016000868152602001908152602001600020546101036000878152602001908152602001600020541061193f576040517f08c379a000000000000000000000000000000000000000000000000000000000815260040161193690614485565b60405180910390fd5b600061010260008781526020019081526020016000205460ff6000888152602001908152602001600020546119749190614589565b90506101026000878152602001908152602001600020600081548092919061199b906146fb565b9190505550600061010360008881526020019081526020016000205460fe6000898152602001908152602001600020546119d59190614589565b905085610103600089815260200190815260200160002060008282546119fb9190614589565b92505081905550806101086000848152602001908152602001600020819055508561010a6000848152602001908152602001600020819055508461010760008481526020019081526020016000209080519060200190611a5c9291906132c7565b5087610104600084815260200190815260200160002060006101000a81548173ffffffffffffffffffffffffffffffffffffffff021916908373ffffffffffffffffffffffffffffffffffffffff16021790555083610105600084815260200190815260200160002081905550611ad388826125bb565b8161010b6000838152602001908152602001600020819055506001610109600084815260200190815260200160002081905550819250505095945050505050565b6060600061010b600084815260200190815260200160002054905061010760008281526020019081526020016000208054611b4e906146c9565b80601f0160208091040260200160405190810160405280929190818152602001828054611b7a906146c9565b8015611bc75780601f10611b9c57610100808354040283529160200191611bc7565b820191906000526020600020905b815481529060010190602001808311611baa57829003601f168201915b5050505050915050919050565b61271081565b6101056020528060005260406000206000915090505481565b6000606a60008473ffffffffffffffffffffffffffffffffffffffff1673ffffffffffffffffffffffffffffffffffffffff16815260200190815260200160002060008373ffffffffffffffffffffffffffffffffffffffff1673ffffffffffffffffffffffffffffffffffffffff16815260200190815260200160002060009054906101000a900460ff16905092915050565b60fb8060000154905081565b60ff6020528060005260406000206000915090505481565b611cb3611fbe565b73ffffffffffffffffffffffffffffffffffffffff16611cd16112e0565b73ffffffffffffffffffffffffffffffffffffffff1614611d27576040517f08c379a0000000000000000000000000000000000000000000000000000000008152600401611d1e906143c5565b60405180910390fd5b600073ffffffffffffffffffffffffffffffffffffffff168173ffffffffffffffffffffffffffffffffffffffff161415611d97576040517f08c379a0000000000000000000000000000000000000000000000000000000008152600401611d8e906141e5565b60405180910390fd5b8073ffffffffffffffffffffffffffffffffffffffff1660c960009054906101000a900473ffffffffffffffffffffffffffffffffffffffff1673ffffffffffffffffffffffffffffffffffffffff167f8be0079c531659141344cd1fd0a4f28419497f9722a3daafe3b4186f6b6457e060405160405180910390a38060c960006101000a81548173ffffffffffffffffffffffffffffffffffffffff021916908373ffffffffffffffffffffffffffffffffffffffff16021790555050565b6101016020528060005260406000206000915090505481565b60007f80ac58cd000000000000000000000000000000000000000000000000000000007bffffffffffffffffffffffffffffffffffffffffffffffffffffffff1916827bffffffffffffffffffffffffffffffffffffffffffffffffffffffff19161480611f3b57507f5b5e139f000000000000000000000000000000000000000000000000000000007bffffffffffffffffffffffffffffffffffffffffffffffffffffffff1916827bffffffffffffffffffffffffffffffffffffffffffffffffffffffff1916145b80611f4b5750611f4a826127e5565b5b9050919050565b60008073ffffffffffffffffffffffffffffffffffffffff166067600084815260200190815260200160002060009054906101000a900473ffffffffffffffffffffffffffffffffffffffff1673ffffffffffffffffffffffffffffffffffffffff1614159050919050565b600033905090565b816069600083815260200190815260200160002060006101000a81548173ffffffffffffffffffffffffffffffffffffffff021916908373ffffffffffffffffffffffffffffffffffffffff160217905550808273ffffffffffffffffffffffffffffffffffffffff1661203983610e80565b73ffffffffffffffffffffffffffffffffffffffff167f8c5be1e5ebec7d5bd14f71427d1e84f3dd0314c0f7b2291e5b200ac8c7c3b92560405160405180910390a45050565b600061208a82611f52565b6120c9576040517f08c379a00000000000000000000000000000000000000000000000000000000081526004016120c0906142e5565b60405180910390fd5b60006120d483610e80565b90508073ffffffffffffffffffffffffffffffffffffffff168473ffffffffffffffffffffffffffffffffffffffff16148061214357508373ffffffffffffffffffffffffffffffffffffffff1661212b84610933565b73ffffffffffffffffffffffffffffffffffffffff16145b8061215457506121538185611bf3565b5b91505092915050565b8273ffffffffffffffffffffffffffffffffffffffff1661217d82610e80565b73ffffffffffffffffffffffffffffffffffffffff16146121d3576040517f08c379a00000000000000000000000000000000000000000000000000000000081526004016121ca906143e5565b60405180910390fd5b600073ffffffffffffffffffffffffffffffffffffffff168273ffffffffffffffffffffffffffffffffffffffff161415612243576040517f08c379a000000000000000000000000000000000000000000000000000000000815260040161223a90614265565b60405180910390fd5b61224e83838361284f565b612259600082611fc6565b6001606860008573ffffffffffffffffffffffffffffffffffffffff1673ffffffffffffffffffffffffffffffffffffffff16815260200190815260200160002060008282546122a991906145df565b925050819055506001606860008473ffffffffffffffffffffffffffffffffffffffff1673ffffffffffffffffffffffffffffffffffffffff16815260200190815260200160002060008282546123009190614589565b92505081905550816067600083815260200190815260200160002060006101000a81548173ffffffffffffffffffffffffffffffffffffffff021916908373ffffffffffffffffffffffffffffffffffffffff160217905550808273ffffffffffffffffffffffffffffffffffffffff168473ffffffffffffffffffffffffffffffffffffffff167fddf252ad1be2c89b69c2b068fc378daa952ba7f163c4a11628f55a4df523b3ef60405160405180910390a4505050565b6001816000016000828254019250508190555050565b600081600001549050919050565b600060019054906101000a900460ff1680612403575060008054906101000a900460ff16155b612442576040517f08c379a000000000000000000000000000000000000000000000000000000000815260040161243990614365565b60405180910390fd5b60008060019054906101000a900460ff161590508015612492576001600060016101000a81548160ff02191690831515021790555060016000806101000a81548160ff0219169083151502179055505b61249a612963565b6124a2612a3c565b6124ac8383612b15565b80156124cd5760008060016101000a81548160ff0219169083151502179055505b505050565b600060019054906101000a900460ff16806124f8575060008054906101000a900460ff16155b612537576040517f08c379a000000000000000000000000000000000000000000000000000000000815260040161252e90614365565b60405180910390fd5b60008060019054906101000a900460ff161590508015612587576001600060016101000a81548160ff02191690831515021790555060016000806101000a81548160ff0219169083151502179055505b61258f612963565b612597612c1e565b80156125b85760008060016101000a81548160ff0219169083151502179055505b50565b600073ffffffffffffffffffffffffffffffffffffffff168273ffffffffffffffffffffffffffffffffffffffff16141561262b576040517f08c379a000000000000000000000000000000000000000000000000000000000815260040161262290614385565b60405180910390fd5b61263481611f52565b15612674576040517f08c379a000000000000000000000000000000000000000000000000000000000815260040161266b90614225565b60405180910390fd5b6126806000838361284f565b6001606860008473ffffffffffffffffffffffffffffffffffffffff1673ffffffffffffffffffffffffffffffffffffffff16815260200190815260200160002060008282546126d09190614589565b92505081905550816067600083815260200190815260200160002060006101000a81548173ffffffffffffffffffffffffffffffffffffffff021916908373ffffffffffffffffffffffffffffffffffffffff160217905550808273ffffffffffffffffffffffffffffffffffffffff16600073ffffffffffffffffffffffffffffffffffffffff167fddf252ad1be2c89b69c2b068fc378daa952ba7f163c4a11628f55a4df523b3ef60405160405180910390a45050565b61279484848461215d565b6127a084848484612da0565b6127df576040517f08c379a00000000000000000000000000000000000000000000000000000000081526004016127d6906141c5565b60405180910390fd5b50505050565b60007f01ffc9a7000000000000000000000000000000000000000000000000000000007bffffffffffffffffffffffffffffffffffffffffffffffffffffffff1916827bffffffffffffffffffffffffffffffffffffffffffffffffffffffff1916149050919050565b61285a838383612f37565b600073ffffffffffffffffffffffffffffffffffffffff168373ffffffffffffffffffffffffffffffffffffffff16141561289d5761289881612f3c565b6128dc565b8173ffffffffffffffffffffffffffffffffffffffff168373ffffffffffffffffffffffffffffffffffffffff16146128db576128da8382612f85565b5b5b600073ffffffffffffffffffffffffffffffffffffffff168273ffffffffffffffffffffffffffffffffffffffff16141561291f5761291a816130f2565b61295e565b8273ffffffffffffffffffffffffffffffffffffffff168273ffffffffffffffffffffffffffffffffffffffff161461295d5761295c8282613235565b5b5b505050565b600060019054906101000a900460ff1680612989575060008054906101000a900460ff16155b6129c8576040517f08c379a00000000000000000000000000000000000000000000000000000000081526004016129bf90614365565b60405180910390fd5b60008060019054906101000a900460ff161590508015612a18576001600060016101000a81548160ff02191690831515021790555060016000806101000a81548160ff0219169083151502179055505b8015612a395760008060016101000a81548160ff0219169083151502179055505b50565b600060019054906101000a900460ff1680612a62575060008054906101000a900460ff16155b612aa1576040517f08c379a0000000000000000000000000000000000000000000000000000000008152600401612a9890614365565b60405180910390fd5b60008060019054906101000a900460ff161590508015612af1576001600060016101000a81548160ff02191690831515021790555060016000806101000a81548160ff0219169083151502179055505b8015612b125760008060016101000a81548160ff0219169083151502179055505b50565b600060019054906101000a900460ff1680612b3b575060008054906101000a900460ff16155b612b7a576040517f08c379a0000000000000000000000000000000000000000000000000000000008152600401612b7190614365565b60405180910390fd5b60008060019054906101000a900460ff161590508015612bca576001600060016101000a81548160ff02191690831515021790555060016000806101000a81548160ff0219169083151502179055505b8260659080519060200190612be09291906132c7565b508160669080519060200190612bf79291906132c7565b508015612c195760008060016101000a81548160ff0219169083151502179055505b505050565b600060019054906101000a900460ff1680612c44575060008054906101000a900460ff16155b612c83576040517f08c379a0000000000000000000000000000000000000000000000000000000008152600401612c7a90614365565b60405180910390fd5b60008060019054906101000a900460ff161590508015612cd3576001600060016101000a81548160ff02191690831515021790555060016000806101000a81548160ff0219169083151502179055505b6000612cdd611fbe565b90508060c960006101000a81548173ffffffffffffffffffffffffffffffffffffffff021916908373ffffffffffffffffffffffffffffffffffffffff1602179055508073ffffffffffffffffffffffffffffffffffffffff16600073ffffffffffffffffffffffffffffffffffffffff167f8be0079c531659141344cd1fd0a4f28419497f9722a3daafe3b4186f6b6457e060405160405180910390a3508015612d9d5760008060016101000a81548160ff0219169083151502179055505b50565b6000612dc18473ffffffffffffffffffffffffffffffffffffffff166132b4565b15612f2a578373ffffffffffffffffffffffffffffffffffffffff1663150b7a02612dea611fbe565b8786866040518563ffffffff1660e01b8152600401612e0c949392919061411c565b602060405180830381600087803b158015612e2657600080fd5b505af1925050508015612e5757506040513d601f19601f82011682018060405250810190612e549190613702565b60015b612eda573d8060008114612e87576040519150601f19603f3d011682016040523d82523d6000602084013e612e8c565b606091505b50600081511415612ed2576040517f08c379a0000000000000000000000000000000000000000000000000000000008152600401612ec9906141c5565b60405180910390fd5b805181602001fd5b63150b7a0260e01b7bffffffffffffffffffffffffffffffffffffffffffffffffffffffff1916817bffffffffffffffffffffffffffffffffffffffffffffffffffffffff191614915050612f2f565b600190505b949350505050565b505050565b609980549050609a600083815260200190815260200160002081905550609981908060018154018082558091505060019003906000526020600020016000909190919091505550565b60006001612f9284610f4b565b612f9c91906145df565b9050600060986000848152602001908152602001600020549050818114613081576000609760008673ffffffffffffffffffffffffffffffffffffffff1673ffffffffffffffffffffffffffffffffffffffff168152602001908152602001600020600084815260200190815260200160002054905080609760008773ffffffffffffffffffffffffffffffffffffffff1673ffffffffffffffffffffffffffffffffffffffff168152602001908152602001600020600084815260200190815260200160002081905550816098600083815260200190815260200160002081905550505b6098600084815260200190815260200160002060009055609760008573ffffffffffffffffffffffffffffffffffffffff1673ffffffffffffffffffffffffffffffffffffffff16815260200190815260200160002060008381526020019081526020016000206000905550505050565b6000600160998054905061310691906145df565b90506000609a600084815260200190815260200160002054905060006099838154811061315c577f4e487b7100000000000000000000000000000000000000000000000000000000600052603260045260246000fd5b9060005260206000200154905080609983815481106131a4577f4e487b7100000000000000000000000000000000000000000000000000000000600052603260045260246000fd5b906000526020600020018190555081609a600083815260200190815260200160002081905550609a6000858152602001908152602001600020600090556099805480613219577f4e487b7100000000000000000000000000000000000000000000000000000000600052603160045260246000fd5b6001900381819060005260206000200160009055905550505050565b600061324083610f4b565b905081609760008573ffffffffffffffffffffffffffffffffffffffff1673ffffffffffffffffffffffffffffffffffffffff168152602001908152602001600020600083815260200190815260200160002081905550806098600084815260200190815260200160002081905550505050565b600080823b905060008111915050919050565b8280546132d3906146c9565b90600052602060002090601f0160209004810192826132f5576000855561333c565b82601f1061330e57805160ff191683800117855561333c565b8280016001018555821561333c579182015b8281111561333b578251825591602001919060010190613320565b5b509050613349919061334d565b5090565b5b8082111561336657600081600090555060010161334e565b5090565b600061337d613378846144f1565b6144c0565b90508281526020810184848401111561339557600080fd5b6133a0848285614687565b509392505050565b60006133bb6133b684614521565b6144c0565b9050828152602081018484840111156133d357600080fd5b6133de848285614687565b509392505050565b6000813590506133f5816147e2565b92915050565b60008135905061340a816147f9565b92915050565b60008135905061341f81614810565b92915050565b60008151905061343481614810565b92915050565b600082601f83011261344b57600080fd5b813561345b84826020860161336a565b91505092915050565b600082601f83011261347557600080fd5b81356134858482602086016133a8565b91505092915050565b60008135905061349d81614827565b92915050565b6000602082840312156134b557600080fd5b60006134c3848285016133e6565b91505092915050565b600080604083850312156134df57600080fd5b60006134ed858286016133e6565b92505060206134fe858286016133e6565b9150509250929050565b60008060006060848603121561351d57600080fd5b600061352b868287016133e6565b935050602061353c868287016133e6565b925050604061354d8682870161348e565b9150509250925092565b6000806000806080858703121561356d57600080fd5b600061357b878288016133e6565b945050602061358c878288016133e6565b935050604061359d8782880161348e565b925050606085013567ffffffffffffffff8111156135ba57600080fd5b6135c68782880161343a565b91505092959194509250565b600080604083850312156135e557600080fd5b60006135f3858286016133e6565b9250506020613604858286016133fb565b9150509250929050565b6000806040838503121561362157600080fd5b600061362f858286016133e6565b92505060206136408582860161348e565b9150509250929050565b600080600080600060a0868803121561366257600080fd5b6000613670888289016133e6565b95505060206136818882890161348e565b94505060406136928882890161348e565b935050606086013567ffffffffffffffff8111156136af57600080fd5b6136bb88828901613464565b92505060806136cc8882890161348e565b9150509295509295909350565b6000602082840312156136eb57600080fd5b60006136f984828501613410565b91505092915050565b60006020828403121561371457600080fd5b600061372284828501613425565b91505092915050565b60006020828403121561373d57600080fd5b600061374b8482850161348e565b91505092915050565b6000806040838503121561376757600080fd5b60006137758582860161348e565b92505060206137868582860161348e565b9150509250929050565b61379981614613565b82525050565b6137a881614625565b82525050565b60006137b982614551565b6137c38185614567565b93506137d3818560208601614696565b6137dc816147d1565b840191505092915050565b60006137f28261455c565b6137fc8185614578565b935061380c818560208601614696565b613815816147d1565b840191505092915050565b600061382d602b83614578565b91507f455243373231456e756d657261626c653a206f776e657220696e646578206f7560008301527f74206f6620626f756e64730000000000000000000000000000000000000000006020830152604082019050919050565b6000613893603283614578565b91507f4552433732313a207472616e7366657220746f206e6f6e20455243373231526560008301527f63656976657220696d706c656d656e74657200000000000000000000000000006020830152604082019050919050565b60006138f9602683614578565b91507f4f776e61626c653a206e6577206f776e657220697320746865207a65726f206160008301527f64647265737300000000000000000000000000000000000000000000000000006020830152604082019050919050565b600061395f600f83614578565b91507f556e6b6e6f776e2073657269616c2e00000000000000000000000000000000006000830152602082019050919050565b600061399f601c83614578565b91507f4552433732313a20746f6b656e20616c7265616479206d696e746564000000006000830152602082019050919050565b60006139df602d83614578565b91507f596f7520646f6e27742068617665207468652061636365737320746f206d696e60008301527f74207468697320746f6b656e2e000000000000000000000000000000000000006020830152604082019050919050565b6000613a45602483614578565b91507f4552433732313a207472616e7366657220746f20746865207a65726f2061646460008301527f72657373000000000000000000000000000000000000000000000000000000006020830152604082019050919050565b6000613aab602383614578565b91507f526f79616c74792073686f756c64206265206265747765656e2030202d20313060008301527f30252e00000000000000000000000000000000000000000000000000000000006020830152604082019050919050565b6000613b11601983614578565b91507f4552433732313a20617070726f766520746f2063616c6c6572000000000000006000830152602082019050919050565b6000613b51602e83614578565b91507f416c6c2067726f757073206f6620746869732073657269616c2068617665206260008301527f65656e207075626c69736865642e0000000000000000000000000000000000006020830152604082019050919050565b6000613bb7602c83614578565b91507f4552433732313a206f70657261746f7220717565727920666f72206e6f6e657860008301527f697374656e7420746f6b656e00000000000000000000000000000000000000006020830152604082019050919050565b6000613c1d603883614578565b91507f4552433732313a20617070726f76652063616c6c6572206973206e6f74206f7760008301527f6e6572206e6f7220617070726f76656420666f7220616c6c00000000000000006020830152604082019050919050565b6000613c83602a83614578565b91507f4552433732313a2062616c616e636520717565727920666f7220746865207a6560008301527f726f2061646472657373000000000000000000000000000000000000000000006020830152604082019050919050565b6000613ce9602983614578565b91507f4552433732313a206f776e657220717565727920666f72206e6f6e657869737460008301527f656e7420746f6b656e00000000000000000000000000000000000000000000006020830152604082019050919050565b6000613d4f602e83614578565b91507f496e697469616c697a61626c653a20636f6e747261637420697320616c72656160008301527f647920696e697469616c697a65640000000000000000000000000000000000006020830152604082019050919050565b6000613db5602083614578565b91507f4552433732313a206d696e7420746f20746865207a65726f20616464726573736000830152602082019050919050565b6000613df5602c83614578565b91507f4552433732313a20617070726f76656420717565727920666f72206e6f6e657860008301527f697374656e7420746f6b656e00000000000000000000000000000000000000006020830152604082019050919050565b6000613e5b602083614578565b91507f4f776e61626c653a2063616c6c6572206973206e6f7420746865206f776e65726000830152602082019050919050565b6000613e9b602983614578565b91507f4552433732313a207472616e73666572206f6620746f6b656e2074686174206960008301527f73206e6f74206f776e00000000000000000000000000000000000000000000006020830152604082019050919050565b6000613f01602983614578565b91507f416c6c20746f6b656e73206f6620746869732067726f7570206861732062656560008301527f6e206d696e7465642e00000000000000000000000000000000000000000000006020830152604082019050919050565b6000613f67602183614578565b91507f4552433732313a20617070726f76616c20746f2063757272656e74206f776e6560008301527f72000000000000000000000000000000000000000000000000000000000000006020830152604082019050919050565b6000613fcd603183614578565b91507f4552433732313a207472616e736665722063616c6c6572206973206e6f74206f60008301527f776e6572206e6f7220617070726f7665640000000000000000000000000000006020830152604082019050919050565b6000614033602c83614578565b91507f455243373231456e756d657261626c653a20676c6f62616c20696e646578206f60008301527f7574206f6620626f756e647300000000000000000000000000000000000000006020830152604082019050919050565b6000614099602e83614578565b91507f416c6c20746f6b656e73206f6620746869732073657269616c2068617665206260008301527f65656e207075626c69736865642e0000000000000000000000000000000000006020830152604082019050919050565b6140fb8161467d565b82525050565b60006020820190506141166000830184613790565b92915050565b60006080820190506141316000830187613790565b61413e6020830186613790565b61414b60408301856140f2565b818103606083015261415d81846137ae565b905095945050505050565b600060208201905061417d600083018461379f565b92915050565b6000602082019050818103600083015261419d81846137e7565b905092915050565b600060208201905081810360008301526141be81613820565b9050919050565b600060208201905081810360008301526141de81613886565b9050919050565b600060208201905081810360008301526141fe816138ec565b9050919050565b6000602082019050818103600083015261421e81613952565b9050919050565b6000602082019050818103600083015261423e81613992565b9050919050565b6000602082019050818103600083015261425e816139d2565b9050919050565b6000602082019050818103600083015261427e81613a38565b9050919050565b6000602082019050818103600083015261429e81613a9e565b9050919050565b600060208201905081810360008301526142be81613b04565b9050919050565b600060208201905081810360008301526142de81613b44565b9050919050565b600060208201905081810360008301526142fe81613baa565b9050919050565b6000602082019050818103600083015261431e81613c10565b9050919050565b6000602082019050818103600083015261433e81613c76565b9050919050565b6000602082019050818103600083015261435e81613cdc565b9050919050565b6000602082019050818103600083015261437e81613d42565b9050919050565b6000602082019050818103600083015261439e81613da8565b9050919050565b600060208201905081810360008301526143be81613de8565b9050919050565b600060208201905081810360008301526143de81613e4e565b9050919050565b600060208201905081810360008301526143fe81613e8e565b9050919050565b6000602082019050818103600083015261441e81613ef4565b9050919050565b6000602082019050818103600083015261443e81613f5a565b9050919050565b6000602082019050818103600083015261445e81613fc0565b9050919050565b6000602082019050818103600083015261447e81614026565b9050919050565b6000602082019050818103600083015261449e8161408c565b9050919050565b60006020820190506144ba60008301846140f2565b92915050565b6000604051905081810181811067ffffffffffffffff821117156144e7576144e66147a2565b5b8060405250919050565b600067ffffffffffffffff82111561450c5761450b6147a2565b5b601f19601f8301169050602081019050919050565b600067ffffffffffffffff82111561453c5761453b6147a2565b5b601f19601f8301169050602081019050919050565b600081519050919050565b600081519050919050565b600082825260208201905092915050565b600082825260208201905092915050565b60006145948261467d565b915061459f8361467d565b9250827fffffffffffffffffffffffffffffffffffffffffffffffffffffffffffffffff038211156145d4576145d3614744565b5b828201905092915050565b60006145ea8261467d565b91506145f58361467d565b92508282101561460857614607614744565b5b828203905092915050565b600061461e8261465d565b9050919050565b60008115159050919050565b60007fffffffff0000000000000000000000000000000000000000000000000000000082169050919050565b600073ffffffffffffffffffffffffffffffffffffffff82169050919050565b6000819050919050565b82818337600083830152505050565b60005b838110156146b4578082015181840152602081019050614699565b838111156146c3576000848401525b50505050565b600060028204905060018216806146e157607f821691505b602082108114156146f5576146f4614773565b5b50919050565b60006147068261467d565b91507fffffffffffffffffffffffffffffffffffffffffffffffffffffffffffffffff82141561473957614738614744565b5b600182019050919050565b7f4e487b7100000000000000000000000000000000000000000000000000000000600052601160045260246000fd5b7f4e487b7100000000000000000000000000000000000000000000000000000000600052602260045260246000fd5b7f4e487b7100000000000000000000000000000000000000000000000000000000600052604160045260246000fd5b6000601f19601f8301169050919050565b6147eb81614613565b81146147f657600080fd5b50565b61480281614625565b811461480d57600080fd5b50565b61481981614631565b811461482457600080fd5b50565b6148308161467d565b811461483b57600080fd5b5056fea26469706673582212203f80c42b9cada70a62463e2aaff802b33cea47e23ea9f99d6db293ddd8ce785264736f6c63430008000033",
  "immutableReferences": {},
  "source": "// contracts/GameItem.sol\r\n// SPDX-License-Identifier: MIT\r\npragma solidity ^0.8.0;\r\n\r\nimport \"@openzeppelin/contracts-upgradeable/token/ERC721/ERC721Upgradeable.sol\";\r\nimport \"@openzeppelin/contracts-upgradeable/token/ERC721/extensions/ERC721EnumerableUpgradeable.sol\";\r\nimport \"@openzeppelin/contracts-upgradeable/utils/CountersUpgradeable.sol\";\r\nimport \"@openzeppelin/contracts-upgradeable/access/OwnableUpgradeable.sol\";\r\n\r\ncontract MyCollectible is ERC721EnumerableUpgradeable, OwnableUpgradeable {\r\n    using CountersUpgradeable for CountersUpgradeable.Counter;\r\n    CountersUpgradeable.Counter public serialIds;\r\n\r\n    uint private _serialTokenStart;\r\n    uint private _serialGroupStart;\r\n    mapping (uint => uint) public serialTokenStart;\r\n    mapping (uint => uint) public serialGroupStart;\r\n    mapping (uint => uint) public serialMaxGroup;\r\n    mapping (uint => uint) public serialMaxSupply;\r\n    mapping (uint => uint) public serialCurrentGroup;\r\n    mapping (uint => uint) public serialCurrentSupply;\r\n\r\n    mapping (uint => address) public creatorOf;\r\n    mapping (uint => uint) public royaltyOf;\r\n    mapping (uint => uint) public serialOf;\r\n    mapping (uint => string) private _groupURI;\r\n    mapping (uint => uint) public groupStart;\r\n    mapping (uint => uint) public groupCurrentSupply;\r\n    mapping (uint => uint) public groupMaxSupply;\r\n\r\n    mapping (uint => uint) public groupOf;\r\n\r\n    /* Inverse basis point. */\r\n    uint public constant INVERSE_BASIS_POINT = 10000;\r\n\r\n    function initialize() initializer public {\r\n        __ERC721_init(\"Loser NFT\", \"LOWX\");\r\n        OwnableUpgradeable.__Ownable_init();\r\n    }\r\n\r\n    function addSerial(uint256 maxGroup, uint256 maxSupply)\r\n        public onlyOwner\r\n        returns (uint256)\r\n    {\r\n        serialIds.increment();\r\n        uint256 newSerialId = serialIds.current();\r\n        serialTokenStart[newSerialId] = _serialTokenStart + 1; // start token id of this serial\r\n        serialGroupStart[newSerialId] = _serialGroupStart + 1; // start group id of this serial\r\n        serialMaxSupply[newSerialId] = maxSupply;\r\n        serialMaxGroup[newSerialId] = maxGroup;\r\n        _serialTokenStart += maxSupply;\r\n        _serialGroupStart += maxGroup;\r\n\r\n        return newSerialId;\r\n    }\r\n\r\n    function publish(address to, uint256 serial, uint256 maxSupply, string memory _tokenURI, uint256 royalty)\r\n        public onlyOwner\r\n        returns (uint256)\r\n    {\r\n        require(serial <= serialIds.current(), \"Unknown serial.\");\r\n        require(royalty >= 0 && royalty <= INVERSE_BASIS_POINT, \"Royalty should be between 0 - 100%.\");\r\n        require(serialCurrentGroup[serial] < serialMaxGroup[serial], \"All groups of this serial have been published.\");\r\n        require(serialCurrentSupply[serial] < serialMaxSupply[serial], \"All tokens of this serial have been published.\");\r\n        \r\n        uint256 groupId = serialGroupStart[serial] + serialCurrentGroup[serial];\r\n        serialCurrentGroup[serial] ++;\r\n\r\n        uint256 tokenId = serialTokenStart[serial] + serialCurrentSupply[serial];\r\n        serialCurrentSupply[serial] += maxSupply;\r\n\r\n        groupStart[groupId] = tokenId;\r\n        groupMaxSupply[groupId] = maxSupply;\r\n        _groupURI[groupId] = _tokenURI;\r\n        creatorOf[groupId] = to;\r\n        royaltyOf[groupId] = royalty;\r\n\r\n        _mint(to, tokenId);\r\n        groupOf[tokenId] = groupId;\r\n        groupCurrentSupply[groupId] = 1;\r\n        return groupId;\r\n    }\r\n\r\n    function claim(address to, uint256 groupId)\r\n        public \r\n        returns (uint256)\r\n    {\r\n        require(groupCurrentSupply[groupId] < groupMaxSupply[groupId], \"All tokens of this group has been minted.\");\r\n        uint256 startId = groupStart[groupId];\r\n        require(ownerOf(startId) == msg.sender || getApproved(startId) == msg.sender, \"You don't have the access to mint this token.\");\r\n        uint256 newtokenId = startId + groupCurrentSupply[groupId];\r\n\r\n        _mint(to, newtokenId);\r\n        groupOf[newtokenId] = groupId;\r\n        groupCurrentSupply[groupId] += 1;\r\n        return newtokenId;\r\n    }\r\n\r\n    function tokenURI(uint256 tokenId)\r\n        public view override\r\n        returns (string memory)\r\n    {\r\n        uint256 groupId = groupOf[tokenId];\r\n        return _groupURI[groupId];\r\n    }\r\n}",
  "sourcePath": "C:/Users/Weixuan/Documents/github/nft-upgradeable/contracts/MyCollectible.sol",
  "compiler": {
    "name": "solc",
    "version": "0.8.0+commit.c7dfd78e.Emscripten.clang"
  },
  "schemaVersion": "3.4.0",
  "updatedAt": "2021-06-09T09:34:34.787Z",
  "networkType": "ethereum",
  "devdoc": {
    "kind": "dev",
    "methods": {
      "approve(address,uint256)": {
        "details": "See {IERC721-approve}."
      },
      "balanceOf(address)": {
        "details": "See {IERC721-balanceOf}."
      },
      "getApproved(uint256)": {
        "details": "See {IERC721-getApproved}."
      },
      "isApprovedForAll(address,address)": {
        "details": "See {IERC721-isApprovedForAll}."
      },
      "name()": {
        "details": "See {IERC721Metadata-name}."
      },
      "owner()": {
        "details": "Returns the address of the current owner."
      },
      "ownerOf(uint256)": {
        "details": "See {IERC721-ownerOf}."
      },
      "renounceOwnership()": {
        "details": "Leaves the contract without owner. It will not be possible to call `onlyOwner` functions anymore. Can only be called by the current owner. NOTE: Renouncing ownership will leave the contract without an owner, thereby removing any functionality that is only available to the owner."
      },
      "safeTransferFrom(address,address,uint256)": {
        "details": "See {IERC721-safeTransferFrom}."
      },
      "safeTransferFrom(address,address,uint256,bytes)": {
        "details": "See {IERC721-safeTransferFrom}."
      },
      "setApprovalForAll(address,bool)": {
        "details": "See {IERC721-setApprovalForAll}."
      },
      "supportsInterface(bytes4)": {
        "details": "See {IERC165-supportsInterface}."
      },
      "symbol()": {
        "details": "See {IERC721Metadata-symbol}."
      },
      "tokenByIndex(uint256)": {
        "details": "See {IERC721Enumerable-tokenByIndex}."
      },
      "tokenOfOwnerByIndex(address,uint256)": {
        "details": "See {IERC721Enumerable-tokenOfOwnerByIndex}."
      },
      "tokenURI(uint256)": {
        "details": "See {IERC721Metadata-tokenURI}."
      },
      "totalSupply()": {
        "details": "See {IERC721Enumerable-totalSupply}."
      },
      "transferFrom(address,address,uint256)": {
        "details": "See {IERC721-transferFrom}."
      },
      "transferOwnership(address)": {
        "details": "Transfers ownership of the contract to a new account (`newOwner`). Can only be called by the current owner."
      }
    },
    "version": 1
  },
  "userdoc": {
    "kind": "user",
    "methods": {},
    "version": 1
  }
}