{
  "contractName": "MyCollectible",
  "abi": [
    {
      "anonymous": false,
      "inputs": [
        {
          "indexed": true,
          "internalType": "address",
          "name": "owner",
          "type": "address"
        },
        {
          "indexed": true,
          "internalType": "address",
          "name": "approved",
          "type": "address"
        },
        {
          "indexed": true,
          "internalType": "uint256",
          "name": "tokenId",
          "type": "uint256"
        }
      ],
      "name": "Approval",
      "type": "event"
    },
    {
      "anonymous": false,
      "inputs": [
        {
          "indexed": true,
          "internalType": "address",
          "name": "owner",
          "type": "address"
        },
        {
          "indexed": true,
          "internalType": "address",
          "name": "operator",
          "type": "address"
        },
        {
          "indexed": false,
          "internalType": "bool",
          "name": "approved",
          "type": "bool"
        }
      ],
      "name": "ApprovalForAll",
      "type": "event"
    },
    {
      "anonymous": false,
      "inputs": [
        {
          "indexed": true,
          "internalType": "address",
          "name": "previousOwner",
          "type": "address"
        },
        {
          "indexed": true,
          "internalType": "address",
          "name": "newOwner",
          "type": "address"
        }
      ],
      "name": "OwnershipTransferred",
      "type": "event"
    },
    {
      "anonymous": false,
      "inputs": [
        {
          "indexed": true,
          "internalType": "address",
          "name": "from",
          "type": "address"
        },
        {
          "indexed": true,
          "internalType": "address",
          "name": "to",
          "type": "address"
        },
        {
          "indexed": true,
          "internalType": "uint256",
          "name": "tokenId",
          "type": "uint256"
        }
      ],
      "name": "Transfer",
      "type": "event"
    },
    {
      "inputs": [
        {
          "internalType": "address",
          "name": "to",
          "type": "address"
        },
        {
          "internalType": "uint256",
          "name": "tokenId",
          "type": "uint256"
        }
      ],
      "name": "approve",
      "outputs": [],
      "stateMutability": "nonpayable",
      "type": "function"
    },
    {
      "inputs": [
        {
          "internalType": "address",
          "name": "owner",
          "type": "address"
        }
      ],
      "name": "balanceOf",
      "outputs": [
        {
          "internalType": "uint256",
          "name": "",
          "type": "uint256"
        }
      ],
      "stateMutability": "view",
      "type": "function",
      "constant": true
    },
    {
      "inputs": [
        {
          "internalType": "uint256",
          "name": "",
          "type": "uint256"
        }
      ],
      "name": "creatorOf",
      "outputs": [
        {
          "internalType": "address",
          "name": "",
          "type": "address"
        }
      ],
      "stateMutability": "view",
      "type": "function",
      "constant": true
    },
    {
      "inputs": [
        {
          "internalType": "uint256",
          "name": "tokenId",
          "type": "uint256"
        }
      ],
      "name": "getApproved",
      "outputs": [
        {
          "internalType": "address",
          "name": "",
          "type": "address"
        }
      ],
      "stateMutability": "view",
      "type": "function",
      "constant": true
    },
    {
      "inputs": [
        {
          "internalType": "uint256",
          "name": "",
          "type": "uint256"
        }
      ],
      "name": "groupCurrentSupply",
      "outputs": [
        {
          "internalType": "uint256",
          "name": "",
          "type": "uint256"
        }
      ],
      "stateMutability": "view",
      "type": "function",
      "constant": true
    },
    {
      "inputs": [],
      "name": "groupIds",
      "outputs": [
        {
          "internalType": "uint256",
          "name": "_value",
          "type": "uint256"
        }
      ],
      "stateMutability": "view",
      "type": "function",
      "constant": true
    },
    {
      "inputs": [
        {
          "internalType": "uint256",
          "name": "",
          "type": "uint256"
        }
      ],
      "name": "groupMaxSupply",
      "outputs": [
        {
          "internalType": "uint256",
          "name": "",
          "type": "uint256"
        }
      ],
      "stateMutability": "view",
      "type": "function",
      "constant": true
    },
    {
      "inputs": [
        {
          "internalType": "uint256",
          "name": "",
          "type": "uint256"
        }
      ],
      "name": "groupOf",
      "outputs": [
        {
          "internalType": "uint256",
          "name": "",
          "type": "uint256"
        }
      ],
      "stateMutability": "view",
      "type": "function",
      "constant": true
    },
    {
      "inputs": [
        {
          "internalType": "uint256",
          "name": "",
          "type": "uint256"
        }
      ],
      "name": "groupStart",
      "outputs": [
        {
          "internalType": "uint256",
          "name": "",
          "type": "uint256"
        }
      ],
      "stateMutability": "view",
      "type": "function",
      "constant": true
    },
    {
      "inputs": [
        {
          "internalType": "address",
          "name": "owner",
          "type": "address"
        },
        {
          "internalType": "address",
          "name": "operator",
          "type": "address"
        }
      ],
      "name": "isApprovedForAll",
      "outputs": [
        {
          "internalType": "bool",
          "name": "",
          "type": "bool"
        }
      ],
      "stateMutability": "view",
      "type": "function",
      "constant": true
    },
    {
      "inputs": [],
      "name": "name",
      "outputs": [
        {
          "internalType": "string",
          "name": "",
          "type": "string"
        }
      ],
      "stateMutability": "view",
      "type": "function",
      "constant": true
    },
    {
      "inputs": [],
      "name": "owner",
      "outputs": [
        {
          "internalType": "address",
          "name": "",
          "type": "address"
        }
      ],
      "stateMutability": "view",
      "type": "function",
      "constant": true
    },
    {
      "inputs": [
        {
          "internalType": "uint256",
          "name": "tokenId",
          "type": "uint256"
        }
      ],
      "name": "ownerOf",
      "outputs": [
        {
          "internalType": "address",
          "name": "",
          "type": "address"
        }
      ],
      "stateMutability": "view",
      "type": "function",
      "constant": true
    },
    {
      "inputs": [],
      "name": "renounceOwnership",
      "outputs": [],
      "stateMutability": "nonpayable",
      "type": "function"
    },
    {
      "inputs": [
        {
          "internalType": "address",
          "name": "from",
          "type": "address"
        },
        {
          "internalType": "address",
          "name": "to",
          "type": "address"
        },
        {
          "internalType": "uint256",
          "name": "tokenId",
          "type": "uint256"
        }
      ],
      "name": "safeTransferFrom",
      "outputs": [],
      "stateMutability": "nonpayable",
      "type": "function"
    },
    {
      "inputs": [
        {
          "internalType": "address",
          "name": "from",
          "type": "address"
        },
        {
          "internalType": "address",
          "name": "to",
          "type": "address"
        },
        {
          "internalType": "uint256",
          "name": "tokenId",
          "type": "uint256"
        },
        {
          "internalType": "bytes",
          "name": "_data",
          "type": "bytes"
        }
      ],
      "name": "safeTransferFrom",
      "outputs": [],
      "stateMutability": "nonpayable",
      "type": "function"
    },
    {
      "inputs": [
        {
          "internalType": "address",
          "name": "operator",
          "type": "address"
        },
        {
          "internalType": "bool",
          "name": "approved",
          "type": "bool"
        }
      ],
      "name": "setApprovalForAll",
      "outputs": [],
      "stateMutability": "nonpayable",
      "type": "function"
    },
    {
      "inputs": [
        {
          "internalType": "bytes4",
          "name": "interfaceId",
          "type": "bytes4"
        }
      ],
      "name": "supportsInterface",
      "outputs": [
        {
          "internalType": "bool",
          "name": "",
          "type": "bool"
        }
      ],
      "stateMutability": "view",
      "type": "function",
      "constant": true
    },
    {
      "inputs": [],
      "name": "symbol",
      "outputs": [
        {
          "internalType": "string",
          "name": "",
          "type": "string"
        }
      ],
      "stateMutability": "view",
      "type": "function",
      "constant": true
    },
    {
      "inputs": [
        {
          "internalType": "uint256",
          "name": "index",
          "type": "uint256"
        }
      ],
      "name": "tokenByIndex",
      "outputs": [
        {
          "internalType": "uint256",
          "name": "",
          "type": "uint256"
        }
      ],
      "stateMutability": "view",
      "type": "function",
      "constant": true
    },
    {
      "inputs": [
        {
          "internalType": "address",
          "name": "owner",
          "type": "address"
        },
        {
          "internalType": "uint256",
          "name": "index",
          "type": "uint256"
        }
      ],
      "name": "tokenOfOwnerByIndex",
      "outputs": [
        {
          "internalType": "uint256",
          "name": "",
          "type": "uint256"
        }
      ],
      "stateMutability": "view",
      "type": "function",
      "constant": true
    },
    {
      "inputs": [],
      "name": "totalSupply",
      "outputs": [
        {
          "internalType": "uint256",
          "name": "",
          "type": "uint256"
        }
      ],
      "stateMutability": "view",
      "type": "function",
      "constant": true
    },
    {
      "inputs": [
        {
          "internalType": "address",
          "name": "from",
          "type": "address"
        },
        {
          "internalType": "address",
          "name": "to",
          "type": "address"
        },
        {
          "internalType": "uint256",
          "name": "tokenId",
          "type": "uint256"
        }
      ],
      "name": "transferFrom",
      "outputs": [],
      "stateMutability": "nonpayable",
      "type": "function"
    },
    {
      "inputs": [
        {
          "internalType": "address",
          "name": "newOwner",
          "type": "address"
        }
      ],
      "name": "transferOwnership",
      "outputs": [],
      "stateMutability": "nonpayable",
      "type": "function"
    },
    {
      "inputs": [],
      "name": "initialize",
      "outputs": [],
      "stateMutability": "nonpayable",
      "type": "function"
    },
    {
      "inputs": [
        {
          "internalType": "address",
          "name": "to",
          "type": "address"
        },
        {
          "internalType": "uint256",
          "name": "maxSupply",
          "type": "uint256"
        },
        {
          "internalType": "string",
          "name": "_tokenURI",
          "type": "string"
        }
      ],
      "name": "publish",
      "outputs": [
        {
          "internalType": "uint256",
          "name": "",
          "type": "uint256"
        }
      ],
      "stateMutability": "nonpayable",
      "type": "function"
    },
    {
      "inputs": [
        {
          "internalType": "address",
          "name": "to",
          "type": "address"
        },
        {
          "internalType": "uint256",
          "name": "groupId",
          "type": "uint256"
        }
      ],
      "name": "claim",
      "outputs": [
        {
          "internalType": "uint256",
          "name": "",
          "type": "uint256"
        }
      ],
      "stateMutability": "nonpayable",
      "type": "function"
    },
    {
      "inputs": [
        {
          "internalType": "uint256",
          "name": "tokenId",
          "type": "uint256"
        }
      ],
      "name": "tokenURI",
      "outputs": [
        {
          "internalType": "string",
          "name": "",
          "type": "string"
        }
      ],
      "stateMutability": "view",
      "type": "function",
      "constant": true
    }
  ],
  "bytecode": "0x608060405234801561001057600080fd5b50613f69806100206000396000f3fe608060405234801561001057600080fd5b50600436106101c45760003560e01c8063715018a6116100f9578063a22cb46511610097578063c87b56dd11610071578063c87b56dd14610551578063cbeea4bd14610581578063e985e9c51461059f578063f2fde38b146105cf576101c4565b8063a22cb465146104e9578063aad3ec9614610505578063b88d4fde14610535576101c4565b80638129fc1c116100d35780638129fc1c146104735780638524d9fb1461047d5780638da5cb5b146104ad57806395d89b41146104cb576101c4565b8063715018a614610409578063771159f8146104135780637c1b718814610443576101c4565b806342842e0e11610166578063589a174311610140578063589a1743146103495780636352211e146103795780636d780e6b146103a957806370a08231146103d9576101c4565b806342842e0e146102cd5780634f6ccce7146102e9578063503ae18714610319576101c4565b8063095ea7b3116101a2578063095ea7b31461024757806318160ddd1461026357806323b872dd146102815780632f745c591461029d576101c4565b806301ffc9a7146101c957806306fdde03146101f9578063081812fc14610217575b600080fd5b6101e360048036038101906101de9190613045565b6105eb565b6040516101f09190613926565b60405180910390f35b610201610665565b60405161020e9190613941565b60405180910390f35b610231600480360381019061022c9190613097565b6106f7565b60405161023e91906138bf565b60405180910390f35b610261600480360381019061025c9190612fa2565b61077c565b005b61026b610894565b6040516102789190613be3565b60405180910390f35b61029b60048036038101906102969190612e9c565b6108a1565b005b6102b760048036038101906102b29190612fa2565b610901565b6040516102c49190613be3565b60405180910390f35b6102e760048036038101906102e29190612e9c565b6109a6565b005b61030360048036038101906102fe9190613097565b6109c6565b6040516103109190613be3565b60405180910390f35b610333600480360381019061032e9190613097565b610a5d565b6040516103409190613be3565b60405180910390f35b610363600480360381019061035e9190613097565b610a75565b60405161037091906138bf565b60405180910390f35b610393600480360381019061038e9190613097565b610aa8565b6040516103a091906138bf565b60405180910390f35b6103c360048036038101906103be9190613097565b610b5a565b6040516103d09190613be3565b60405180910390f35b6103f360048036038101906103ee9190612e37565b610b73565b6040516104009190613be3565b60405180910390f35b610411610c2b565b005b61042d60048036038101906104289190612fde565b610d68565b60405161043a9190613be3565b60405180910390f35b61045d60048036038101906104589190613097565b610f1e565b60405161046a9190613be3565b60405180910390f35b61047b610f37565b005b61049760048036038101906104929190613097565b61108c565b6040516104a49190613be3565b60405180910390f35b6104b56110a5565b6040516104c291906138bf565b60405180910390f35b6104d36110cf565b6040516104e09190613941565b60405180910390f35b61050360048036038101906104fe9190612f66565b611161565b005b61051f600480360381019061051a9190612fa2565b6112e2565b60405161052c9190613be3565b60405180910390f35b61054f600480360381019061054a9190612eeb565b611498565b005b61056b60048036038101906105669190613097565b6114fa565b6040516105789190613941565b60405180910390f35b6105896115b8565b6040516105969190613be3565b60405180910390f35b6105b960048036038101906105b49190612e60565b6115c4565b6040516105c69190613926565b60405180910390f35b6105e960048036038101906105e49190612e37565b611658565b005b60007f780e9d63000000000000000000000000000000000000000000000000000000007bffffffffffffffffffffffffffffffffffffffffffffffffffffffff1916827bffffffffffffffffffffffffffffffffffffffffffffffffffffffff1916148061065e575061065d82611804565b5b9050919050565b60606065805461067490613e07565b80601f01602080910402602001604051908101604052809291908181526020018280546106a090613e07565b80156106ed5780601f106106c2576101008083540402835291602001916106ed565b820191906000526020600020905b8154815290600101906020018083116106d057829003601f168201915b5050505050905090565b6000610702826118e6565b610741576040517f08c379a000000000000000000000000000000000000000000000000000000000815260040161073890613b03565b60405180910390fd5b6069600083815260200190815260200160002060009054906101000a900473ffffffffffffffffffffffffffffffffffffffff169050919050565b600061078782610aa8565b90508073ffffffffffffffffffffffffffffffffffffffff168373ffffffffffffffffffffffffffffffffffffffff1614156107f8576040517f08c379a00000000000000000000000000000000000000000000000000000000081526004016107ef90613b83565b60405180910390fd5b8073ffffffffffffffffffffffffffffffffffffffff16610817611952565b73ffffffffffffffffffffffffffffffffffffffff161480610846575061084581610840611952565b6115c4565b5b610885576040517f08c379a000000000000000000000000000000000000000000000000000000000815260040161087c90613a63565b60405180910390fd5b61088f838361195a565b505050565b6000609980549050905090565b6108b26108ac611952565b82611a13565b6108f1576040517f08c379a00000000000000000000000000000000000000000000000000000000081526004016108e890613ba3565b60405180910390fd5b6108fc838383611af1565b505050565b600061090c83610b73565b821061094d576040517f08c379a000000000000000000000000000000000000000000000000000000000815260040161094490613963565b60405180910390fd5b609760008473ffffffffffffffffffffffffffffffffffffffff1673ffffffffffffffffffffffffffffffffffffffff168152602001908152602001600020600083815260200190815260200160002054905092915050565b6109c183838360405180602001604052806000815250611498565b505050565b60006109d0610894565b8210610a11576040517f08c379a0000000000000000000000000000000000000000000000000000000008152600401610a0890613bc3565b60405180910390fd5b60998281548110610a4b577f4e487b7100000000000000000000000000000000000000000000000000000000600052603260045260246000fd5b90600052602060002001549050919050565b60fe6020528060005260406000206000915090505481565b60fd6020528060005260406000206000915054906101000a900473ffffffffffffffffffffffffffffffffffffffff1681565b6000806067600084815260200190815260200160002060009054906101000a900473ffffffffffffffffffffffffffffffffffffffff169050600073ffffffffffffffffffffffffffffffffffffffff168173ffffffffffffffffffffffffffffffffffffffff161415610b51576040517f08c379a0000000000000000000000000000000000000000000000000000000008152600401610b4890613aa3565b60405180910390fd5b80915050919050565b6101006020528060005260406000206000915090505481565b60008073ffffffffffffffffffffffffffffffffffffffff168273ffffffffffffffffffffffffffffffffffffffff161415610be4576040517f08c379a0000000000000000000000000000000000000000000000000000000008152600401610bdb90613a83565b60405180910390fd5b606860008373ffffffffffffffffffffffffffffffffffffffff1673ffffffffffffffffffffffffffffffffffffffff168152602001908152602001600020549050919050565b610c33611952565b73ffffffffffffffffffffffffffffffffffffffff16610c516110a5565b73ffffffffffffffffffffffffffffffffffffffff1614610ca7576040517f08c379a0000000000000000000000000000000000000000000000000000000008152600401610c9e90613b23565b60405180910390fd5b600073ffffffffffffffffffffffffffffffffffffffff1660c960009054906101000a900473ffffffffffffffffffffffffffffffffffffffff1673ffffffffffffffffffffffffffffffffffffffff167f8be0079c531659141344cd1fd0a4f28419497f9722a3daafe3b4186f6b6457e060405160405180910390a3600060c960006101000a81548173ffffffffffffffffffffffffffffffffffffffff021916908373ffffffffffffffffffffffffffffffffffffffff160217905550565b6000610d72611952565b73ffffffffffffffffffffffffffffffffffffffff16610d906110a5565b73ffffffffffffffffffffffffffffffffffffffff1614610de6576040517f08c379a0000000000000000000000000000000000000000000000000000000008152600401610ddd90613b23565b60405180910390fd5b610df060fb611d4d565b6000610dfc60fb611d63565b90506000600160fc54610e0f9190613cc7565b905080610100600084815260200190815260200160002081905550846101026000848152602001908152602001600020819055508360ff60008481526020019081526020016000209080519060200190610e6a929190612c5b565b508560fd600084815260200190815260200160002060006101000a81548173ffffffffffffffffffffffffffffffffffffffff021916908373ffffffffffffffffffffffffffffffffffffffff1602179055508460fc6000828254610ecf9190613cc7565b92505081905550610ee08682611d71565b8160fe600083815260200190815260200160002081905550600161010160008481526020019081526020016000208190555081925050509392505050565b6101026020528060005260406000206000915090505481565b600060019054906101000a900460ff1680610f5d575060008054906101000a900460ff16155b610f9c576040517f08c379a0000000000000000000000000000000000000000000000000000000008152600401610f9390613ac3565b60405180910390fd5b60008060019054906101000a900460ff161590508015610fec576001600060016101000a81548160ff02191690831515021790555060016000806101000a81548160ff0219169083151502179055505b6110606040518060400160405280600d81526020017f4d79436f6c6c65637469626c65000000000000000000000000000000000000008152506040518060400160405280600381526020017f4d434f0000000000000000000000000000000000000000000000000000000000815250611f3f565b611068612034565b80156110895760008060016101000a81548160ff0219169083151502179055505b50565b6101016020528060005260406000206000915090505481565b600060c960009054906101000a900473ffffffffffffffffffffffffffffffffffffffff16905090565b6060606680546110de90613e07565b80601f016020809104026020016040519081016040528092919081815260200182805461110a90613e07565b80156111575780601f1061112c57610100808354040283529160200191611157565b820191906000526020600020905b81548152906001019060200180831161113a57829003601f168201915b5050505050905090565b611169611952565b73ffffffffffffffffffffffffffffffffffffffff168273ffffffffffffffffffffffffffffffffffffffff1614156111d7576040517f08c379a00000000000000000000000000000000000000000000000000000000081526004016111ce90613a23565b60405180910390fd5b80606a60006111e4611952565b73ffffffffffffffffffffffffffffffffffffffff1673ffffffffffffffffffffffffffffffffffffffff16815260200190815260200160002060008473ffffffffffffffffffffffffffffffffffffffff1673ffffffffffffffffffffffffffffffffffffffff16815260200190815260200160002060006101000a81548160ff0219169083151502179055508173ffffffffffffffffffffffffffffffffffffffff16611291611952565b73ffffffffffffffffffffffffffffffffffffffff167f17307eab39ab6107e8899845ad3d59bd9653f200f220920489ca2b5937696c31836040516112d69190613926565b60405180910390a35050565b60006101026000838152602001908152602001600020546101016000848152602001908152602001600020541061134e576040517f08c379a000000000000000000000000000000000000000000000000000000000815260040161134590613b63565b60405180910390fd5b600061010060008481526020019081526020016000205490503373ffffffffffffffffffffffffffffffffffffffff1661138782610aa8565b73ffffffffffffffffffffffffffffffffffffffff1614806113dc57503373ffffffffffffffffffffffffffffffffffffffff166113c4826106f7565b73ffffffffffffffffffffffffffffffffffffffff16145b61141b576040517f08c379a0000000000000000000000000000000000000000000000000000000008152600401611412906139e3565b60405180910390fd5b60006101016000858152602001908152602001600020548261143d9190613cc7565b90506114498582611d71565b8360fe6000838152602001908152602001600020819055506001610101600086815260200190815260200160002060008282546114869190613cc7565b92505081905550809250505092915050565b6114a96114a3611952565b83611a13565b6114e8576040517f08c379a00000000000000000000000000000000000000000000000000000000081526004016114df90613ba3565b60405180910390fd5b6114f48484848461211d565b50505050565b6060600060fe600084815260200190815260200160002054905060ff6000828152602001908152602001600020805461153290613e07565b80601f016020809104026020016040519081016040528092919081815260200182805461155e90613e07565b80156115ab5780601f10611580576101008083540402835291602001916115ab565b820191906000526020600020905b81548152906001019060200180831161158e57829003601f168201915b5050505050915050919050565b60fb8060000154905081565b6000606a60008473ffffffffffffffffffffffffffffffffffffffff1673ffffffffffffffffffffffffffffffffffffffff16815260200190815260200160002060008373ffffffffffffffffffffffffffffffffffffffff1673ffffffffffffffffffffffffffffffffffffffff16815260200190815260200160002060009054906101000a900460ff16905092915050565b611660611952565b73ffffffffffffffffffffffffffffffffffffffff1661167e6110a5565b73ffffffffffffffffffffffffffffffffffffffff16146116d4576040517f08c379a00000000000000000000000000000000000000000000000000000000081526004016116cb90613b23565b60405180910390fd5b600073ffffffffffffffffffffffffffffffffffffffff168173ffffffffffffffffffffffffffffffffffffffff161415611744576040517f08c379a000000000000000000000000000000000000000000000000000000000815260040161173b906139a3565b60405180910390fd5b8073ffffffffffffffffffffffffffffffffffffffff1660c960009054906101000a900473ffffffffffffffffffffffffffffffffffffffff1673ffffffffffffffffffffffffffffffffffffffff167f8be0079c531659141344cd1fd0a4f28419497f9722a3daafe3b4186f6b6457e060405160405180910390a38060c960006101000a81548173ffffffffffffffffffffffffffffffffffffffff021916908373ffffffffffffffffffffffffffffffffffffffff16021790555050565b60007f80ac58cd000000000000000000000000000000000000000000000000000000007bffffffffffffffffffffffffffffffffffffffffffffffffffffffff1916827bffffffffffffffffffffffffffffffffffffffffffffffffffffffff191614806118cf57507f5b5e139f000000000000000000000000000000000000000000000000000000007bffffffffffffffffffffffffffffffffffffffffffffffffffffffff1916827bffffffffffffffffffffffffffffffffffffffffffffffffffffffff1916145b806118df57506118de82612179565b5b9050919050565b60008073ffffffffffffffffffffffffffffffffffffffff166067600084815260200190815260200160002060009054906101000a900473ffffffffffffffffffffffffffffffffffffffff1673ffffffffffffffffffffffffffffffffffffffff1614159050919050565b600033905090565b816069600083815260200190815260200160002060006101000a81548173ffffffffffffffffffffffffffffffffffffffff021916908373ffffffffffffffffffffffffffffffffffffffff160217905550808273ffffffffffffffffffffffffffffffffffffffff166119cd83610aa8565b73ffffffffffffffffffffffffffffffffffffffff167f8c5be1e5ebec7d5bd14f71427d1e84f3dd0314c0f7b2291e5b200ac8c7c3b92560405160405180910390a45050565b6000611a1e826118e6565b611a5d576040517f08c379a0000000000000000000000000000000000000000000000000000000008152600401611a5490613a43565b60405180910390fd5b6000611a6883610aa8565b90508073ffffffffffffffffffffffffffffffffffffffff168473ffffffffffffffffffffffffffffffffffffffff161480611ad757508373ffffffffffffffffffffffffffffffffffffffff16611abf846106f7565b73ffffffffffffffffffffffffffffffffffffffff16145b80611ae85750611ae781856115c4565b5b91505092915050565b8273ffffffffffffffffffffffffffffffffffffffff16611b1182610aa8565b73ffffffffffffffffffffffffffffffffffffffff1614611b67576040517f08c379a0000000000000000000000000000000000000000000000000000000008152600401611b5e90613b43565b60405180910390fd5b600073ffffffffffffffffffffffffffffffffffffffff168273ffffffffffffffffffffffffffffffffffffffff161415611bd7576040517f08c379a0000000000000000000000000000000000000000000000000000000008152600401611bce90613a03565b60405180910390fd5b611be28383836121e3565b611bed60008261195a565b6001606860008573ffffffffffffffffffffffffffffffffffffffff1673ffffffffffffffffffffffffffffffffffffffff1681526020019081526020016000206000828254611c3d9190613d1d565b925050819055506001606860008473ffffffffffffffffffffffffffffffffffffffff1673ffffffffffffffffffffffffffffffffffffffff1681526020019081526020016000206000828254611c949190613cc7565b92505081905550816067600083815260200190815260200160002060006101000a81548173ffffffffffffffffffffffffffffffffffffffff021916908373ffffffffffffffffffffffffffffffffffffffff160217905550808273ffffffffffffffffffffffffffffffffffffffff168473ffffffffffffffffffffffffffffffffffffffff167fddf252ad1be2c89b69c2b068fc378daa952ba7f163c4a11628f55a4df523b3ef60405160405180910390a4505050565b6001816000016000828254019250508190555050565b600081600001549050919050565b600073ffffffffffffffffffffffffffffffffffffffff168273ffffffffffffffffffffffffffffffffffffffff161415611de1576040517f08c379a0000000000000000000000000000000000000000000000000000000008152600401611dd890613ae3565b60405180910390fd5b611dea816118e6565b15611e2a576040517f08c379a0000000000000000000000000000000000000000000000000000000008152600401611e21906139c3565b60405180910390fd5b611e36600083836121e3565b6001606860008473ffffffffffffffffffffffffffffffffffffffff1673ffffffffffffffffffffffffffffffffffffffff1681526020019081526020016000206000828254611e869190613cc7565b92505081905550816067600083815260200190815260200160002060006101000a81548173ffffffffffffffffffffffffffffffffffffffff021916908373ffffffffffffffffffffffffffffffffffffffff160217905550808273ffffffffffffffffffffffffffffffffffffffff16600073ffffffffffffffffffffffffffffffffffffffff167fddf252ad1be2c89b69c2b068fc378daa952ba7f163c4a11628f55a4df523b3ef60405160405180910390a45050565b600060019054906101000a900460ff1680611f65575060008054906101000a900460ff16155b611fa4576040517f08c379a0000000000000000000000000000000000000000000000000000000008152600401611f9b90613ac3565b60405180910390fd5b60008060019054906101000a900460ff161590508015611ff4576001600060016101000a81548160ff02191690831515021790555060016000806101000a81548160ff0219169083151502179055505b611ffc6122f7565b6120046123d0565b61200e83836124a9565b801561202f5760008060016101000a81548160ff0219169083151502179055505b505050565b600060019054906101000a900460ff168061205a575060008054906101000a900460ff16155b612099576040517f08c379a000000000000000000000000000000000000000000000000000000000815260040161209090613ac3565b60405180910390fd5b60008060019054906101000a900460ff1615905080156120e9576001600060016101000a81548160ff02191690831515021790555060016000806101000a81548160ff0219169083151502179055505b6120f16122f7565b6120f96125b2565b801561211a5760008060016101000a81548160ff0219169083151502179055505b50565b612128848484611af1565b61213484848484612734565b612173576040517f08c379a000000000000000000000000000000000000000000000000000000000815260040161216a90613983565b60405180910390fd5b50505050565b60007f01ffc9a7000000000000000000000000000000000000000000000000000000007bffffffffffffffffffffffffffffffffffffffffffffffffffffffff1916827bffffffffffffffffffffffffffffffffffffffffffffffffffffffff1916149050919050565b6121ee8383836128cb565b600073ffffffffffffffffffffffffffffffffffffffff168373ffffffffffffffffffffffffffffffffffffffff1614156122315761222c816128d0565b612270565b8173ffffffffffffffffffffffffffffffffffffffff168373ffffffffffffffffffffffffffffffffffffffff161461226f5761226e8382612919565b5b5b600073ffffffffffffffffffffffffffffffffffffffff168273ffffffffffffffffffffffffffffffffffffffff1614156122b3576122ae81612a86565b6122f2565b8273ffffffffffffffffffffffffffffffffffffffff168273ffffffffffffffffffffffffffffffffffffffff16146122f1576122f08282612bc9565b5b5b505050565b600060019054906101000a900460ff168061231d575060008054906101000a900460ff16155b61235c576040517f08c379a000000000000000000000000000000000000000000000000000000000815260040161235390613ac3565b60405180910390fd5b60008060019054906101000a900460ff1615905080156123ac576001600060016101000a81548160ff02191690831515021790555060016000806101000a81548160ff0219169083151502179055505b80156123cd5760008060016101000a81548160ff0219169083151502179055505b50565b600060019054906101000a900460ff16806123f6575060008054906101000a900460ff16155b612435576040517f08c379a000000000000000000000000000000000000000000000000000000000815260040161242c90613ac3565b60405180910390fd5b60008060019054906101000a900460ff161590508015612485576001600060016101000a81548160ff02191690831515021790555060016000806101000a81548160ff0219169083151502179055505b80156124a65760008060016101000a81548160ff0219169083151502179055505b50565b600060019054906101000a900460ff16806124cf575060008054906101000a900460ff16155b61250e576040517f08c379a000000000000000000000000000000000000000000000000000000000815260040161250590613ac3565b60405180910390fd5b60008060019054906101000a900460ff16159050801561255e576001600060016101000a81548160ff02191690831515021790555060016000806101000a81548160ff0219169083151502179055505b8260659080519060200190612574929190612c5b565b50816066908051906020019061258b929190612c5b565b5080156125ad5760008060016101000a81548160ff0219169083151502179055505b505050565b600060019054906101000a900460ff16806125d8575060008054906101000a900460ff16155b612617576040517f08c379a000000000000000000000000000000000000000000000000000000000815260040161260e90613ac3565b60405180910390fd5b60008060019054906101000a900460ff161590508015612667576001600060016101000a81548160ff02191690831515021790555060016000806101000a81548160ff0219169083151502179055505b6000612671611952565b90508060c960006101000a81548173ffffffffffffffffffffffffffffffffffffffff021916908373ffffffffffffffffffffffffffffffffffffffff1602179055508073ffffffffffffffffffffffffffffffffffffffff16600073ffffffffffffffffffffffffffffffffffffffff167f8be0079c531659141344cd1fd0a4f28419497f9722a3daafe3b4186f6b6457e060405160405180910390a35080156127315760008060016101000a81548160ff0219169083151502179055505b50565b60006127558473ffffffffffffffffffffffffffffffffffffffff16612c48565b156128be578373ffffffffffffffffffffffffffffffffffffffff1663150b7a0261277e611952565b8786866040518563ffffffff1660e01b81526004016127a094939291906138da565b602060405180830381600087803b1580156127ba57600080fd5b505af19250505080156127eb57506040513d601f19601f820116820180604052508101906127e8919061306e565b60015b61286e573d806000811461281b576040519150601f19603f3d011682016040523d82523d6000602084013e612820565b606091505b50600081511415612866576040517f08c379a000000000000000000000000000000000000000000000000000000000815260040161285d90613983565b60405180910390fd5b805181602001fd5b63150b7a0260e01b7bffffffffffffffffffffffffffffffffffffffffffffffffffffffff1916817bffffffffffffffffffffffffffffffffffffffffffffffffffffffff1916149150506128c3565b600190505b949350505050565b505050565b609980549050609a600083815260200190815260200160002081905550609981908060018154018082558091505060019003906000526020600020016000909190919091505550565b6000600161292684610b73565b6129309190613d1d565b9050600060986000848152602001908152602001600020549050818114612a15576000609760008673ffffffffffffffffffffffffffffffffffffffff1673ffffffffffffffffffffffffffffffffffffffff168152602001908152602001600020600084815260200190815260200160002054905080609760008773ffffffffffffffffffffffffffffffffffffffff1673ffffffffffffffffffffffffffffffffffffffff168152602001908152602001600020600084815260200190815260200160002081905550816098600083815260200190815260200160002081905550505b6098600084815260200190815260200160002060009055609760008573ffffffffffffffffffffffffffffffffffffffff1673ffffffffffffffffffffffffffffffffffffffff16815260200190815260200160002060008381526020019081526020016000206000905550505050565b60006001609980549050612a9a9190613d1d565b90506000609a6000848152602001908152602001600020549050600060998381548110612af0577f4e487b7100000000000000000000000000000000000000000000000000000000600052603260045260246000fd5b906000526020600020015490508060998381548110612b38577f4e487b7100000000000000000000000000000000000000000000000000000000600052603260045260246000fd5b906000526020600020018190555081609a600083815260200190815260200160002081905550609a6000858152602001908152602001600020600090556099805480612bad577f4e487b7100000000000000000000000000000000000000000000000000000000600052603160045260246000fd5b6001900381819060005260206000200160009055905550505050565b6000612bd483610b73565b905081609760008573ffffffffffffffffffffffffffffffffffffffff1673ffffffffffffffffffffffffffffffffffffffff168152602001908152602001600020600083815260200190815260200160002081905550806098600084815260200190815260200160002081905550505050565b600080823b905060008111915050919050565b828054612c6790613e07565b90600052602060002090601f016020900481019282612c895760008555612cd0565b82601f10612ca257805160ff1916838001178555612cd0565b82800160010185558215612cd0579182015b82811115612ccf578251825591602001919060010190612cb4565b5b509050612cdd9190612ce1565b5090565b5b80821115612cfa576000816000905550600101612ce2565b5090565b6000612d11612d0c84613c2f565b613bfe565b905082815260208101848484011115612d2957600080fd5b612d34848285613dc5565b509392505050565b6000612d4f612d4a84613c5f565b613bfe565b905082815260208101848484011115612d6757600080fd5b612d72848285613dc5565b509392505050565b600081359050612d8981613ed7565b92915050565b600081359050612d9e81613eee565b92915050565b600081359050612db381613f05565b92915050565b600081519050612dc881613f05565b92915050565b600082601f830112612ddf57600080fd5b8135612def848260208601612cfe565b91505092915050565b600082601f830112612e0957600080fd5b8135612e19848260208601612d3c565b91505092915050565b600081359050612e3181613f1c565b92915050565b600060208284031215612e4957600080fd5b6000612e5784828501612d7a565b91505092915050565b60008060408385031215612e7357600080fd5b6000612e8185828601612d7a565b9250506020612e9285828601612d7a565b9150509250929050565b600080600060608486031215612eb157600080fd5b6000612ebf86828701612d7a565b9350506020612ed086828701612d7a565b9250506040612ee186828701612e22565b9150509250925092565b60008060008060808587031215612f0157600080fd5b6000612f0f87828801612d7a565b9450506020612f2087828801612d7a565b9350506040612f3187828801612e22565b925050606085013567ffffffffffffffff811115612f4e57600080fd5b612f5a87828801612dce565b91505092959194509250565b60008060408385031215612f7957600080fd5b6000612f8785828601612d7a565b9250506020612f9885828601612d8f565b9150509250929050565b60008060408385031215612fb557600080fd5b6000612fc385828601612d7a565b9250506020612fd485828601612e22565b9150509250929050565b600080600060608486031215612ff357600080fd5b600061300186828701612d7a565b935050602061301286828701612e22565b925050604084013567ffffffffffffffff81111561302f57600080fd5b61303b86828701612df8565b9150509250925092565b60006020828403121561305757600080fd5b600061306584828501612da4565b91505092915050565b60006020828403121561308057600080fd5b600061308e84828501612db9565b91505092915050565b6000602082840312156130a957600080fd5b60006130b784828501612e22565b91505092915050565b6130c981613d51565b82525050565b6130d881613d63565b82525050565b60006130e982613c8f565b6130f38185613ca5565b9350613103818560208601613dd4565b61310c81613ec6565b840191505092915050565b600061312282613c9a565b61312c8185613cb6565b935061313c818560208601613dd4565b61314581613ec6565b840191505092915050565b600061315d602b83613cb6565b91507f455243373231456e756d657261626c653a206f776e657220696e646578206f7560008301527f74206f6620626f756e64730000000000000000000000000000000000000000006020830152604082019050919050565b60006131c3603283613cb6565b91507f4552433732313a207472616e7366657220746f206e6f6e20455243373231526560008301527f63656976657220696d706c656d656e74657200000000000000000000000000006020830152604082019050919050565b6000613229602683613cb6565b91507f4f776e61626c653a206e6577206f776e657220697320746865207a65726f206160008301527f64647265737300000000000000000000000000000000000000000000000000006020830152604082019050919050565b600061328f601c83613cb6565b91507f4552433732313a20746f6b656e20616c7265616479206d696e746564000000006000830152602082019050919050565b60006132cf602d83613cb6565b91507f596f7520646f6e27742068617665207468652061636365737320746f206d696e60008301527f74207468697320746f6b656e2e000000000000000000000000000000000000006020830152604082019050919050565b6000613335602483613cb6565b91507f4552433732313a207472616e7366657220746f20746865207a65726f2061646460008301527f72657373000000000000000000000000000000000000000000000000000000006020830152604082019050919050565b600061339b601983613cb6565b91507f4552433732313a20617070726f766520746f2063616c6c6572000000000000006000830152602082019050919050565b60006133db602c83613cb6565b91507f4552433732313a206f70657261746f7220717565727920666f72206e6f6e657860008301527f697374656e7420746f6b656e00000000000000000000000000000000000000006020830152604082019050919050565b6000613441603883613cb6565b91507f4552433732313a20617070726f76652063616c6c6572206973206e6f74206f7760008301527f6e6572206e6f7220617070726f76656420666f7220616c6c00000000000000006020830152604082019050919050565b60006134a7602a83613cb6565b91507f4552433732313a2062616c616e636520717565727920666f7220746865207a6560008301527f726f2061646472657373000000000000000000000000000000000000000000006020830152604082019050919050565b600061350d602983613cb6565b91507f4552433732313a206f776e657220717565727920666f72206e6f6e657869737460008301527f656e7420746f6b656e00000000000000000000000000000000000000000000006020830152604082019050919050565b6000613573602e83613cb6565b91507f496e697469616c697a61626c653a20636f6e747261637420697320616c72656160008301527f647920696e697469616c697a65640000000000000000000000000000000000006020830152604082019050919050565b60006135d9602083613cb6565b91507f4552433732313a206d696e7420746f20746865207a65726f20616464726573736000830152602082019050919050565b6000613619602c83613cb6565b91507f4552433732313a20617070726f76656420717565727920666f72206e6f6e657860008301527f697374656e7420746f6b656e00000000000000000000000000000000000000006020830152604082019050919050565b600061367f602083613cb6565b91507f4f776e61626c653a2063616c6c6572206973206e6f7420746865206f776e65726000830152602082019050919050565b60006136bf602983613cb6565b91507f4552433732313a207472616e73666572206f6620746f6b656e2074686174206960008301527f73206e6f74206f776e00000000000000000000000000000000000000000000006020830152604082019050919050565b6000613725602983613cb6565b91507f416c6c20746f6b656e73206f6620746869732067726f7570206861732062656560008301527f6e206d696e7465642e00000000000000000000000000000000000000000000006020830152604082019050919050565b600061378b602183613cb6565b91507f4552433732313a20617070726f76616c20746f2063757272656e74206f776e6560008301527f72000000000000000000000000000000000000000000000000000000000000006020830152604082019050919050565b60006137f1603183613cb6565b91507f4552433732313a207472616e736665722063616c6c6572206973206e6f74206f60008301527f776e6572206e6f7220617070726f7665640000000000000000000000000000006020830152604082019050919050565b6000613857602c83613cb6565b91507f455243373231456e756d657261626c653a20676c6f62616c20696e646578206f60008301527f7574206f6620626f756e647300000000000000000000000000000000000000006020830152604082019050919050565b6138b981613dbb565b82525050565b60006020820190506138d460008301846130c0565b92915050565b60006080820190506138ef60008301876130c0565b6138fc60208301866130c0565b61390960408301856138b0565b818103606083015261391b81846130de565b905095945050505050565b600060208201905061393b60008301846130cf565b92915050565b6000602082019050818103600083015261395b8184613117565b905092915050565b6000602082019050818103600083015261397c81613150565b9050919050565b6000602082019050818103600083015261399c816131b6565b9050919050565b600060208201905081810360008301526139bc8161321c565b9050919050565b600060208201905081810360008301526139dc81613282565b9050919050565b600060208201905081810360008301526139fc816132c2565b9050919050565b60006020820190508181036000830152613a1c81613328565b9050919050565b60006020820190508181036000830152613a3c8161338e565b9050919050565b60006020820190508181036000830152613a5c816133ce565b9050919050565b60006020820190508181036000830152613a7c81613434565b9050919050565b60006020820190508181036000830152613a9c8161349a565b9050919050565b60006020820190508181036000830152613abc81613500565b9050919050565b60006020820190508181036000830152613adc81613566565b9050919050565b60006020820190508181036000830152613afc816135cc565b9050919050565b60006020820190508181036000830152613b1c8161360c565b9050919050565b60006020820190508181036000830152613b3c81613672565b9050919050565b60006020820190508181036000830152613b5c816136b2565b9050919050565b60006020820190508181036000830152613b7c81613718565b9050919050565b60006020820190508181036000830152613b9c8161377e565b9050919050565b60006020820190508181036000830152613bbc816137e4565b9050919050565b60006020820190508181036000830152613bdc8161384a565b9050919050565b6000602082019050613bf860008301846138b0565b92915050565b6000604051905081810181811067ffffffffffffffff82111715613c2557613c24613e97565b5b8060405250919050565b600067ffffffffffffffff821115613c4a57613c49613e97565b5b601f19601f8301169050602081019050919050565b600067ffffffffffffffff821115613c7a57613c79613e97565b5b601f19601f8301169050602081019050919050565b600081519050919050565b600081519050919050565b600082825260208201905092915050565b600082825260208201905092915050565b6000613cd282613dbb565b9150613cdd83613dbb565b9250827fffffffffffffffffffffffffffffffffffffffffffffffffffffffffffffffff03821115613d1257613d11613e39565b5b828201905092915050565b6000613d2882613dbb565b9150613d3383613dbb565b925082821015613d4657613d45613e39565b5b828203905092915050565b6000613d5c82613d9b565b9050919050565b60008115159050919050565b60007fffffffff0000000000000000000000000000000000000000000000000000000082169050919050565b600073ffffffffffffffffffffffffffffffffffffffff82169050919050565b6000819050919050565b82818337600083830152505050565b60005b83811015613df2578082015181840152602081019050613dd7565b83811115613e01576000848401525b50505050565b60006002820490506001821680613e1f57607f821691505b60208210811415613e3357613e32613e68565b5b50919050565b7f4e487b7100000000000000000000000000000000000000000000000000000000600052601160045260246000fd5b7f4e487b7100000000000000000000000000000000000000000000000000000000600052602260045260246000fd5b7f4e487b7100000000000000000000000000000000000000000000000000000000600052604160045260246000fd5b6000601f19601f8301169050919050565b613ee081613d51565b8114613eeb57600080fd5b50565b613ef781613d63565b8114613f0257600080fd5b50565b613f0e81613d6f565b8114613f1957600080fd5b50565b613f2581613dbb565b8114613f3057600080fd5b5056fea264697066735822122038f19a18fcea114bd85a5f9a28e3a4edc25612e953e46c7d93db40518d731b8b64736f6c63430008000033",
  "immutableReferences": {},
  "source": "// contracts/GameItem.sol\r\n// SPDX-License-Identifier: MIT\r\npragma solidity ^0.8.0;\r\n\r\nimport \"@openzeppelin/contracts-upgradeable/token/ERC721/ERC721Upgradeable.sol\";\r\nimport \"@openzeppelin/contracts-upgradeable/token/ERC721/extensions/ERC721EnumerableUpgradeable.sol\";\r\nimport \"@openzeppelin/contracts-upgradeable/utils/CountersUpgradeable.sol\";\r\nimport \"@openzeppelin/contracts-upgradeable/access/OwnableUpgradeable.sol\";\r\n\r\ncontract MyCollectible is ERC721EnumerableUpgradeable, OwnableUpgradeable {\r\n    using CountersUpgradeable for CountersUpgradeable.Counter;\r\n    CountersUpgradeable.Counter public groupIds;\r\n    uint256 _groupStartPointer;\r\n\r\n    mapping (uint => address) public creatorOf;\r\n    mapping (uint => uint) public groupOf;\r\n    mapping (uint => string) private _groupURI;\r\n    mapping (uint => uint) public groupStart;\r\n    mapping (uint => uint) public groupCurrentSupply;\r\n    mapping (uint => uint) public groupMaxSupply;\r\n\r\n    function initialize() initializer public {\r\n        __ERC721_init(\"MyCollectible\", \"MCO\");\r\n        OwnableUpgradeable.__Ownable_init();\r\n    }\r\n\r\n    function publish(address to, uint256 maxSupply, string memory _tokenURI)\r\n        public onlyOwner\r\n        returns (uint256)\r\n    {\r\n        groupIds.increment();\r\n        uint256 newItemId = groupIds.current();\r\n        uint256 startId = _groupStartPointer + 1;\r\n        groupStart[newItemId] = startId;\r\n        groupMaxSupply[newItemId] = maxSupply;\r\n        _groupURI[newItemId] = _tokenURI;\r\n        creatorOf[newItemId] = to;\r\n        _groupStartPointer += maxSupply;\r\n\r\n        _mint(to, startId);\r\n        groupOf[startId] = newItemId;\r\n        groupCurrentSupply[newItemId] = 1;\r\n        return newItemId;\r\n    }\r\n\r\n    function claim(address to, uint256 groupId)\r\n        public \r\n        returns (uint256)\r\n    {\r\n        require(groupCurrentSupply[groupId] < groupMaxSupply[groupId], \"All tokens of this group has been minted.\");\r\n        uint256 startId = groupStart[groupId];\r\n        require(ownerOf(startId) == msg.sender || getApproved(startId) == msg.sender, \"You don't have the access to mint this token.\");\r\n        uint256 newtokenId = startId + groupCurrentSupply[groupId];\r\n\r\n        _mint(to, newtokenId);\r\n        groupOf[newtokenId] = groupId;\r\n        groupCurrentSupply[groupId] += 1;\r\n        return newtokenId;\r\n    }\r\n\r\n    function tokenURI(uint256 tokenId)\r\n        public view override\r\n        returns (string memory)\r\n    {\r\n        uint256 groupId = groupOf[tokenId];\r\n        return _groupURI[groupId];\r\n    }\r\n}",
  "sourcePath": "C:/Users/Weixuan/Documents/github/nft-upgradeable/contracts/MyCollectible.sol",
  "compiler": {
    "name": "solc",
    "version": "0.8.0+commit.c7dfd78e.Emscripten.clang"
  },
  "schemaVersion": "3.4.0",
  "updatedAt": "2021-05-29T13:24:14.192Z",
  "networkType": "ethereum",
  "devdoc": {
    "kind": "dev",
    "methods": {
      "approve(address,uint256)": {
        "details": "See {IERC721-approve}."
      },
      "balanceOf(address)": {
        "details": "See {IERC721-balanceOf}."
      },
      "getApproved(uint256)": {
        "details": "See {IERC721-getApproved}."
      },
      "isApprovedForAll(address,address)": {
        "details": "See {IERC721-isApprovedForAll}."
      },
      "name()": {
        "details": "See {IERC721Metadata-name}."
      },
      "owner()": {
        "details": "Returns the address of the current owner."
      },
      "ownerOf(uint256)": {
        "details": "See {IERC721-ownerOf}."
      },
      "renounceOwnership()": {
        "details": "Leaves the contract without owner. It will not be possible to call `onlyOwner` functions anymore. Can only be called by the current owner. NOTE: Renouncing ownership will leave the contract without an owner, thereby removing any functionality that is only available to the owner."
      },
      "safeTransferFrom(address,address,uint256)": {
        "details": "See {IERC721-safeTransferFrom}."
      },
      "safeTransferFrom(address,address,uint256,bytes)": {
        "details": "See {IERC721-safeTransferFrom}."
      },
      "setApprovalForAll(address,bool)": {
        "details": "See {IERC721-setApprovalForAll}."
      },
      "supportsInterface(bytes4)": {
        "details": "See {IERC165-supportsInterface}."
      },
      "symbol()": {
        "details": "See {IERC721Metadata-symbol}."
      },
      "tokenByIndex(uint256)": {
        "details": "See {IERC721Enumerable-tokenByIndex}."
      },
      "tokenOfOwnerByIndex(address,uint256)": {
        "details": "See {IERC721Enumerable-tokenOfOwnerByIndex}."
      },
      "tokenURI(uint256)": {
        "details": "See {IERC721Metadata-tokenURI}."
      },
      "totalSupply()": {
        "details": "See {IERC721Enumerable-totalSupply}."
      },
      "transferFrom(address,address,uint256)": {
        "details": "See {IERC721-transferFrom}."
      },
      "transferOwnership(address)": {
        "details": "Transfers ownership of the contract to a new account (`newOwner`). Can only be called by the current owner."
      }
    },
    "version": 1
  },
  "userdoc": {
    "kind": "user",
    "methods": {},
    "version": 1
  }
}