{
  "contractName": "WeddingGift",
  "abi": [
    {
      "inputs": [
        {
          "internalType": "address",
          "name": "weddingAddress_",
          "type": "address"
        },
        {
          "internalType": "address",
          "name": "punkAddress_",
          "type": "address"
        }
      ],
      "stateMutability": "nonpayable",
      "type": "constructor"
    },
    {
      "inputs": [
        {
          "internalType": "address",
          "name": "",
          "type": "address"
        },
        {
          "internalType": "uint256",
          "name": "",
          "type": "uint256"
        }
      ],
      "name": "claimed",
      "outputs": [
        {
          "internalType": "bool",
          "name": "",
          "type": "bool"
        }
      ],
      "stateMutability": "view",
      "type": "function",
      "constant": true
    },
    {
      "inputs": [],
      "name": "owner",
      "outputs": [
        {
          "internalType": "address",
          "name": "",
          "type": "address"
        }
      ],
      "stateMutability": "view",
      "type": "function",
      "constant": true
    },
    {
      "inputs": [],
      "name": "punkAddress",
      "outputs": [
        {
          "internalType": "address",
          "name": "",
          "type": "address"
        }
      ],
      "stateMutability": "view",
      "type": "function",
      "constant": true
    },
    {
      "inputs": [],
      "name": "punkId",
      "outputs": [
        {
          "internalType": "uint256",
          "name": "",
          "type": "uint256"
        }
      ],
      "stateMutability": "view",
      "type": "function",
      "constant": true
    },
    {
      "inputs": [],
      "name": "weddingAddress",
      "outputs": [
        {
          "internalType": "address",
          "name": "",
          "type": "address"
        }
      ],
      "stateMutability": "view",
      "type": "function",
      "constant": true
    },
    {
      "inputs": [
        {
          "internalType": "address",
          "name": "loser",
          "type": "address"
        },
        {
          "internalType": "uint256",
          "name": "poolId",
          "type": "uint256"
        }
      ],
      "name": "isLucky",
      "outputs": [
        {
          "internalType": "bool",
          "name": "",
          "type": "bool"
        }
      ],
      "stateMutability": "view",
      "type": "function",
      "constant": true
    },
    {
      "inputs": [
        {
          "internalType": "uint256",
          "name": "start",
          "type": "uint256"
        },
        {
          "internalType": "uint256",
          "name": "end",
          "type": "uint256"
        },
        {
          "internalType": "address",
          "name": "to",
          "type": "address"
        }
      ],
      "name": "returnNFT",
      "outputs": [],
      "stateMutability": "nonpayable",
      "type": "function"
    },
    {
      "inputs": [
        {
          "internalType": "uint256",
          "name": "poolId",
          "type": "uint256"
        }
      ],
      "name": "claimPunk",
      "outputs": [],
      "stateMutability": "nonpayable",
      "type": "function"
    },
    {
      "inputs": [
        {
          "internalType": "address",
          "name": "loser",
          "type": "address"
        }
      ],
      "name": "getInfo",
      "outputs": [
        {
          "components": [
            {
              "internalType": "uint256",
              "name": "luckyNumber",
              "type": "uint256"
            },
            {
              "internalType": "bool",
              "name": "isClaimed",
              "type": "bool"
            },
            {
              "internalType": "bool",
              "name": "isLucky",
              "type": "bool"
            }
          ],
          "internalType": "struct WeddingGift.Info[8]",
          "name": "",
          "type": "tuple[8]"
        }
      ],
      "stateMutability": "view",
      "type": "function",
      "constant": true
    }
  ],
  "bytecode": "0x60806040523480156200001157600080fd5b506040516200129c3803806200129c833981810160405281019062000037919062000120565b816000806101000a81548173ffffffffffffffffffffffffffffffffffffffff021916908373ffffffffffffffffffffffffffffffffffffffff16021790555080600160006101000a81548173ffffffffffffffffffffffffffffffffffffffff021916908373ffffffffffffffffffffffffffffffffffffffff16021790555033600260006101000a81548173ffffffffffffffffffffffffffffffffffffffff021916908373ffffffffffffffffffffffffffffffffffffffff16021790555060d56003819055505050620001af565b6000815190506200011a8162000195565b92915050565b600080604083850312156200013457600080fd5b6000620001448582860162000109565b9250506020620001578582860162000109565b9150509250929050565b60006200016e8262000175565b9050919050565b600073ffffffffffffffffffffffffffffffffffffffff82169050919050565b620001a08162000161565b8114620001ac57600080fd5b50565b6110dd80620001bf6000396000f3fe608060405234801561001057600080fd5b50600436106100935760003560e01c8063ad5ae76f11610066578063ad5ae76f14610120578063b9aba48d1461013c578063cde04d831461015a578063d266ffb714610178578063ffdd5cf1146101a857610093565b8063311605c2146100985780634dd6c8de146100b45780636ab10b01146100e45780638da5cb5b14610102575b600080fd5b6100b260048036038101906100ad9190610c43565b6101d8565b005b6100ce60048036038101906100c99190610bb5565b610325565b6040516100db9190610ea5565b60405180910390f35b6100ec61035e565b6040516100f99190610e0e565b60405180910390f35b61010a610382565b6040516101179190610e0e565b60405180910390f35b61013a60048036038101906101359190610bf1565b6103a8565b005b6101446105f5565b6040516101519190610e0e565b60405180910390f35b61016261061b565b60405161016f9190610f00565b60405180910390f35b610192600480360381019061018d9190610bb5565b610621565b60405161019f9190610ea5565b60405180910390f35b6101c260048036038101906101bd9190610b8c565b61089a565b6040516101cf9190610e89565b60405180910390f35b600260009054906101000a900473ffffffffffffffffffffffffffffffffffffffff1673ffffffffffffffffffffffffffffffffffffffff163373ffffffffffffffffffffffffffffffffffffffff1614610268576040517f08c379a000000000000000000000000000000000000000000000000000000000815260040161025f90610ec0565b60405180910390fd5b6000600160009054906101000a900473ffffffffffffffffffffffffffffffffffffffff16905060008490505b83811161031e578173ffffffffffffffffffffffffffffffffffffffff166323b872dd3085846040518463ffffffff1660e01b81526004016102d993929190610e29565b600060405180830381600087803b1580156102f357600080fd5b505af1158015610307573d6000803e3d6000fd5b50505050808061031690610fa1565b915050610295565b5050505050565b6004602052816000526040600020816008811061034157600080fd5b60209182820401919006915091509054906101000a900460ff1681565b60008054906101000a900473ffffffffffffffffffffffffffffffffffffffff1681565b600260009054906101000a900473ffffffffffffffffffffffffffffffffffffffff1681565b6103b23382610621565b6103f1576040517f08c379a00000000000000000000000000000000000000000000000000000000081526004016103e890610ee0565b60405180910390fd5b6001600460003373ffffffffffffffffffffffffffffffffffffffff1673ffffffffffffffffffffffffffffffffffffffff168152602001908152602001600020826008811061046a577f4e487b7100000000000000000000000000000000000000000000000000000000600052603260045260246000fd5b602091828204019190066101000a81548160ff0219169083151502179055506000600160009054906101000a900473ffffffffffffffffffffffffffffffffffffffff16905060078214156105675760005b6005811015610561578173ffffffffffffffffffffffffffffffffffffffff166323b872dd30336003546040518463ffffffff1660e01b815260040161050493929190610e29565b600060405180830381600087803b15801561051e57600080fd5b505af1158015610532573d6000803e3d6000fd5b505050506003600081548092919061054990610fa1565b9190505550808061055990610fa1565b9150506104bc565b506105f1565b8073ffffffffffffffffffffffffffffffffffffffff166323b872dd30336003546040518463ffffffff1660e01b81526004016105a693929190610e29565b600060405180830381600087803b1580156105c057600080fd5b505af11580156105d4573d6000803e3d6000fd5b50505050600360008154809291906105eb90610fa1565b91905055505b5050565b600160009054906101000a900473ffffffffffffffffffffffffffffffffffffffff1681565b60035481565b60008060008054906101000a900473ffffffffffffffffffffffffffffffffffffffff16905060008173ffffffffffffffffffffffffffffffffffffffff1663fb7584eb86866040518363ffffffff1660e01b8152600401610684929190610e60565b60206040518083038186803b15801561069c57600080fd5b505afa1580156106b0573d6000803e3d6000fd5b505050506040513d601f19601f820116820180604052508101906106d49190610c1a565b9050600081148061076e5750600460003373ffffffffffffffffffffffffffffffffffffffff1673ffffffffffffffffffffffffffffffffffffffff1681526020019081526020016000208460088110610757577f4e487b7100000000000000000000000000000000000000000000000000000000600052603260045260246000fd5b602091828204019190069054906101000a900460ff165b1561077e57600092505050610894565b60058414801561079b575060006005826107989190610fea565b14155b156107ab57600092505050610894565b6004841480156107c8575060006014826107c59190610fea565b14155b156107d857600092505050610894565b6003841480156107f557506000603c826107f29190610fea565b14155b1561080557600092505050610894565b6002841480156108225750600060788261081f9190610fea565b14155b1561083257600092505050610894565b60018414801561084f5750600060f08261084c9190610fea565b14155b1561085f57600092505050610894565b60008414801561087d575060006101f48261087a9190610fea565b14155b1561088d57600092505050610894565b6001925050505b92915050565b6108a2610afa565b60008060009054906101000a900473ffffffffffffffffffffffffffffffffffffffff1690506108d0610afa565b60005b6008811015610aef578273ffffffffffffffffffffffffffffffffffffffff1663fb7584eb86836040518363ffffffff1660e01b8152600401610917929190610e60565b60206040518083038186803b15801561092f57600080fd5b505afa158015610943573d6000803e3d6000fd5b505050506040513d601f19601f820116820180604052508101906109679190610c1a565b8282600881106109a0577f4e487b7100000000000000000000000000000000000000000000000000000000600052603260045260246000fd5b602002015160000181815250506109b78582610621565b8282600881106109f0577f4e487b7100000000000000000000000000000000000000000000000000000000600052603260045260246000fd5b60200201516040019015159081151581525050600460008673ffffffffffffffffffffffffffffffffffffffff1673ffffffffffffffffffffffffffffffffffffffff1681526020019081526020016000208160088110610a7a577f4e487b7100000000000000000000000000000000000000000000000000000000600052603260045260246000fd5b602091828204019190069054906101000a900460ff16828260088110610ac9577f4e487b7100000000000000000000000000000000000000000000000000000000600052603260045260246000fd5b602002015160200190151590811515815250508080610ae790610fa1565b9150506108d3565b508092505050919050565b6040518061010001604052806008905b610b12610b28565b815260200190600190039081610b0a5790505090565b6040518060600160405280600081526020016000151581526020016000151581525090565b600081359050610b5c81611079565b92915050565b600081359050610b7181611090565b92915050565b600081519050610b8681611090565b92915050565b600060208284031215610b9e57600080fd5b6000610bac84828501610b4d565b91505092915050565b60008060408385031215610bc857600080fd5b6000610bd685828601610b4d565b9250506020610be785828601610b62565b9150509250929050565b600060208284031215610c0357600080fd5b6000610c1184828501610b62565b91505092915050565b600060208284031215610c2c57600080fd5b6000610c3a84828501610b77565b91505092915050565b600080600060608486031215610c5857600080fd5b6000610c6686828701610b62565b9350506020610c7786828701610b62565b9250506040610c8886828701610b4d565b9150509250925092565b6000610c9e8383610dae565b60608301905092915050565b610cb381610f59565b82525050565b610cc281610f25565b610ccc8184610f3d565b9250610cd782610f1b565b8060005b83811015610d08578151610cef8782610c92565b9650610cfa83610f30565b925050600181019050610cdb565b505050505050565b610d1981610f6b565b82525050565b610d2881610f6b565b82525050565b6000610d3b601183610f48565b91507f596f7520617265206e6f742061646d696e0000000000000000000000000000006000830152602082019050919050565b6000610d7b601183610f48565b91507f596f7520617265206e6f74206c75636b790000000000000000000000000000006000830152602082019050919050565b606082016000820151610dc46000850182610df0565b506020820151610dd76020850182610d10565b506040820151610dea6040850182610d10565b50505050565b610df981610f97565b82525050565b610e0881610f97565b82525050565b6000602082019050610e236000830184610caa565b92915050565b6000606082019050610e3e6000830186610caa565b610e4b6020830185610caa565b610e586040830184610dff565b949350505050565b6000604082019050610e756000830185610caa565b610e826020830184610dff565b9392505050565b600061030082019050610e9f6000830184610cb9565b92915050565b6000602082019050610eba6000830184610d1f565b92915050565b60006020820190508181036000830152610ed981610d2e565b9050919050565b60006020820190508181036000830152610ef981610d6e565b9050919050565b6000602082019050610f156000830184610dff565b92915050565b6000819050919050565b600060089050919050565b6000602082019050919050565b600081905092915050565b600082825260208201905092915050565b6000610f6482610f77565b9050919050565b60008115159050919050565b600073ffffffffffffffffffffffffffffffffffffffff82169050919050565b6000819050919050565b6000610fac82610f97565b91507fffffffffffffffffffffffffffffffffffffffffffffffffffffffffffffffff821415610fdf57610fde61101b565b5b600182019050919050565b6000610ff582610f97565b915061100083610f97565b9250826110105761100f61104a565b5b828206905092915050565b7f4e487b7100000000000000000000000000000000000000000000000000000000600052601160045260246000fd5b7f4e487b7100000000000000000000000000000000000000000000000000000000600052601260045260246000fd5b61108281610f59565b811461108d57600080fd5b50565b61109981610f97565b81146110a457600080fd5b5056fea2646970667358221220f130179327061a9fb1428d5df92cae54ebf11eb065cf0b4cefb1f7697e3e83ec64736f6c63430008000033",
  "immutableReferences": {},
  "source": "// contracts/LowbMarket.sol\r\n// SPDX-License-Identifier: MIT\r\npragma solidity ^0.8.0;\r\n\r\nimport \"./Wedding.sol\";\r\nimport \"@openzeppelin/contracts/token/ERC721/IERC721.sol\";\r\n\r\ncontract WeddingGift {\r\n\r\n    address public weddingAddress;\r\n    address public punkAddress;\r\n    address public owner;\r\n    uint public punkId;\r\n    mapping (address => bool[8]) public claimed;\r\n\r\n    struct Info {\r\n        uint luckyNumber;\r\n        bool isClaimed;\r\n        bool isLucky;\r\n    }\r\n\r\n    constructor(address weddingAddress_, address punkAddress_) {\r\n        weddingAddress = weddingAddress_;\r\n        punkAddress = punkAddress_;\r\n        owner = msg.sender;\r\n        punkId = 213;\r\n    }\r\n\r\n    function isLucky(address loser, uint poolId) public view returns (bool) {\r\n        Wedding wedding = Wedding(weddingAddress);\r\n        uint luckyNumber = wedding.luckyNumberOf(loser, poolId);\r\n        if (luckyNumber == 0 || claimed[msg.sender][poolId]) return false;\r\n        if (poolId == 5 && luckyNumber % 5 != 0) return false;\r\n        if (poolId == 4 && luckyNumber % 20 != 0) return false;\r\n        if (poolId == 3 && luckyNumber % 60 != 0) return false;\r\n        if (poolId == 2 && luckyNumber % 120 != 0) return false;\r\n        if (poolId == 1 && luckyNumber % 240 != 0) return false;\r\n        if (poolId == 0 && luckyNumber % 500 != 0) return false;\r\n        return true;\r\n    }\r\n\r\n    function returnNFT(uint start, uint end, address to) public {\r\n        require(msg.sender == owner, \"You are not admin\");\r\n        IERC721 nft = IERC721(punkAddress);\r\n        for (uint i=start; i<=end; i++) {\r\n            nft.transferFrom(address(this), to, i);\r\n        }\r\n    }\r\n\r\n    function claimPunk(uint poolId) public {\r\n        require(isLucky(msg.sender, poolId), \"You are not lucky\");\r\n        claimed[msg.sender][poolId] = true;\r\n        IERC721 nft = IERC721(punkAddress);\r\n        if (poolId == 7) {\r\n            for (uint i=0; i<5; i++) {\r\n                nft.transferFrom(address(this), msg.sender, punkId);\r\n                punkId ++;\r\n            }\r\n        }\r\n        else {\r\n            nft.transferFrom(address(this), msg.sender, punkId);\r\n            punkId ++;\r\n        }\r\n    }\r\n\r\n    function getInfo(address loser) public view returns (Info[8] memory) {\r\n        Wedding wedding = Wedding(weddingAddress);\r\n        Info[8] memory infos;\r\n        for (uint i=0; i<8; i++) {\r\n            infos[i].luckyNumber = wedding.luckyNumberOf(loser, i);\r\n            infos[i].isLucky = isLucky(loser, i);\r\n            infos[i].isClaimed = claimed[loser][i];\r\n        }\r\n        return infos;\r\n    }\r\n\r\n}",
  "sourcePath": "C:/Users/Weixuan/Documents/truffle/wedding/contracts/WeddingGift.sol",
  "compiler": {
    "name": "solc",
    "version": "0.8.0+commit.c7dfd78e.Emscripten.clang"
  },
  "schemaVersion": "3.4.0",
  "updatedAt": "2021-09-03T09:19:47.283Z",
  "networkType": "ethereum",
  "devdoc": {
    "kind": "dev",
    "methods": {},
    "version": 1
  },
  "userdoc": {
    "kind": "user",
    "methods": {},
    "version": 1
  }
}